{
  "_format": "hh-sol-artifact-1",
  "contractName": "HashGenerator",
  "sourceName": "contracts/utils/HashGenerator.sol",
  "abi": [
    {
      "inputs": [],
      "name": "getHash",
      "outputs": [
        {
          "internalType": "bytes32",
          "name": "",
          "type": "bytes32"
        }
      ],
      "stateMutability": "pure",
      "type": "function"
    }
  ],
  "bytecode": "0x608080604052346100155760d1908161001b8239f35b600080fdfe60806004361015600e57600080fd5b600090813560e01c63d13319c414602457600080fd5b3460975781600319360112609757602081017f6b616c6569646f2e4b4c442e746f74616c536861726573000000000000000000815260178252604082019180831067ffffffffffffffff84111760835760209350826040525190208152f35b634e487b7160e01b84526041600452602484fd5b5080fdfea26469706673582212205b99409c9ccff7229eb7d356ff1c6916be7aa79552d0ed7d5a7149dbead97d6f64736f6c63430008140033",
  "linkReferences": {},
  "deployedLinkReferences": {}
}