{
  "_format": "hh-sol-artifact-1",
  "contractName": "TestERC20PermitAllowed",
  "sourceName": "contracts/dex-v3/periphery/test/TestERC20PermitAllowed.sol",
  "abi": [
    {
      "inputs": [
        {
          "internalType": "uint256",
          "name": "amountToMint",
          "type": "uint256"
        }
      ],
      "stateMutability": "nonpayable",
      "type": "constructor"
    },
    {
      "inputs": [
        {
          "internalType": "address",
          "name": "",
          "type": "address"
        },
        {
          "internalType": "address",
          "name": "",
          "type": "address"
        }
      ],
      "name": "allowance",
      "outputs": [
        {
          "internalType": "uint256",
          "name": "",
          "type": "uint256"
        }
      ],
      "stateMutability": "view",
      "type": "function"
    },
    {
      "inputs": [
        {
          "internalType": "address",
          "name": "spender",
          "type": "address"
        },
        {
          "internalType": "uint256",
          "name": "amount",
          "type": "uint256"
        }
      ],
      "name": "approve",
      "outputs": [
        {
          "internalType": "bool",
          "name": "",
          "type": "bool"
        }
      ],
      "stateMutability": "nonpayable",
      "type": "function"
    },
    {
      "inputs": [
        {
          "internalType": "address",
          "name": "",
          "type": "address"
        }
      ],
      "name": "balanceOf",
      "outputs": [
        {
          "internalType": "uint256",
          "name": "",
          "type": "uint256"
        }
      ],
      "stateMutability": "view",
      "type": "function"
    },
    {
      "inputs": [],
      "name": "decimals",
      "outputs": [
        {
          "internalType": "uint8",
          "name": "",
          "type": "uint8"
        }
      ],
      "stateMutability": "view",
      "type": "function"
    },
    {
      "inputs": [],
      "name": "name",
      "outputs": [
        {
          "internalType": "string",
          "name": "",
          "type": "string"
        }
      ],
      "stateMutability": "view",
      "type": "function"
    },
    {
      "inputs": [
        {
          "internalType": "address",
          "name": "",
          "type": "address"
        }
      ],
      "name": "nonces",
      "outputs": [
        {
          "internalType": "uint256",
          "name": "",
          "type": "uint256"
        }
      ],
      "stateMutability": "view",
      "type": "function"
    },
    {
      "inputs": [
        {
          "internalType": "address",
          "name": "holder",
          "type": "address"
        },
        {
          "internalType": "address",
          "name": "spender",
          "type": "address"
        },
        {
          "internalType": "uint256",
          "name": "nonce",
          "type": "uint256"
        },
        {
          "internalType": "uint256",
          "name": "expiry",
          "type": "uint256"
        },
        {
          "internalType": "bool",
          "name": "allowed",
          "type": "bool"
        },
        {
          "internalType": "uint8",
          "name": "v",
          "type": "uint8"
        },
        {
          "internalType": "bytes32",
          "name": "r",
          "type": "bytes32"
        },
        {
          "internalType": "bytes32",
          "name": "s",
          "type": "bytes32"
        }
      ],
      "name": "permit",
      "outputs": [],
      "stateMutability": "nonpayable",
      "type": "function"
    },
    {
      "inputs": [],
      "name": "symbol",
      "outputs": [
        {
          "internalType": "string",
          "name": "",
          "type": "string"
        }
      ],
      "stateMutability": "view",
      "type": "function"
    },
    {
      "inputs": [],
      "name": "totalSupply",
      "outputs": [
        {
          "internalType": "uint256",
          "name": "",
          "type": "uint256"
        }
      ],
      "stateMutability": "view",
      "type": "function"
    },
    {
      "inputs": [
        {
          "internalType": "address",
          "name": "to",
          "type": "address"
        },
        {
          "internalType": "uint256",
          "name": "amount",
          "type": "uint256"
        }
      ],
      "name": "transfer",
      "outputs": [
        {
          "internalType": "bool",
          "name": "",
          "type": "bool"
        }
      ],
      "stateMutability": "nonpayable",
      "type": "function"
    },
    {
      "inputs": [
        {
          "internalType": "address",
          "name": "from",
          "type": "address"
        },
        {
          "internalType": "address",
          "name": "to",
          "type": "address"
        },
        {
          "internalType": "uint256",
          "name": "amount",
          "type": "uint256"
        }
      ],
      "name": "transferFrom",
      "outputs": [
        {
          "internalType": "bool",
          "name": "",
          "type": "bool"
        }
      ],
      "stateMutability": "nonpayable",
      "type": "function"
    }
  ],
  "bytecode": "0x60c0604052600a6080819052690546573742045524332360b41b60a090815261002b91600091906100d0565b5060408051808201909152600480825263151154d560e21b6020909201918252610057916001916100d0565b506002805460ff1916601217905534801561007157600080fd5b5060405161078a38038061078a8339818101604052602081101561009457600080fd5b50516100a033826100a6565b50610171565b60038054820190556001600160a01b03909116600090815260046020526040902080549091019055565b828054600181600116156101000203166002900490600052602060002090601f016020900481019282610106576000855561014c565b82601f1061011f57805160ff191683800117855561014c565b8280016001018555821561014c579182015b8281111561014c578251825591602001919060010190610131565b5061015892915061015c565b5090565b5b80821115610158576000815560010161015d565b61060a806101806000396000f3fe608060405234801561001057600080fd5b50600436106100a95760003560e01c806370a082311161007157806370a08231146101d95780637ecebe00146101ff5780638fcbaf0c1461022557806395d89b4114610281578063a9059cbb14610289578063dd62ed3e146102b5576100a9565b806306fdde03146100ae578063095ea7b31461012b57806318160ddd1461016b57806323b872dd14610185578063313ce567146101bb575b600080fd5b6100b66102e3565b6040805160208082528351818301528351919283929083019185019080838360005b838110156100f05781810151838201526020016100d8565b50505050905090810190601f16801561011d5780820380516001836020036101000a031916815260200191505b509250505060405180910390f35b6101576004803603604081101561014157600080fd5b506001600160a01b038135169060200135610371565b604080519115158252519081900360200190f35b61017361039e565b60408051918252519081900360200190f35b6101576004803603606081101561019b57600080fd5b506001600160a01b038135811691602081013590911690604001356103a4565b6101c36103f5565b6040805160ff9092168252519081900360200190f35b610173600480360360208110156101ef57600080fd5b50356001600160a01b03166103fe565b6101736004803603602081101561021557600080fd5b50356001600160a01b0316610410565b61027f600480360361010081101561023c57600080fd5b506001600160a01b038135811691602081013590911690604081013590606081013590608081013515159060ff60a0820135169060c08101359060e00135610422565b005b6100b66104ff565b6101576004803603604081101561029f57600080fd5b506001600160a01b038135169060200135610559565b610173600480360360408110156102cb57600080fd5b506001600160a01b038135811691602001351661058c565b6000805460408051602060026001851615610100026000190190941693909304601f810184900484028201840190925281815292918301828280156103695780601f1061033e57610100808354040283529160200191610369565b820191906000526020600020905b81548152906001019060200180831161034c57829003601f168201915b505050505081565b3360009081526005602090815260408083206001600160a01b039590951683529390529190912055600190565b60035481565b6001600160a01b039283166000818152600560209081526040808320338452825280832080548690039055928252600490528181208054849003905592909316825291902080549091019055600190565b60025460ff1681565b60046020526000908152604090205481565b60066020526000908152604090205481565b6001600160a01b03881660009081526006602052604090205486146104785760405162461bcd60e51b815260040180806020018281038252602b8152602001806105aa602b913960400191505060405180910390fd5b6001600160a01b03881660009081526006602052604090208054600101905583156104cc576001600160a01b038089166000908152600560209081526040808320938b1683529290522060001990556104f5565b6001600160a01b038089166000908152600560209081526040808320938b168352929052908120555b5050505050505050565b60018054604080516020600284861615610100026000190190941693909304601f810184900484028201840190925281815292918301828280156103695780601f1061033e57610100808354040283529160200191610369565b33600090815260046020526040808220805484900390556001600160a01b03841682529020805482019055600192915050565b60056020908152600092835260408084209091529082529020548156fe5465737445524332305065726d6974416c6c6f7765643a3a7065726d69743a2077726f6e67206e6f6e6365a26469706673582212200f41666ba184d89272ab2fe19d52c8c72e0fbbf2b5ceb821905daa83053c903c64736f6c63430007060033",
  "linkReferences": {},
  "deployedLinkReferences": {}
}