{
  "_format": "hh-sol-artifact-1",
  "contractName": "MasterChef",
  "sourceName": "contracts/dex/core/MasterChef.sol",
  "abi": [
    {
      "inputs": [
        {
          "internalType": "contract IERC20",
          "name": "_kld",
          "type": "address"
        },
        {
          "internalType": "contract IERC20",
          "name": "_syrup",
          "type": "address"
        },
        {
          "internalType": "address",
          "name": "_devaddr",
          "type": "address"
        },
        {
          "internalType": "uint256",
          "name": "_kldPerBlock",
          "type": "uint256"
        },
        {
          "internalType": "uint256",
          "name": "_startBlock",
          "type": "uint256"
        },
        {
          "internalType": "uint256",
          "name": "_endBlock",
          "type": "uint256"
        }
      ],
      "stateMutability": "nonpayable",
      "type": "constructor"
    },
    {
      "anonymous": false,
      "inputs": [
        {
          "indexed": true,
          "internalType": "address",
          "name": "user",
          "type": "address"
        },
        {
          "indexed": true,
          "internalType": "uint256",
          "name": "pid",
          "type": "uint256"
        },
        {
          "indexed": false,
          "internalType": "uint256",
          "name": "amount",
          "type": "uint256"
        }
      ],
      "name": "Deposit",
      "type": "event"
    },
    {
      "anonymous": false,
      "inputs": [
        {
          "indexed": true,
          "internalType": "address",
          "name": "user",
          "type": "address"
        },
        {
          "indexed": true,
          "internalType": "uint256",
          "name": "pid",
          "type": "uint256"
        },
        {
          "indexed": false,
          "internalType": "uint256",
          "name": "amount",
          "type": "uint256"
        }
      ],
      "name": "EmergencyWithdraw",
      "type": "event"
    },
    {
      "anonymous": false,
      "inputs": [
        {
          "indexed": true,
          "internalType": "address",
          "name": "user",
          "type": "address"
        },
        {
          "indexed": true,
          "internalType": "uint256",
          "name": "pid",
          "type": "uint256"
        },
        {
          "indexed": false,
          "internalType": "uint256",
          "name": "amount",
          "type": "uint256"
        }
      ],
      "name": "Withdraw",
      "type": "event"
    },
    {
      "inputs": [],
      "name": "BONUS_MULTIPLIER",
      "outputs": [
        {
          "internalType": "uint256",
          "name": "",
          "type": "uint256"
        }
      ],
      "stateMutability": "view",
      "type": "function"
    },
    {
      "inputs": [
        {
          "internalType": "uint256",
          "name": "_allocPoint",
          "type": "uint256"
        },
        {
          "internalType": "contract IERC20",
          "name": "_lpToken",
          "type": "address"
        },
        {
          "internalType": "bool",
          "name": "_withUpdate",
          "type": "bool"
        }
      ],
      "name": "add",
      "outputs": [],
      "stateMutability": "nonpayable",
      "type": "function"
    },
    {
      "inputs": [
        {
          "internalType": "uint256",
          "name": "_pid",
          "type": "uint256"
        },
        {
          "internalType": "uint256",
          "name": "_amount",
          "type": "uint256"
        }
      ],
      "name": "deposit",
      "outputs": [],
      "stateMutability": "nonpayable",
      "type": "function"
    },
    {
      "inputs": [
        {
          "internalType": "address",
          "name": "_devaddr",
          "type": "address"
        }
      ],
      "name": "dev",
      "outputs": [],
      "stateMutability": "nonpayable",
      "type": "function"
    },
    {
      "inputs": [],
      "name": "devaddr",
      "outputs": [
        {
          "internalType": "address",
          "name": "",
          "type": "address"
        }
      ],
      "stateMutability": "view",
      "type": "function"
    },
    {
      "inputs": [
        {
          "internalType": "uint256",
          "name": "_pid",
          "type": "uint256"
        }
      ],
      "name": "emergencyWithdraw",
      "outputs": [],
      "stateMutability": "nonpayable",
      "type": "function"
    },
    {
      "inputs": [],
      "name": "endBlock",
      "outputs": [
        {
          "internalType": "uint256",
          "name": "",
          "type": "uint256"
        }
      ],
      "stateMutability": "view",
      "type": "function"
    },
    {
      "inputs": [
        {
          "internalType": "uint256",
          "name": "_from",
          "type": "uint256"
        },
        {
          "internalType": "uint256",
          "name": "_to",
          "type": "uint256"
        }
      ],
      "name": "getMultiplier",
      "outputs": [
        {
          "internalType": "uint256",
          "name": "",
          "type": "uint256"
        }
      ],
      "stateMutability": "view",
      "type": "function"
    },
    {
      "inputs": [],
      "name": "kld",
      "outputs": [
        {
          "internalType": "contract IERC20",
          "name": "",
          "type": "address"
        }
      ],
      "stateMutability": "view",
      "type": "function"
    },
    {
      "inputs": [],
      "name": "kldPerBlock",
      "outputs": [
        {
          "internalType": "uint256",
          "name": "",
          "type": "uint256"
        }
      ],
      "stateMutability": "view",
      "type": "function"
    },
    {
      "inputs": [],
      "name": "massUpdatePools",
      "outputs": [],
      "stateMutability": "nonpayable",
      "type": "function"
    },
    {
      "inputs": [
        {
          "internalType": "uint256",
          "name": "_pid",
          "type": "uint256"
        }
      ],
      "name": "migrate",
      "outputs": [],
      "stateMutability": "nonpayable",
      "type": "function"
    },
    {
      "inputs": [],
      "name": "migrator",
      "outputs": [
        {
          "internalType": "contract IMigratorChef",
          "name": "",
          "type": "address"
        }
      ],
      "stateMutability": "view",
      "type": "function"
    },
    {
      "inputs": [
        {
          "internalType": "uint256",
          "name": "_pid",
          "type": "uint256"
        },
        {
          "internalType": "address",
          "name": "_user",
          "type": "address"
        }
      ],
      "name": "pendingKld",
      "outputs": [
        {
          "internalType": "uint256",
          "name": "",
          "type": "uint256"
        }
      ],
      "stateMutability": "view",
      "type": "function"
    },
    {
      "inputs": [
        {
          "internalType": "uint256",
          "name": "",
          "type": "uint256"
        }
      ],
      "name": "poolInfo",
      "outputs": [
        {
          "internalType": "contract IERC20",
          "name": "lpToken",
          "type": "address"
        },
        {
          "internalType": "uint256",
          "name": "allocPoint",
          "type": "uint256"
        },
        {
          "internalType": "uint256",
          "name": "lastRewardBlock",
          "type": "uint256"
        },
        {
          "internalType": "uint256",
          "name": "accKldPerShare",
          "type": "uint256"
        }
      ],
      "stateMutability": "view",
      "type": "function"
    },
    {
      "inputs": [],
      "name": "poolLength",
      "outputs": [
        {
          "internalType": "uint256",
          "name": "",
          "type": "uint256"
        }
      ],
      "stateMutability": "view",
      "type": "function"
    },
    {
      "inputs": [
        {
          "internalType": "uint256",
          "name": "_pid",
          "type": "uint256"
        },
        {
          "internalType": "uint256",
          "name": "_allocPoint",
          "type": "uint256"
        },
        {
          "internalType": "bool",
          "name": "_withUpdate",
          "type": "bool"
        }
      ],
      "name": "set",
      "outputs": [],
      "stateMutability": "nonpayable",
      "type": "function"
    },
    {
      "inputs": [
        {
          "internalType": "contract IMigratorChef",
          "name": "_migrator",
          "type": "address"
        }
      ],
      "name": "setMigrator",
      "outputs": [],
      "stateMutability": "nonpayable",
      "type": "function"
    },
    {
      "inputs": [],
      "name": "startBlock",
      "outputs": [
        {
          "internalType": "uint256",
          "name": "",
          "type": "uint256"
        }
      ],
      "stateMutability": "view",
      "type": "function"
    },
    {
      "inputs": [],
      "name": "syrup",
      "outputs": [
        {
          "internalType": "contract IERC20",
          "name": "",
          "type": "address"
        }
      ],
      "stateMutability": "view",
      "type": "function"
    },
    {
      "inputs": [],
      "name": "totalAllocPoint",
      "outputs": [
        {
          "internalType": "uint256",
          "name": "",
          "type": "uint256"
        }
      ],
      "stateMutability": "view",
      "type": "function"
    },
    {
      "inputs": [
        {
          "internalType": "uint256",
          "name": "_pid",
          "type": "uint256"
        }
      ],
      "name": "updatePool",
      "outputs": [],
      "stateMutability": "nonpayable",
      "type": "function"
    },
    {
      "inputs": [
        {
          "internalType": "uint256",
          "name": "",
          "type": "uint256"
        },
        {
          "internalType": "address",
          "name": "",
          "type": "address"
        }
      ],
      "name": "userInfo",
      "outputs": [
        {
          "internalType": "uint256",
          "name": "amount",
          "type": "uint256"
        },
        {
          "internalType": "uint256",
          "name": "rewardDebt",
          "type": "uint256"
        }
      ],
      "stateMutability": "view",
      "type": "function"
    },
    {
      "inputs": [
        {
          "internalType": "uint256",
          "name": "_pid",
          "type": "uint256"
        },
        {
          "internalType": "uint256",
          "name": "_amount",
          "type": "uint256"
        }
      ],
      "name": "withdraw",
      "outputs": [],
      "stateMutability": "nonpayable",
      "type": "function"
    }
  ],
  "bytecode": "0x6080604052600060075534801561001557600080fd5b50604051611986380380611986833981810160405260c081101561003857600080fd5b508051602082015160408301516060840151608085015160a090950151600080546001600160a01b039687166001600160a01b03199182161790915560018054958716958216959095179094556002805495909316949093169390931790556003919091556008919091556009556118d1806100b56000396000f3fe608060405234801561001057600080fd5b50600436106101585760003560e01c8063630b5ba1116100c35780638dbb1e3a1161007c5780638dbb1e3a1461034757806393f1a40b1461036a578063d49e77cd146103af578063e2bbb158146103b7578063e8546e29146103da578063f16f62461461040657610158565b8063630b5ba1146102ba57806364482f79146102c25780637cd07e47146102ed57806386a952c4146103115780638aa28550146103195780638d88a90e1461032157610158565b80632e264e58116101155780632e264e5814610230578063441a3e7014610238578063454b06081461025b57806348cd4cb11461027857806351eb05a6146102805780635312ea8e1461029d57610158565b8063081e3eda1461015d578063083c6323146101775780631526fe271461017f57806317caf6f1146101cc5780631eaaa045146101d457806323cf31181461020a575b600080fd5b61016561040e565b60408051918252519081900360200190f35b610165610414565b61019c6004803603602081101561019557600080fd5b503561041a565b604080516001600160a01b0390951685526020850193909352838301919091526060830152519081900360800190f35b61016561045b565b610208600480360360608110156101ea57600080fd5b508035906001600160a01b0360208201351690604001351515610461565b005b6102086004803603602081101561022057600080fd5b50356001600160a01b03166105d5565b610165610656565b6102086004803603604081101561024e57600080fd5b508035906020013561065c565b6102086004803603602081101561027157600080fd5b50356107bb565b610165610a2b565b6102086004803603602081101561029657600080fd5b5035610a31565b610208600480360360208110156102b357600080fd5b5035610c55565b610208610cf0565b610208600480360360608110156102d857600080fd5b50803590602081013590604001351515610d13565b6102f5610ddd565b604080516001600160a01b039092168252519081900360200190f35b6102f5610dec565b610165610dfb565b6102086004803603602081101561033757600080fd5b50356001600160a01b0316610e00565b6101656004803603604081101561035d57600080fd5b5080359060200135610e6d565b6103966004803603604081101561038057600080fd5b50803590602001356001600160a01b0316610ebf565b6040805192835260208301919091528051918290030190f35b6102f5610ee3565b610208600480360360408110156103cd57600080fd5b5080359060200135610ef2565b610165600480360360408110156103f057600080fd5b50803590602001356001600160a01b0316611004565b6102f5611166565b60055490565b60095481565b6005818154811061042757fe5b600091825260209091206004909102018054600182015460028301546003909301546001600160a01b039092169350919084565b60075481565b6002546001600160a01b031633146104b2576040805162461bcd60e51b815260206004820152600f60248201526e30b2321d1037b7363c9037bbb732b960891b604482015290519081900360640190fd5b80156104c0576104c0610cf0565b600060085443116104d3576008546104d5565b435b6007549091506104e59085611175565b600755604080516080810182526001600160a01b0394851681526020810195865290810191825260006060820181815260058054600181018255925291517f036b6384b5eca791c62761152d0c79bb0604c104a5fb6f4eb0703f3154bb3db0600490920291820180546001600160a01b031916919096161790945593517f036b6384b5eca791c62761152d0c79bb0604c104a5fb6f4eb0703f3154bb3db1840155517f036b6384b5eca791c62761152d0c79bb0604c104a5fb6f4eb0703f3154bb3db28301555090517f036b6384b5eca791c62761152d0c79bb0604c104a5fb6f4eb0703f3154bb3db390910155565b6002546001600160a01b03163314610634576040805162461bcd60e51b815260206004820152601760248201527f7365744d69677261746f723a206f6e6c79206f776e6572000000000000000000604482015290519081900360640190fd5b600480546001600160a01b0319166001600160a01b0392909216919091179055565b60035481565b60006005838154811061066b57fe5b6000918252602080832086845260068252604080852033865290925292208054600490920290920192508311156106de576040805162461bcd60e51b81526020600482015260126024820152711dda5d1a191c985dce881b9bdd0819dbdbd960721b604482015290519081900360640190fd5b6106e784610a31565b6000610721826001015461071b64e8d4a51000610715876003015487600001546111c490919063ffffffff16565b90611227565b90611281565b905080156107335761073333826112d1565b831561075d5781546107459085611281565b8255825461075d906001600160a01b0316338661138b565b600383015482546107789164e8d4a5100091610715916111c4565b6001830155604080518581529051869133917ff279e6a1f5e320cca91135676d9cb6e44ca8a08c0b88342bcdb1144f6511b5689181900360200190a35050505050565b6004546001600160a01b031661080f576040805162461bcd60e51b815260206004820152601460248201527336b4b3b930ba329d1037379036b4b3b930ba37b960611b604482015290519081900360640190fd5b60006005828154811061081e57fe5b600091825260208083206004928302018054604080516370a0823160e01b81523095810195909552519195506001600160a01b0316939284926370a0823192602480840193829003018186803b15801561087757600080fd5b505afa15801561088b573d6000803e3d6000fd5b505050506040513d60208110156108a157600080fd5b50516004549091506108c0906001600160a01b038481169116836113dd565b6000600460009054906101000a90046001600160a01b03166001600160a01b031663ce5494bb846040518263ffffffff1660e01b815260040180826001600160a01b03168152602001915050602060405180830381600087803b15801561092657600080fd5b505af115801561093a573d6000803e3d6000fd5b505050506040513d602081101561095057600080fd5b5051604080516370a0823160e01b815230600482015290519192506001600160a01b038316916370a0823191602480820192602092909190829003018186803b15801561099c57600080fd5b505afa1580156109b0573d6000803e3d6000fd5b505050506040513d60208110156109c657600080fd5b50518214610a0a576040805162461bcd60e51b815260206004820152600c60248201526b1b5a59dc985d194e8818985960a21b604482015290519081900360640190fd5b83546001600160a01b0319166001600160a01b039190911617909255505050565b60085481565b600060058281548110610a4057fe5b9060005260206000209060040201905080600201544311610a615750610c52565b8054604080516370a0823160e01b815230600482015290516000926001600160a01b0316916370a08231916024808301926020929190829003018186803b158015610aab57600080fd5b505afa158015610abf573d6000803e3d6000fd5b505050506040513d6020811015610ad557600080fd5b5051905080610aeb575043600290910155610c52565b6000610afb836002015443610e6d565b90506000610b286007546107158660010154610b22600354876111c490919063ffffffff16565b906111c4565b6000546002549192506001600160a01b03908116916340c10f199116610b4f84600a611227565b6040518363ffffffff1660e01b815260040180836001600160a01b0316815260200182815260200192505050600060405180830381600087803b158015610b9557600080fd5b505af1158015610ba9573d6000803e3d6000fd5b505060008054604080516340c10f1960e01b81523060048201526024810187905290516001600160a01b0390921694506340c10f199350604480820193929182900301818387803b158015610bfd57600080fd5b505af1158015610c11573d6000803e3d6000fd5b50505050610c3f610c348461071564e8d4a51000856111c490919063ffffffff16565b600386015490611175565b6003850155505043600290920191909155505b50565b600060058281548110610c6457fe5b60009182526020808320858452600682526040808520338087529352909320805460049093029093018054909450610ca9926001600160a01b0391909116919061138b565b80546040805191825251849133917fbb757047c2b5f3974fe26b7c10f732e7bce710b0952a71082702781e62ae05959181900360200190a360008082556001909101555050565b60055460005b81811015610d0f57610d0781610a31565b600101610cf6565b5050565b6002546001600160a01b03163314610d64576040805162461bcd60e51b815260206004820152600f60248201526e39b2ba1d1037b7363c9037bbb732b960891b604482015290519081900360640190fd5b8015610d7257610d72610cf0565b610daf82610da960058681548110610d8657fe5b90600052602060002090600402016001015460075461128190919063ffffffff16565b90611175565b6007819055508160058481548110610dc357fe5b906000526020600020906004020160010181905550505050565b6004546001600160a01b031681565b6001546001600160a01b031681565b600181565b6002546001600160a01b03163314610e4b576040805162461bcd60e51b81526020600482015260096024820152686465763a207775743f60b81b604482015290519081900360640190fd5b600280546001600160a01b0319166001600160a01b0392909216919091179055565b60006009548211610e8e57610e876001610b228486611281565b9050610eb9565b6009548310610e9f57506000610eb9565b610e876001610b228560095461128190919063ffffffff16565b92915050565b60066020908152600092835260408084209091529082529020805460019091015482565b6002546001600160a01b031681565b600060058381548110610f0157fe5b60009182526020808320868452600682526040808520338652909252922060049091029091019150610f3284610a31565b805415610f7b576000610f67826001015461071b64e8d4a51000610715876003015487600001546111c490919063ffffffff16565b90508015610f7957610f7933826112d1565b505b8215610fa7578154610f98906001600160a01b03163330866114f0565b8054610fa49084611175565b81555b60038201548154610fc29164e8d4a5100091610715916111c4565b6001820155604080518481529051859133917f90890809c654f11d6e72a28fa60149770a0d11ec6c92319d6ceb2bb0a4ea1a159181900360200190a350505050565b6000806005848154811061101457fe5b600091825260208083208784526006825260408085206001600160a01b03898116875290845281862060049586029093016003810154815484516370a0823160e01b81523098810198909852935191985093969395939492909116926370a08231926024808301939192829003018186803b15801561109257600080fd5b505afa1580156110a6573d6000803e3d6000fd5b505050506040513d60208110156110bc57600080fd5b50516002850154909150431180156110d357508015155b156111335760006110e8856002015443610e6d565b9050600061110f6007546107158860010154610b22600354876111c490919063ffffffff16565b905061112e611127846107158464e8d4a510006111c4565b8590611175565b935050505b61115b836001015461071b64e8d4a510006107158688600001546111c490919063ffffffff16565b979650505050505050565b6000546001600160a01b031681565b80820182811015610eb9576040805162461bcd60e51b815260206004820152601460248201527364732d6d6174682d6164642d6f766572666c6f7760601b604482015290519081900360640190fd5b60008115806111df575050808202828282816111dc57fe5b04145b610eb9576040805162461bcd60e51b815260206004820152601460248201527364732d6d6174682d6d756c2d6f766572666c6f7760601b604482015290519081900360640190fd5b6000808211611270576040805162461bcd60e51b815260206004820152601060248201526f64732d6d6174682d6469762d7a65726f60801b604482015290519081900360640190fd5b81838161127957fe5b049392505050565b80820382811115610eb9576040805162461bcd60e51b815260206004820152601560248201527464732d6d6174682d7375622d756e646572666c6f7760581b604482015290519081900360640190fd5b60008054604080516370a0823160e01b815230600482015290516001600160a01b03909216916370a0823191602480820192602092909190829003018186803b15801561131d57600080fd5b505afa158015611331573d6000803e3d6000fd5b505050506040513d602081101561134757600080fd5b505190508082111561136f5760005461136a906001600160a01b0316848361138b565b611386565b600054611386906001600160a01b0316848461138b565b505050565b604080516001600160a01b038416602482015260448082018490528251808303909101815260649091019091526020810180516001600160e01b031663a9059cbb60e01b179052611386908490611550565b801580611463575060408051636eb1769f60e11b81523060048201526001600160a01b03848116602483015291519185169163dd62ed3e91604480820192602092909190829003018186803b15801561143557600080fd5b505afa158015611449573d6000803e3d6000fd5b505050506040513d602081101561145f57600080fd5b5051155b61149e5760405162461bcd60e51b81526004018080602001828103825260368152602001806118666036913960400191505060405180910390fd5b604080516001600160a01b038416602482015260448082018490528251808303909101815260649091019091526020810180516001600160e01b031663095ea7b360e01b179052611386908490611550565b604080516001600160a01b0380861660248301528416604482015260648082018490528251808303909101815260849091019091526020810180516001600160e01b03166323b872dd60e01b17905261154a908590611550565b50505050565b60606115a5826040518060400160405280602081526020017f5361666545524332303a206c6f772d6c6576656c2063616c6c206661696c6564815250856001600160a01b03166116019092919063ffffffff16565b805190915015611386578080602001905160208110156115c457600080fd5b50516113865760405162461bcd60e51b815260040180806020018281038252602a81526020018061183c602a913960400191505060405180910390fd5b6060611610848460008561161a565b90505b9392505050565b60608247101561165b5760405162461bcd60e51b81526004018080602001828103825260268152602001806118166026913960400191505060405180910390fd5b6116648561176b565b6116b5576040805162461bcd60e51b815260206004820152601d60248201527f416464726573733a2063616c6c20746f206e6f6e2d636f6e7472616374000000604482015290519081900360640190fd5b60006060866001600160a01b031685876040518082805190602001908083835b602083106116f45780518252601f1990920191602091820191016116d5565b6001836020036101000a03801982511681845116808217855250505050505090500191505060006040518083038185875af1925050503d8060008114611756576040519150601f19603f3d011682016040523d82523d6000602084013e61175b565b606091505b509150915061115b828286611771565b3b151590565b60608315611780575081611613565b8251156117905782518084602001fd5b8160405162461bcd60e51b81526004018080602001828103825283818151815260200191508051906020019080838360005b838110156117da5781810151838201526020016117c2565b50505050905090810190601f1680156118075780820380516001836020036101000a031916815260200191505b509250505060405180910390fdfe416464726573733a20696e73756666696369656e742062616c616e636520666f722063616c6c5361666545524332303a204552433230206f7065726174696f6e20646964206e6f7420737563636565645361666545524332303a20617070726f76652066726f6d206e6f6e2d7a65726f20746f206e6f6e2d7a65726f20616c6c6f77616e6365a2646970667358221220a7ca0132d6eb444c5c7241b9165c707d06a8a48066dbb34c4ecf47d4af24dc8c64736f6c634300060c0033",
  "linkReferences": {},
  "deployedLinkReferences": {}
}