{
  "_format": "hh-sol-artifact-1",
  "contractName": "KaleidoVault",
  "sourceName": "contracts/Vault/Vault.sol",
  "abi": [
    {
      "inputs": [],
      "name": "EthAmountMismatch",
      "type": "error"
    },
    {
      "inputs": [],
      "name": "EthTransferFailed",
      "type": "error"
    },
    {
      "inputs": [],
      "name": "InvalidFeeAmount",
      "type": "error"
    },
    {
      "inputs": [],
      "name": "InvalidRecipient",
      "type": "error"
    },
    {
      "inputs": [],
      "name": "InvalidTokenAddress",
      "type": "error"
    },
    {
      "inputs": [
        {
          "internalType": "address",
          "name": "owner",
          "type": "address"
        }
      ],
      "name": "OwnableInvalidOwner",
      "type": "error"
    },
    {
      "inputs": [
        {
          "internalType": "address",
          "name": "account",
          "type": "address"
        }
      ],
      "name": "OwnableUnauthorizedAccount",
      "type": "error"
    },
    {
      "inputs": [],
      "name": "ReentrancyGuardReentrantCall",
      "type": "error"
    },
    {
      "inputs": [
        {
          "internalType": "address",
          "name": "token",
          "type": "address"
        }
      ],
      "name": "SafeERC20FailedOperation",
      "type": "error"
    },
    {
      "inputs": [],
      "name": "VaultNotPaused",
      "type": "error"
    },
    {
      "inputs": [],
      "name": "VaultPaused",
      "type": "error"
    },
    {
      "anonymous": false,
      "inputs": [
        {
          "indexed": true,
          "internalType": "address",
          "name": "user",
          "type": "address"
        },
        {
          "indexed": true,
          "internalType": "address",
          "name": "token",
          "type": "address"
        },
        {
          "indexed": false,
          "internalType": "uint256",
          "name": "amount",
          "type": "uint256"
        }
      ],
      "name": "Deposit",
      "type": "event"
    },
    {
      "anonymous": false,
      "inputs": [
        {
          "indexed": true,
          "internalType": "address",
          "name": "previousOwner",
          "type": "address"
        },
        {
          "indexed": true,
          "internalType": "address",
          "name": "newOwner",
          "type": "address"
        }
      ],
      "name": "OwnershipTransferred",
      "type": "event"
    },
    {
      "anonymous": false,
      "inputs": [
        {
          "indexed": true,
          "internalType": "address",
          "name": "admin",
          "type": "address"
        }
      ],
      "name": "Paused",
      "type": "event"
    },
    {
      "anonymous": false,
      "inputs": [
        {
          "indexed": false,
          "internalType": "address[]",
          "name": "tokens",
          "type": "address[]"
        }
      ],
      "name": "TokensAdded",
      "type": "event"
    },
    {
      "anonymous": false,
      "inputs": [
        {
          "indexed": true,
          "internalType": "address",
          "name": "admin",
          "type": "address"
        }
      ],
      "name": "Unpaused",
      "type": "event"
    },
    {
      "anonymous": false,
      "inputs": [
        {
          "indexed": true,
          "internalType": "address",
          "name": "to",
          "type": "address"
        },
        {
          "indexed": true,
          "internalType": "address",
          "name": "token",
          "type": "address"
        },
        {
          "indexed": false,
          "internalType": "uint256",
          "name": "amount",
          "type": "uint256"
        }
      ],
      "name": "Withdraw",
      "type": "event"
    },
    {
      "inputs": [],
      "name": "NATIVE_TOKEN",
      "outputs": [
        {
          "internalType": "address",
          "name": "",
          "type": "address"
        }
      ],
      "stateMutability": "view",
      "type": "function"
    },
    {
      "inputs": [
        {
          "internalType": "address[]",
          "name": "tokens",
          "type": "address[]"
        }
      ],
      "name": "addTokens",
      "outputs": [],
      "stateMutability": "nonpayable",
      "type": "function"
    },
    {
      "inputs": [
        {
          "internalType": "address",
          "name": "token",
          "type": "address"
        },
        {
          "internalType": "uint256",
          "name": "amount",
          "type": "uint256"
        }
      ],
      "name": "depositFees",
      "outputs": [],
      "stateMutability": "payable",
      "type": "function"
    },
    {
      "inputs": [],
      "name": "getAcceptedTokens",
      "outputs": [
        {
          "internalType": "address[]",
          "name": "",
          "type": "address[]"
        }
      ],
      "stateMutability": "view",
      "type": "function"
    },
    {
      "inputs": [
        {
          "internalType": "address",
          "name": "",
          "type": "address"
        }
      ],
      "name": "isAcceptedToken",
      "outputs": [
        {
          "internalType": "bool",
          "name": "",
          "type": "bool"
        }
      ],
      "stateMutability": "view",
      "type": "function"
    },
    {
      "inputs": [],
      "name": "owner",
      "outputs": [
        {
          "internalType": "address",
          "name": "",
          "type": "address"
        }
      ],
      "stateMutability": "view",
      "type": "function"
    },
    {
      "inputs": [],
      "name": "pause",
      "outputs": [],
      "stateMutability": "nonpayable",
      "type": "function"
    },
    {
      "inputs": [],
      "name": "renounceOwnership",
      "outputs": [],
      "stateMutability": "nonpayable",
      "type": "function"
    },
    {
      "inputs": [
        {
          "internalType": "address",
          "name": "newOwner",
          "type": "address"
        }
      ],
      "name": "transferOwnership",
      "outputs": [],
      "stateMutability": "nonpayable",
      "type": "function"
    },
    {
      "inputs": [],
      "name": "unpause",
      "outputs": [],
      "stateMutability": "nonpayable",
      "type": "function"
    },
    {
      "inputs": [
        {
          "internalType": "address",
          "name": "token",
          "type": "address"
        },
        {
          "internalType": "uint256",
          "name": "amount",
          "type": "uint256"
        },
        {
          "internalType": "address payable",
          "name": "to",
          "type": "address"
        }
      ],
      "name": "withdrawFees",
      "outputs": [],
      "stateMutability": "nonpayable",
      "type": "function"
    },
    {
      "stateMutability": "payable",
      "type": "receive"
    }
  ],
  "bytecode": "0x6080806040523461007e5733156100685760008054336001600160a01b03198216811783556040519290916001600160a01b0316907f8be0079c531659141344cd1fd0a4f28419497f9722a3daafe3b4186f6b6457e09080a360018055610ae790816100848239f35b631e4fbdf760e01b815260006004820152602490fd5b600080fdfe6080604081815260049182361015610063575b50361561001e57600080fd5b60ff82541661005657600190513481527f5548c837ab068cf56a2c2479df0882a4922fd203edb7517321831d95078c5f6260203392a3005b516336a7e2cd60e21b8152fd5b600090813560e01c9081632f757006146108ab5750806331f7d9641461088f5780633b6e750f146108515780633f4ba83a146107ec5780634ae05c7d146105ba578063715018a61461055d5780638456cb59146104f65780638da5cb5b146104ca5780639ba372c21461029d578063a71532cd1461016f5763f2fde38b0361001257913461016b57602036600319011261016b576100ff61096d565b90610108610988565b6001600160a01b0391821692831561015557505082546001600160a01b0319811683178455167f8be0079c531659141344cd1fd0a4f28419497f9722a3daafe3b4186f6b6457e08380a380f35b51631e4fbdf760e01b8152908101849052602490fd5b8280fd5b5091908060031936011261016b5761018561096d565b9060243591610192610a8e565b6001600160a01b031680855260026020528185205490939060ff161561028f5782156102825760ff81541661027457600184036102115782340361020357505b519081527f5548c837ab068cf56a2c2479df0882a4922fd203edb7517321831d95078c5f6260203392a36001805580f35b9051630768122960e11b8152fd5b81516323b872dd60e01b6020820152336024820152306044820152606480820185905281529060a082019067ffffffffffffffff8211838310176102615750825261025c9084610a26565b6101d2565b634e487b7160e01b875260419052602486fd5b90516336a7e2cd60e21b8152fd5b905162a4671960e71b8152fd5b9051630f58058360e11b8152fd5b50913461016b57606036600319011261016b576102b861096d565b6044356001600160a01b038181169392602435928590036104a7576102db610988565b6102e3610a8e565b16938486526020926002845260ff82882054161561028f5782156102825760ff8154166102745784156104bc57600186036103b957824710610282578680808086895af13d156103b4573d67ffffffffffffffff81116103a157835190610353601f8201601f19168801836109ee565b815288863d92013e5b156103935750907f9b1bfa7fa9ee420a16e124f794c35ac9f90472acc99140eb2f6447c714cad8eb92915b51908152a36001805580f35b9051630db2c7f160e31b8152fd5b634e487b7160e01b895260418352602489fd5b61035c565b95949392919080516370a0823160e01b815230888201528381602481895afa9081156104b257908391889161047d575b501061046f57805163a9059cbb60e01b84820152846024820152826044820152604481526080810181811067ffffffffffffffff82111761045c577f9b1bfa7fa9ee420a16e124f794c35ac9f90472acc99140eb2f6447c714cad8eb95969798509061045791835287610a26565b610387565b634e487b7160e01b885260418952602488fd5b5162a4671960e71b81528690fd5b809250858092503d83116104ab575b61049681836109ee565b810103126104a757829051386103e9565b8680fd5b503d61048c565b82513d89823e3d90fd5b9051634e46966960e11b8152fd5b5090346104f257816003193601126104f257905490516001600160a01b039091168152602090f35b5080fd5b5091903461016b578260031936011261016b57610511610988565b81549060ff821661054e575060ff19166001179055337f62e78cea01bee320cd4e420270b5ea74000d11b0c9f74754ebdbfc544b05a2588280a280f35b516336a7e2cd60e21b81529050fd5b50346105b757806003193601126105b757610576610988565b80546001600160a01b03198116825581906001600160a01b03167f8be0079c531659141344cd1fd0a4f28419497f9722a3daafe3b4186f6b6457e08280a380f35b80fd5b50913461016b57602090816003193601126107e85780359167ffffffffffffffff918284116107e457366023850112156107e457838101359283116107e457602490818501948236918660051b0101116104a757610616610988565b60ff90818154166107d657875b85811061069f575050505090835193818386018487525284019291855b82811061067157867f7d713019ad8a7d0879c2e785f8924ee9dd744ef744ec6b6d00391087054c5eb787870388a180f35b9091929384359060018060a01b03821680920361069b579081528201938201929190600101610640565b8780fd5b6001600160a01b03806106bb6106b6848a8c6109b4565b6109da565b16156107c657806106d06106b6848a8c6109b4565b168a526002808752848a8c20541615610709575b505060001981146106f757600101610623565b634e487b7160e01b8952601182528389fd5b816107186106b6858b8d6109b4565b168b528652888a20906001918260ff1982541617905561073c6106b6848a8c6109b4565b916003805491680100000000000000008310156107b45782018082558210156107a2578c527fc2575a0e9e593c00f959f8c92f12db2869c3395a3b0502d05e2516446f71f85b0191166bffffffffffffffffffffffff60a01b82541617905538806106e4565b634e487b7160e01b8d5260328652878dfd5b634e487b7160e01b8e5260418752888efd5b8851630f58058360e11b81528390fd5b86516336a7e2cd60e21b8152fd5b8580fd5b8380fd5b5091903461016b578260031936011261016b57610807610988565b81549060ff821615610842575060ff19169055337f5db9ee0a495bf2e6ff9c91a7834c1ba4fdd244a5e8aa4e537bd38aeae4b073aa8280a280f35b51637bffa6e560e11b81529050fd5b5090346104f25760203660031901126104f25760209160ff9082906001600160a01b0361087c61096d565b1681526002855220541690519015158152f35b5090346104f257816003193601126104f2576020905160018152f35b9050346104f257816003193601126104f2579190600354908184526020938481018093600384527fc2575a0e9e593c00f959f8c92f12db2869c3395a3b0502d05e2516446f71f85b90845b818110610950575050508161090c9103826109ee565b83519485948186019282875251809352850193925b82811061093057505050500390f35b83516001600160a01b031685528695509381019392810192600101610921565b82546001600160a01b0316845292880192600192830192016108f6565b600435906001600160a01b038216820361098357565b600080fd5b6000546001600160a01b0316330361099c57565b60405163118cdaa760e01b8152336004820152602490fd5b91908110156109c45760051b0190565b634e487b7160e01b600052603260045260246000fd5b356001600160a01b03811681036109835790565b90601f8019910116810190811067ffffffffffffffff821117610a1057604052565b634e487b7160e01b600052604160045260246000fd5b906000602091828151910182855af115610a82576000513d610a7957506001600160a01b0381163b155b610a575750565b604051635274afe760e01b81526001600160a01b039091166004820152602490fd5b60011415610a50565b6040513d6000823e3d90fd5b600260015414610a9f576002600155565b604051633ee5aeb560e01b8152600490fdfea26469706673582212202ec076e49b374eb1fe3ce4385019f4a5baaf1a994d795c80c9399f47e3514f9864736f6c63430008140033",
  "linkReferences": {},
  "deployedLinkReferences": {}
}