{
  "_format": "hh-sol-artifact-1",
  "contractName": "QuoterV2",
  "sourceName": "contracts/dex-v3/periphery/lens/QuoterV2.sol",
  "abi": [
    {
      "inputs": [
        {
          "internalType": "address",
          "name": "_factory",
          "type": "address"
        },
        {
          "internalType": "address",
          "name": "_WETH9",
          "type": "address"
        }
      ],
      "stateMutability": "nonpayable",
      "type": "constructor"
    },
    {
      "inputs": [],
      "name": "WETH9",
      "outputs": [
        {
          "internalType": "address",
          "name": "",
          "type": "address"
        }
      ],
      "stateMutability": "view",
      "type": "function"
    },
    {
      "inputs": [],
      "name": "factory",
      "outputs": [
        {
          "internalType": "address",
          "name": "",
          "type": "address"
        }
      ],
      "stateMutability": "view",
      "type": "function"
    },
    {
      "inputs": [
        {
          "internalType": "int256",
          "name": "amount0Delta",
          "type": "int256"
        },
        {
          "internalType": "int256",
          "name": "amount1Delta",
          "type": "int256"
        },
        {
          "internalType": "bytes",
          "name": "path",
          "type": "bytes"
        }
      ],
      "name": "kaleidoswapV3SwapCallback",
      "outputs": [],
      "stateMutability": "view",
      "type": "function"
    },
    {
      "inputs": [
        {
          "internalType": "bytes",
          "name": "path",
          "type": "bytes"
        },
        {
          "internalType": "uint256",
          "name": "amountIn",
          "type": "uint256"
        }
      ],
      "name": "quoteExactInput",
      "outputs": [
        {
          "internalType": "uint256",
          "name": "amountOut",
          "type": "uint256"
        },
        {
          "internalType": "uint160[]",
          "name": "sqrtPriceX96AfterList",
          "type": "uint160[]"
        },
        {
          "internalType": "uint32[]",
          "name": "initializedTicksCrossedList",
          "type": "uint32[]"
        },
        {
          "internalType": "uint256",
          "name": "gasEstimate",
          "type": "uint256"
        }
      ],
      "stateMutability": "nonpayable",
      "type": "function"
    },
    {
      "inputs": [
        {
          "components": [
            {
              "internalType": "address",
              "name": "tokenIn",
              "type": "address"
            },
            {
              "internalType": "address",
              "name": "tokenOut",
              "type": "address"
            },
            {
              "internalType": "uint256",
              "name": "amountIn",
              "type": "uint256"
            },
            {
              "internalType": "uint24",
              "name": "fee",
              "type": "uint24"
            },
            {
              "internalType": "uint160",
              "name": "sqrtPriceLimitX96",
              "type": "uint160"
            }
          ],
          "internalType": "struct IQuoterV2.QuoteExactInputSingleParams",
          "name": "params",
          "type": "tuple"
        }
      ],
      "name": "quoteExactInputSingle",
      "outputs": [
        {
          "internalType": "uint256",
          "name": "amountOut",
          "type": "uint256"
        },
        {
          "internalType": "uint160",
          "name": "sqrtPriceX96After",
          "type": "uint160"
        },
        {
          "internalType": "uint32",
          "name": "initializedTicksCrossed",
          "type": "uint32"
        },
        {
          "internalType": "uint256",
          "name": "gasEstimate",
          "type": "uint256"
        }
      ],
      "stateMutability": "nonpayable",
      "type": "function"
    },
    {
      "inputs": [
        {
          "internalType": "bytes",
          "name": "path",
          "type": "bytes"
        },
        {
          "internalType": "uint256",
          "name": "amountOut",
          "type": "uint256"
        }
      ],
      "name": "quoteExactOutput",
      "outputs": [
        {
          "internalType": "uint256",
          "name": "amountIn",
          "type": "uint256"
        },
        {
          "internalType": "uint160[]",
          "name": "sqrtPriceX96AfterList",
          "type": "uint160[]"
        },
        {
          "internalType": "uint32[]",
          "name": "initializedTicksCrossedList",
          "type": "uint32[]"
        },
        {
          "internalType": "uint256",
          "name": "gasEstimate",
          "type": "uint256"
        }
      ],
      "stateMutability": "nonpayable",
      "type": "function"
    },
    {
      "inputs": [
        {
          "components": [
            {
              "internalType": "address",
              "name": "tokenIn",
              "type": "address"
            },
            {
              "internalType": "address",
              "name": "tokenOut",
              "type": "address"
            },
            {
              "internalType": "uint256",
              "name": "amount",
              "type": "uint256"
            },
            {
              "internalType": "uint24",
              "name": "fee",
              "type": "uint24"
            },
            {
              "internalType": "uint160",
              "name": "sqrtPriceLimitX96",
              "type": "uint160"
            }
          ],
          "internalType": "struct IQuoterV2.QuoteExactOutputSingleParams",
          "name": "params",
          "type": "tuple"
        }
      ],
      "name": "quoteExactOutputSingle",
      "outputs": [
        {
          "internalType": "uint256",
          "name": "amountIn",
          "type": "uint256"
        },
        {
          "internalType": "uint160",
          "name": "sqrtPriceX96After",
          "type": "uint160"
        },
        {
          "internalType": "uint32",
          "name": "initializedTicksCrossed",
          "type": "uint32"
        },
        {
          "internalType": "uint256",
          "name": "gasEstimate",
          "type": "uint256"
        }
      ],
      "stateMutability": "nonpayable",
      "type": "function"
    }
  ],
  "bytecode": "0x60c06040523480156200001157600080fd5b5060405162001ae638038062001ae6833981016040819052620000349162000070565b6001600160601b0319606092831b8116608052911b1660a052620000a7565b80516001600160a01b03811681146200006b57600080fd5b919050565b6000806040838503121562000083578182fd5b6200008e8362000053565b91506200009e6020840162000053565b90509250929050565b60805160601c60a05160601c611a0b620000db600039806102e0525080610333528061060252806109025250611a0b6000f3fe608060405234801561001057600080fd5b506004361061007d5760003560e01c8063bd21704a1161005b578063bd21704a146100d8578063c45a0155146100fb578063c6a5026a14610103578063cdca1753146101165761007d565b80632f80bb1d146100825780634aa4a4fc146100ae5780634ceb63f4146100c3575b600080fd5b610095610090366004611570565b610129565b6040516100a59493929190611882565b60405180910390f35b6100b66102de565b6040516100a591906117eb565b6100d66100d13660046115d6565b610302565b005b6100eb6100e636600461168e565b610467565b6040516100a5949392919061191d565b6100b6610600565b6100eb61011136600461168e565b610624565b610095610124366004611570565b6106de565b6000606080600061013986610875565b67ffffffffffffffff8111801561014f57600080fd5b50604051908082528060200260200182016040528015610179578160200160208202803683370190505b50925061018586610875565b67ffffffffffffffff8111801561019b57600080fd5b506040519080825280602002602001820160405280156101c5578160200160208202803683370190505b50915060005b60008060006101d98a610886565b9250925092506000806000806102356040518060a00160405280886001600160a01b03168152602001896001600160a01b031681526020018f81526020018762ffffff16815260200160006001600160a01b0316815250610467565b9350935093509350828b898151811061024a57fe5b60200260200101906001600160a01b031690816001600160a01b031681525050818a898151811061027757fe5b63ffffffff90921660209283029190910190910152929b50968201966001909601958b926102a48e6108b7565b156102b9576102b28e6108bf565b9d506102c9565b8c9b5050505050505050506102d5565b505050505050506101cb565b92959194509250565b7f000000000000000000000000000000000000000000000000000000000000000081565b60008313806103115750600082135b61031a57600080fd5b600080600061032884610886565b92509250925061035a7f00000000000000000000000000000000000000000000000000000000000000008484846108dc565b50600080600080891361038657856001600160a01b0316856001600160a01b031610888a6000036103a1565b846001600160a01b0316866001600160a01b03161089896000035b92509250925060006103b48787876108fb565b9050600080826001600160a01b0316633850c7bd6040518163ffffffff1660e01b815260040160e06040518083038186803b1580156103f257600080fd5b505afa158015610406573d6000803e3d6000fd5b505050506040513d601f19601f8201168201806040525081019061042a91906116b0565b505050505091509150851561045057604051848152826020820152816040820152606081fd5b604051858152826020820152816040820152606081fd5b6020810151815160608301516000928392839283926001600160a01b038082169084161092849261049892906108fb565b905060005a9050816001600160a01b031663128acb0830856104bd8c60400151610939565b6000038c608001516001600160a01b03166000146104df578c60800151610505565b876104fe5773fffd8963efd1fc6a506488495d951d5263988d25610505565b6401000276a45b8d602001518e606001518f60000151604051602001610526939291906117b0565b6040516020818303038152906040526040518663ffffffff1660e01b81526004016105559594939291906117ff565b6040805180830381600087803b15801561056e57600080fd5b505af192505050801561059e575060408051601f3d908101601f1916820190925261059b918101906115b3565b60015b6105f3573d8080156105cc576040519150601f19603f3d011682016040523d82523d6000602084013e6105d1565b606091505b505a820394506105e281848761094f565b9750975097509750505050506105f9565b50505050505b9193509193565b7f000000000000000000000000000000000000000000000000000000000000000081565b6020810151815160608301516000928392839283926001600160a01b038082169084161092849261065592906108fb565b905060005a9050816001600160a01b031663128acb08308561067a8c60400151610939565b60808d01516001600160a01b031615610697578c608001516106bd565b876106b65773fffd8963efd1fc6a506488495d951d5263988d256106bd565b6401000276a45b8d600001518e606001518f60200151604051602001610526939291906117b0565b600060608060006106ee86610875565b67ffffffffffffffff8111801561070457600080fd5b5060405190808252806020026020018201604052801561072e578160200160208202803683370190505b50925061073a86610875565b67ffffffffffffffff8111801561075057600080fd5b5060405190808252806020026020018201604052801561077a578160200160208202803683370190505b50915060005b600080600061078e8a610886565b9250925092506000806000806107ea6040518060a00160405280896001600160a01b03168152602001886001600160a01b031681526020018f81526020018762ffffff16815260200160006001600160a01b0316815250610624565b9350935093509350828b89815181106107ff57fe5b60200260200101906001600160a01b031690816001600160a01b031681525050818a898151811061082c57fe5b63ffffffff90921660209283029190910190910152929b50968201966001909601958b926108598e6108b7565b156102b9576108678e6108bf565b9d5050505050505050610780565b80516017601319909101045b919050565b600080806108948482610a09565b92506108a1846014610ab9565b90506108ae846017610a09565b91509193909250565b516042111590565b80516060906108d690839060179060161901610b60565b92915050565b60006108f2856108ed868686610cb1565b610d07565b95945050505050565b60006109317f000000000000000000000000000000000000000000000000000000000000000061092c868686610cb1565b610d2a565b949350505050565b6000600160ff1b821061094b57600080fd5b5090565b600080600080600080876001600160a01b0316633850c7bd6040518163ffffffff1660e01b815260040160e06040518083038186803b15801561099157600080fd5b505afa1580156109a5573d6000803e3d6000fd5b505050506040513d601f19601f820116820180604052508101906109c991906116b0565b509396506109de94508d9350610e0e92505050565b919750955090506109f96001600160a01b0389168383610e9b565b9350869250505093509350935093565b600081826014011015610a58576040805162461bcd60e51b8152602060048201526012602482015271746f416464726573735f6f766572666c6f7760701b604482015290519081900360640190fd5b8160140183511015610aa9576040805162461bcd60e51b8152602060048201526015602482015274746f416464726573735f6f75744f66426f756e647360581b604482015290519081900360640190fd5b500160200151600160601b900490565b600081826003011015610b07576040805162461bcd60e51b8152602060048201526011602482015270746f55696e7432345f6f766572666c6f7760781b604482015290519081900360640190fd5b8160030183511015610b57576040805162461bcd60e51b8152602060048201526014602482015273746f55696e7432345f6f75744f66426f756e647360601b604482015290519081900360640190fd5b50016003015190565b60608182601f011015610bab576040805162461bcd60e51b815260206004820152600e60248201526d736c6963655f6f766572666c6f7760901b604482015290519081900360640190fd5b828284011015610bf3576040805162461bcd60e51b815260206004820152600e60248201526d736c6963655f6f766572666c6f7760901b604482015290519081900360640190fd5b81830184511015610c3f576040805162461bcd60e51b8152602060048201526011602482015270736c6963655f6f75744f66426f756e647360781b604482015290519081900360640190fd5b606082158015610c5e5760405191506000825260208201604052610ca8565b6040519150601f8416801560200281840101858101878315602002848b0101015b81831015610c97578051835260209283019201610c7f565b5050858452601f01601f1916604052505b50949350505050565b610cb961143f565b826001600160a01b0316846001600160a01b03161115610cd7579192915b50604080516060810182526001600160a01b03948516815292909316602083015262ffffff169181019190915290565b6000610d138383610d2a565b9050336001600160a01b038216146108d657600080fd5b600081602001516001600160a01b031682600001516001600160a01b031610610d5257600080fd5b50805160208083015160409384015184516001600160a01b0394851681850152939091168385015262ffffff166060808401919091528351808403820181526080840185528051908301206001600160f81b031960a085015294901b6bffffffffffffffffffffffff191660a183015260b58201939093527fe34f199b19b2b4f47f68442619d555527d244f78a3297ea89325f843f87b8b5460d5808301919091528251808303909101815260f5909101909152805191012090565b60008060008351606014610e7a57604484511015610e475760405162461bcd60e51b8152600401610e3e90611858565b60405180910390fd5b60048401935083806020019051810190610e619190611624565b60405162461bcd60e51b8152600401610e3e9190611845565b83806020019051810190610e8e9190611747565b9250925092509193909250565b60008060008060008060008060088b6001600160a01b031663d0c93a7c6040518163ffffffff1660e01b815260040160206040518083038186803b158015610ee257600080fd5b505afa158015610ef6573d6000803e3d6000fd5b505050506040513d6020811015610f0c57600080fd5b5051600290810b908c900b81610f1e57fe5b0560020b901d905060006101008c6001600160a01b031663d0c93a7c6040518163ffffffff1660e01b815260040160206040518083038186803b158015610f6457600080fd5b505afa158015610f78573d6000803e3d6000fd5b505050506040513d6020811015610f8e57600080fd5b5051600290810b908d900b81610fa057fe5b0560020b81610fab57fe5b079050600060088d6001600160a01b031663d0c93a7c6040518163ffffffff1660e01b815260040160206040518083038186803b158015610feb57600080fd5b505afa158015610fff573d6000803e3d6000fd5b505050506040513d602081101561101557600080fd5b5051600290810b908d900b8161102757fe5b0560020b901d905060006101008e6001600160a01b031663d0c93a7c6040518163ffffffff1660e01b815260040160206040518083038186803b15801561106d57600080fd5b505afa158015611081573d6000803e3d6000fd5b505050506040513d602081101561109757600080fd5b5051600290810b908e900b816110a957fe5b0560020b816110b457fe5b07905060008160ff166001901b8f6001600160a01b0316635339c296856040518263ffffffff1660e01b8152600401808260010b815260200191505060206040518083038186803b15801561110857600080fd5b505afa15801561111c573d6000803e3d6000fd5b505050506040513d602081101561113257600080fd5b5051161180156111b857508d6001600160a01b031663d0c93a7c6040518163ffffffff1660e01b815260040160206040518083038186803b15801561117657600080fd5b505afa15801561118a573d6000803e3d6000fd5b505050506040513d60208110156111a057600080fd5b5051600290810b908d900b816111b257fe5b0760020b155b80156111c957508b60020b8d60020b135b945060008360ff166001901b8f6001600160a01b0316635339c296876040518263ffffffff1660e01b8152600401808260010b815260200191505060206040518083038186803b15801561121c57600080fd5b505afa158015611230573d6000803e3d6000fd5b505050506040513d602081101561124657600080fd5b5051161180156112cc57508d6001600160a01b031663d0c93a7c6040518163ffffffff1660e01b815260040160206040518083038186803b15801561128a57600080fd5b505afa15801561129e573d6000803e3d6000fd5b505050506040513d60208110156112b457600080fd5b5051600290810b908e900b816112c657fe5b0760020b155b80156112dd57508b60020b8d60020b125b95508160010b8460010b128061130957508160010b8460010b14801561130957508060ff168360ff1611155b1561131f5783995082975081985080965061132c565b8199508097508398508296505b505060001960ff87161b9150505b8560010b8760010b136113fc578560010b8760010b14156113615760001960ff858103161c165b6000818c6001600160a01b0316635339c2968a6040518263ffffffff1660e01b8152600401808260010b815260200191505060206040518083038186803b1580156113ab57600080fd5b505afa1580156113bf573d6000803e3d6000fd5b505050506040513d60208110156113d557600080fd5b50511690506113e381611424565b61ffff169890980197505060019095019460001961133a565b8115611409576001880397505b8215611416576001880397505b505050505050509392505050565b6000805b82156108d657600019830190921691600101611428565b604080516060810182526000808252602082018190529181019190915290565b600082601f83011261146f578081fd5b813561148261147d8261196b565b611947565b818152846020838601011115611496578283fd5b816020850160208301379081016020019190915292915050565b8051600281900b811461088157600080fd5b600060a082840312156114d3578081fd5b60405160a0810181811067ffffffffffffffff821117156114f057fe5b6040529050808235611501816119bd565b81526020830135611511816119bd565b602082015260408381013590820152606083013562ffffff8116811461153657600080fd5b606082015261154760808401611553565b60808201525092915050565b8035610881816119bd565b805161ffff8116811461088157600080fd5b60008060408385031215611582578182fd5b823567ffffffffffffffff811115611598578283fd5b6115a48582860161145f565b95602094909401359450505050565b600080604083850312156115c5578182fd5b505080516020909101519092909150565b6000806000606084860312156115ea578081fd5b8335925060208401359150604084013567ffffffffffffffff81111561160e578182fd5b61161a8682870161145f565b9150509250925092565b600060208284031215611635578081fd5b815167ffffffffffffffff81111561164b578182fd5b8201601f8101841361165b578182fd5b805161166961147d8261196b565b81815285602083850101111561167d578384fd5b6108f282602083016020860161198d565b600060a0828403121561169f578081fd5b6116a983836114c2565b9392505050565b600080600080600080600060e0888a0312156116ca578283fd5b87516116d5816119bd565b96506116e3602089016114b0565b95506116f16040890161155e565b94506116ff6060890161155e565b935061170d6080890161155e565b925060a088015160ff81168114611722578283fd5b60c08901519092508015158114611737578182fd5b8091505092959891949750929550565b60008060006060848603121561175b578081fd5b83519250602084015161176d816119bd565b915061177b604085016114b0565b90509250925092565b6000815180845261179c81602086016020860161198d565b601f01601f19169290920160200192915050565b606093841b6bffffffffffffffffffffffff19908116825260e89390931b6001600160e81b0319166014820152921b166017820152602b0190565b6001600160a01b0391909116815260200190565b6001600160a01b0386811682528515156020830152604082018590528316606082015260a06080820181905260009061183a90830184611784565b979650505050505050565b6000602082526116a96020830184611784565b60208082526010908201526f2ab732bc3832b1ba32b21032b93937b960811b604082015260600190565b600060808201868352602060808185015281875180845260a0860191508289019350845b818110156118cb5784516001600160a01b0316835293830193918301916001016118a6565b505084810360408601528651808252908201925081870190845b8181101561190757825163ffffffff16855293830193918301916001016118e5565b5050505060609290920192909252949350505050565b9384526001600160a01b0392909216602084015263ffffffff166040830152606082015260800190565b60405181810167ffffffffffffffff8111828210171561196357fe5b604052919050565b600067ffffffffffffffff82111561197f57fe5b50601f01601f191660200190565b60005b838110156119a8578181015183820152602001611990565b838111156119b7576000848401525b50505050565b6001600160a01b03811681146119d257600080fd5b5056fea26469706673582212206e1acc22a36f993fb4f250e883585cd32cfeab464d8a07b5203babd98791901964736f6c63430007060033",
  "linkReferences": {},
  "deployedLinkReferences": {}
}