{
  "_format": "hh-sol-artifact-1",
  "contractName": "TickLensTest",
  "sourceName": "contracts/dex-v3/periphery/test/TickLensTest.sol",
  "abi": [
    {
      "inputs": [
        {
          "internalType": "address",
          "name": "pool",
          "type": "address"
        },
        {
          "internalType": "int16",
          "name": "tickBitmapIndex",
          "type": "int16"
        }
      ],
      "name": "getGasCostOfGetPopulatedTicksInWord",
      "outputs": [
        {
          "internalType": "uint256",
          "name": "",
          "type": "uint256"
        }
      ],
      "stateMutability": "view",
      "type": "function"
    },
    {
      "inputs": [
        {
          "internalType": "address",
          "name": "pool",
          "type": "address"
        },
        {
          "internalType": "int16",
          "name": "tickBitmapIndex",
          "type": "int16"
        }
      ],
      "name": "getPopulatedTicksInWord",
      "outputs": [
        {
          "components": [
            {
              "internalType": "int24",
              "name": "tick",
              "type": "int24"
            },
            {
              "internalType": "int128",
              "name": "liquidityNet",
              "type": "int128"
            },
            {
              "internalType": "uint128",
              "name": "liquidityGross",
              "type": "uint128"
            }
          ],
          "internalType": "struct ITickLens.PopulatedTick[]",
          "name": "populatedTicks",
          "type": "tuple[]"
        }
      ],
      "stateMutability": "view",
      "type": "function"
    }
  ],
  "bytecode": "0x608080604052346100165761057d908161001c8239f35b600080fdfe604060808152600436101561001357600080fd5b600090813560e01c8063351fb4781461007e5763f0c2e7bc1461003557600080fd5b3461007a5761005190610047366100f6565b9290925a936101e6565b505a8203918211610066576020925051908152f35b634e487b7160e01b83526011600452602483fd5b5080fd5b5090346100f357610097610091366100f6565b906101e6565b8251916020808401908085528351809252808686019401925b8281106100bd5785850386f35b8351805160020b865280830151600f0b868401528701516001600160801b031687860152606090940193928101926001016100b0565b80fd5b6040906003190112610126576004356001600160a01b038116810361012657906024358060010b81036101265790565b600080fd5b6060810190811067ffffffffffffffff82111761014757604052565b634e487b7160e01b600052604160045260246000fd5b90601f8019910116810190811067ffffffffffffffff82111761014757604052565b600019811461018e5760010190565b634e487b7160e01b600052601160045260246000fd5b67ffffffffffffffff81116101475760051b60200190565b80518210156101d05760209160051b010190565b634e487b7160e01b600052603260045260246000fd5b6040805163299ce14b60e11b8152600184810b6004808401919091529195949390926001600160a01b039182169260209260249290848a8581895afa998a1561053c5760009a61050d575b50600094855b61010081106104e0575082516334324e9f60e21b81529681888681845afa9788156104d55760009861049a575b5061026e876101a4565b9761027b8551998a61015d565b878952601f1961028a896101a4565b018360005b82811061047157505050889c8a6000905b6102b4575b50505050505050505050505050565b6101008082101561046b578c821b83166102da575b506102d48c9161017f565b906102a0565b99819f9e9d9c9b9a8d600293840b9060081b840b01627fffff198112627fffff8213176104575785840b90840b0280930b92830361044357885163f30dba9360e01b81528a81018490529080828d818a5afa80156104385760009182916103a9575b506001600160801b0392508a51946103538661012b565b8552600f0b8885015216888301528015610395578b9c9d9e9f61038d8c9d936102d493600019019d8e9161038783836101bc565b526101bc565b5091506102c9565b8960118a634e487b7160e01b600052526000fd5b905082813d8311610431575b6103bf818361015d565b810103126100f3578151906001600160801b03821682036100f357888301519283600f0b840361007a5760808101518060060b0361007a5760a08101518b81160361007a5760c081015163ffffffff81160361007a5760e00151801515036100f357506001600160801b03913861033c565b503d6103b5565b8a513d6000823e3d90fd5b8a60118b634e487b7160e01b600052526000fd5b8b60118c634e487b7160e01b600052526000fd5b506102a5565b875182828e61047f8461012b565b6000845260008385015260008c85015201015201849061028f565b8281819a939a3d83116104ce575b6104b2818361015d565b8101031261007a5751908160020b82036100f357509638610264565b503d6104a8565b84513d6000823e3d90fd5b88811b8c166104f8575b6104f39061017f565b610237565b956105056104f39161017f565b9690506104ea565b90998582813d8311610535575b610524818361015d565b810103126100f35750519838610231565b503d61051a565b82513d6000823e3d90fdfea2646970667358221220d6470e0e7237bad77727a19828389fd004e1675a3896339feed7f09011ce758564736f6c63430008140033",
  "linkReferences": {},
  "deployedLinkReferences": {}
}