{
  "_format": "hh-sol-artifact-1",
  "contractName": "KaleidoSwapFactory",
  "sourceName": "contracts/dex/core/KaleidoSwapFactory.sol",
  "abi": [
    {
      "inputs": [
        {
          "internalType": "address",
          "name": "_feeToSetter",
          "type": "address"
        }
      ],
      "stateMutability": "nonpayable",
      "type": "constructor"
    },
    {
      "anonymous": false,
      "inputs": [
        {
          "indexed": true,
          "internalType": "address",
          "name": "token0",
          "type": "address"
        },
        {
          "indexed": true,
          "internalType": "address",
          "name": "token1",
          "type": "address"
        },
        {
          "indexed": false,
          "internalType": "address",
          "name": "pair",
          "type": "address"
        },
        {
          "indexed": false,
          "internalType": "uint256",
          "name": "",
          "type": "uint256"
        }
      ],
      "name": "PairCreated",
      "type": "event"
    },
    {
      "inputs": [
        {
          "internalType": "uint256",
          "name": "",
          "type": "uint256"
        }
      ],
      "name": "allPairs",
      "outputs": [
        {
          "internalType": "address",
          "name": "",
          "type": "address"
        }
      ],
      "stateMutability": "view",
      "type": "function"
    },
    {
      "inputs": [],
      "name": "allPairsLength",
      "outputs": [
        {
          "internalType": "uint256",
          "name": "",
          "type": "uint256"
        }
      ],
      "stateMutability": "view",
      "type": "function"
    },
    {
      "inputs": [
        {
          "internalType": "address",
          "name": "tokenA",
          "type": "address"
        },
        {
          "internalType": "address",
          "name": "tokenB",
          "type": "address"
        },
        {
          "internalType": "uint32",
          "name": "fee",
          "type": "uint32"
        }
      ],
      "name": "createPair",
      "outputs": [
        {
          "internalType": "address",
          "name": "pair",
          "type": "address"
        }
      ],
      "stateMutability": "nonpayable",
      "type": "function"
    },
    {
      "inputs": [],
      "name": "feeTo",
      "outputs": [
        {
          "internalType": "address",
          "name": "",
          "type": "address"
        }
      ],
      "stateMutability": "view",
      "type": "function"
    },
    {
      "inputs": [],
      "name": "feeToSetter",
      "outputs": [
        {
          "internalType": "address",
          "name": "",
          "type": "address"
        }
      ],
      "stateMutability": "view",
      "type": "function"
    },
    {
      "inputs": [
        {
          "internalType": "address",
          "name": "",
          "type": "address"
        },
        {
          "internalType": "address",
          "name": "",
          "type": "address"
        }
      ],
      "name": "getPair",
      "outputs": [
        {
          "internalType": "address",
          "name": "",
          "type": "address"
        }
      ],
      "stateMutability": "view",
      "type": "function"
    },
    {
      "inputs": [
        {
          "internalType": "address",
          "name": "_feeTo",
          "type": "address"
        }
      ],
      "name": "setFeeTo",
      "outputs": [],
      "stateMutability": "nonpayable",
      "type": "function"
    },
    {
      "inputs": [
        {
          "internalType": "address",
          "name": "_feeToSetter",
          "type": "address"
        }
      ],
      "name": "setFeeToSetter",
      "outputs": [],
      "stateMutability": "nonpayable",
      "type": "function"
    }
  ],
  "bytecode": "0x608060405234801561001057600080fd5b50604051612d64380380612d648339818101604052602081101561003357600080fd5b5051600180546001600160a01b0319166001600160a01b03909216919091179055612d01806100636000396000f3fe608060405234801561001057600080fd5b50600436106100885760003560e01c80638d22cf541161005b5780638d22cf54146100f0578063a2e74af61461012d578063e6a4390514610155578063f46901ed1461018357610088565b8063017e7e581461008d578063094b7415146100b15780631e3dd18b146100b9578063574f2ba3146100d6575b600080fd5b6100956101a9565b604080516001600160a01b039092168252519081900360200190f35b6100956101b8565b610095600480360360208110156100cf57600080fd5b50356101c7565b6100de6101ee565b60408051918252519081900360200190f35b6100956004803603606081101561010657600080fd5b5080356001600160a01b03908116916020810135909116906040013563ffffffff166101f4565b6101536004803603602081101561014357600080fd5b50356001600160a01b0316610530565b005b6100956004803603604081101561016b57600080fd5b506001600160a01b03813581169160200135166105aa565b6101536004803603602081101561019957600080fd5b50356001600160a01b03166105d0565b6000546001600160a01b031681565b6001546001600160a01b031681565b600381815481106101d457fe5b6000918252602090912001546001600160a01b0316905081565b60035490565b6000826001600160a01b0316846001600160a01b0316141561025d576040805162461bcd60e51b815260206004820181905260248201527f4b616c6569646f537761703a204944454e544943414c5f414444524553534553604482015290519081900360640190fd5b600080846001600160a01b0316866001600160a01b031610610280578486610283565b85855b90925090506001600160a01b0382166102e3576040805162461bcd60e51b815260206004820152601960248201527f4b616c6569646f537761703a205a45524f5f4144445245535300000000000000604482015290519081900360640190fd5b6001600160a01b0382811660009081526002602090815260408083208585168452909152902054161561035d576040805162461bcd60e51b815260206004820152601860248201527f4b616c6569646f537761703a20504149525f4558495354530000000000000000604482015290519081900360640190fd5b6000828260405160200180836001600160a01b031660601b8152601401826001600160a01b031660601b815260140192505050604051602081830303815290604052805190602001209050806040516103b59061064a565b8190604051809103906000f59050801580156103d5573d6000803e3d6000fd5b509350836001600160a01b0316636ecf2b228484886040518463ffffffff1660e01b815260040180846001600160a01b03168152602001836001600160a01b031681526020018263ffffffff1681526020019350505050600060405180830381600087803b15801561044657600080fd5b505af115801561045a573d6000803e3d6000fd5b505050506001600160a01b0383811660008181526002602081815260408084208887168086529083528185208054978c166001600160a01b031998891681179091559383528185208686528352818520805488168517905560038054600181018255958190527fc2575a0e9e593c00f959f8c92f12db2869c3395a3b0502d05e2516446f71f85b90950180549097168417909655925483519283529082015281517f0d3648bd0f6ba80134a33ba9275ac585d9d315f0ad8355cddefde31afa28d0e9929181900390910190a35050509392505050565b6001546001600160a01b03163314610588576040805162461bcd60e51b815260206004820152601660248201527525b0b632b4b237a9bbb0b81d102327a92124a22222a760511b604482015290519081900360640190fd5b600180546001600160a01b0319166001600160a01b0392909216919091179055565b60026020908152600092835260408084209091529082529020546001600160a01b031681565b6001546001600160a01b03163314610628576040805162461bcd60e51b815260206004820152601660248201527525b0b632b4b237a9bbb0b81d102327a92124a22222a760511b604482015290519081900360640190fd5b600080546001600160a01b0319166001600160a01b0392909216919091179055565b612674806106588339019056fe60806040526007805463ffffffff60a01b1916600f60a11b1790556001600c5534801561002b57600080fd5b50604080518082018252600f81526e4b616c6569646f53776170204c507360881b6020918201528151808301835260018152603160f81b9082015281517f8b73c3c69bb8fe3d512ecc4cf759cc79239f7b179b0ffacaa9a75d522b39400f818301527fccd8c2749b016cefe7ecb93c9ab1883bdb7ce60315c6741dc702ca338b802d85818401527fc89efdaa54c0f20c7adf612882df0950f5a951637e0307cdcb4c672f298b8bc660608201524660808201523060a0808301919091528351808303909101815260c09091019092528151910120600355600580546001600160a01b03191633179055612551806101236000396000f3fe608060405234801561001057600080fd5b50600436106102275760003560e01c80637464fc3d11610130578063bc25cf77116100b8578063d505accf1161007c578063d505accf1461065e578063dc0c81b5146106af578063dd336c12146106b7578063dd62ed3e146106e5578063fff6cae91461071357610227565b8063bc25cf77146105fa578063c45a015514610620578063cca3e83214610628578063d21220a71461064e578063d28d88521461065657610227565b8063982aaf6b116100ff578063982aaf6b14610590578063a9059cbb14610598578063b09f1266146105c4578063b9844d8d146105cc578063ba9a7a56146105f257610227565b80637464fc3d1461051b5780637ecebe001461052357806389afcb441461054957806395d89b411461058857610227565b806332424aa3116101b35780635909c0d5116101825780635909c0d5146104825780635a3d54931461048a5780636a627842146104925780636ecf2b22146104b857806370a08231146104f557610227565b806332424aa3146104495780633644e515146104515780633eaaf86b1461045957806354cf2aeb1461046157610227565b80630dfe1681116101fa5780630dfe1681146103af57806318160ddd146103d357806323b872dd146103ed57806330adf81f14610423578063313ce5671461042b57610227565b8063022c0d9f1461022c57806306fdde03146102ba5780630902f1ac14610337578063095ea7b31461036f575b600080fd5b6102b86004803603608081101561024257600080fd5b8135916020810135916001600160a01b03604083013516919081019060808101606082013564010000000081111561027957600080fd5b82018360208201111561028b57600080fd5b803590602001918460018302840111640100000000831117156102ad57600080fd5b50909250905061071b565b005b6102c2610c5d565b6040805160208082528351818301528351919283929083019185019080838360005b838110156102fc5781810151838201526020016102e4565b50505050905090810190601f1680156103295780820380516001836020036101000a031916815260200191505b509250505060405180910390f35b61033f610c6c565b604080516001600160701b03948516815292909316602083015263ffffffff168183015290519081900360600190f35b61039b6004803603604081101561038557600080fd5b506001600160a01b038135169060200135610c96565b604080519115158252519081900360200190f35b6103b7610cab565b604080516001600160a01b039092168252519081900360200190f35b6103db610cba565b60408051918252519081900360200190f35b61039b6004803603606081101561040357600080fd5b506001600160a01b03813581169160208101359091169060400135610cc4565b6103db610cd9565b610433610ce3565b6040805160ff9092168252519081900360200190f35b610433610ced565b6103db610cf2565b6103db610cfc565b610469610d02565b6040805163ffffffff9092168252519081900360200190f35b6103db610d15565b6103db610d1b565b6103db600480360360208110156104a857600080fd5b50356001600160a01b0316610d21565b6102b8600480360360608110156104ce57600080fd5b5080356001600160a01b03908116916020810135909116906040013563ffffffff16610fff565b6103db6004803603602081101561050b57600080fd5b50356001600160a01b03166110a6565b6103db6110b9565b6103db6004803603602081101561053957600080fd5b50356001600160a01b03166110bf565b61056f6004803603602081101561055f57600080fd5b50356001600160a01b03166110ca565b6040805192835260208301919091528051918290030190f35b6102c2611460565b6103db61146a565b61039b600480360360408110156105ae57600080fd5b506001600160a01b03813516906020013561148e565b6102c261149a565b6103db600480360360208110156105e257600080fd5b50356001600160a01b03166114c0565b6103db6114d2565b6102b86004803603602081101561061057600080fd5b50356001600160a01b03166114d8565b6103b761164c565b6103db6004803603602081101561063e57600080fd5b50356001600160a01b031661165b565b6103b761166d565b6102c261167c565b6102b8600480360360e081101561067457600080fd5b506001600160a01b03813581169160208101359091169060408101359060608101359060ff6080820135169060a08101359060c001356116a7565b6103db6116bf565b6103db600480360360408110156106cd57600080fd5b506001600160a01b03813581169160200135166116c5565b6103db600480360360408110156106fb57600080fd5b506001600160a01b03813581169160200135166116e2565b6102b86116ee565b600c54600114610768576040805162461bcd60e51b815260206004820152601360248201527212d85b195a591bd4ddd85c0e881313d0d2d151606a1b604482015290519081900360640190fd5b6000600c558415158061077b5750600084115b6107b65760405162461bcd60e51b81526004018080602001828103825260278152602001806124826027913960400191505060405180910390fd5b6000806107c1610c6c565b5091509150816001600160701b0316871080156107e65750806001600160701b031686105b6108215760405162461bcd60e51b81526004018080602001828103825260238152602001806124a96023913960400191505060405180910390fd5b60065460075460009182916001600160a01b0391821691908116908916821480159061085f5750806001600160a01b0316896001600160a01b031614155b6108b0576040805162461bcd60e51b815260206004820152601760248201527f4b616c6569646f537761703a20494e56414c49445f544f000000000000000000604482015290519081900360640190fd5b8a156108c1576108c1828a8d611852565b89156108d2576108d2818a8c611852565b861561098457886001600160a01b031663a325f2c8338d8d8c8c6040518663ffffffff1660e01b815260040180866001600160a01b03168152602001858152602001848152602001806020018281038252848482818152602001925080828437600081840152601f19601f8201169050808301925050509650505050505050600060405180830381600087803b15801561096b57600080fd5b505af115801561097f573d6000803e3d6000fd5b505050505b604080516370a0823160e01b815230600482015290516001600160a01b038416916370a08231916024808301926020929190829003018186803b1580156109ca57600080fd5b505afa1580156109de573d6000803e3d6000fd5b505050506040513d60208110156109f457600080fd5b5051604080516370a0823160e01b815230600482015290519195506001600160a01b038316916370a0823191602480820192602092909190829003018186803b158015610a4057600080fd5b505afa158015610a54573d6000803e3d6000fd5b505050506040513d6020811015610a6a57600080fd5b5051925060009150506001600160701b0385168a90038311610a8d576000610a9c565b89856001600160701b03160383035b9050600089856001600160701b0316038311610ab9576000610ac8565b89856001600160701b03160383035b90506000821180610ad95750600081115b610b145760405162461bcd60e51b81526004018080602001828103825260268152602001806124f66026913960400191505060405180910390fd5b600754600090610b4c90610b3a90859063ffffffff600160a01b9091048116906119ec16565b610b46876127106119ec565b90611a4f565b600754909150600090610b7590610b3a90859063ffffffff600160a01b9091048116906119ec16565b9050610b9b6305f5e100610b956001600160701b038b8116908b166119ec565b906119ec565b610ba583836119ec565b1015610be9576040805162461bcd60e51b815260206004820152600e60248201526d4b616c6569646f537761703a204b60901b604482015290519081900360640190fd5b5050610bf784848888611a9f565b60408051838152602081018390528082018d9052606081018c905290516001600160a01b038b169133917fd78ad95fa46c994b6551d0da85fc275fe613ce37657fb8d5e3d130840159d8229181900360800190a350506001600c55505050505050505050565b6060610c67611c60565b905090565b6008546001600160701b0380821692600160701b830490911691600160e01b900463ffffffff1690565b6000610ca28383611c89565b90505b92915050565b6006546001600160a01b031681565b6000610c67611c9f565b6000610cd1848484611ca5565b949350505050565b6000610c67611d39565b6000610c67611d5d565b601281565b6000610c67611d62565b60005481565b600754600160a01b900463ffffffff1681565b600a5481565b600b5481565b6000600c54600114610d70576040805162461bcd60e51b815260206004820152601360248201527212d85b195a591bd4ddd85c0e881313d0d2d151606a1b604482015290519081900360640190fd5b6000600c81905580610d80610c6c565b50600654604080516370a0823160e01b815230600482015290519395509193506000926001600160a01b03909116916370a08231916024808301926020929190829003018186803b158015610dd457600080fd5b505afa158015610de8573d6000803e3d6000fd5b505050506040513d6020811015610dfe57600080fd5b5051600754604080516370a0823160e01b815230600482015290519293506000926001600160a01b03909216916370a0823191602480820192602092909190829003018186803b158015610e5157600080fd5b505afa158015610e65573d6000803e3d6000fd5b505050506040513d6020811015610e7b57600080fd5b505190506000610e94836001600160701b038716611a4f565b90506000610eab836001600160701b038716611a4f565b90506000610eb98787611d68565b60005490915080610ef057610edc6103e8610b46610ed787876119ec565b611ea8565b9850610eeb60006103e8611ef9565b610f33565b610f306001600160701b038916610f0786846119ec565b81610f0e57fe5b046001600160701b038916610f2386856119ec565b81610f2a57fe5b04611f83565b98505b60008911610f725760405162461bcd60e51b815260040180806020018281038252602a815260200180612458602a913960400191505060405180910390fd5b610f7c8a8a611ef9565b610f8886868a8a611a9f565b8115610fb257600854610fae906001600160701b0380821691600160701b9004166119ec565b6009555b6040805185815260208101859052815133927f4c209b5fc8ad50758f13e2e1088ba56a560dff690a1c6fef26394f4c03821c4f928290030190a250506001600c5550949695505050505050565b6005546001600160a01b03163314611057576040805162461bcd60e51b815260206004820152601660248201527525b0b632b4b237a9bbb0b81d102327a92124a22222a760511b604482015290519081900360640190fd5b600680546001600160a01b03199081166001600160a01b039586161790915560078054909116929093169190911763ffffffff60a01b1916600160a01b63ffffffff9290921691909102179055565b60006110b182611f99565b90505b919050565b60095481565b60006110b182611fb4565b600080600c5460011461111a576040805162461bcd60e51b815260206004820152601360248201527212d85b195a591bd4ddd85c0e881313d0d2d151606a1b604482015290519081900360640190fd5b6000600c8190558061112a610c6c565b50600654600754604080516370a0823160e01b815230600482015290519496509294506001600160a01b039182169391169160009184916370a08231916024808301926020929190829003018186803b15801561118657600080fd5b505afa15801561119a573d6000803e3d6000fd5b505050506040513d60208110156111b057600080fd5b5051604080516370a0823160e01b815230600482015290519192506000916001600160a01b038516916370a08231916024808301926020929190829003018186803b1580156111fe57600080fd5b505afa158015611212573d6000803e3d6000fd5b505050506040513d602081101561122857600080fd5b5051306000908152600160205260408120549192506112478888611d68565b6000549091508061125884876119ec565b8161125f57fe5b049a508061126d84866119ec565b8161127457fe5b04995060008b118015611287575060008a115b6112c25760405162461bcd60e51b815260040180806020018281038252602a8152602001806124cc602a913960400191505060405180910390fd5b6112cc3084611fcf565b6112d7878d8d611852565b6112e2868d8c611852565b604080516370a0823160e01b815230600482015290516001600160a01b038916916370a08231916024808301926020929190829003018186803b15801561132857600080fd5b505afa15801561133c573d6000803e3d6000fd5b505050506040513d602081101561135257600080fd5b5051604080516370a0823160e01b815230600482015290519196506001600160a01b038816916370a0823191602480820192602092909190829003018186803b15801561139e57600080fd5b505afa1580156113b2573d6000803e3d6000fd5b505050506040513d60208110156113c857600080fd5b505193506113d885858b8b611a9f565b8115611402576008546113fe906001600160701b0380821691600160701b9004166119ec565b6009555b604080518c8152602081018c905281516001600160a01b038f169233927fdccd412f0b1252819cb1fd330b93224ca42612892bb3f4f789976e6d81936496929081900390910190a35050505050505050506001600c81905550915091565b6060610c67612061565b7f6e71edae12b1b97f4d1f60370fef10105fa2faae0126114a169c64845d6126c981565b6000610ca28383612085565b6040518060400160405280600a81526020016904b414c4549444f2d4c560b41b81525081565b60046020526000908152604090205481565b6103e881565b600c54600114611525576040805162461bcd60e51b815260206004820152601360248201527212d85b195a591bd4ddd85c0e881313d0d2d151606a1b604482015290519081900360640190fd5b6000600c55600654600754600854604080516370a0823160e01b815230600482015290516001600160a01b0394851694909316926115ce92859287926115c9926001600160701b03169185916370a0823191602480820192602092909190829003018186803b15801561159757600080fd5b505afa1580156115ab573d6000803e3d6000fd5b505050506040513d60208110156115c157600080fd5b505190611a4f565b611852565b61164281846115c96008600e9054906101000a90046001600160701b03166001600160701b0316856001600160a01b03166370a08231306040518263ffffffff1660e01b815260040180826001600160a01b0316815260200191505060206040518083038186803b15801561159757600080fd5b50506001600c5550565b6005546001600160a01b031681565b60016020526000908152604090205481565b6007546001600160a01b031681565b6040518060400160405280600f81526020016e4b616c6569646f53776170204c507360881b81525081565b6116b687878787878787612092565b50505050505050565b60035481565b600260209081526000928352604080842090915290825290205481565b6000610ca28383612296565b600c5460011461173b576040805162461bcd60e51b815260206004820152601360248201527212d85b195a591bd4ddd85c0e881313d0d2d151606a1b604482015290519081900360640190fd5b6000600c55600654604080516370a0823160e01b8152306004820152905161184b926001600160a01b0316916370a08231916024808301926020929190829003018186803b15801561178c57600080fd5b505afa1580156117a0573d6000803e3d6000fd5b505050506040513d60208110156117b657600080fd5b5051600754604080516370a0823160e01b815230600482015290516001600160a01b03909216916370a0823191602480820192602092909190829003018186803b15801561180357600080fd5b505afa158015611817573d6000803e3d6000fd5b505050506040513d602081101561182d57600080fd5b50516008546001600160701b0380821691600160701b900416611a9f565b6001600c55565b604080518082018252601981527f7472616e7366657228616464726573732c75696e74323536290000000000000060209182015281516001600160a01b0385811660248301526044808301869052845180840390910181526064909201845291810180516001600160e01b031663a9059cbb60e01b1781529251815160009460609489169392918291908083835b602083106118ff5780518252601f1990920191602091820191016118e0565b6001836020036101000a0380198251168184511680821785525050505050509050019150506000604051808303816000865af19150503d8060008114611961576040519150601f19603f3d011682016040523d82523d6000602084013e611966565b606091505b5091509150818015611994575080511580611994575080806020019051602081101561199157600080fd5b50515b6119e5576040805162461bcd60e51b815260206004820152601c60248201527f4b616c6569646f537761703a205452414e534645525f4641494c454400000000604482015290519081900360640190fd5b5050505050565b6000811580611a0757505080820282828281611a0457fe5b04145b610ca5576040805162461bcd60e51b815260206004820152601460248201527364732d6d6174682d6d756c2d6f766572666c6f7760601b604482015290519081900360640190fd5b80820382811115610ca5576040805162461bcd60e51b815260206004820152601560248201527464732d6d6174682d7375622d756e646572666c6f7760581b604482015290519081900360640190fd5b6001600160701b038411801590611abd57506001600160701b038311155b611b06576040805162461bcd60e51b81526020600482015260156024820152744b616c6569646f537761703a204f564552464c4f5760581b604482015290519081900360640190fd5b60085463ffffffff42811691600160e01b90048116820390811615801590611b3657506001600160701b03841615155b8015611b4a57506001600160701b03831615155b15611bb5578063ffffffff16611b7285611b63866122c1565b6001600160e01b0316906122d3565b600a80546001600160e01b03929092169290920201905563ffffffff8116611b9d84611b63876122c1565b600b80546001600160e01b0392909216929092020190555b600880546dffffffffffffffffffffffffffff19166001600160701b03888116919091176dffffffffffffffffffffffffffff60701b1916600160701b8883168102919091176001600160e01b0316600160e01b63ffffffff871602179283905560408051848416815291909304909116602082015281517f1c411e9a96e071241c2f21f7726b17ae89e3cab4c78be50e062b03a9fffbbad1929181900390910190a1505050505050565b60408051808201909152600f81526e4b616c6569646f53776170204c507360881b602082015290565b6000611c963384846122f8565b50600192915050565b60005490565b6001600160a01b038316600090815260026020908152604080832033845290915281205460001914611d24576001600160a01b0384166000908152600260209081526040808320338452909152902054611cff9083611a4f565b6001600160a01b03851660009081526002602090815260408083203384529091529020555b611d2f84848461235a565b5060019392505050565b7f6e71edae12b1b97f4d1f60370fef10105fa2faae0126114a169c64845d6126c990565b601290565b60035490565b600080600560009054906101000a90046001600160a01b03166001600160a01b031663017e7e586040518163ffffffff1660e01b815260040160206040518083038186803b158015611db957600080fd5b505afa158015611dcd573d6000803e3d6000fd5b505050506040513d6020811015611de357600080fd5b50516009546001600160a01b038216158015945091925090611e94578015611e8f576000611e20610ed76001600160701b038881169088166119ec565b90506000611e2d83611ea8565b905080821115611e8c576000611e4f611e468484611a4f565b600054906119ec565b90506000611e6883611e628660056119ec565b90612408565b90506000818381611e7557fe5b0490508015611e8857611e888782611ef9565b5050505b50505b611ea0565b8015611ea05760006009555b505092915050565b60006003821115611eeb575080600160028204015b81811015611ee557809150600281828581611ed457fe5b040181611edd57fe5b049050611ebd565b506110b4565b81156110b457506001919050565b600054611f069082612408565b60009081556001600160a01b038316815260016020526040902054611f2b9082612408565b6001600160a01b03831660008181526001602090815260408083209490945583518581529351929391927fddf252ad1be2c89b69c2b068fc378daa952ba7f163c4a11628f55a4df523b3ef9281900390910190a35050565b6000818310611f925781610ca2565b5090919050565b6001600160a01b031660009081526001602052604090205490565b6001600160a01b031660009081526004602052604090205490565b6001600160a01b038216600090815260016020526040902054611ff29082611a4f565b6001600160a01b038316600090815260016020526040812091909155546120199082611a4f565b60009081556040805183815290516001600160a01b038516917fddf252ad1be2c89b69c2b068fc378daa952ba7f163c4a11628f55a4df523b3ef919081900360200190a35050565b60408051808201909152600a81526904b414c4549444f2d4c560b41b602082015290565b6000611c9633848461235a565b428410156120de576040805162461bcd60e51b815260206004820152601460248201527312d85b195a591bd4ddd85c0e881156141254915160621b604482015290519081900360640190fd5b6003546001600160a01b0380891660008181526004602090815260408083208054600180820190925582517f6e71edae12b1b97f4d1f60370fef10105fa2faae0126114a169c64845d6126c98186015280840196909652958d166060860152608085018c905260a085019590955260c08085018b90528151808603909101815260e08501825280519083012061190160f01b6101008601526101028501969096526101228085019690965280518085039096018652610142840180825286519683019690962095839052610162840180825286905260ff89166101828501526101a284018890526101c28401879052519193926101e280820193601f1981019281900390910190855afa1580156121f9573d6000803e3d6000fd5b5050604051601f1901519150506001600160a01b0381161580159061222f5750886001600160a01b0316816001600160a01b0316145b612280576040805162461bcd60e51b815260206004820152601e60248201527f4b616c6569646f537761703a20494e56414c49445f5349474e41545552450000604482015290519081900360640190fd5b61228b8989896122f8565b505050505050505050565b6001600160a01b03918216600090815260026020908152604080832093909416825291909152205490565b6001600160701b0316600160701b0290565b60006001600160701b0382166001600160e01b038416816122f057fe5b049392505050565b6001600160a01b03808416600081815260026020908152604080832094871680845294825291829020859055815185815291517f8c5be1e5ebec7d5bd14f71427d1e84f3dd0314c0f7b2291e5b200ac8c7c3b9259281900390910190a3505050565b6001600160a01b03831660009081526001602052604090205461237d9082611a4f565b6001600160a01b0380851660009081526001602052604080822093909355908416815220546123ac9082612408565b6001600160a01b0380841660008181526001602090815260409182902094909455805185815290519193928716927fddf252ad1be2c89b69c2b068fc378daa952ba7f163c4a11628f55a4df523b3ef92918290030190a3505050565b80820182811015610ca5576040805162461bcd60e51b815260206004820152601460248201527364732d6d6174682d6164642d6f766572666c6f7760601b604482015290519081900360640190fdfe4b616c6569646f537761703a20494e53554646494349454e545f4c49515549444954595f4d494e5445444b616c6569646f537761703a20494e53554646494349454e545f4f55545055545f414d4f554e544b616c6569646f537761703a20494e53554646494349454e545f4c49515549444954594b616c6569646f537761703a20494e53554646494349454e545f4c49515549444954595f4255524e45444b616c6569646f537761703a20494e53554646494349454e545f494e5055545f414d4f554e54a26469706673582212202967b25a21f42e3a442ae0b6c47514ec3baa99d337d56eff903c8c445eeeec5f64736f6c634300060c0033a264697066735822122072bb5005b11060adbdc77e7b0622546b644d8393a425813c6264e7ec8522020e64736f6c634300060c0033",
  "linkReferences": {},
  "deployedLinkReferences": {}
}