{
  "_format": "hh-sol-artifact-1",
  "contractName": "PythPriceOracle",
  "sourceName": "contracts/utils/oracle/PythPriceOracle.sol",
  "abi": [
    {
      "inputs": [
        {
          "internalType": "address",
          "name": "pythContract",
          "type": "address"
        }
      ],
      "stateMutability": "nonpayable",
      "type": "constructor"
    },
    {
      "inputs": [],
      "name": "NotAuthorized",
      "type": "error"
    },
    {
      "anonymous": false,
      "inputs": [
        {
          "indexed": true,
          "internalType": "bytes32",
          "name": "feedId",
          "type": "bytes32"
        },
        {
          "indexed": false,
          "internalType": "bytes[]",
          "name": "priceUpdate",
          "type": "bytes[]"
        }
      ],
      "name": "PriceUpdated",
      "type": "event"
    },
    {
      "inputs": [],
      "name": "ethPriceId",
      "outputs": [
        {
          "internalType": "bytes32",
          "name": "",
          "type": "bytes32"
        }
      ],
      "stateMutability": "view",
      "type": "function"
    },
    {
      "inputs": [],
      "name": "getEthLatestPrice",
      "outputs": [
        {
          "internalType": "int64",
          "name": "",
          "type": "int64"
        }
      ],
      "stateMutability": "view",
      "type": "function"
    },
    {
      "inputs": [
        {
          "internalType": "bytes32",
          "name": "priceFeedId",
          "type": "bytes32"
        }
      ],
      "name": "getPrice",
      "outputs": [
        {
          "components": [
            {
              "internalType": "int64",
              "name": "price",
              "type": "int64"
            },
            {
              "internalType": "uint64",
              "name": "conf",
              "type": "uint64"
            },
            {
              "internalType": "int32",
              "name": "expo",
              "type": "int32"
            },
            {
              "internalType": "uint256",
              "name": "publishTime",
              "type": "uint256"
            }
          ],
          "internalType": "struct PythStructs.Price",
          "name": "",
          "type": "tuple"
        }
      ],
      "stateMutability": "view",
      "type": "function"
    },
    {
      "inputs": [
        {
          "internalType": "bytes32",
          "name": "priceFeedId",
          "type": "bytes32"
        }
      ],
      "name": "getSafePrice",
      "outputs": [
        {
          "components": [
            {
              "internalType": "int64",
              "name": "price",
              "type": "int64"
            },
            {
              "internalType": "uint64",
              "name": "conf",
              "type": "uint64"
            },
            {
              "internalType": "int32",
              "name": "expo",
              "type": "int32"
            },
            {
              "internalType": "uint256",
              "name": "publishTime",
              "type": "uint256"
            }
          ],
          "internalType": "struct PythStructs.Price",
          "name": "",
          "type": "tuple"
        }
      ],
      "stateMutability": "view",
      "type": "function"
    },
    {
      "inputs": [],
      "name": "getUsdcLatestPrice",
      "outputs": [
        {
          "internalType": "int64",
          "name": "",
          "type": "int64"
        }
      ],
      "stateMutability": "view",
      "type": "function"
    },
    {
      "inputs": [],
      "name": "pyth",
      "outputs": [
        {
          "internalType": "contract IPyth",
          "name": "",
          "type": "address"
        }
      ],
      "stateMutability": "view",
      "type": "function"
    },
    {
      "inputs": [
        {
          "internalType": "bytes32",
          "name": "newPriceFeedId",
          "type": "bytes32"
        }
      ],
      "name": "setEthPriceId",
      "outputs": [
        {
          "internalType": "bool",
          "name": "",
          "type": "bool"
        }
      ],
      "stateMutability": "nonpayable",
      "type": "function"
    },
    {
      "inputs": [
        {
          "internalType": "bytes32",
          "name": "newPriceFeedId",
          "type": "bytes32"
        }
      ],
      "name": "setUsdcPriceId",
      "outputs": [
        {
          "internalType": "bool",
          "name": "",
          "type": "bool"
        }
      ],
      "stateMutability": "nonpayable",
      "type": "function"
    },
    {
      "inputs": [
        {
          "internalType": "bytes[]",
          "name": "priceUpdate",
          "type": "bytes[]"
        },
        {
          "internalType": "bytes32",
          "name": "priceFeedId",
          "type": "bytes32"
        }
      ],
      "name": "updatePrice",
      "outputs": [],
      "stateMutability": "payable",
      "type": "function"
    },
    {
      "inputs": [],
      "name": "usdcPriceId",
      "outputs": [
        {
          "internalType": "bytes32",
          "name": "",
          "type": "bytes32"
        }
      ],
      "stateMutability": "view",
      "type": "function"
    }
  ],
  "bytecode": "0x60a0346100e857601f6108d038819003918201601f19168301916001600160401b038311848410176100ed578084926020946040528339810103126100e857516001600160a01b038116908190036100e8577fff61491a931112ddf1bd8147cd1b641375f79f5825126d665480874634fd0ace6001557feaa020c61cc479712813461ce153894a96a6c00b21ed0cfc2798d1f9a9e9c94a600255608052600080546001600160a01b031916331790556040516107cc9081610104823960805181818160a40152818161014001528181610224015281816103bc0152818161047c01526105970152f35b600080fd5b634e487b7160e01b600052604160045260246000fdfe6040608081526004908136101561001557600080fd5b600091823560e01c9081630903f70e14610556578163243509cc1461052557816331d98b3f14610442578163567179d0146104015781637c8f055a1461038f578163971dff69146101c4578163a625d21d1461011357508063cfe68a4e146100f5578063d84eac7d146100d75763f98d06f01461009157600080fd5b346100d357816003193601126100d357517f00000000000000000000000000000000000000000000000000000000000000006001600160a01b03168152602090f35b5080fd5b50346100d357816003193601126100d3576020906002549051908152f35b50346100d357816003193601126100d3576020906001549051908152f35b9050346101c057826003193601126101c05760015482516396834ad360e01b8152918201526080816024817f00000000000000000000000000000000000000000000000000000000000000006001600160a01b03165afa9081156101b45760209391610186575b505160070b9051908152f35b6101a7915060803d81116101ad575b61019f8183610643565b81019061070e565b3861017a565b503d610195565b505051903d90823e3d90fd5b8280fd5b9050816003193601126101c05780359167ffffffffffffffff80841161038b573660238501121561038b578383013592818411610387576024850194602436918660051b0101116103875785546001600160a01b039081163303610378577f0000000000000000000000000000000000000000000000000000000000000000169186845163d47eed4560e01b8152602081806102638a8c898401610665565b0381885afa90811561036e57829161033d575b50843b156100d3578551631df3cbc560e31b815294859182908161029d8b8d8a8401610665565b03925af18015610333576102e9575b5050507f91d1ed520ba896798852bfd523e023523436a62246c5dc8903c9a5a6b56418eb916102e391519182916024359583610665565b0390a280f35b82969396116103205750845292816102e37f91d1ed520ba896798852bfd523e023523436a62246c5dc8903c9a5a6b56418eb6102ac565b634e487b7160e01b835260419052602482fd5b84513d89823e3d90fd5b90506020813d8211610366575b8161035760209383610643565b810103126100d3575138610276565b3d915061034a565b86513d84823e3d90fd5b50825163ea8e4eb560e01b8152fd5b8580fd5b8480fd5b9050346101c057826003193601126101c05760025482516396834ad360e01b8152918201526080816024817f00000000000000000000000000000000000000000000000000000000000000006001600160a01b03165afa9081156101b4576020939161018657505160070b9051908152f35b82843461043f57602036600319011261043f57546001600160a01b0316330361043257602091356002555160018152f35b5163ea8e4eb560e01b8152fd5b80fd5b919050346101c05760203660031901126101c05761045e610771565b5080516396834ad360e01b81528235928101929092526080826024817f00000000000000000000000000000000000000000000000000000000000000006001600160a01b03165afa91821561051b576104f793926104fb575b5051918291829190916060806080830194805160070b845267ffffffffffffffff6020820151166020850152604081015160030b60408501520151910152565b0390f35b61051491925060803d81116101ad5761019f8183610643565b90386104b7565b81513d85823e3d90fd5b82843461043f57602036600319011261043f57546001600160a01b0316330361043257602091356001555160018152f35b919050346101c05760203660031901126101c057610572610771565b50805163052571af60e51b8152823592810192909252603c60248301526080826044817f00000000000000000000000000000000000000000000000000000000000000006001600160a01b03165afa91821561051b576104f793926104fb575051918291829190916060806080830194805160070b845267ffffffffffffffff6020820151166020850152604081015160030b60408501520151910152565b6080810190811067ffffffffffffffff82111761062d57604052565b634e487b7160e01b600052604160045260246000fd5b90601f8019910116810190811067ffffffffffffffff82111761062d57604052565b9160208181850182865252604084019360408360051b82010194846000925b858410610695575050505050505090565b90919293949596603f198282030184528735601e198436030181121561070957830186810191903567ffffffffffffffff81116107095780360383136107095787828280600196849695859652848401376000828201840152601f01601f1916010199019796959190910193019190610684565b600080fd5b90816080910312610709576040519061072682610611565b80518060070b8103610709578252602081015167ffffffffffffffff811681036107095760208301526040810151908160030b82036107095760609160408401520151606082015290565b6040519061077e82610611565b6000606083828152826020820152826040820152015256fea264697066735822122082921b15743584e3bdb5ac4cb268b5f19e98808b241b114826d18fd28e96031664736f6c63430008140033",
  "linkReferences": {},
  "deployedLinkReferences": {}
}