{
  "_format": "hh-sol-artifact-1",
  "contractName": "KaleidoSuperNode",
  "sourceName": "contracts/NFTmint.sol",
  "abi": [
    {
      "inputs": [],
      "stateMutability": "nonpayable",
      "type": "constructor"
    },
    {
      "inputs": [
        {
          "internalType": "address",
          "name": "sender",
          "type": "address"
        },
        {
          "internalType": "uint256",
          "name": "tokenId",
          "type": "uint256"
        },
        {
          "internalType": "address",
          "name": "owner",
          "type": "address"
        }
      ],
      "name": "ERC721IncorrectOwner",
      "type": "error"
    },
    {
      "inputs": [
        {
          "internalType": "address",
          "name": "operator",
          "type": "address"
        },
        {
          "internalType": "uint256",
          "name": "tokenId",
          "type": "uint256"
        }
      ],
      "name": "ERC721InsufficientApproval",
      "type": "error"
    },
    {
      "inputs": [
        {
          "internalType": "address",
          "name": "approver",
          "type": "address"
        }
      ],
      "name": "ERC721InvalidApprover",
      "type": "error"
    },
    {
      "inputs": [
        {
          "internalType": "address",
          "name": "operator",
          "type": "address"
        }
      ],
      "name": "ERC721InvalidOperator",
      "type": "error"
    },
    {
      "inputs": [
        {
          "internalType": "address",
          "name": "owner",
          "type": "address"
        }
      ],
      "name": "ERC721InvalidOwner",
      "type": "error"
    },
    {
      "inputs": [
        {
          "internalType": "address",
          "name": "receiver",
          "type": "address"
        }
      ],
      "name": "ERC721InvalidReceiver",
      "type": "error"
    },
    {
      "inputs": [
        {
          "internalType": "address",
          "name": "sender",
          "type": "address"
        }
      ],
      "name": "ERC721InvalidSender",
      "type": "error"
    },
    {
      "inputs": [
        {
          "internalType": "uint256",
          "name": "tokenId",
          "type": "uint256"
        }
      ],
      "name": "ERC721NonexistentToken",
      "type": "error"
    },
    {
      "inputs": [
        {
          "internalType": "address",
          "name": "owner",
          "type": "address"
        }
      ],
      "name": "OwnableInvalidOwner",
      "type": "error"
    },
    {
      "inputs": [
        {
          "internalType": "address",
          "name": "account",
          "type": "address"
        }
      ],
      "name": "OwnableUnauthorizedAccount",
      "type": "error"
    },
    {
      "anonymous": false,
      "inputs": [
        {
          "indexed": true,
          "internalType": "address",
          "name": "owner",
          "type": "address"
        },
        {
          "indexed": true,
          "internalType": "address",
          "name": "approved",
          "type": "address"
        },
        {
          "indexed": true,
          "internalType": "uint256",
          "name": "tokenId",
          "type": "uint256"
        }
      ],
      "name": "Approval",
      "type": "event"
    },
    {
      "anonymous": false,
      "inputs": [
        {
          "indexed": true,
          "internalType": "address",
          "name": "owner",
          "type": "address"
        },
        {
          "indexed": true,
          "internalType": "address",
          "name": "operator",
          "type": "address"
        },
        {
          "indexed": false,
          "internalType": "bool",
          "name": "approved",
          "type": "bool"
        }
      ],
      "name": "ApprovalForAll",
      "type": "event"
    },
    {
      "anonymous": false,
      "inputs": [
        {
          "indexed": false,
          "internalType": "string",
          "name": "newBaseUri",
          "type": "string"
        }
      ],
      "name": "BaseUriUpdated",
      "type": "event"
    },
    {
      "anonymous": false,
      "inputs": [
        {
          "indexed": true,
          "internalType": "address",
          "name": "previousOwner",
          "type": "address"
        },
        {
          "indexed": true,
          "internalType": "address",
          "name": "newOwner",
          "type": "address"
        }
      ],
      "name": "OwnershipTransferred",
      "type": "event"
    },
    {
      "anonymous": false,
      "inputs": [
        {
          "indexed": false,
          "internalType": "uint256",
          "name": "newPrice",
          "type": "uint256"
        }
      ],
      "name": "PriceUpdated",
      "type": "event"
    },
    {
      "anonymous": false,
      "inputs": [
        {
          "indexed": false,
          "internalType": "bool",
          "name": "isActive",
          "type": "bool"
        }
      ],
      "name": "SaleStateChanged",
      "type": "event"
    },
    {
      "anonymous": false,
      "inputs": [
        {
          "indexed": true,
          "internalType": "address",
          "name": "owner",
          "type": "address"
        },
        {
          "indexed": false,
          "internalType": "uint256",
          "name": "quantity",
          "type": "uint256"
        },
        {
          "indexed": false,
          "internalType": "uint256",
          "name": "totalCost",
          "type": "uint256"
        }
      ],
      "name": "TokensMinted",
      "type": "event"
    },
    {
      "anonymous": false,
      "inputs": [
        {
          "indexed": true,
          "internalType": "address",
          "name": "from",
          "type": "address"
        },
        {
          "indexed": true,
          "internalType": "address",
          "name": "to",
          "type": "address"
        },
        {
          "indexed": true,
          "internalType": "uint256",
          "name": "tokenId",
          "type": "uint256"
        }
      ],
      "name": "Transfer",
      "type": "event"
    },
    {
      "anonymous": false,
      "inputs": [
        {
          "indexed": true,
          "internalType": "address",
          "name": "recipientOne",
          "type": "address"
        },
        {
          "indexed": true,
          "internalType": "address",
          "name": "recipientTwo",
          "type": "address"
        },
        {
          "indexed": false,
          "internalType": "uint256",
          "name": "amountOne",
          "type": "uint256"
        },
        {
          "indexed": false,
          "internalType": "uint256",
          "name": "amountTwo",
          "type": "uint256"
        }
      ],
      "name": "Withdrawal",
      "type": "event"
    },
    {
      "inputs": [],
      "name": "MAX_MINT_PER_TX",
      "outputs": [
        {
          "internalType": "uint256",
          "name": "",
          "type": "uint256"
        }
      ],
      "stateMutability": "view",
      "type": "function"
    },
    {
      "inputs": [],
      "name": "MAX_MINT_PER_WALLET",
      "outputs": [
        {
          "internalType": "uint256",
          "name": "",
          "type": "uint256"
        }
      ],
      "stateMutability": "view",
      "type": "function"
    },
    {
      "inputs": [
        {
          "internalType": "address",
          "name": "to",
          "type": "address"
        },
        {
          "internalType": "uint256",
          "name": "tokenId",
          "type": "uint256"
        }
      ],
      "name": "approve",
      "outputs": [],
      "stateMutability": "nonpayable",
      "type": "function"
    },
    {
      "inputs": [
        {
          "internalType": "address",
          "name": "owner",
          "type": "address"
        }
      ],
      "name": "balanceOf",
      "outputs": [
        {
          "internalType": "uint256",
          "name": "",
          "type": "uint256"
        }
      ],
      "stateMutability": "view",
      "type": "function"
    },
    {
      "inputs": [],
      "name": "baseExtension",
      "outputs": [
        {
          "internalType": "string",
          "name": "",
          "type": "string"
        }
      ],
      "stateMutability": "view",
      "type": "function"
    },
    {
      "inputs": [],
      "name": "baseUri",
      "outputs": [
        {
          "internalType": "string",
          "name": "",
          "type": "string"
        }
      ],
      "stateMutability": "view",
      "type": "function"
    },
    {
      "inputs": [],
      "name": "flipSaleState",
      "outputs": [],
      "stateMutability": "nonpayable",
      "type": "function"
    },
    {
      "inputs": [
        {
          "internalType": "uint256",
          "name": "tokenId",
          "type": "uint256"
        }
      ],
      "name": "getApproved",
      "outputs": [
        {
          "internalType": "address",
          "name": "",
          "type": "address"
        }
      ],
      "stateMutability": "view",
      "type": "function"
    },
    {
      "inputs": [
        {
          "internalType": "address",
          "name": "owner",
          "type": "address"
        },
        {
          "internalType": "address",
          "name": "operator",
          "type": "address"
        }
      ],
      "name": "isApprovedForAll",
      "outputs": [
        {
          "internalType": "bool",
          "name": "",
          "type": "bool"
        }
      ],
      "stateMutability": "view",
      "type": "function"
    },
    {
      "inputs": [],
      "name": "isSaleActive",
      "outputs": [
        {
          "internalType": "bool",
          "name": "",
          "type": "bool"
        }
      ],
      "stateMutability": "view",
      "type": "function"
    },
    {
      "inputs": [
        {
          "internalType": "uint256",
          "name": "_numTokens",
          "type": "uint256"
        }
      ],
      "name": "mint",
      "outputs": [],
      "stateMutability": "payable",
      "type": "function"
    },
    {
      "inputs": [
        {
          "internalType": "address",
          "name": "",
          "type": "address"
        }
      ],
      "name": "mintedPerWallet",
      "outputs": [
        {
          "internalType": "uint256",
          "name": "",
          "type": "uint256"
        }
      ],
      "stateMutability": "view",
      "type": "function"
    },
    {
      "inputs": [],
      "name": "name",
      "outputs": [
        {
          "internalType": "string",
          "name": "",
          "type": "string"
        }
      ],
      "stateMutability": "view",
      "type": "function"
    },
    {
      "inputs": [],
      "name": "owner",
      "outputs": [
        {
          "internalType": "address",
          "name": "",
          "type": "address"
        }
      ],
      "stateMutability": "view",
      "type": "function"
    },
    {
      "inputs": [
        {
          "internalType": "uint256",
          "name": "tokenId",
          "type": "uint256"
        }
      ],
      "name": "ownerOf",
      "outputs": [
        {
          "internalType": "address",
          "name": "",
          "type": "address"
        }
      ],
      "stateMutability": "view",
      "type": "function"
    },
    {
      "inputs": [],
      "name": "price",
      "outputs": [
        {
          "internalType": "uint256",
          "name": "",
          "type": "uint256"
        }
      ],
      "stateMutability": "view",
      "type": "function"
    },
    {
      "inputs": [],
      "name": "renounceOwnership",
      "outputs": [],
      "stateMutability": "nonpayable",
      "type": "function"
    },
    {
      "inputs": [
        {
          "internalType": "address",
          "name": "from",
          "type": "address"
        },
        {
          "internalType": "address",
          "name": "to",
          "type": "address"
        },
        {
          "internalType": "uint256",
          "name": "tokenId",
          "type": "uint256"
        }
      ],
      "name": "safeTransferFrom",
      "outputs": [],
      "stateMutability": "nonpayable",
      "type": "function"
    },
    {
      "inputs": [
        {
          "internalType": "address",
          "name": "from",
          "type": "address"
        },
        {
          "internalType": "address",
          "name": "to",
          "type": "address"
        },
        {
          "internalType": "uint256",
          "name": "tokenId",
          "type": "uint256"
        },
        {
          "internalType": "bytes",
          "name": "data",
          "type": "bytes"
        }
      ],
      "name": "safeTransferFrom",
      "outputs": [],
      "stateMutability": "nonpayable",
      "type": "function"
    },
    {
      "inputs": [
        {
          "internalType": "address",
          "name": "operator",
          "type": "address"
        },
        {
          "internalType": "bool",
          "name": "approved",
          "type": "bool"
        }
      ],
      "name": "setApprovalForAll",
      "outputs": [],
      "stateMutability": "nonpayable",
      "type": "function"
    },
    {
      "inputs": [
        {
          "internalType": "string",
          "name": "_baseUri",
          "type": "string"
        }
      ],
      "name": "setBaseUri",
      "outputs": [],
      "stateMutability": "nonpayable",
      "type": "function"
    },
    {
      "inputs": [
        {
          "internalType": "uint256",
          "name": "_price",
          "type": "uint256"
        }
      ],
      "name": "setPrice",
      "outputs": [],
      "stateMutability": "nonpayable",
      "type": "function"
    },
    {
      "inputs": [
        {
          "internalType": "bytes4",
          "name": "interfaceId",
          "type": "bytes4"
        }
      ],
      "name": "supportsInterface",
      "outputs": [
        {
          "internalType": "bool",
          "name": "",
          "type": "bool"
        }
      ],
      "stateMutability": "view",
      "type": "function"
    },
    {
      "inputs": [],
      "name": "symbol",
      "outputs": [
        {
          "internalType": "string",
          "name": "",
          "type": "string"
        }
      ],
      "stateMutability": "view",
      "type": "function"
    },
    {
      "inputs": [
        {
          "internalType": "uint256",
          "name": "tokenId",
          "type": "uint256"
        }
      ],
      "name": "tokenURI",
      "outputs": [
        {
          "internalType": "string",
          "name": "",
          "type": "string"
        }
      ],
      "stateMutability": "view",
      "type": "function"
    },
    {
      "inputs": [],
      "name": "totalSupply",
      "outputs": [
        {
          "internalType": "uint256",
          "name": "",
          "type": "uint256"
        }
      ],
      "stateMutability": "view",
      "type": "function"
    },
    {
      "inputs": [
        {
          "internalType": "address",
          "name": "from",
          "type": "address"
        },
        {
          "internalType": "address",
          "name": "to",
          "type": "address"
        },
        {
          "internalType": "uint256",
          "name": "tokenId",
          "type": "uint256"
        }
      ],
      "name": "transferFrom",
      "outputs": [],
      "stateMutability": "nonpayable",
      "type": "function"
    },
    {
      "inputs": [
        {
          "internalType": "address",
          "name": "newOwner",
          "type": "address"
        }
      ],
      "name": "transferOwnership",
      "outputs": [],
      "stateMutability": "nonpayable",
      "type": "function"
    },
    {
      "inputs": [
        {
          "internalType": "address payable",
          "name": "recipientOne",
          "type": "address"
        },
        {
          "internalType": "address payable",
          "name": "recipientTwo",
          "type": "address"
        }
      ],
      "name": "withdrawAll",
      "outputs": [],
      "stateMutability": "nonpayable",
      "type": "function"
    },
    {
      "stateMutability": "payable",
      "type": "receive"
    }
  ],
  "bytecode": "0x608034620003e6576040906001600160401b0381830181811183821017620003d0578352601882526020907f4b616c6569646f2053757065724e6f64652058564432364600000000000000008284015283519284840184811083821117620003d057855260038085526225a9a760e91b84860152815192808411620003d057600093806200008e8654620003eb565b94601f95868111620003a0575b508790868311600114620003395787926200032d575b50508160011b9160001990851b1c19161784555b8551908111620003195780600196620000df8854620003eb565b858111620002de575b5086908583116001146200027b5786926200026f575b505060001982841b1c191690861b1785555b33156200025757926261612f60e81b94927f346532657674666c7167796b616a7334327578656f6373337269346965616a7a926002956006543360018060a01b0319821617600655339060018060a01b03167f8be0079c531659141344cd1fd0a4f28419497f9722a3daafe3b4186f6b6457e08580a365ec77f7a440006007556200019d600b54620003eb565b82811162000236575b50600a64173539b7b760d91b01600b55600a54620001c490620003eb565b9082821162000212575b5050506087600a55600a815220917f697066733a2f2f6261667962656964326b7165666a6264326b7034686f7a61728355820155015551611aea9081620004428239f35b6200022d92600a8552858520920160051c8201910162000428565b388080620001ce565b600b84528484206200025091840160051c81019062000428565b38620001a6565b8551631e4fbdf760e01b815260048101849052602490fd5b015190503880620000fe565b8887528787208994509190601f198416885b8a828210620002c75750508411620002ae575b505050811b01855562000110565b015160001983861b60f8161c19169055388080620002a0565b8385015186558c979095019493840193016200028d565b62000308908988528888208780860160051c8201928b87106200030f575b0160051c019062000428565b38620000e8565b92508192620002fc565b634e487b7160e01b84526041600452602484fd5b015190503880620000b1565b8780528888209250601f198416885b8a8282106200038957505090846001959493921062000370575b505050811b018455620000c5565b015160001983871b60f8161c1916905538808062000362565b600185968293968601518155019501930162000348565b620003c9908880528989208880860160051c8201928c87106200030f570160051c019062000428565b386200009b565b634e487b7160e01b600052604160045260246000fd5b600080fd5b90600182811c921680156200041d575b60208310146200040757565b634e487b7160e01b600052602260045260246000fd5b91607f1691620003fb565b81811062000434575050565b600081556001016200042856fe60806040818152600480361015610021575b505050361561001f57600080fd5b005b600092833560e01c90816301ffc9a7146114865750806306fdde03146113de578063081812fc146113a3578063095ea7b3146112c757806309cae2c81461112657806318160ddd1461110757806323b872dd146110ef57806334918dfd146110925780633a602b4d1461105a57806342842e0e1461102b578063564566a8146110075780636352211e14610fd657806370a0823114610f81578063715018a614610f245780638da5cb5b14610efb5780638ecad72114610edf57806391b7f5ed14610e9257806395d89b4114610dea5780639abc832014610db9578063a035b1fe14610d9a578063a0712d6814610974578063a0bcfc7f1461077a578063a22cb465146106d9578063b19960e6146106bd578063b88d4fde1461064a578063c668286214610565578063c87b56dd1461024d578063e985e9c5146101fb5763f2fde38b0361001157346101f75760203660031901126101f75761018261153a565b9061018b61173f565b6001600160a01b039182169283156101e1575050600654826bffffffffffffffffffffffff60a01b821617600655167f8be0079c531659141344cd1fd0a4f28419497f9722a3daafe3b4186f6b6457e08380a380f35b51631e4fbdf760e01b8152908101849052602490fd5b8280fd5b50503461024957806003193601126102495760ff8160209361021b61153a565b610223611555565b6001600160a01b0391821683526005875283832091168252855220549151911615158152f35b5080fd5b50829034610249576020918260031936011261056257813580825260028452848220549091906001600160a01b0316156105075761028961162e565b8051909390156104ec57829082907a184f03e93ff9f4daa797ed6e38ed64bf6a1f01000000000000000083818110156104df575b5050866d04ee2d6d415b85acef8100000000808510156104d0575b5050662386f26fc10000808410156104c1575b506305f5e100808410156104b2575b50612710808410156104a6575b50506064821015610498575b600a80921015610490575b60019182820190610346610331836116ec565b9261033e8b51948561160c565b8084526116ec565b958460218a850195601f19809a01368837850101905b610461575b50505061038b88519661037c815180928b808c0191016114f2565b870191518093898401906114f2565b0182600b549261039a846115a0565b938882821691826000146104385750506001146103e1575b5050505082916103dd936103cc920390810183528261160c565b925b51928284938452830190611515565b0390f35b879450600b82527f0175b7a638427703f0dbe7bb9bbf987a2551717b34e79f33b5b1008d1fa01db95b84831061042357505050010181836103cc6103dd6103b2565b8054848401870152889590920191810161040a565b60ff19168582015285151590950290930190930193508492508591506103cc90506103dd6103b2565b600019019082906f181899199a1a9b1b9c1cb0b131b232b360811b8282061a83530490858261035c5750610361565b60010161031e565b906064600291049101610313565b90920491018780610307565b600891929304920190886102fa565b601091929304920190886102eb565b909192930492019086896102d8565b04925087915088806102bd565b5084516103dd935091506104ff826115da565b8152926103ce565b845162461bcd60e51b8152808401859052602f60248201527f4552433732314d657461646174613a2055524920717565727920666f72206e6f60448201526e3732bc34b9ba32b73a103a37b5b2b760891b6064820152608490fd5b80fd5b50503461024957816003193601126102495780519082600b54610587816115a0565b8085529160019180831690811561062257506001146105c5575b5050506105b3826103dd94038361160c565b51918291602083526020830190611515565b9450600b85527f0175b7a638427703f0dbe7bb9bbf987a2551717b34e79f33b5b1008d1fa01db95b82861061060a575050506105b38260206103dd95820101946105a1565b805460208787018101919091529095019481016105ed565b6103dd9750869350602092506105b394915060ff191682840152151560051b820101946105a1565b8382346102495760803660031901126102495761066561153a565b61066d611555565b6044359060643567ffffffffffffffff81116106b957366023820112156106b9576106b6948160246106a493369301359101611708565b926106b083838361176b565b33611975565b80f35b8580fd5b5050346102495781600319360112610249576020905160028152f35b5090346101f757806003193601126101f7576106f361153a565b9060243591821515809303610776576001600160a01b03169283156107615750338452600560205280842083855260205280842060ff1981541660ff8416179055519081527f17307eab39ab6107e8899845ad3d59bd9653f200f220920489ca2b5937696c3160203392a380f35b836024925191630b61174360e31b8352820152fd5b8480fd5b5082903461024957602092836003193601126101f75767ffffffffffffffff82358181116107765736602382011215610776576107c09036906024818701359101611708565b926107c961173f565b835191821161096157506107de600a546115a0565b601f81116108ff575b5084601f8211600114610859579181610848928697947f24a9152dc695ecc801ad580886331ee12d7aac0fa2ae341a5ae3c2ccae36cb4f979161084e575b508160011b916000199060031b1c191617600a5551928284938452830190611515565b0390a180f35b905085015188610825565b600a85527fc65a7bb8d6351c1cf70c95a316cc6a92839c986682d98bc35f958f4883f9d2a890601f198316865b8181106108e85750927f24a9152dc695ecc801ad580886331ee12d7aac0fa2ae341a5ae3c2ccae36cb4f969794926001928261084896106108cf575b5050811b01600a556103ce565b87015160001960f88460031b161c1916905588806108c2565b91928860018192868a015181550194019201610886565b600a85527fc65a7bb8d6351c1cf70c95a316cc6a92839c986682d98bc35f958f4883f9d2a8601f830160051c810191878410610957575b601f0160051c01905b81811061094c57506107e7565b85815560010161093f565b9091508190610936565b634e487b7160e01b855260419052602484fd5b508290602092836003193601126101f75781359160ff6008541615610d63578215610d2257600a8311610cd757338452600c855260026109b78484872054611a91565b11610c9657600754908184029184830403610c8357813410610c4a5760095490855b858110610a3b575050507f2e8ac5177a616f2aec08c3048f5021e4e9743ece034e8d83ba5caf76688bb475929394338652600c8152828620610a1c868254611a91565b9055610a2a85600954611a91565b60095582519485528401523392a280f35b8451838201610a49826115da565b8882523315610c335780895260028a52868920546001600160a01b031680151590829082610c00575b33610bea575b818c5260028d52898c20336bffffffffffffffffffffffff60a01b82541617905533907fddf252ad1be2c89b69c2b068fc378daa952ba7f163c4a11628f55a4df523b3ef8d80a4610bd357908991333b610ad8575b5050506001016109d9565b91610b1991859a9899979695938a519384928392630a85bd0160e11b9788855233908501528c60248501526044840152608060648401526084830190611515565b03818a335af1879181610b8f575b50610b5c57898989610b37611945565b8051939084610b56578251633250574960e11b81523381860152602490fd5b84925001fd5b63ffffffff60e0999495969897991b1603610b7957878980610acd565b8451633250574960e11b81523381840152602490fd5b9091508a81813d8311610bcc575b610ba7818361160c565b81010312610bc857516001600160e01b031981168103610bc857908b610b27565b8780fd5b503d610b9d565b86516339e3563760e11b81528085018a9052602490fd5b338c5260038d52898c2060018154019055610a78565b600082815260046020526040902080546001600160a01b0319169055808c5260038d52898c208054600019019055610a72565b8651633250574960e11b81528085018a9052602490fd5b825162461bcd60e51b8152908101869052601360248201527224b739bab33334b1b4b2b73a10333ab732399760691b6044820152606490fd5b634e487b7160e01b855260119052602484fd5b84606492519162461bcd60e51b8352820152601c60248201527f45786365656473206d6178206d696e74207065722077616c6c65742e000000006044820152fd5b84608492519162461bcd60e51b8352820152602160248201527f45786365656473206d6178206d696e7420706572207472616e73616374696f6e6044820152601760f91b6064820152fd5b84606492519162461bcd60e51b8352820152601d60248201527f4d757374206d696e74206174206c65617374206f6e6520746f6b656e2e0000006044820152fd5b84606492519162461bcd60e51b8352820152601360248201527229b0b6329034b9903737ba1030b1ba34bb329760691b6044820152fd5b5050346102495781600319360112610249576020906007549051908152f35b5050346102495781600319360112610249576103dd90610dd761162e565b9051918291602083526020830190611515565b505034610249578160031936011261024957805190826001805491610e0e836115a0565b808652928281169081156106225750600114610e36575050506105b3826103dd94038361160c565b94508085527fb10e2d527612073b26eecdfd717e6a320cf44b4afac2b0732d9fcbe2b7fa0cf65b828610610e7a575050506105b38260206103dd95820101946105a1565b80546020878701810191909152909501948101610e5d565b50346101f75760203660031901126101f7577f66cbca4f3c64fecf1dcb9ce094abcf7f68c3450a1d4e3a8e917dd621edb4ebe0916020913590610ed361173f565b8160075551908152a180f35b50503461024957816003193601126102495760209051600a8152f35b50503461024957816003193601126102495760065490516001600160a01b039091168152602090f35b8334610562578060031936011261056257610f3d61173f565b600680546001600160a01b0319811690915581906001600160a01b03167f8be0079c531659141344cd1fd0a4f28419497f9722a3daafe3b4186f6b6457e08280a380f35b509134610562576020366003190112610562576001600160a01b03610fa461153a565b16928315610fc15750806020938392526003845220549051908152f35b91516322718ad960e21b815291820152602490fd5b5091346105625760203660031901126105625750610ff66020923561190a565b90516001600160a01b039091168152f35b50503461024957816003193601126102495760209060ff6008541690519015158152f35b505034610249576106b69061103f3661156b565b9192519261104c846115da565b8584526106b083838361176b565b5050346102495760203660031901126102495760209181906001600160a01b0361108261153a565b168152600c845220549051908152f35b50503461024957816003193601126102495760207fe333f8a36ee86e754548af2d6f50c73ff0d501e22e6c784662123dbbe493c602916110d061173f565b6008549060ff8083161516809260ff191617600855519015158152a180f35b8334610562576106b66111013661156b565b9161176b565b5050346102495781600319360112610249576020906009549051908152f35b50346101f757816003193601126101f75761113f61153a565b91611148611555565b9261115161173f565b6001600160a01b0390811692831515806112bc575b156112795747908115611236578160011c928383039283116112235787808080878a5af196611193611945565b50169587808080868b5af16111a6611945565b508161121b575b50156111e55750825191825260208201527fc2b4a290c20fb28939d29f102514fbffd2b73c059ffba8b78250c94161d5fcc69190a380f35b606490602085519162461bcd60e51b8352820152601060248201526f2a3930b739b332b9103330b4b632b21760811b6044820152fd5b9050386111ad565b634e487b7160e01b885260118252602488fd5b606490602085519162461bcd60e51b8352820152601760248201527f4e6f2062616c616e636520746f2077697468647261772e0000000000000000006044820152fd5b606490602084519162461bcd60e51b8352820152601a60248201527f496e76616c696420726563697069656e7420616464726573732e0000000000006044820152fd5b508185161515611166565b5090346101f757806003193601126101f7576112e161153a565b916024356112ee8161190a565b33151580611390575b80611367575b611351576001600160a01b039485169482918691167f8c5be1e5ebec7d5bd14f71427d1e84f3dd0314c0f7b2291e5b200ac8c7c3b9258880a48452602052822080546001600160a01b031916909117905580f35b835163a9fbf51f60e01b81523381850152602490fd5b506001600160a01b03811686526005602090815284872033885290528386205460ff16156112fd565b506001600160a01b0381163314156112f7565b50346101f75760203660031901126101f7579182602093356113c48161190a565b50825283528190205490516001600160a01b039091168152f35b5050346102495781600319360112610249578051908280546113ff816115a0565b80855291600191808316908115610622575060011461142a575050506105b3826103dd94038361160c565b80809650527f290decd9548b62a8d60345a988386fc84ba6bc95484008f6362f93160ef3e5635b82861061146e575050506105b38260206103dd95820101946105a1565b80546020878701810191909152909501948101611451565b925050346101f75760203660031901126101f7573563ffffffff60e01b81168091036101f757602092506380ac58cd60e01b81149081156114e1575b81156114d0575b5015158152f35b6301ffc9a760e01b149050386114c9565b635b5e139f60e01b811491506114c2565b60005b8381106115055750506000910152565b81810151838201526020016114f5565b9060209161152e815180928185528580860191016114f2565b601f01601f1916010190565b600435906001600160a01b038216820361155057565b600080fd5b602435906001600160a01b038216820361155057565b6060906003190112611550576001600160a01b0390600435828116810361155057916024359081168103611550579060443590565b90600182811c921680156115d0575b60208310146115ba57565b634e487b7160e01b600052602260045260246000fd5b91607f16916115af565b6020810190811067ffffffffffffffff8211176115f657604052565b634e487b7160e01b600052604160045260246000fd5b90601f8019910116810190811067ffffffffffffffff8211176115f657604052565b60405190600082600a5491611642836115a0565b808352926001908181169081156116ca575060011461166b575b506116699250038361160c565b565b600a600090815291507fc65a7bb8d6351c1cf70c95a316cc6a92839c986682d98bc35f958f4883f9d2a85b8483106116af575061166993505081016020013861165c565b81935090816020925483858a01015201910190918592611696565b90506020925061166994915060ff191682840152151560051b8201013861165c565b67ffffffffffffffff81116115f657601f01601f191660200190565b929192611714826116ec565b91611722604051938461160c565b829481845281830111611550578281602093846000960137010152565b6006546001600160a01b0316330361175357565b60405163118cdaa760e01b8152336004820152602490fd5b6001600160a01b0391821692909183156118f15760009282845282602095600287526040968488882054169687913315158061185b575b509060027fddf252ad1be2c89b69c2b068fc378daa952ba7f163c4a11628f55a4df523b3ef9284611828575b858352600381528b8320805460010190558683525289812080546001600160a01b0319168517905580a416928383036118075750505050565b6064945051926364283d7b60e01b8452600484015260248301526044820152fd5b600087815260046020526040902080546001600160a01b0319169055848352600381528b832080546000190190556117ce565b919394509150806118b0575b15611877578592918791386117a2565b878688611894576024915190637e27328960e01b82526004820152fd5b604491519063177e802f60e01b82523360048301526024820152fd5b5033871480156118d5575b806118675750858252600481523385898420541614611867565b5086825260058152878220338352815260ff88832054166118bb565b604051633250574960e11b815260006004820152602490fd5b6000818152600260205260409020546001600160a01b031690811561192d575090565b60249060405190637e27328960e01b82526004820152fd5b3d15611970573d90611956826116ec565b91611964604051938461160c565b82523d6000602084013e565b606090565b9293823b611985575b5050505050565b6119c99060018060a01b038094169560405194859481630a85bd0160e11b988988521660048701521660248501526044840152608060648401526084830190611515565b03906020816000938185885af190829082611a49575b5050611a1757826119ee611945565b8051919082611a1057604051633250574960e11b815260048101839052602490fd5b6020915001fd5b6001600160e01b03191603611a315750388080808061197e565b60249060405190633250574960e11b82526004820152fd5b909192506020813d8211611a89575b81611a656020938361160c565b810103126102495751906001600160e01b03198216820361056257509038806119df565b3d9150611a58565b91908201809211611a9e57565b634e487b7160e01b600052601160045260246000fdfea26469706673582212206fb8b72694180bdc67ef4ec1627bc2f975918e8a889abf0b043cea32d20b19f364736f6c63430008140033",
  "linkReferences": {},
  "deployedLinkReferences": {}
}