{
  "_format": "hh-sol-artifact-1",
  "contractName": "SwapRouter",
  "sourceName": "contracts/dex-v3/periphery/SwapRouter.sol",
  "abi": [
    {
      "inputs": [
        {
          "internalType": "address",
          "name": "_factory",
          "type": "address"
        },
        {
          "internalType": "address",
          "name": "_WETH9",
          "type": "address"
        }
      ],
      "stateMutability": "nonpayable",
      "type": "constructor"
    },
    {
      "inputs": [],
      "name": "WETH9",
      "outputs": [
        {
          "internalType": "address",
          "name": "",
          "type": "address"
        }
      ],
      "stateMutability": "view",
      "type": "function"
    },
    {
      "inputs": [
        {
          "components": [
            {
              "internalType": "bytes",
              "name": "path",
              "type": "bytes"
            },
            {
              "internalType": "address",
              "name": "recipient",
              "type": "address"
            },
            {
              "internalType": "uint256",
              "name": "deadline",
              "type": "uint256"
            },
            {
              "internalType": "uint256",
              "name": "amountIn",
              "type": "uint256"
            },
            {
              "internalType": "uint256",
              "name": "amountOutMinimum",
              "type": "uint256"
            }
          ],
          "internalType": "struct ISwapRouter.ExactInputParams",
          "name": "params",
          "type": "tuple"
        }
      ],
      "name": "exactInput",
      "outputs": [
        {
          "internalType": "uint256",
          "name": "amountOut",
          "type": "uint256"
        }
      ],
      "stateMutability": "payable",
      "type": "function"
    },
    {
      "inputs": [
        {
          "components": [
            {
              "internalType": "address",
              "name": "tokenIn",
              "type": "address"
            },
            {
              "internalType": "address",
              "name": "tokenOut",
              "type": "address"
            },
            {
              "internalType": "uint24",
              "name": "fee",
              "type": "uint24"
            },
            {
              "internalType": "address",
              "name": "recipient",
              "type": "address"
            },
            {
              "internalType": "uint256",
              "name": "deadline",
              "type": "uint256"
            },
            {
              "internalType": "uint256",
              "name": "amountIn",
              "type": "uint256"
            },
            {
              "internalType": "uint256",
              "name": "amountOutMinimum",
              "type": "uint256"
            },
            {
              "internalType": "uint160",
              "name": "sqrtPriceLimitX96",
              "type": "uint160"
            }
          ],
          "internalType": "struct ISwapRouter.ExactInputSingleParams",
          "name": "params",
          "type": "tuple"
        }
      ],
      "name": "exactInputSingle",
      "outputs": [
        {
          "internalType": "uint256",
          "name": "amountOut",
          "type": "uint256"
        }
      ],
      "stateMutability": "payable",
      "type": "function"
    },
    {
      "inputs": [
        {
          "components": [
            {
              "internalType": "bytes",
              "name": "path",
              "type": "bytes"
            },
            {
              "internalType": "address",
              "name": "recipient",
              "type": "address"
            },
            {
              "internalType": "uint256",
              "name": "deadline",
              "type": "uint256"
            },
            {
              "internalType": "uint256",
              "name": "amountOut",
              "type": "uint256"
            },
            {
              "internalType": "uint256",
              "name": "amountInMaximum",
              "type": "uint256"
            }
          ],
          "internalType": "struct ISwapRouter.ExactOutputParams",
          "name": "params",
          "type": "tuple"
        }
      ],
      "name": "exactOutput",
      "outputs": [
        {
          "internalType": "uint256",
          "name": "amountIn",
          "type": "uint256"
        }
      ],
      "stateMutability": "payable",
      "type": "function"
    },
    {
      "inputs": [
        {
          "components": [
            {
              "internalType": "address",
              "name": "tokenIn",
              "type": "address"
            },
            {
              "internalType": "address",
              "name": "tokenOut",
              "type": "address"
            },
            {
              "internalType": "uint24",
              "name": "fee",
              "type": "uint24"
            },
            {
              "internalType": "address",
              "name": "recipient",
              "type": "address"
            },
            {
              "internalType": "uint256",
              "name": "deadline",
              "type": "uint256"
            },
            {
              "internalType": "uint256",
              "name": "amountOut",
              "type": "uint256"
            },
            {
              "internalType": "uint256",
              "name": "amountInMaximum",
              "type": "uint256"
            },
            {
              "internalType": "uint160",
              "name": "sqrtPriceLimitX96",
              "type": "uint160"
            }
          ],
          "internalType": "struct ISwapRouter.ExactOutputSingleParams",
          "name": "params",
          "type": "tuple"
        }
      ],
      "name": "exactOutputSingle",
      "outputs": [
        {
          "internalType": "uint256",
          "name": "amountIn",
          "type": "uint256"
        }
      ],
      "stateMutability": "payable",
      "type": "function"
    },
    {
      "inputs": [],
      "name": "factory",
      "outputs": [
        {
          "internalType": "address",
          "name": "",
          "type": "address"
        }
      ],
      "stateMutability": "view",
      "type": "function"
    },
    {
      "inputs": [
        {
          "internalType": "int256",
          "name": "amount0Delta",
          "type": "int256"
        },
        {
          "internalType": "int256",
          "name": "amount1Delta",
          "type": "int256"
        },
        {
          "internalType": "bytes",
          "name": "_data",
          "type": "bytes"
        }
      ],
      "name": "kaleidoswapV3SwapCallback",
      "outputs": [],
      "stateMutability": "nonpayable",
      "type": "function"
    },
    {
      "inputs": [
        {
          "internalType": "bytes[]",
          "name": "data",
          "type": "bytes[]"
        }
      ],
      "name": "multicall",
      "outputs": [
        {
          "internalType": "bytes[]",
          "name": "results",
          "type": "bytes[]"
        }
      ],
      "stateMutability": "payable",
      "type": "function"
    },
    {
      "inputs": [],
      "name": "refundETH",
      "outputs": [],
      "stateMutability": "payable",
      "type": "function"
    },
    {
      "inputs": [
        {
          "internalType": "address",
          "name": "token",
          "type": "address"
        },
        {
          "internalType": "uint256",
          "name": "value",
          "type": "uint256"
        },
        {
          "internalType": "uint256",
          "name": "deadline",
          "type": "uint256"
        },
        {
          "internalType": "uint8",
          "name": "v",
          "type": "uint8"
        },
        {
          "internalType": "bytes32",
          "name": "r",
          "type": "bytes32"
        },
        {
          "internalType": "bytes32",
          "name": "s",
          "type": "bytes32"
        }
      ],
      "name": "selfPermit",
      "outputs": [],
      "stateMutability": "payable",
      "type": "function"
    },
    {
      "inputs": [
        {
          "internalType": "address",
          "name": "token",
          "type": "address"
        },
        {
          "internalType": "uint256",
          "name": "nonce",
          "type": "uint256"
        },
        {
          "internalType": "uint256",
          "name": "expiry",
          "type": "uint256"
        },
        {
          "internalType": "uint8",
          "name": "v",
          "type": "uint8"
        },
        {
          "internalType": "bytes32",
          "name": "r",
          "type": "bytes32"
        },
        {
          "internalType": "bytes32",
          "name": "s",
          "type": "bytes32"
        }
      ],
      "name": "selfPermitAllowed",
      "outputs": [],
      "stateMutability": "payable",
      "type": "function"
    },
    {
      "inputs": [
        {
          "internalType": "address",
          "name": "token",
          "type": "address"
        },
        {
          "internalType": "uint256",
          "name": "nonce",
          "type": "uint256"
        },
        {
          "internalType": "uint256",
          "name": "expiry",
          "type": "uint256"
        },
        {
          "internalType": "uint8",
          "name": "v",
          "type": "uint8"
        },
        {
          "internalType": "bytes32",
          "name": "r",
          "type": "bytes32"
        },
        {
          "internalType": "bytes32",
          "name": "s",
          "type": "bytes32"
        }
      ],
      "name": "selfPermitAllowedIfNecessary",
      "outputs": [],
      "stateMutability": "payable",
      "type": "function"
    },
    {
      "inputs": [
        {
          "internalType": "address",
          "name": "token",
          "type": "address"
        },
        {
          "internalType": "uint256",
          "name": "value",
          "type": "uint256"
        },
        {
          "internalType": "uint256",
          "name": "deadline",
          "type": "uint256"
        },
        {
          "internalType": "uint8",
          "name": "v",
          "type": "uint8"
        },
        {
          "internalType": "bytes32",
          "name": "r",
          "type": "bytes32"
        },
        {
          "internalType": "bytes32",
          "name": "s",
          "type": "bytes32"
        }
      ],
      "name": "selfPermitIfNecessary",
      "outputs": [],
      "stateMutability": "payable",
      "type": "function"
    },
    {
      "inputs": [
        {
          "internalType": "address",
          "name": "token",
          "type": "address"
        },
        {
          "internalType": "uint256",
          "name": "amountMinimum",
          "type": "uint256"
        },
        {
          "internalType": "address",
          "name": "recipient",
          "type": "address"
        }
      ],
      "name": "sweepToken",
      "outputs": [],
      "stateMutability": "payable",
      "type": "function"
    },
    {
      "inputs": [
        {
          "internalType": "address",
          "name": "token",
          "type": "address"
        },
        {
          "internalType": "uint256",
          "name": "amountMinimum",
          "type": "uint256"
        },
        {
          "internalType": "address",
          "name": "recipient",
          "type": "address"
        },
        {
          "internalType": "uint256",
          "name": "feeBips",
          "type": "uint256"
        },
        {
          "internalType": "address",
          "name": "feeRecipient",
          "type": "address"
        }
      ],
      "name": "sweepTokenWithFee",
      "outputs": [],
      "stateMutability": "payable",
      "type": "function"
    },
    {
      "inputs": [
        {
          "internalType": "uint256",
          "name": "amountMinimum",
          "type": "uint256"
        },
        {
          "internalType": "address",
          "name": "recipient",
          "type": "address"
        }
      ],
      "name": "unwrapWETH9",
      "outputs": [],
      "stateMutability": "payable",
      "type": "function"
    },
    {
      "inputs": [
        {
          "internalType": "uint256",
          "name": "amountMinimum",
          "type": "uint256"
        },
        {
          "internalType": "address",
          "name": "recipient",
          "type": "address"
        },
        {
          "internalType": "uint256",
          "name": "feeBips",
          "type": "uint256"
        },
        {
          "internalType": "address",
          "name": "feeRecipient",
          "type": "address"
        }
      ],
      "name": "unwrapWETH9WithFee",
      "outputs": [],
      "stateMutability": "payable",
      "type": "function"
    },
    {
      "stateMutability": "payable",
      "type": "receive"
    }
  ],
  "bytecode": "0x60c06040523480156200001157600080fd5b506040516200278438038062002784833981016040819052620000349162000070565b6001600160601b0319606092831b8116608052911b1660a052620000a7565b80516001600160a01b03811681146200006b57600080fd5b919050565b6000806040838503121562000083578182fd5b6200008e8362000053565b91506200009e6020840162000053565b90509250929050565b60805160601c60a05160601c612681620001036000398061011252806104c752806105b2528061063f528061078b528061087652806113ec528061143252806114a65250806106a65280610caf528061189f52506126816000f3fe6080604052600436106101025760003560e01c8063ac9650d811610095578063db3e219811610064578063db3e219814610291578063df2ab5bb146102a4578063e0e189a0146102b7578063f28c0498146102ca578063f3995c67146102dd57610172565b8063ac9650d814610236578063c04b8d5914610256578063c2e3140a14610269578063c45a01551461027c57610172565b80634aa4a4fc116100d15780634aa4a4fc146101ce5780634ceb63f4146101f05780639b2c0a3714610210578063a4a78f0c1461022357610172565b806312210e8a14610177578063414bf3891461017f5780634659a494146101a857806349404b7c146101bb57610172565b3661017257336001600160a01b037f00000000000000000000000000000000000000000000000000000000000000001614610170576040805162461bcd60e51b81526020600482015260096024820152684e6f7420574554483960b81b604482015290519081900360640190fd5b005b600080fd5b6101706102f0565b61019261018d366004612213565b610302565b60405161019f919061256c565b60405180910390f35b6101706101b6366004611f91565b610429565b6101706101c936600461231a565b6104c3565b3480156101da57600080fd5b506101e361063d565b60405161019f9190612409565b3480156101fc57600080fd5b5061017061020b366004612083565b610661565b61017061021e366004612349565b61076d565b610170610231366004611f91565b610939565b610249610244366004611ff1565b6109ca565b60405161019f9190612463565b610192610264366004612168565b610b0a565b610170610277366004611f91565b610c1e565b34801561028857600080fd5b506101e3610cad565b61019261029f366004612213565b610cd1565b6101706102b2366004611ef2565b610dec565b6101706102c5366004611f33565b610eca565b6101926102d836600461222f565b610ff1565b6101706102eb366004611f91565b6110e3565b4715610300576103003347611155565b565b6000816080013580610312611244565b111561035b576040805162461bcd60e51b8152602060048201526013602482015272151c985b9cd858dd1a5bdb881d1bdbc81bdb19606a1b604482015290519081900360640190fd5b6103f460a08401356103736080860160608701611ecf565b610384610100870160e08801611ecf565b604080518082019091528061039c60208a018a611ecf565b6103ac60608b0160408c016122f7565b6103bc60408c0160208d01611ecf565b6040516020016103ce939291906123be565b6040516020818303038152906040528152602001336001600160a01b0316815250611248565b91508260c001358210156104235760405162461bcd60e51b815260040161041a90612502565b60405180910390fd5b50919050565b604080516323f2ebc360e21b815233600482015230602482015260448101879052606481018690526001608482015260ff851660a482015260c4810184905260e4810183905290516001600160a01b03881691638fcbaf0c9161010480830192600092919082900301818387803b1580156104a357600080fd5b505af11580156104b7573d6000803e3d6000fd5b50505050505050505050565b60007f00000000000000000000000000000000000000000000000000000000000000006001600160a01b03166370a08231306040518263ffffffff1660e01b815260040180826001600160a01b0316815260200191505060206040518083038186803b15801561053257600080fd5b505afa158015610546573d6000803e3d6000fd5b505050506040513d602081101561055c57600080fd5b50519050828110156105aa576040805162461bcd60e51b8152602060048201526012602482015271496e73756666696369656e7420574554483960701b604482015290519081900360640190fd5b8015610638577f00000000000000000000000000000000000000000000000000000000000000006001600160a01b0316632e1a7d4d826040518263ffffffff1660e01b815260040180828152602001915050600060405180830381600087803b15801561061657600080fd5b505af115801561062a573d6000803e3d6000fd5b505050506106388282611155565b505050565b7f000000000000000000000000000000000000000000000000000000000000000081565b60008413806106705750600083135b61067957600080fd5b600061068782840184612267565b9050600080600061069b846000015161139a565b9250925092506106cd7f00000000000000000000000000000000000000000000000000000000000000008484846113cb565b5060008060008a136106f457846001600160a01b0316846001600160a01b0316108961070b565b836001600160a01b0316856001600160a01b0316108a5b91509150811561072a5761072585876020015133846113ea565b6104b7565b85516107359061157a565b1561075a57855161074590611586565b865261075481336000896115a3565b506104b7565b8394506104b785876020015133846113ea565b60008211801561077e575060648211155b61078757600080fd5b60007f00000000000000000000000000000000000000000000000000000000000000006001600160a01b03166370a08231306040518263ffffffff1660e01b815260040180826001600160a01b0316815260200191505060206040518083038186803b1580156107f657600080fd5b505afa15801561080a573d6000803e3d6000fd5b505050506040513d602081101561082057600080fd5b505190508481101561086e576040805162461bcd60e51b8152602060048201526012602482015271496e73756666696369656e7420574554483960701b604482015290519081900360640190fd5b8015610932577f00000000000000000000000000000000000000000000000000000000000000006001600160a01b0316632e1a7d4d826040518263ffffffff1660e01b815260040180828152602001915050600060405180830381600087803b1580156108da57600080fd5b505af11580156108ee573d6000803e3d6000fd5b50505050600061271061090a858461171e90919063ffffffff16565b8161091157fe5b0490508015610924576109248382611155565b61093085828403611155565b505b5050505050565b60408051636eb1769f60e11b81523360048201523060248201529051600019916001600160a01b0389169163dd62ed3e91604480820192602092909190829003018186803b15801561098a57600080fd5b505afa15801561099e573d6000803e3d6000fd5b505050506040513d60208110156109b457600080fd5b5051101561093057610930868686868686610429565b60608167ffffffffffffffff811180156109e357600080fd5b50604051908082528060200260200182016040528015610a1757816020015b6060815260200190600190039081610a025790505b50905060005b82811015610b035760008030868685818110610a3557fe5b9050602002810190610a479190612575565b604051610a559291906123f9565b600060405180830381855af49150503d8060008114610a90576040519150601f19603f3d011682016040523d82523d6000602084013e610a95565b606091505b509150915081610ae157604481511015610aae57600080fd5b60048101905080806020019051810190610ac891906120fe565b60405162461bcd60e51b815260040161041a91906124c3565b80848481518110610aee57fe5b60209081029190910101525050600101610a1d565b5092915050565b6000816040015180610b1a611244565b1115610b63576040805162461bcd60e51b8152602060048201526013602482015272151c985b9cd858dd1a5bdb881d1bdbc81bdb19606a1b604482015290519081900360640190fd5b335b6000610b74856000015161157a565b9050610bc0856060015182610b8d578660200151610b8f565b305b60006040518060400160405280610ba98b60000151611742565b8152602001876001600160a01b0316815250611248565b60608601528015610be0578451309250610bd990611586565b8552610bed565b8460600151935050610bf3565b50610b65565b8360800151831015610c175760405162461bcd60e51b815260040161041a90612502565b5050919050565b60408051636eb1769f60e11b8152336004820152306024820152905186916001600160a01b0389169163dd62ed3e91604480820192602092909190829003018186803b158015610c6d57600080fd5b505afa158015610c81573d6000803e3d6000fd5b505050506040513d6020811015610c9757600080fd5b50511015610930576109308686868686866110e3565b7f000000000000000000000000000000000000000000000000000000000000000081565b6000816080013580610ce1611244565b1115610d2a576040805162461bcd60e51b8152602060048201526013602482015272151c985b9cd858dd1a5bdb881d1bdbc81bdb19606a1b604482015290519081900360640190fd5b610dc660a0840135610d426080860160608701611ecf565b610d53610100870160e08801611ecf565b6040518060400160405280886020016020810190610d719190611ecf565b610d8160608b0160408c016122f7565b610d8e60208c018c611ecf565b604051602001610da0939291906123be565b6040516020818303038152906040528152602001336001600160a01b03168152506115a3565b91508260c001358211156104235760405162461bcd60e51b815260040161041a906124d6565b6000836001600160a01b03166370a08231306040518263ffffffff1660e01b815260040180826001600160a01b0316815260200191505060206040518083038186803b158015610e3b57600080fd5b505afa158015610e4f573d6000803e3d6000fd5b505050506040513d6020811015610e6557600080fd5b5051905082811015610eb3576040805162461bcd60e51b815260206004820152601260248201527124b739bab33334b1b4b2b73a103a37b5b2b760711b604482015290519081900360640190fd5b8015610ec457610ec4848383611751565b50505050565b600082118015610edb575060648211155b610ee457600080fd5b6000856001600160a01b03166370a08231306040518263ffffffff1660e01b815260040180826001600160a01b0316815260200191505060206040518083038186803b158015610f3357600080fd5b505afa158015610f47573d6000803e3d6000fd5b505050506040513d6020811015610f5d57600080fd5b5051905084811015610fab576040805162461bcd60e51b815260206004820152601260248201527124b739bab33334b1b4b2b73a103a37b5b2b760711b604482015290519081900360640190fd5b8015610930576000612710610fc0838661171e565b81610fc757fe5b0490508015610fdb57610fdb878483611751565b610fe88786838503611751565b50505050505050565b6000816040013580611001611244565b111561104a576040805162461bcd60e51b8152602060048201526013602482015272151c985b9cd858dd1a5bdb881d1bdbc81bdb19606a1b604482015290519081900360640190fd5b6110bd60608401356110626040860160208701611ecf565b604080518082019091526000908061107a8980612575565b8080601f016020809104026020016040519081016040528093929190818152602001838380828437600092019190915250505090825250336020909101526115a3565b915082608001358211156104235760405162461bcd60e51b815260040161041a906124d6565b6040805163d505accf60e01b8152336004820152306024820152604481018790526064810186905260ff8516608482015260a4810184905260c4810183905290516001600160a01b0388169163d505accf9160e480830192600092919082900301818387803b1580156104a357600080fd5b604080516000808252602082019092526001600160a01b0384169083906040518082805190602001908083835b602083106111a15780518252601f199092019160209182019101611182565b6001836020036101000a03801982511681845116808217855250505050505090500191505060006040518083038185875af1925050503d8060008114611203576040519150601f19603f3d011682016040523d82523d6000602084013e611208565b606091505b5050905080610638576040805162461bcd60e51b815260206004820152600360248201526253544560e81b604482015290519081900360640190fd5b4290565b60006001600160a01b03841661125c573093505b600080600061126e856000015161139a565b919450925090506001600160a01b0380831690841610600080611292868686611898565b6001600160a01b031663128acb088b856112ab8f6118d6565b6001600160a01b038e16156112c0578d6112e6565b876112df5773fffd8963efd1fc6a506488495d951d5263988d256112e6565b6401000276a45b8d6040516020016112f7919061252f565b6040516020818303038152906040526040518663ffffffff1660e01b815260040161132695949392919061241d565b6040805180830381600087803b15801561133f57600080fd5b505af1158015611353573d6000803e3d6000fd5b505050506040513d601f19601f820116820180604052508101906113779190612060565b91509150826113865781611388565b805b6000039b9a5050505050505050505050565b600080806113a884826118ec565b92506113b584601461199c565b90506113c28460176118ec565b91509193909250565b60006113e1856113dc868686611a43565b611a99565b95945050505050565b7f00000000000000000000000000000000000000000000000000000000000000006001600160a01b0316846001600160a01b031614801561142b5750804710155b1561154d577f00000000000000000000000000000000000000000000000000000000000000006001600160a01b031663d0e30db0826040518263ffffffff1660e01b81526004016000604051808303818588803b15801561148b57600080fd5b505af115801561149f573d6000803e3d6000fd5b50505050507f00000000000000000000000000000000000000000000000000000000000000006001600160a01b031663a9059cbb83836040518363ffffffff1660e01b815260040180836001600160a01b0316815260200182815260200192505050602060405180830381600087803b15801561151b57600080fd5b505af115801561152f573d6000803e3d6000fd5b505050506040513d602081101561154557600080fd5b50610ec49050565b6001600160a01b03831630141561156e57611569848383611751565b610ec4565b610ec484848484611abc565b8051604211155b919050565b805160609061159d90839060179060161901611c0c565b92915050565b60006001600160a01b0384166115b7573093505b60008060006115c9856000015161139a565b919450925090506001600160a01b03808416908316106000806115ed858786611898565b6001600160a01b031663128acb088b856116068f6118d6565b6000036001600160a01b038e161561161e578d611644565b8761163d5773fffd8963efd1fc6a506488495d951d5263988d25611644565b6401000276a45b8d604051602001611655919061252f565b6040516020818303038152906040526040518663ffffffff1660e01b815260040161168495949392919061241d565b6040805180830381600087803b15801561169d57600080fd5b505af11580156116b1573d6000803e3d6000fd5b505050506040513d601f19601f820116820180604052508101906116d59190612060565b915091506000836116ea5781836000036116f0565b82826000035b90985090506001600160a01b038a1661170f578b811461170f57600080fd5b50505050505050949350505050565b60008215806117395750508181028183828161173657fe5b04145b61159d57600080fd5b606061159d826000602b611c0c565b604080516001600160a01b038481166024830152604480830185905283518084039091018152606490920183526020820180516001600160e01b031663a9059cbb60e01b1781529251825160009485949389169392918291908083835b602083106117cd5780518252601f1990920191602091820191016117ae565b6001836020036101000a0380198251168184511680821785525050505050509050019150506000604051808303816000865af19150503d806000811461182f576040519150601f19603f3d011682016040523d82523d6000602084013e611834565b606091505b5091509150818015611862575080511580611862575080806020019051602081101561185f57600080fd5b50515b610932576040805162461bcd60e51b815260206004820152600260248201526114d560f21b604482015290519081900360640190fd5b60006118ce7f00000000000000000000000000000000000000000000000000000000000000006118c9868686611a43565b611d5d565b949350505050565b6000600160ff1b82106118e857600080fd5b5090565b60008182601401101561193b576040805162461bcd60e51b8152602060048201526012602482015271746f416464726573735f6f766572666c6f7760701b604482015290519081900360640190fd5b816014018351101561198c576040805162461bcd60e51b8152602060048201526015602482015274746f416464726573735f6f75744f66426f756e647360581b604482015290519081900360640190fd5b500160200151600160601b900490565b6000818260030110156119ea576040805162461bcd60e51b8152602060048201526011602482015270746f55696e7432345f6f766572666c6f7760781b604482015290519081900360640190fd5b8160030183511015611a3a576040805162461bcd60e51b8152602060048201526014602482015273746f55696e7432345f6f75744f66426f756e647360601b604482015290519081900360640190fd5b50016003015190565b611a4b611e41565b826001600160a01b0316846001600160a01b03161115611a69579192915b50604080516060810182526001600160a01b03948516815292909316602083015262ffffff169181019190915290565b6000611aa58383611d5d565b9050336001600160a01b0382161461159d57600080fd5b604080516001600160a01b0385811660248301528481166044830152606480830185905283518084039091018152608490920183526020820180516001600160e01b03166323b872dd60e01b178152925182516000948594938a169392918291908083835b60208310611b405780518252601f199092019160209182019101611b21565b6001836020036101000a0380198251168184511680821785525050505050509050019150506000604051808303816000865af19150503d8060008114611ba2576040519150601f19603f3d011682016040523d82523d6000602084013e611ba7565b606091505b5091509150818015611bd5575080511580611bd55750808060200190516020811015611bd257600080fd5b50515b610930576040805162461bcd60e51b815260206004820152600360248201526229aa2360e91b604482015290519081900360640190fd5b60608182601f011015611c57576040805162461bcd60e51b815260206004820152600e60248201526d736c6963655f6f766572666c6f7760901b604482015290519081900360640190fd5b828284011015611c9f576040805162461bcd60e51b815260206004820152600e60248201526d736c6963655f6f766572666c6f7760901b604482015290519081900360640190fd5b81830184511015611ceb576040805162461bcd60e51b8152602060048201526011602482015270736c6963655f6f75744f66426f756e647360781b604482015290519081900360640190fd5b606082158015611d0a5760405191506000825260208201604052611d54565b6040519150601f8416801560200281840101858101878315602002848b0101015b81831015611d43578051835260209283019201611d2b565b5050858452601f01601f1916604052505b50949350505050565b600081602001516001600160a01b031682600001516001600160a01b031610611d8557600080fd5b50805160208083015160409384015184516001600160a01b0394851681850152939091168385015262ffffff166060808401919091528351808403820181526080840185528051908301206001600160f81b031960a085015294901b6bffffffffffffffffffffffff191660a183015260b58201939093527fe34f199b19b2b4f47f68442619d555527d244f78a3297ea89325f843f87b8b5460d5808301919091528251808303909101815260f5909101909152805191012090565b604080516060810182526000808252602082018190529181019190915290565b803561158181612633565b600082601f830112611e7c578081fd5b8135611e8f611e8a826125e5565b6125c1565b818152846020838601011115611ea3578283fd5b816020850160208301379081016020019190915292915050565b60006101008284031215610423578081fd5b600060208284031215611ee0578081fd5b8135611eeb81612633565b9392505050565b600080600060608486031215611f06578182fd5b8335611f1181612633565b9250602084013591506040840135611f2881612633565b809150509250925092565b600080600080600060a08688031215611f4a578081fd5b8535611f5581612633565b9450602086013593506040860135611f6c81612633565b9250606086013591506080860135611f8381612633565b809150509295509295909350565b60008060008060008060c08789031215611fa9578081fd5b8635611fb481612633565b95506020870135945060408701359350606087013560ff81168114611fd7578182fd5b9598949750929560808101359460a0909101359350915050565b60008060208385031215612003578182fd5b823567ffffffffffffffff8082111561201a578384fd5b818501915085601f83011261202d578384fd5b81358181111561203b578485fd5b866020808302850101111561204e578485fd5b60209290920196919550909350505050565b60008060408385031215612072578182fd5b505080516020909101519092909150565b60008060008060608587031215612098578182fd5b8435935060208501359250604085013567ffffffffffffffff808211156120bd578384fd5b818701915087601f8301126120d0578384fd5b8135818111156120de578485fd5b8860208285010111156120ef578485fd5b95989497505060200194505050565b60006020828403121561210f578081fd5b815167ffffffffffffffff811115612125578182fd5b8201601f81018413612135578182fd5b8051612143611e8a826125e5565b818152856020838501011115612157578384fd5b6113e1826020830160208601612607565b600060208284031215612179578081fd5b813567ffffffffffffffff80821115612190578283fd5b9083019060a082860312156121a3578283fd5b60405160a0810181811083821117156121b857fe5b6040528235828111156121c9578485fd5b6121d587828601611e6c565b8252506121e460208401611e61565b602082015260408301356040820152606083013560608201526080830135608082015280935050505092915050565b60006101008284031215612225578081fd5b611eeb8383611ebd565b600060208284031215612240578081fd5b813567ffffffffffffffff811115612256578182fd5b820160a08185031215611eeb578182fd5b600060208284031215612278578081fd5b813567ffffffffffffffff8082111561228f578283fd5b90830190604082860312156122a2578283fd5b6040516040810181811083821117156122b757fe5b6040528235828111156122c8578485fd5b6122d487828601611e6c565b825250602083013592506122e783612633565b6020810192909252509392505050565b600060208284031215612308578081fd5b813562ffffff81168114611eeb578182fd5b6000806040838503121561232c578182fd5b82359150602083013561233e81612633565b809150509250929050565b6000806000806080858703121561235e578182fd5b84359350602085013561237081612633565b925060408501359150606085013561238781612633565b939692955090935050565b600081518084526123aa816020860160208601612607565b601f01601f19169290920160200192915050565b606093841b6bffffffffffffffffffffffff19908116825260e89390931b6001600160e81b0319166014820152921b166017820152602b0190565b6000828483379101908152919050565b6001600160a01b0391909116815260200190565b6001600160a01b0386811682528515156020830152604082018590528316606082015260a06080820181905260009061245890830184612392565b979650505050505050565b6000602080830181845280855180835260408601915060408482028701019250838701855b828110156124b657603f198886030184526124a4858351612392565b94509285019290850190600101612488565b5092979650505050505050565b600060208252611eeb6020830184612392565b602080825260129082015271151bdbc81b5d58da081c995c5d595cdd195960721b604082015260600190565b602080825260139082015272151bdbc81b1a5d1d1b19481c9958d95a5d9959606a1b604082015260600190565b60006020825282516040602084015261254b6060840182612392565b602094909401516001600160a01b0316604093909301929092525090919050565b90815260200190565b6000808335601e1984360301811261258b578283fd5b83018035915067ffffffffffffffff8211156125a5578283fd5b6020019150368190038213156125ba57600080fd5b9250929050565b60405181810167ffffffffffffffff811182821017156125dd57fe5b604052919050565b600067ffffffffffffffff8211156125f957fe5b50601f01601f191660200190565b60005b8381101561262257818101518382015260200161260a565b83811115610ec45750506000910152565b6001600160a01b038116811461264857600080fd5b5056fea26469706673582212206f25f2053a280853f2f27a26c6d870911d4eb39b6671061845d9a82368a2522f64736f6c63430007060033",
  "linkReferences": {},
  "deployedLinkReferences": {}
}