{
  "_format": "hh-sol-artifact-1",
  "contractName": "TickLens",
  "sourceName": "contracts/dex-v3/periphery/lens/TickLens.sol",
  "abi": [
    {
      "inputs": [
        {
          "internalType": "address",
          "name": "pool",
          "type": "address"
        },
        {
          "internalType": "int16",
          "name": "tickBitmapIndex",
          "type": "int16"
        }
      ],
      "name": "getPopulatedTicksInWord",
      "outputs": [
        {
          "components": [
            {
              "internalType": "int24",
              "name": "tick",
              "type": "int24"
            },
            {
              "internalType": "int128",
              "name": "liquidityNet",
              "type": "int128"
            },
            {
              "internalType": "uint128",
              "name": "liquidityGross",
              "type": "uint128"
            }
          ],
          "internalType": "struct ITickLens.PopulatedTick[]",
          "name": "populatedTicks",
          "type": "tuple[]"
        }
      ],
      "stateMutability": "view",
      "type": "function"
    }
  ],
  "bytecode": "0x60808060405234610016576104d4908161001c8239f35b600080fdfe608080604052600436101561001357600080fd5b60003560e01c63351fb4781461002857600080fd5b34610311576040366003190112610311576004356001600160a01b038116810361031157600190602435820b80602435036103115763299ce14b60e11b845260048401526020836024816001600160a01b0385165afa92831561031e576000936103c5575b506000805b610100811061039857506040516334324e9f60e21b81526020816004816001600160a01b0387165afa90811561031e5760009161035c575b506100d48261045c565b926100e2604051948561042b565b828452601f196100f18461045c565b0160005b81811061033057505084956000959495965b61017c575b50505050909150604051906020820160208352835180915260206040840194019060005b81811061013d5784860385f35b9091926020606082976001600160801b0360408851805160020b845285810151600f0b8685015201511660408201520194019101949294919091610130565b866101008698101561032a5785811b82166101a1575b61019b9061044d565b96610107565b945060029360243560081b850b86860b01627fffff8113627fffff198212176102635784860b90860b028080870b036102635760405163f30dba9360e01b815281870b6004820152610100816024816001600160a01b0389165afa801561031e57600091600091610279575b506001600160801b0392604051986102248a6103f9565b0b8852600f0b6020880152166040860152801561026357879561019b916000190195610250878a610474565b5261025b8689610474565b509050610192565b634e487b7160e01b600052601160045260246000fd5b915050610100813d61010011610316575b81610298610100938361042b565b81010312610311578051916001600160801b03831683036103115760208201519182600f0b83036103115760808101518060060b036103115760a08101516001600160a01b038116036103115760c081015163ffffffff8116036103115760e00151801515036103115791906001600160801b0361020d565b600080fd5b3d915061028a565b6040513d6000823e3d90fd5b5061010c565b60209060405161033f816103f9565b6000815260008382015260006040820152828289010152016100f5565b90506020813d602011610390575b816103776020938361042b565b8101031261031157518060020b810361031157386100ca565b3d915061036a565b83811b85166103b0575b6103ab9061044d565b610092565b906103bd6103ab9161044d565b9190506103a2565b9092506020813d6020116103f1575b816103e16020938361042b565b810103126103115751913861008d565b3d91506103d4565b6060810190811067ffffffffffffffff82111761041557604052565b634e487b7160e01b600052604160045260246000fd5b90601f8019910116810190811067ffffffffffffffff82111761041557604052565b60001981146102635760010190565b67ffffffffffffffff81116104155760051b60200190565b80518210156104885760209160051b010190565b634e487b7160e01b600052603260045260246000fdfea26469706673582212206d531a8375e862615d1ff789c901f57d498e40c3c199661bb947b9b4246698bc64736f6c63430008140033",
  "linkReferences": {},
  "deployedLinkReferences": {}
}