{
  "_format": "hh-sol-artifact-1",
  "contractName": "YieldTreasury",
  "sourceName": "contracts/Stablecoin/YieldTreasury.sol",
  "abi": [
    {
      "inputs": [
        {
          "internalType": "address",
          "name": "_kafUSDContract",
          "type": "address"
        }
      ],
      "stateMutability": "nonpayable",
      "type": "constructor"
    },
    {
      "inputs": [],
      "name": "AccessControlBadConfirmation",
      "type": "error"
    },
    {
      "inputs": [
        {
          "internalType": "address",
          "name": "account",
          "type": "address"
        },
        {
          "internalType": "bytes32",
          "name": "neededRole",
          "type": "bytes32"
        }
      ],
      "name": "AccessControlUnauthorizedAccount",
      "type": "error"
    },
    {
      "inputs": [],
      "name": "ReentrancyGuardReentrantCall",
      "type": "error"
    },
    {
      "inputs": [
        {
          "internalType": "address",
          "name": "token",
          "type": "address"
        }
      ],
      "name": "SafeERC20FailedOperation",
      "type": "error"
    },
    {
      "anonymous": false,
      "inputs": [
        {
          "indexed": true,
          "internalType": "address",
          "name": "kafUSDContract",
          "type": "address"
        }
      ],
      "name": "KafUSDContractUpdated",
      "type": "event"
    },
    {
      "anonymous": false,
      "inputs": [
        {
          "indexed": true,
          "internalType": "bytes32",
          "name": "role",
          "type": "bytes32"
        },
        {
          "indexed": true,
          "internalType": "bytes32",
          "name": "previousAdminRole",
          "type": "bytes32"
        },
        {
          "indexed": true,
          "internalType": "bytes32",
          "name": "newAdminRole",
          "type": "bytes32"
        }
      ],
      "name": "RoleAdminChanged",
      "type": "event"
    },
    {
      "anonymous": false,
      "inputs": [
        {
          "indexed": true,
          "internalType": "bytes32",
          "name": "role",
          "type": "bytes32"
        },
        {
          "indexed": true,
          "internalType": "address",
          "name": "account",
          "type": "address"
        },
        {
          "indexed": true,
          "internalType": "address",
          "name": "sender",
          "type": "address"
        }
      ],
      "name": "RoleGranted",
      "type": "event"
    },
    {
      "anonymous": false,
      "inputs": [
        {
          "indexed": true,
          "internalType": "bytes32",
          "name": "role",
          "type": "bytes32"
        },
        {
          "indexed": true,
          "internalType": "address",
          "name": "account",
          "type": "address"
        },
        {
          "indexed": true,
          "internalType": "address",
          "name": "sender",
          "type": "address"
        }
      ],
      "name": "RoleRevoked",
      "type": "event"
    },
    {
      "anonymous": false,
      "inputs": [
        {
          "indexed": true,
          "internalType": "address",
          "name": "asset",
          "type": "address"
        },
        {
          "indexed": false,
          "internalType": "bool",
          "name": "supported",
          "type": "bool"
        }
      ],
      "name": "YieldAssetAdded",
      "type": "event"
    },
    {
      "anonymous": false,
      "inputs": [
        {
          "indexed": true,
          "internalType": "address",
          "name": "user",
          "type": "address"
        },
        {
          "indexed": true,
          "internalType": "address",
          "name": "asset",
          "type": "address"
        },
        {
          "indexed": false,
          "internalType": "uint256",
          "name": "amount",
          "type": "uint256"
        }
      ],
      "name": "YieldClaimed",
      "type": "event"
    },
    {
      "anonymous": false,
      "inputs": [
        {
          "indexed": true,
          "internalType": "address",
          "name": "user",
          "type": "address"
        },
        {
          "indexed": true,
          "internalType": "address",
          "name": "asset",
          "type": "address"
        },
        {
          "indexed": false,
          "internalType": "uint256",
          "name": "amount",
          "type": "uint256"
        }
      ],
      "name": "YieldCompounded",
      "type": "event"
    },
    {
      "anonymous": false,
      "inputs": [
        {
          "indexed": true,
          "internalType": "address",
          "name": "asset",
          "type": "address"
        },
        {
          "indexed": false,
          "internalType": "uint256",
          "name": "amount",
          "type": "uint256"
        },
        {
          "indexed": true,
          "internalType": "address",
          "name": "source",
          "type": "address"
        },
        {
          "indexed": false,
          "internalType": "string",
          "name": "sourceName",
          "type": "string"
        }
      ],
      "name": "YieldReceived",
      "type": "event"
    },
    {
      "anonymous": false,
      "inputs": [
        {
          "indexed": true,
          "internalType": "address",
          "name": "source",
          "type": "address"
        },
        {
          "indexed": false,
          "internalType": "string",
          "name": "sourceName",
          "type": "string"
        },
        {
          "indexed": false,
          "internalType": "bool",
          "name": "enabled",
          "type": "bool"
        }
      ],
      "name": "YieldSourceAdded",
      "type": "event"
    },
    {
      "inputs": [],
      "name": "ADMIN_ROLE",
      "outputs": [
        {
          "internalType": "bytes32",
          "name": "",
          "type": "bytes32"
        }
      ],
      "stateMutability": "view",
      "type": "function"
    },
    {
      "inputs": [],
      "name": "DEFAULT_ADMIN_ROLE",
      "outputs": [
        {
          "internalType": "bytes32",
          "name": "",
          "type": "bytes32"
        }
      ],
      "stateMutability": "view",
      "type": "function"
    },
    {
      "inputs": [],
      "name": "VAULT_ROLE",
      "outputs": [
        {
          "internalType": "bytes32",
          "name": "",
          "type": "bytes32"
        }
      ],
      "stateMutability": "view",
      "type": "function"
    },
    {
      "inputs": [],
      "name": "YIELD_SOURCE_ROLE",
      "outputs": [
        {
          "internalType": "bytes32",
          "name": "",
          "type": "bytes32"
        }
      ],
      "stateMutability": "view",
      "type": "function"
    },
    {
      "inputs": [
        {
          "internalType": "address",
          "name": "_user",
          "type": "address"
        }
      ],
      "name": "calculateTotalUserYield",
      "outputs": [
        {
          "internalType": "address[]",
          "name": "assets",
          "type": "address[]"
        },
        {
          "internalType": "uint256[]",
          "name": "amounts",
          "type": "uint256[]"
        }
      ],
      "stateMutability": "view",
      "type": "function"
    },
    {
      "inputs": [
        {
          "internalType": "address",
          "name": "_user",
          "type": "address"
        },
        {
          "internalType": "address",
          "name": "_asset",
          "type": "address"
        }
      ],
      "name": "calculateUserYield",
      "outputs": [
        {
          "internalType": "uint256",
          "name": "",
          "type": "uint256"
        }
      ],
      "stateMutability": "view",
      "type": "function"
    },
    {
      "inputs": [],
      "name": "claimAllYield",
      "outputs": [],
      "stateMutability": "nonpayable",
      "type": "function"
    },
    {
      "inputs": [
        {
          "internalType": "address",
          "name": "_asset",
          "type": "address"
        }
      ],
      "name": "claimAndCompound",
      "outputs": [],
      "stateMutability": "nonpayable",
      "type": "function"
    },
    {
      "inputs": [
        {
          "internalType": "address",
          "name": "_asset",
          "type": "address"
        }
      ],
      "name": "claimYield",
      "outputs": [],
      "stateMutability": "nonpayable",
      "type": "function"
    },
    {
      "inputs": [
        {
          "internalType": "address",
          "name": "_asset",
          "type": "address"
        },
        {
          "internalType": "uint256",
          "name": "_amount",
          "type": "uint256"
        },
        {
          "internalType": "address",
          "name": "_to",
          "type": "address"
        }
      ],
      "name": "emergencyWithdraw",
      "outputs": [],
      "stateMutability": "nonpayable",
      "type": "function"
    },
    {
      "inputs": [
        {
          "internalType": "bytes32",
          "name": "role",
          "type": "bytes32"
        }
      ],
      "name": "getRoleAdmin",
      "outputs": [
        {
          "internalType": "bytes32",
          "name": "",
          "type": "bytes32"
        }
      ],
      "stateMutability": "view",
      "type": "function"
    },
    {
      "inputs": [],
      "name": "getSupportedYieldAssets",
      "outputs": [
        {
          "internalType": "address[]",
          "name": "",
          "type": "address[]"
        }
      ],
      "stateMutability": "view",
      "type": "function"
    },
    {
      "inputs": [
        {
          "internalType": "address",
          "name": "_asset",
          "type": "address"
        }
      ],
      "name": "getTotalYield",
      "outputs": [
        {
          "internalType": "uint256",
          "name": "",
          "type": "uint256"
        }
      ],
      "stateMutability": "view",
      "type": "function"
    },
    {
      "inputs": [
        {
          "internalType": "address",
          "name": "_asset",
          "type": "address"
        }
      ],
      "name": "getYieldBalance",
      "outputs": [
        {
          "internalType": "uint256",
          "name": "",
          "type": "uint256"
        }
      ],
      "stateMutability": "view",
      "type": "function"
    },
    {
      "inputs": [
        {
          "internalType": "address",
          "name": "_source",
          "type": "address"
        }
      ],
      "name": "getYieldSourceInfo",
      "outputs": [
        {
          "components": [
            {
              "internalType": "address",
              "name": "sourceAddress",
              "type": "address"
            },
            {
              "internalType": "string",
              "name": "sourceName",
              "type": "string"
            },
            {
              "internalType": "bool",
              "name": "enabled",
              "type": "bool"
            },
            {
              "internalType": "uint256",
              "name": "totalContributed",
              "type": "uint256"
            }
          ],
          "internalType": "struct YieldTreasury.YieldSource",
          "name": "",
          "type": "tuple"
        }
      ],
      "stateMutability": "view",
      "type": "function"
    },
    {
      "inputs": [],
      "name": "getYieldSources",
      "outputs": [
        {
          "internalType": "address[]",
          "name": "",
          "type": "address[]"
        }
      ],
      "stateMutability": "view",
      "type": "function"
    },
    {
      "inputs": [
        {
          "internalType": "bytes32",
          "name": "role",
          "type": "bytes32"
        },
        {
          "internalType": "address",
          "name": "account",
          "type": "address"
        }
      ],
      "name": "grantRole",
      "outputs": [],
      "stateMutability": "nonpayable",
      "type": "function"
    },
    {
      "inputs": [
        {
          "internalType": "bytes32",
          "name": "role",
          "type": "bytes32"
        },
        {
          "internalType": "address",
          "name": "account",
          "type": "address"
        }
      ],
      "name": "hasRole",
      "outputs": [
        {
          "internalType": "bool",
          "name": "",
          "type": "bool"
        }
      ],
      "stateMutability": "view",
      "type": "function"
    },
    {
      "inputs": [],
      "name": "kafUSDContract",
      "outputs": [
        {
          "internalType": "address",
          "name": "",
          "type": "address"
        }
      ],
      "stateMutability": "view",
      "type": "function"
    },
    {
      "inputs": [],
      "name": "kfUSDToken",
      "outputs": [
        {
          "internalType": "address",
          "name": "",
          "type": "address"
        }
      ],
      "stateMutability": "view",
      "type": "function"
    },
    {
      "inputs": [
        {
          "internalType": "address",
          "name": "_asset",
          "type": "address"
        },
        {
          "internalType": "uint256",
          "name": "_amount",
          "type": "uint256"
        },
        {
          "internalType": "string",
          "name": "_sourceName",
          "type": "string"
        }
      ],
      "name": "receiveYield",
      "outputs": [],
      "stateMutability": "nonpayable",
      "type": "function"
    },
    {
      "inputs": [
        {
          "internalType": "bytes32",
          "name": "role",
          "type": "bytes32"
        },
        {
          "internalType": "address",
          "name": "callerConfirmation",
          "type": "address"
        }
      ],
      "name": "renounceRole",
      "outputs": [],
      "stateMutability": "nonpayable",
      "type": "function"
    },
    {
      "inputs": [
        {
          "internalType": "bytes32",
          "name": "role",
          "type": "bytes32"
        },
        {
          "internalType": "address",
          "name": "account",
          "type": "address"
        }
      ],
      "name": "revokeRole",
      "outputs": [],
      "stateMutability": "nonpayable",
      "type": "function"
    },
    {
      "inputs": [
        {
          "internalType": "address",
          "name": "_kafUSDContract",
          "type": "address"
        }
      ],
      "name": "setKafUSDContract",
      "outputs": [],
      "stateMutability": "nonpayable",
      "type": "function"
    },
    {
      "inputs": [
        {
          "internalType": "address",
          "name": "_kfUSDToken",
          "type": "address"
        }
      ],
      "name": "setKfUSDToken",
      "outputs": [],
      "stateMutability": "nonpayable",
      "type": "function"
    },
    {
      "inputs": [
        {
          "internalType": "address",
          "name": "_asset",
          "type": "address"
        },
        {
          "internalType": "bool",
          "name": "_supported",
          "type": "bool"
        }
      ],
      "name": "setYieldAsset",
      "outputs": [],
      "stateMutability": "nonpayable",
      "type": "function"
    },
    {
      "inputs": [
        {
          "internalType": "address",
          "name": "_source",
          "type": "address"
        },
        {
          "internalType": "string",
          "name": "_sourceName",
          "type": "string"
        },
        {
          "internalType": "bool",
          "name": "_enabled",
          "type": "bool"
        }
      ],
      "name": "setYieldSource",
      "outputs": [],
      "stateMutability": "nonpayable",
      "type": "function"
    },
    {
      "inputs": [
        {
          "internalType": "address",
          "name": "",
          "type": "address"
        }
      ],
      "name": "supportedYieldAssets",
      "outputs": [
        {
          "internalType": "bool",
          "name": "",
          "type": "bool"
        }
      ],
      "stateMutability": "view",
      "type": "function"
    },
    {
      "inputs": [
        {
          "internalType": "bytes4",
          "name": "interfaceId",
          "type": "bytes4"
        }
      ],
      "name": "supportsInterface",
      "outputs": [
        {
          "internalType": "bool",
          "name": "",
          "type": "bool"
        }
      ],
      "stateMutability": "view",
      "type": "function"
    },
    {
      "inputs": [
        {
          "internalType": "address",
          "name": "",
          "type": "address"
        }
      ],
      "name": "totalYieldPerAsset",
      "outputs": [
        {
          "internalType": "uint256",
          "name": "",
          "type": "uint256"
        }
      ],
      "stateMutability": "view",
      "type": "function"
    },
    {
      "inputs": [
        {
          "internalType": "uint256",
          "name": "",
          "type": "uint256"
        }
      ],
      "name": "yieldAssetList",
      "outputs": [
        {
          "internalType": "address",
          "name": "",
          "type": "address"
        }
      ],
      "stateMutability": "view",
      "type": "function"
    },
    {
      "inputs": [
        {
          "internalType": "address",
          "name": "",
          "type": "address"
        }
      ],
      "name": "yieldBalancePerAsset",
      "outputs": [
        {
          "internalType": "uint256",
          "name": "",
          "type": "uint256"
        }
      ],
      "stateMutability": "view",
      "type": "function"
    },
    {
      "inputs": [
        {
          "internalType": "uint256",
          "name": "",
          "type": "uint256"
        }
      ],
      "name": "yieldSourceList",
      "outputs": [
        {
          "internalType": "address",
          "name": "",
          "type": "address"
        }
      ],
      "stateMutability": "view",
      "type": "function"
    },
    {
      "inputs": [
        {
          "internalType": "address",
          "name": "",
          "type": "address"
        }
      ],
      "name": "yieldSources",
      "outputs": [
        {
          "internalType": "address",
          "name": "sourceAddress",
          "type": "address"
        },
        {
          "internalType": "string",
          "name": "sourceName",
          "type": "string"
        },
        {
          "internalType": "bool",
          "name": "enabled",
          "type": "bool"
        },
        {
          "internalType": "uint256",
          "name": "totalContributed",
          "type": "uint256"
        }
      ],
      "stateMutability": "view",
      "type": "function"
    }
  ],
  "bytecode": "0x60806040523480156200001157600080fd5b5060405162002653380380620026538339810160408190526200003491620001da565b600180556001600160a01b038116620000a15760405162461bcd60e51b815260206004820152602560248201527f5969656c6454726561737572793a20496e76616c6964206b6166555344206164604482015264647265737360d81b606482015260840160405180910390fd5b600280546001600160a01b0319166001600160a01b038316179055620000c96000336200012b565b50620000f67fa49807205ce4d355092ef5a8a18f56e8913cf4a201fbe287825b095693c21775336200012b565b50620001237fc0f6eba363b47b4d383b06a207f1851161adbf95f1b101053bc7ea3a3f5fb301336200012b565b50506200020c565b6000828152602081815260408083206001600160a01b038516845290915281205460ff16620001d0576000838152602081815260408083206001600160a01b03861684529091529020805460ff19166001179055620001873390565b6001600160a01b0316826001600160a01b0316847f2f8788117e7eff1d82e926ec794901d17c78024a50270940304540a733656f0d60405160405180910390a4506001620001d4565b5060005b92915050565b600060208284031215620001ed57600080fd5b81516001600160a01b03811681146200020557600080fd5b9392505050565b612437806200021c6000396000f3fe608060405234801561001057600080fd5b50600436106102065760003560e01c806391d148541161011a578063c0136dd5116100ad578063d547741f1161007c578063d547741f146104dc578063d9b7d618146104ef578063dc97da8d14610502578063dda2a66514610525578063e85c350e1461054557600080fd5b8063c0136dd514610477578063c1249ab1146104a0578063c27e7bd0146104a8578063c8148a75146104c957600080fd5b80639ddcedeb116100e95780639ddcedeb146104295780639e8af6c41461043c578063a217fddf1461044f578063a51df8c41461045757600080fd5b806391d14854146103c757806396172d2b146103da57806398c4f1ac146103ef578063999927df1461041657600080fd5b806345c8a8d01161019d578063590e8e6c1161016c578063590e8e6c146103475780635ef631831461036a5780636651150c1461037d57806375b238fc146103925780638f3341d7146103a757600080fd5b806345c8a8d0146102e35780634f07876d1461030e578063551512de14610321578063580deef61461033457600080fd5b80632f2ff15d116101d95780632f2ff15d146102a257806336568abe146102b55780633dc63e16146102c8578063409a33ce146102db57600080fd5b806301ffc9a71461020b5780631f51b47714610233578063248a9ca31461024857806325285f0114610279575b600080fd5b61021e610219366004611c85565b610558565b60405190151581526020015b60405180910390f35b610246610241366004611cd2565b61058f565b005b61026b610256366004611ced565b60009081526020819052604090206001015490565b60405190815260200161022a565b61026b610287366004611cd2565b6001600160a01b031660009081526007602052604090205490565b6102466102b0366004611d06565b610631565b6102466102c3366004611d06565b61065c565b6102466102d6366004611d42565b610694565b6102466108b7565b6102f66102f1366004611ced565b610a44565b6040516001600160a01b03909116815260200161022a565b6002546102f6906001600160a01b031681565b61024661032f366004611d6c565b610a6e565b6102f6610342366004611ced565b610af0565b61021e610355366004611cd2565b60046020526000908152604090205460ff1681565b6003546102f6906001600160a01b031681565b610385610b00565b60405161022a9190611ded565b61026b6000805160206123e283398151915281565b6103ba6103b5366004611cd2565b610b62565b60405161022a9190611e46565b61021e6103d5366004611d06565b610c7d565b61026b6000805160206123c283398151915281565b61026b7f31e0210044b4f6757ce6aa31f9c6e8d4896d24a755014887391a926c5224d95981565b610246610424366004611cd2565b610ca6565b610246610437366004611f39565b610e4b565b61024661044a366004611cd2565b611074565b61026b600081565b61026b610465366004611cd2565b60076020526000908152604090205481565b61026b610485366004611cd2565b6001600160a01b031660009081526006602052604090205490565b61038561112d565b6104bb6104b6366004611cd2565b61118d565b60405161022a929190611f8e565b6102466104d7366004611fe5565b6112ed565b6102466104ea366004611d06565b61162d565b6102466104fd366004611cd2565b611652565b610515610510366004611cd2565b6117cd565b60405161022a949392919061203c565b61026b610533366004611cd2565b60066020526000908152604090205481565b61026b610553366004612073565b61188c565b60006001600160e01b03198216637965db0b60e01b148061058957506301ffc9a760e01b6001600160e01b03198316145b92915050565b6000805160206123e28339815191526105a781611a0e565b6001600160a01b03821661060e5760405162461bcd60e51b8152602060048201526024808201527f5969656c6454726561737572793a20496e76616c6964206b66555344206164646044820152637265737360e01b60648201526084015b60405180910390fd5b50600380546001600160a01b0319166001600160a01b0392909216919091179055565b60008281526020819052604090206001015461064c81611a0e565b6106568383611a18565b50505050565b6001600160a01b03811633146106855760405163334bd91960e11b815260040160405180910390fd5b61068f8282611aaa565b505050565b6000805160206123e28339815191526106ac81611a0e565b6001600160a01b0383166106d25760405162461bcd60e51b81526004016106059061209d565b6001600160a01b038316600090815260046020526040902080548315801560ff1983161790925560ff16908390610707575080155b1561075c57600580546001810182556000919091527f036b6384b5eca791c62761152d0c79bb0604c104a5fb6f4eb0703f3154bb3db00180546001600160a01b0319166001600160a01b03861617905561086c565b821580156107675750805b1561086c5760005b60055481101561086a57846001600160a01b031660058281548110610796576107966120d4565b6000918252602090912001546001600160a01b03160361086257600580546107c090600190612100565b815481106107d0576107d06120d4565b600091825260209091200154600580546001600160a01b0390921691839081106107fc576107fc6120d4565b9060005260206000200160006101000a8154816001600160a01b0302191690836001600160a01b03160217905550600580548061083b5761083b612113565b600082815260209020810160001990810180546001600160a01b031916905501905561086a565b60010161076f565b505b836001600160a01b03167f44f619240fa9cc09344a1bbb6352479a46a908904ec05bc7a019cba96bf0053d846040516108a9911515815260200190565b60405180910390a250505050565b6108bf611b15565b6000805b6005548110156109d4576000600582815481106108e2576108e26120d4565b60009182526020822001546001600160a01b03169150610902338361188c565b9050806000036109135750506109cc565b6001600160a01b03821660009081526007602052604090205481111561093a5750506109cc565b6001600160a01b03821660009081526007602052604081208054839290610962908490612100565b9091555061097c90506001600160a01b0383163383611b3f565b6040518181526001600160a01b0383169033907ff3055bc8d92d9c8d2f12b45d112dd345cd2cfd17292b8d65c5642ac6f912dfd79060200160405180910390a3836109c681612129565b94505050505b6001016108c3565b5060008111610a385760405162461bcd60e51b815260206004820152602a60248201527f5969656c6454726561737572793a204e6f207969656c6420617661696c61626c6044820152696520746f20636c61696d60b01b6064820152608401610605565b50610a4260018055565b565b60098181548110610a5457600080fd5b6000918252602090912001546001600160a01b0316905081565b6000805160206123e2833981519152610a8681611a0e565b6001600160a01b038216610adc5760405162461bcd60e51b815260206004820181905260248201527f5969656c6454726561737572793a20496e76616c696420726563697069656e746044820152606401610605565b6106566001600160a01b0385168385611b3f565b60058181548110610a5457600080fd5b60606005805480602002602001604051908101604052809291908181526020018280548015610b5857602002820191906000526020600020905b81546001600160a01b03168152600190910190602001808311610b3a575b5050505050905090565b610b98604051806080016040528060006001600160a01b0316815260200160608152602001600015158152602001600081525090565b6001600160a01b038083166000908152600860209081526040918290208251608081019093528054909316825260018301805492939291840191610bdb90612142565b80601f0160208091040260200160405190810160405280929190818152602001828054610c0790612142565b8015610c545780601f10610c2957610100808354040283529160200191610c54565b820191906000526020600020905b815481529060010190602001808311610c3757829003601f168201915b5050509183525050600282015460ff161515602082015260039091015460409091015292915050565b6000918252602082815260408084206001600160a01b0393909316845291905290205460ff1690565b610cae611b15565b6001600160a01b038116610cd45760405162461bcd60e51b81526004016106059061209d565b6001600160a01b03811660009081526004602052604090205460ff16610d0c5760405162461bcd60e51b81526004016106059061217c565b6000610d18338361188c565b905060008111610d835760405162461bcd60e51b815260206004820152603060248201527f5969656c6454726561737572793a204e6f207969656c6420617661696c61626c60448201526f1948199bdc881d1a1a5cc8185cdcd95d60821b6064820152608401610605565b6001600160a01b038216600090815260076020526040902054811115610dbb5760405162461bcd60e51b8152600401610605906121be565b6001600160a01b03821660009081526007602052604081208054839290610de3908490612100565b90915550610dfd90506001600160a01b0383163383611b3f565b6040518181526001600160a01b0383169033907ff3055bc8d92d9c8d2f12b45d112dd345cd2cfd17292b8d65c5642ac6f912dfd7906020015b60405180910390a350610e4860018055565b50565b6000805160206123e2833981519152610e6381611a0e565b6001600160a01b038416610eb95760405162461bcd60e51b815260206004820152601d60248201527f5969656c6454726561737572793a20496e76616c696420736f757263650000006044820152606401610605565b6001600160a01b0384811660009081526008602052604090205416610fcb57604080516080810182526001600160a01b038681168083526020808401888152871515858701526000606086018190529283526008909152939020825181546001600160a01b031916921691909117815591519091906001820190610f3d9082612257565b50604082015160028201805460ff1916911515919091179055606090910151600390910155600980546001810182556000919091527f6e1540171b6c0c960b71a7020d9f60077f6af931a8bbf590da0223dacf75c7af0180546001600160a01b0319166001600160a01b038616179055610fc56000805160206123c283398151915285611a18565b50611039565b6001600160a01b038416600090815260086020526040902060028101805460ff19168415151790556001016110008482612257565b50811561101f57610fc56000805160206123c283398151915285611a18565b6110376000805160206123c283398151915285611aaa565b505b836001600160a01b03167f20473c6d7d1ec29eedab85841ec45b4e69a7eec533a05a0a206e14a780c34e6a84846040516108a9929190612317565b6000805160206123e283398151915261108c81611a0e565b6001600160a01b0382166110e25760405162461bcd60e51b815260206004820152601e60248201527f5969656c6454726561737572793a20496e76616c6964206164647265737300006044820152606401610605565b600280546001600160a01b0319166001600160a01b0384169081179091556040517f8fcb1fb8ef4973cc38527da0e50343c93bc1a208bcfa4c79ca6de57d26f28fab90600090a25050565b60606009805480602002602001604051908101604052809291908181526020018280548015610b58576020028201919060005260206000209081546001600160a01b03168152600190910190602001808311610b3a575050505050905090565b600554606090819067ffffffffffffffff8111156111ad576111ad611e96565b6040519080825280602002602001820160405280156111d6578160200160208202803683370190505b5060055490925067ffffffffffffffff8111156111f5576111f5611e96565b60405190808252806020026020018201604052801561121e578160200160208202803683370190505b50905060005b6005548110156112e75760058181548110611241576112416120d4565b9060005260206000200160009054906101000a90046001600160a01b0316838281518110611271576112716120d4565b60200260200101906001600160a01b031690816001600160a01b0316815250506112c284600583815481106112a8576112a86120d4565b6000918252602090912001546001600160a01b031661188c565b8282815181106112d4576112d46120d4565b6020908102919091010152600101611224565b50915091565b6000805160206123c283398151915261130581611a0e565b61130d611b15565b6001600160a01b0384166113335760405162461bcd60e51b81526004016106059061209d565b6000831161139b5760405162461bcd60e51b815260206004820152602f60248201527f5969656c6454726561737572793a20416d6f756e74206d75737420626520677260448201526e6561746572207468616e207a65726f60881b6064820152608401610605565b6001600160a01b03841660009081526004602052604090205460ff16611453576001600160a01b0384166000818152600460209081526040808320805460ff1916600190811790915560058054808301825594527f036b6384b5eca791c62761152d0c79bb0604c104a5fb6f4eb0703f3154bb3db090930180546001600160a01b03191685179055519182527f44f619240fa9cc09344a1bbb6352479a46a908904ec05bc7a019cba96bf0053d910160405180910390a25b6114686001600160a01b038516333086611b9e565b6001600160a01b0384166000908152600660205260408120805485929061149090849061233b565b90915550506001600160a01b038416600090815260076020526040812080548592906114bd90849061233b565b9091555050336000908152600860205260409020546001600160a01b03166115af57604080516080810182523380825260208083018681526001848601819052606085018990526000938452600890925293909120825181546001600160a01b0319166001600160a01b039091161781559251919291908201906115419082612257565b50604082015160028201805491151560ff19909216919091179055606090910151600390910155600980546001810182556000919091527f6e1540171b6c0c960b71a7020d9f60077f6af931a8bbf590da0223dacf75c7af0180546001600160a01b031916331790556115d7565b33600090815260086020526040812060030180548592906115d190849061233b565b90915550505b336001600160a01b0316846001600160a01b03167fe479c95dfa1ee3fe61d8e8ead871d24fd0c8954496132e792d8d389b39292c07858560405161161c92919061234e565b60405180910390a361065660018055565b60008281526020819052604090206001015461164881611a0e565b6106568383611aaa565b61165a611b15565b6001600160a01b0381166116805760405162461bcd60e51b81526004016106059061209d565b6001600160a01b03811660009081526004602052604090205460ff166116b85760405162461bcd60e51b81526004016106059061217c565b60006116c4338361188c565b9050600081116117165760405162461bcd60e51b815260206004820181905260248201527f5969656c6454726561737572793a204e6f207969656c6420746f20636c61696d6044820152606401610605565b6001600160a01b03821660009081526007602052604090205481111561174e5760405162461bcd60e51b8152600401610605906121be565b6001600160a01b03821660009081526007602052604081208054839290611776908490612100565b9091555061179090506001600160a01b0383163383611b3f565b6040518181526001600160a01b0383169033907fc8abb61b37ca121116f3696791aa0d3ef572a4da26608d26f01164f288faf80d90602001610e36565b600860205260009081526040902080546001820180546001600160a01b0390921692916117f990612142565b80601f016020809104026020016040519081016040528092919081815260200182805461182590612142565b80156118725780601f1061184757610100808354040283529160200191611872565b820191906000526020600020905b81548152906001019060200180831161185557829003601f168201915b505050506002830154600390930154919260ff1691905084565b6002546000906001600160a01b03166118a757506000610589565b6001600160a01b03821660009081526007602052604081205490036118ce57506000610589565b6002546040516370a0823160e01b81526001600160a01b03858116600483015260009216906370a0823190602401602060405180830381865afa158015611919573d6000803e3d6000fd5b505050506040513d601f19601f8201168201806040525081019061193d919061236f565b905080600003611951576000915050610589565b600254604080516318160ddd60e01b815290516000926001600160a01b0316916318160ddd9160048083019260209291908290030181865afa15801561199b573d6000803e3d6000fd5b505050506040513d601f19601f820116820180604052508101906119bf919061236f565b9050806000036119d457600092505050610589565b6001600160a01b03841660009081526007602052604081205482906119fa908590612388565b611a04919061239f565b9695505050505050565b610e488133611bd7565b6000611a248383610c7d565b611aa2576000838152602081815260408083206001600160a01b03861684529091529020805460ff19166001179055611a5a3390565b6001600160a01b0316826001600160a01b0316847f2f8788117e7eff1d82e926ec794901d17c78024a50270940304540a733656f0d60405160405180910390a4506001610589565b506000610589565b6000611ab68383610c7d565b15611aa2576000838152602081815260408083206001600160a01b0386168085529252808320805460ff1916905551339286917ff6391f5c32d9c69d2a47ea670b442974b53935d1edc7fd64eb21e047a839171b9190a4506001610589565b600260015403611b3857604051633ee5aeb560e01b815260040160405180910390fd5b6002600155565b6040516001600160a01b0383811660248301526044820183905261068f91859182169063a9059cbb906064015b604051602081830303815290604052915060e01b6020820180516001600160e01b038381831617835250505050611c14565b6040516001600160a01b0384811660248301528381166044830152606482018390526106569186918216906323b872dd90608401611b6c565b611be18282610c7d565b611c105760405163e2517d3f60e01b81526001600160a01b038216600482015260248101839052604401610605565b5050565b600080602060008451602086016000885af180611c37576040513d6000823e3d81fd5b50506000513d91508115611c4f578060011415611c5c565b6001600160a01b0384163b155b1561065657604051635274afe760e01b81526001600160a01b0385166004820152602401610605565b600060208284031215611c9757600080fd5b81356001600160e01b031981168114611caf57600080fd5b9392505050565b80356001600160a01b0381168114611ccd57600080fd5b919050565b600060208284031215611ce457600080fd5b611caf82611cb6565b600060208284031215611cff57600080fd5b5035919050565b60008060408385031215611d1957600080fd5b82359150611d2960208401611cb6565b90509250929050565b80358015158114611ccd57600080fd5b60008060408385031215611d5557600080fd5b611d5e83611cb6565b9150611d2960208401611d32565b600080600060608486031215611d8157600080fd5b611d8a84611cb6565b925060208401359150611d9f60408501611cb6565b90509250925092565b60008151808452602080850194506020840160005b83811015611de25781516001600160a01b031687529582019590820190600101611dbd565b509495945050505050565b602081526000611caf6020830184611da8565b6000815180845260005b81811015611e2657602081850181015186830182015201611e0a565b506000602082860101526020601f19601f83011685010191505092915050565b602080825282516001600160a01b03168282015282015160806040830152600090611e7460a0840182611e00565b9050604084015115156060840152606084015160808401528091505092915050565b634e487b7160e01b600052604160045260246000fd5b600082601f830112611ebd57600080fd5b813567ffffffffffffffff80821115611ed857611ed8611e96565b604051601f8301601f19908116603f01168101908282118183101715611f0057611f00611e96565b81604052838152866020858801011115611f1957600080fd5b836020870160208301376000602085830101528094505050505092915050565b600080600060608486031215611f4e57600080fd5b611f5784611cb6565b9250602084013567ffffffffffffffff811115611f7357600080fd5b611f7f86828701611eac565b925050611d9f60408501611d32565b604081526000611fa16040830185611da8565b82810360208481019190915284518083528582019282019060005b81811015611fd857845183529383019391830191600101611fbc565b5090979650505050505050565b600080600060608486031215611ffa57600080fd5b61200384611cb6565b925060208401359150604084013567ffffffffffffffff81111561202657600080fd5b61203286828701611eac565b9150509250925092565b6001600160a01b038516815260806020820181905260009061206090830186611e00565b9315156040830152506060015292915050565b6000806040838503121561208657600080fd5b61208f83611cb6565b9150611d2960208401611cb6565b6020808252601c908201527f5969656c6454726561737572793a20496e76616c696420617373657400000000604082015260600190565b634e487b7160e01b600052603260045260246000fd5b634e487b7160e01b600052601160045260246000fd5b81810381811115610589576105896120ea565b634e487b7160e01b600052603160045260246000fd5b60006001820161213b5761213b6120ea565b5060010190565b600181811c9082168061215657607f821691505b60208210810361217657634e487b7160e01b600052602260045260246000fd5b50919050565b60208082526022908201527f5969656c6454726561737572793a204173736574206e6f7420737570706f7274604082015261195960f21b606082015260800190565b60208082526029908201527f5969656c6454726561737572793a20496e73756666696369656e74207969656c604082015268642062616c616e636560b81b606082015260800190565b601f82111561068f576000816000526020600020601f850160051c810160208610156122305750805b601f850160051c820191505b8181101561224f5782815560010161223c565b505050505050565b815167ffffffffffffffff81111561227157612271611e96565b6122858161227f8454612142565b84612207565b602080601f8311600181146122ba57600084156122a25750858301515b600019600386901b1c1916600185901b17855561224f565b600085815260208120601f198616915b828110156122e9578886015182559484019460019091019084016122ca565b50858210156123075787850151600019600388901b60f8161c191681555b5050505050600190811b01905550565b60408152600061232a6040830185611e00565b905082151560208301529392505050565b80820180821115610589576105896120ea565b8281526040602082015260006123676040830184611e00565b949350505050565b60006020828403121561238157600080fd5b5051919050565b8082028115828204841417610589576105896120ea565b6000826123bc57634e487b7160e01b600052601260045260246000fd5b50049056fec0f6eba363b47b4d383b06a207f1851161adbf95f1b101053bc7ea3a3f5fb301a49807205ce4d355092ef5a8a18f56e8913cf4a201fbe287825b095693c21775a2646970667358221220d9ab18ee9786e594d76edc0e45542e93e16ce25a0d4427a6fdae75de97dc842764736f6c63430008180033",
  "linkReferences": {},
  "deployedLinkReferences": {}
}