{
  "_format": "hh-sol-artifact-1",
  "contractName": "KaleidoTokenFaucet",
  "sourceName": "contracts/Faucet.sol",
  "abi": [
    {
      "inputs": [],
      "name": "KaleidoTokenFaucet_CooldownNotOver",
      "type": "error"
    },
    {
      "inputs": [],
      "name": "KaleidoTokenFaucet_FailToSendToken",
      "type": "error"
    },
    {
      "inputs": [],
      "name": "KaleidoTokenFaucet_InsufficientContractBalance",
      "type": "error"
    },
    {
      "inputs": [
        {
          "internalType": "address",
          "name": "owner",
          "type": "address"
        }
      ],
      "name": "OwnableInvalidOwner",
      "type": "error"
    },
    {
      "inputs": [
        {
          "internalType": "address",
          "name": "account",
          "type": "address"
        }
      ],
      "name": "OwnableUnauthorizedAccount",
      "type": "error"
    },
    {
      "inputs": [
        {
          "internalType": "address",
          "name": "token",
          "type": "address"
        }
      ],
      "name": "SafeERC20FailedOperation",
      "type": "error"
    },
    {
      "anonymous": false,
      "inputs": [
        {
          "indexed": true,
          "internalType": "uint256",
          "name": "amount",
          "type": "uint256"
        },
        {
          "indexed": true,
          "internalType": "address",
          "name": "claimer",
          "type": "address"
        },
        {
          "indexed": true,
          "internalType": "uint256",
          "name": "date",
          "type": "uint256"
        }
      ],
      "name": "KLDTokenClaim",
      "type": "event"
    },
    {
      "anonymous": false,
      "inputs": [
        {
          "indexed": true,
          "internalType": "address",
          "name": "previousOwner",
          "type": "address"
        },
        {
          "indexed": true,
          "internalType": "address",
          "name": "newOwner",
          "type": "address"
        }
      ],
      "name": "OwnershipTransferred",
      "type": "event"
    },
    {
      "anonymous": false,
      "inputs": [
        {
          "indexed": true,
          "internalType": "uint256",
          "name": "amount",
          "type": "uint256"
        },
        {
          "indexed": true,
          "internalType": "address",
          "name": "claimer",
          "type": "address"
        },
        {
          "indexed": true,
          "internalType": "uint256",
          "name": "date",
          "type": "uint256"
        }
      ],
      "name": "TokenClaim",
      "type": "event"
    },
    {
      "inputs": [],
      "name": "COOLDOWN",
      "outputs": [
        {
          "internalType": "uint256",
          "name": "",
          "type": "uint256"
        }
      ],
      "stateMutability": "view",
      "type": "function"
    },
    {
      "inputs": [],
      "name": "KLD",
      "outputs": [
        {
          "internalType": "address",
          "name": "",
          "type": "address"
        }
      ],
      "stateMutability": "view",
      "type": "function"
    },
    {
      "inputs": [],
      "name": "MIN_CLAIM_AMOUNT",
      "outputs": [
        {
          "internalType": "uint256",
          "name": "",
          "type": "uint256"
        }
      ],
      "stateMutability": "view",
      "type": "function"
    },
    {
      "inputs": [],
      "name": "MIN_KLD_CLAIM_AMOUNT",
      "outputs": [
        {
          "internalType": "uint256",
          "name": "",
          "type": "uint256"
        }
      ],
      "stateMutability": "view",
      "type": "function"
    },
    {
      "inputs": [],
      "name": "USDC",
      "outputs": [
        {
          "internalType": "address",
          "name": "",
          "type": "address"
        }
      ],
      "stateMutability": "view",
      "type": "function"
    },
    {
      "inputs": [
        {
          "internalType": "uint256",
          "name": "",
          "type": "uint256"
        }
      ],
      "name": "allUsers",
      "outputs": [
        {
          "internalType": "address",
          "name": "",
          "type": "address"
        }
      ],
      "stateMutability": "view",
      "type": "function"
    },
    {
      "inputs": [],
      "name": "claimKLD",
      "outputs": [],
      "stateMutability": "nonpayable",
      "type": "function"
    },
    {
      "inputs": [],
      "name": "claimToken",
      "outputs": [],
      "stateMutability": "nonpayable",
      "type": "function"
    },
    {
      "inputs": [],
      "name": "getTotalClaimed",
      "outputs": [
        {
          "internalType": "uint256",
          "name": "",
          "type": "uint256"
        }
      ],
      "stateMutability": "view",
      "type": "function"
    },
    {
      "inputs": [],
      "name": "getTotalUsers",
      "outputs": [
        {
          "internalType": "uint256",
          "name": "",
          "type": "uint256"
        }
      ],
      "stateMutability": "view",
      "type": "function"
    },
    {
      "inputs": [
        {
          "internalType": "address",
          "name": "",
          "type": "address"
        }
      ],
      "name": "hasClaimedBefore",
      "outputs": [
        {
          "internalType": "bool",
          "name": "",
          "type": "bool"
        }
      ],
      "stateMutability": "view",
      "type": "function"
    },
    {
      "inputs": [
        {
          "internalType": "address",
          "name": "",
          "type": "address"
        }
      ],
      "name": "hasClaimedKLDBefore",
      "outputs": [
        {
          "internalType": "bool",
          "name": "",
          "type": "bool"
        }
      ],
      "stateMutability": "view",
      "type": "function"
    },
    {
      "inputs": [
        {
          "internalType": "address",
          "name": "",
          "type": "address"
        }
      ],
      "name": "lastClaimed",
      "outputs": [
        {
          "internalType": "uint256",
          "name": "",
          "type": "uint256"
        }
      ],
      "stateMutability": "view",
      "type": "function"
    },
    {
      "inputs": [
        {
          "internalType": "address",
          "name": "",
          "type": "address"
        }
      ],
      "name": "lastKLDClaimed",
      "outputs": [
        {
          "internalType": "uint256",
          "name": "",
          "type": "uint256"
        }
      ],
      "stateMutability": "view",
      "type": "function"
    },
    {
      "inputs": [],
      "name": "owner",
      "outputs": [
        {
          "internalType": "address",
          "name": "",
          "type": "address"
        }
      ],
      "stateMutability": "view",
      "type": "function"
    },
    {
      "inputs": [],
      "name": "renounceOwnership",
      "outputs": [],
      "stateMutability": "nonpayable",
      "type": "function"
    },
    {
      "inputs": [
        {
          "internalType": "uint256",
          "name": "_seconds",
          "type": "uint256"
        }
      ],
      "name": "setCooldown",
      "outputs": [],
      "stateMutability": "nonpayable",
      "type": "function"
    },
    {
      "inputs": [
        {
          "internalType": "uint256",
          "name": "_amount",
          "type": "uint256"
        }
      ],
      "name": "setMinClaimAmount",
      "outputs": [],
      "stateMutability": "nonpayable",
      "type": "function"
    },
    {
      "inputs": [
        {
          "internalType": "address",
          "name": "_newUSDC",
          "type": "address"
        }
      ],
      "name": "setUSDCAddress",
      "outputs": [],
      "stateMutability": "nonpayable",
      "type": "function"
    },
    {
      "inputs": [],
      "name": "totalClaimed",
      "outputs": [
        {
          "internalType": "uint256",
          "name": "",
          "type": "uint256"
        }
      ],
      "stateMutability": "view",
      "type": "function"
    },
    {
      "inputs": [],
      "name": "totalKLDClaimed",
      "outputs": [
        {
          "internalType": "uint256",
          "name": "",
          "type": "uint256"
        }
      ],
      "stateMutability": "view",
      "type": "function"
    },
    {
      "inputs": [
        {
          "internalType": "address",
          "name": "newOwner",
          "type": "address"
        }
      ],
      "name": "transferOwnership",
      "outputs": [],
      "stateMutability": "nonpayable",
      "type": "function"
    }
  ],
  "bytecode": "0x608080604052346100d25733156100bc57600080546001600160a01b031980821633908117845560405193730c61dbcf1e8ddff0e237a256257260fdf6934505936001600160a01b0316907f8be0079c531659141344cd1fd0a4f28419497f9722a3daafe3b4186f6b6457e09080a373572f4901f03055ffc1d936a60ccc3cbf13911be381600154161760015560025416176002556305f5e10060035569021e19e0c9bab2400000600455610e106005556109bf90816100d88239f35b631e4fbdf760e01b815260006004820152602490fd5b600080fdfe608060408181526004908136101561001657600080fd5b600092833560e01c908163013eba921461079957508063204538d61461077b5780632078b1f41461073c5780634451d89f146105da57806345d3b1f7146104795780634fc3f41a146104575780635bdb5e3e1461042e578063715018a6146103d1578063736a83a1146101c957806389a30271146103a85780638da5cb5b14610380578063922fc2481461035e5780639be572f61461033f5780639cecd5cf14610300578063a2724a4d146102e1578063a2bdedf41461028a578063aaf5bfc314610241578063afa4d63114610207578063b63075da146101e8578063d54ad2a1146101c9578063d731c4f6146101a65763f2fde38b1461011657600080fd5b346101a25760203660031901126101a2576001600160a01b0382358181169391929084900361019e576101476107d4565b831561018857505082546001600160a01b0319811683178455167f8be0079c531659141344cd1fd0a4f28419497f9722a3daafe3b4186f6b6457e08380a380f35b51631e4fbdf760e01b8152908101849052602490fd5b8480fd5b8280fd5b8382346101c557816003193601126101c5576020906003549051908152f35b5080fd5b8382346101c557816003193601126101c5576020906007549051908152f35b8382346101c557816003193601126101c5576020906008549051908152f35b5090346101a25760203660031901126101a257356001600160a01b038116908190036101a25782829160209452600a845220549051908152f35b5050346101c55760203660031901126101c557356001600160a01b038116908190036101c55761026f6107d4565b6bffffffffffffffffffffffff60a01b600154161760015580f35b5090346101a25760203660031901126101a257356006548110156101a25760066020935260018060a01b03907ff652222313e28459528d920b65115c16c04f3efc82aaedc97be59f3f377c0d3f0154169051908152f35b8382346101c557816003193601126101c5576020906005549051908152f35b5090346101a25760203660031901126101a257356001600160a01b038116908190036101a257818360ff9260209552600b855220541690519015158152f35b8382346101c557816003193601126101c5576020906006549051908152f35b5050346101c55760203660031901126101c5576103796107d4565b3560035580f35b8382346101c557816003193601126101c557905490516001600160a01b039091168152602090f35b8382346101c557816003193601126101c55760015490516001600160a01b039091168152602090f35b833461042b578060031936011261042b576103ea6107d4565b80546001600160a01b03198116825581906001600160a01b03167f8be0079c531659141344cd1fd0a4f28419497f9722a3daafe3b4186f6b6457e08280a380f35b80fd5b8382346101c557816003193601126101c55760025490516001600160a01b039091168152602090f35b5050346101c55760203660031901126101c5576104726107d4565b3560055580f35b50346101a257826003193601126101a257338352602090600a82526104a18185205442610800565b600554116105cb5760025481516370a0823160e01b815230858201526001600160a01b03939182908290602490829088165afa9081156105c1578691610590575b5084541161058057906105309291338652600a81524282872055610509855460085461085b565b600855338652600c815260ff82872054161561055c575b50506002541682549033906108e7565b42903390547fbee3825d8c284f7bbfefb5454351b114f46db5e083451b35838c6af8485454e88480a480f35b600c9061056833610868565b338752528420805460ff191660011790553880610520565b81516376ee8cf160e11b81528490fd5b90508181813d83116105ba575b6105a78183610823565b810103126105b65751386104e2565b8580fd5b503d61059d565b83513d88823e3d90fd5b5163650980c560e01b81529050fd5b508290346101c557816003193601126101c557338252602090600982526106048184205442610800565b6005541161072d5760015481516370a0823160e01b815230868201526001600160a01b03939182908290602490829088165afa9081156107235785916106f6575b50600354116106e65761069693945033855260098152428286205561066e60035460075461085b565b600755338552600b815260ff8286205416156106c2575b5050600154166003549033906108e7565b42336003547fc91fb9c48925f02362c5e27e81c06861520a7459ed13ea5e3b1f1952c878e9ab8480a480f35b600b906106ce33610868565b338652528320805460ff191660011790558380610685565b81516376ee8cf160e11b81528590fd5b90508181813d831161071c575b61070d8183610823565b8101031261019e575186610645565b503d610703565b83513d87823e3d90fd5b5163650980c560e01b81528390fd5b5090346101a25760203660031901126101a257356001600160a01b038116908190036101a257818360ff9260209552600c855220541690519015158152f35b5090346101a257826003193601126101a25760209250549051908152f35b929050346107d05760203660031901126107d057356001600160a01b038116908190036107d0579260209381526009845220548152f35b8380fd5b6000546001600160a01b031633036107e857565b60405163118cdaa760e01b8152336004820152602490fd5b9190820391821161080d57565b634e487b7160e01b600052601160045260246000fd5b90601f8019910116810190811067ffffffffffffffff82111761084557604052565b634e487b7160e01b600052604160045260246000fd5b9190820180921161080d57565b600654680100000000000000008110156108455760018101806006558110156108d15760066000527ff652222313e28459528d920b65115c16c04f3efc82aaedc97be59f3f377c0d3f0180546001600160a01b0319166001600160a01b03909216919091179055565b634e487b7160e01b600052603260045260246000fd5b60405163a9059cbb60e01b602082019081526001600160a01b0393841660248301526044808301959095529381529092608082019067ffffffffffffffff82118383101761084557602092600092604052519082865af11561097d576000513d61097457508082163b155b61095a575050565b604051635274afe760e01b81529116600482015260249150fd5b60011415610952565b6040513d6000823e3d90fdfea2646970667358221220d24a51b2389209408c17eccd2940567a24b31b00f64b1a7edd54e8cab20b433864736f6c63430008140033",
  "linkReferences": {},
  "deployedLinkReferences": {}
}