{
  "_format": "hh-sol-artifact-1",
  "contractName": "ProtocolFacet",
  "sourceName": "contracts/facets/ProtocolFacet.sol",
  "abi": [
    {
      "inputs": [],
      "name": "NotDiamondOwner",
      "type": "error"
    },
    {
      "inputs": [],
      "name": "Protocol__CannotBorrowCollateralAsset",
      "type": "error"
    },
    {
      "inputs": [],
      "name": "Protocol__CantFundSelf",
      "type": "error"
    },
    {
      "inputs": [],
      "name": "Protocol__CyclicReferral",
      "type": "error"
    },
    {
      "inputs": [],
      "name": "Protocol__DateMustBeInFuture",
      "type": "error"
    },
    {
      "inputs": [],
      "name": "Protocol__DownlinerAlreadyHasUpliner",
      "type": "error"
    },
    {
      "inputs": [],
      "name": "Protocol__IdNotExist",
      "type": "error"
    },
    {
      "inputs": [],
      "name": "Protocol__InsufficientAllowance",
      "type": "error"
    },
    {
      "inputs": [],
      "name": "Protocol__InsufficientAmount",
      "type": "error"
    },
    {
      "inputs": [],
      "name": "Protocol__InsufficientBalance",
      "type": "error"
    },
    {
      "inputs": [],
      "name": "Protocol__InsufficientCollateral",
      "type": "error"
    },
    {
      "inputs": [],
      "name": "Protocol__InsufficientCollateralBalance",
      "type": "error"
    },
    {
      "inputs": [],
      "name": "Protocol__InsufficientCollateralDeposited",
      "type": "error"
    },
    {
      "inputs": [],
      "name": "Protocol__InvalidAddress",
      "type": "error"
    },
    {
      "inputs": [],
      "name": "Protocol__InvalidAmount",
      "type": "error"
    },
    {
      "inputs": [],
      "name": "Protocol__InvalidFeeBps",
      "type": "error"
    },
    {
      "inputs": [],
      "name": "Protocol__InvalidFeeVault",
      "type": "error"
    },
    {
      "inputs": [],
      "name": "Protocol__InvalidToken",
      "type": "error"
    },
    {
      "inputs": [],
      "name": "Protocol__ListingNotOpen",
      "type": "error"
    },
    {
      "inputs": [],
      "name": "Protocol__LoanAmountTooLow",
      "type": "error"
    },
    {
      "inputs": [],
      "name": "Protocol__LoanValueZero",
      "type": "error"
    },
    {
      "inputs": [],
      "name": "Protocol__MustBeMoreThanZero",
      "type": "error"
    },
    {
      "inputs": [],
      "name": "Protocol__NoCollateralDeposited",
      "type": "error"
    },
    {
      "inputs": [],
      "name": "Protocol__NotOwner",
      "type": "error"
    },
    {
      "inputs": [],
      "name": "Protocol__OnlyBotCanAccess",
      "type": "error"
    },
    {
      "inputs": [],
      "name": "Protocol__OrderNotOpen",
      "type": "error"
    },
    {
      "inputs": [],
      "name": "Protocol__OwnerCreatedListing",
      "type": "error"
    },
    {
      "inputs": [],
      "name": "Protocol__OwnerCreatedOrder",
      "type": "error"
    },
    {
      "inputs": [],
      "name": "Protocol__PositionHealthy",
      "type": "error"
    },
    {
      "inputs": [],
      "name": "Protocol__RequestExpired",
      "type": "error"
    },
    {
      "inputs": [],
      "name": "Protocol__RequestNotOpen",
      "type": "error"
    },
    {
      "inputs": [],
      "name": "Protocol__RequestNotServiced",
      "type": "error"
    },
    {
      "inputs": [],
      "name": "Protocol__TokenAlreadyExists",
      "type": "error"
    },
    {
      "inputs": [],
      "name": "Protocol__TokenNotAllowed",
      "type": "error"
    },
    {
      "inputs": [],
      "name": "Protocol__TokenNotLoanable",
      "type": "error"
    },
    {
      "inputs": [],
      "name": "Protocol__TransferFailed",
      "type": "error"
    },
    {
      "inputs": [],
      "name": "Protocol__Unauthorized",
      "type": "error"
    },
    {
      "inputs": [],
      "name": "Protocol__UplinerCannotBeDownliner",
      "type": "error"
    },
    {
      "inputs": [],
      "name": "Protocol__tokensAndPriceFeedsArrayMustBeSameLength",
      "type": "error"
    },
    {
      "inputs": [],
      "name": "ReentrancyGuardReentrantCall",
      "type": "error"
    },
    {
      "anonymous": false,
      "inputs": [
        {
          "indexed": true,
          "internalType": "address",
          "name": "sender",
          "type": "address"
        },
        {
          "indexed": true,
          "internalType": "uint96",
          "name": "id",
          "type": "uint96"
        },
        {
          "indexed": true,
          "internalType": "uint256",
          "name": "amount",
          "type": "uint256"
        },
        {
          "indexed": false,
          "internalType": "uint8",
          "name": "adStatus",
          "type": "uint8"
        }
      ],
      "name": "AcceptedListedAds",
      "type": "event"
    },
    {
      "anonymous": false,
      "inputs": [
        {
          "indexed": true,
          "internalType": "address",
          "name": "_sender",
          "type": "address"
        },
        {
          "indexed": true,
          "internalType": "address",
          "name": "_token",
          "type": "address"
        },
        {
          "indexed": false,
          "internalType": "uint256",
          "name": "_value",
          "type": "uint256"
        }
      ],
      "name": "CollateralDeposited",
      "type": "event"
    },
    {
      "anonymous": false,
      "inputs": [
        {
          "indexed": true,
          "internalType": "address",
          "name": "sender",
          "type": "address"
        },
        {
          "indexed": true,
          "internalType": "address",
          "name": "_tokenCollateralAddress",
          "type": "address"
        },
        {
          "indexed": false,
          "internalType": "uint256",
          "name": "_amount",
          "type": "uint256"
        }
      ],
      "name": "CollateralWithdrawn",
      "type": "event"
    },
    {
      "anonymous": false,
      "inputs": [
        {
          "indexed": true,
          "internalType": "address",
          "name": "user",
          "type": "address"
        },
        {
          "indexed": false,
          "internalType": "uint256",
          "name": "amount",
          "type": "uint256"
        },
        {
          "indexed": true,
          "internalType": "address",
          "name": "awarder",
          "type": "address"
        }
      ],
      "name": "GatewayPointsAwarded",
      "type": "event"
    },
    {
      "anonymous": false,
      "inputs": [
        {
          "indexed": true,
          "internalType": "uint96",
          "name": "listingId",
          "type": "uint96"
        },
        {
          "indexed": true,
          "internalType": "address",
          "name": "sender",
          "type": "address"
        },
        {
          "indexed": true,
          "internalType": "address",
          "name": "tokenAddress",
          "type": "address"
        },
        {
          "indexed": false,
          "internalType": "uint256",
          "name": "amount",
          "type": "uint256"
        },
        {
          "indexed": false,
          "internalType": "uint256",
          "name": "minAmount",
          "type": "uint256"
        },
        {
          "indexed": false,
          "internalType": "uint256",
          "name": "maxAmount",
          "type": "uint256"
        },
        {
          "indexed": false,
          "internalType": "uint256",
          "name": "returnDate",
          "type": "uint256"
        },
        {
          "indexed": false,
          "internalType": "uint16",
          "name": "interest",
          "type": "uint16"
        },
        {
          "indexed": false,
          "internalType": "address",
          "name": "currency",
          "type": "address"
        }
      ],
      "name": "LoanListingCreated",
      "type": "event"
    },
    {
      "anonymous": false,
      "inputs": [
        {
          "indexed": true,
          "internalType": "address",
          "name": "sender",
          "type": "address"
        },
        {
          "indexed": false,
          "internalType": "uint96",
          "name": "id",
          "type": "uint96"
        },
        {
          "indexed": false,
          "internalType": "uint256",
          "name": "amount",
          "type": "uint256"
        }
      ],
      "name": "LoanRepayment",
      "type": "event"
    },
    {
      "anonymous": false,
      "inputs": [
        {
          "indexed": true,
          "internalType": "address",
          "name": "_lender",
          "type": "address"
        },
        {
          "indexed": false,
          "internalType": "address",
          "name": "indexed_tokenAddress",
          "type": "address"
        },
        {
          "indexed": false,
          "internalType": "uint256",
          "name": "_amount",
          "type": "uint256"
        },
        {
          "indexed": true,
          "internalType": "uint96",
          "name": "_requestId",
          "type": "uint96"
        }
      ],
      "name": "OrderCreated",
      "type": "event"
    },
    {
      "anonymous": false,
      "inputs": [
        {
          "indexed": true,
          "internalType": "address",
          "name": "awarder",
          "type": "address"
        },
        {
          "indexed": false,
          "internalType": "bool",
          "name": "approved",
          "type": "bool"
        }
      ],
      "name": "PointAwarderUpdated",
      "type": "event"
    },
    {
      "anonymous": false,
      "inputs": [
        {
          "indexed": true,
          "internalType": "address",
          "name": "upliner",
          "type": "address"
        },
        {
          "indexed": true,
          "internalType": "address",
          "name": "user",
          "type": "address"
        },
        {
          "indexed": false,
          "internalType": "uint256",
          "name": "referralPoints",
          "type": "uint256"
        }
      ],
      "name": "ReferralPointsAwarded",
      "type": "event"
    },
    {
      "anonymous": false,
      "inputs": [
        {
          "indexed": true,
          "internalType": "address",
          "name": "user",
          "type": "address"
        },
        {
          "indexed": false,
          "internalType": "uint256",
          "name": "newPoints",
          "type": "uint256"
        }
      ],
      "name": "ReferralPointsUpdated",
      "type": "event"
    },
    {
      "anonymous": false,
      "inputs": [
        {
          "indexed": true,
          "internalType": "address",
          "name": "_borrower",
          "type": "address"
        },
        {
          "indexed": true,
          "internalType": "uint96",
          "name": "requestId",
          "type": "uint96"
        },
        {
          "indexed": false,
          "internalType": "uint256",
          "name": "_amount",
          "type": "uint256"
        },
        {
          "indexed": false,
          "internalType": "uint16",
          "name": "_interest",
          "type": "uint16"
        },
        {
          "indexed": true,
          "internalType": "address",
          "name": "tokenAddress",
          "type": "address"
        }
      ],
      "name": "RequestCreated",
      "type": "event"
    },
    {
      "anonymous": false,
      "inputs": [
        {
          "indexed": true,
          "internalType": "uint96",
          "name": "requestId",
          "type": "uint96"
        },
        {
          "indexed": true,
          "internalType": "address",
          "name": "lenderAddress",
          "type": "address"
        },
        {
          "indexed": true,
          "internalType": "address",
          "name": "borrowerAddress",
          "type": "address"
        },
        {
          "indexed": false,
          "internalType": "uint256",
          "name": "totalRepayment",
          "type": "uint256"
        }
      ],
      "name": "RequestLiquidated",
      "type": "event"
    },
    {
      "anonymous": false,
      "inputs": [
        {
          "indexed": true,
          "internalType": "uint96",
          "name": "_requestId",
          "type": "uint96"
        },
        {
          "indexed": true,
          "internalType": "address",
          "name": "_lender",
          "type": "address"
        },
        {
          "indexed": true,
          "internalType": "address",
          "name": "_borrower",
          "type": "address"
        },
        {
          "indexed": false,
          "internalType": "uint256",
          "name": "_amount",
          "type": "uint256"
        },
        {
          "indexed": false,
          "internalType": "address",
          "name": "tokenAddress",
          "type": "address"
        }
      ],
      "name": "RequestServiced",
      "type": "event"
    },
    {
      "anonymous": false,
      "inputs": [
        {
          "indexed": true,
          "internalType": "address",
          "name": "sender",
          "type": "address"
        },
        {
          "indexed": true,
          "internalType": "uint256",
          "name": "_offerId",
          "type": "uint256"
        },
        {
          "indexed": false,
          "internalType": "uint8",
          "name": "_status",
          "type": "uint8"
        },
        {
          "indexed": false,
          "internalType": "uint8",
          "name": "_offerStatus",
          "type": "uint8"
        }
      ],
      "name": "RespondToLendingOffer",
      "type": "event"
    },
    {
      "anonymous": false,
      "inputs": [
        {
          "indexed": true,
          "internalType": "address",
          "name": "_token",
          "type": "address"
        },
        {
          "indexed": false,
          "internalType": "bytes32",
          "name": "_priceFeed",
          "type": "bytes32"
        },
        {
          "indexed": true,
          "internalType": "address",
          "name": "sender",
          "type": "address"
        }
      ],
      "name": "UpdateLoanableToken",
      "type": "event"
    },
    {
      "anonymous": false,
      "inputs": [
        {
          "indexed": true,
          "internalType": "address",
          "name": "sender",
          "type": "address"
        },
        {
          "indexed": false,
          "internalType": "uint8",
          "name": "newTokensCount",
          "type": "uint8"
        }
      ],
      "name": "UpdatedCollateralTokens",
      "type": "event"
    },
    {
      "anonymous": false,
      "inputs": [
        {
          "indexed": true,
          "internalType": "address",
          "name": "user",
          "type": "address"
        },
        {
          "indexed": false,
          "internalType": "uint256",
          "name": "newScore",
          "type": "uint256"
        }
      ],
      "name": "UpdatedGitPointScore",
      "type": "event"
    },
    {
      "anonymous": false,
      "inputs": [
        {
          "indexed": true,
          "internalType": "address",
          "name": "upliner",
          "type": "address"
        },
        {
          "indexed": true,
          "internalType": "address",
          "name": "downliner",
          "type": "address"
        }
      ],
      "name": "UplinerRegistered",
      "type": "event"
    },
    {
      "anonymous": false,
      "inputs": [
        {
          "indexed": true,
          "internalType": "address",
          "name": "sender",
          "type": "address"
        },
        {
          "indexed": true,
          "internalType": "uint96",
          "name": "_orderId",
          "type": "uint96"
        },
        {
          "indexed": true,
          "internalType": "uint8",
          "name": "orderStatus",
          "type": "uint8"
        },
        {
          "indexed": false,
          "internalType": "uint256",
          "name": "_amount",
          "type": "uint256"
        }
      ],
      "name": "withdrawnAdsToken",
      "type": "event"
    },
    {
      "stateMutability": "nonpayable",
      "type": "fallback"
    },
    {
      "inputs": [
        {
          "internalType": "address",
          "name": "_token",
          "type": "address"
        },
        {
          "internalType": "bytes32",
          "name": "_priceFeed",
          "type": "bytes32"
        }
      ],
      "name": "addCollateralToken",
      "outputs": [],
      "stateMutability": "nonpayable",
      "type": "function"
    },
    {
      "inputs": [
        {
          "internalType": "address[]",
          "name": "_tokens",
          "type": "address[]"
        },
        {
          "internalType": "bytes32[]",
          "name": "_priceFeeds",
          "type": "bytes32[]"
        }
      ],
      "name": "addCollateralTokens",
      "outputs": [],
      "stateMutability": "nonpayable",
      "type": "function"
    },
    {
      "inputs": [
        {
          "internalType": "address",
          "name": "_token",
          "type": "address"
        },
        {
          "internalType": "bytes32",
          "name": "_priceFeed",
          "type": "bytes32"
        }
      ],
      "name": "addLoanableToken",
      "outputs": [],
      "stateMutability": "nonpayable",
      "type": "function"
    },
    {
      "inputs": [
        {
          "internalType": "address",
          "name": "user",
          "type": "address"
        },
        {
          "components": [
            {
              "internalType": "uint96",
              "name": "listingId",
              "type": "uint96"
            },
            {
              "internalType": "uint96",
              "name": "requestId",
              "type": "uint96"
            },
            {
              "internalType": "address",
              "name": "author",
              "type": "address"
            },
            {
              "internalType": "uint256",
              "name": "amount",
              "type": "uint256"
            },
            {
              "internalType": "uint16",
              "name": "interest",
              "type": "uint16"
            },
            {
              "internalType": "uint256",
              "name": "totalRepayment",
              "type": "uint256"
            },
            {
              "internalType": "uint256",
              "name": "returnDate",
              "type": "uint256"
            },
            {
              "internalType": "address",
              "name": "lender",
              "type": "address"
            },
            {
              "internalType": "address",
              "name": "loanRequestAddr",
              "type": "address"
            },
            {
              "internalType": "address[]",
              "name": "collateralTokens",
              "type": "address[]"
            },
            {
              "internalType": "enum Status",
              "name": "status",
              "type": "uint8"
            }
          ],
          "internalType": "struct Request",
          "name": "request",
          "type": "tuple"
        }
      ],
      "name": "addUserActiveRequest",
      "outputs": [],
      "stateMutability": "nonpayable",
      "type": "function"
    },
    {
      "inputs": [
        {
          "internalType": "address",
          "name": "_user",
          "type": "address"
        },
        {
          "internalType": "uint256",
          "name": "_amount",
          "type": "uint256"
        }
      ],
      "name": "awardPoints",
      "outputs": [],
      "stateMutability": "nonpayable",
      "type": "function"
    },
    {
      "inputs": [
        {
          "internalType": "address",
          "name": "user",
          "type": "address"
        },
        {
          "components": [
            {
              "internalType": "uint96",
              "name": "listingId",
              "type": "uint96"
            },
            {
              "internalType": "uint96",
              "name": "requestId",
              "type": "uint96"
            },
            {
              "internalType": "address",
              "name": "author",
              "type": "address"
            },
            {
              "internalType": "uint256",
              "name": "amount",
              "type": "uint256"
            },
            {
              "internalType": "uint16",
              "name": "interest",
              "type": "uint16"
            },
            {
              "internalType": "uint256",
              "name": "totalRepayment",
              "type": "uint256"
            },
            {
              "internalType": "uint256",
              "name": "returnDate",
              "type": "uint256"
            },
            {
              "internalType": "address",
              "name": "lender",
              "type": "address"
            },
            {
              "internalType": "address",
              "name": "loanRequestAddr",
              "type": "address"
            },
            {
              "internalType": "address[]",
              "name": "collateralTokens",
              "type": "address[]"
            },
            {
              "internalType": "enum Status",
              "name": "status",
              "type": "uint8"
            }
          ],
          "internalType": "struct Request[]",
          "name": "requests",
          "type": "tuple[]"
        }
      ],
      "name": "batchAddUserRequests",
      "outputs": [],
      "stateMutability": "nonpayable",
      "type": "function"
    },
    {
      "inputs": [
        {
          "internalType": "uint96",
          "name": "_listingId",
          "type": "uint96"
        }
      ],
      "name": "closeListingAd",
      "outputs": [],
      "stateMutability": "nonpayable",
      "type": "function"
    },
    {
      "inputs": [
        {
          "internalType": "uint96",
          "name": "_requestId",
          "type": "uint96"
        }
      ],
      "name": "closeRequest",
      "outputs": [],
      "stateMutability": "nonpayable",
      "type": "function"
    },
    {
      "inputs": [
        {
          "internalType": "uint128",
          "name": "_amount",
          "type": "uint128"
        },
        {
          "internalType": "uint16",
          "name": "_interest",
          "type": "uint16"
        },
        {
          "internalType": "uint256",
          "name": "_returnDate",
          "type": "uint256"
        },
        {
          "internalType": "address",
          "name": "_loanCurrency",
          "type": "address"
        }
      ],
      "name": "createLendingRequest",
      "outputs": [],
      "stateMutability": "nonpayable",
      "type": "function"
    },
    {
      "inputs": [
        {
          "internalType": "uint256",
          "name": "_amount",
          "type": "uint256"
        },
        {
          "internalType": "uint256",
          "name": "_min_amount",
          "type": "uint256"
        },
        {
          "internalType": "uint256",
          "name": "_max_amount",
          "type": "uint256"
        },
        {
          "internalType": "uint256",
          "name": "_returnDate",
          "type": "uint256"
        },
        {
          "internalType": "uint16",
          "name": "_interest",
          "type": "uint16"
        },
        {
          "internalType": "address",
          "name": "_loanCurrency",
          "type": "address"
        }
      ],
      "name": "createLoanListing",
      "outputs": [],
      "stateMutability": "payable",
      "type": "function"
    },
    {
      "inputs": [
        {
          "internalType": "address",
          "name": "_tokenCollateralAddress",
          "type": "address"
        },
        {
          "internalType": "uint256",
          "name": "_amountOfCollateral",
          "type": "uint256"
        }
      ],
      "name": "depositCollateral",
      "outputs": [],
      "stateMutability": "payable",
      "type": "function"
    },
    {
      "inputs": [
        {
          "internalType": "address",
          "name": "_user",
          "type": "address"
        }
      ],
      "name": "getAccountAvailableValue",
      "outputs": [
        {
          "internalType": "uint256",
          "name": "_totalAvailableValueInUsd",
          "type": "uint256"
        }
      ],
      "stateMutability": "view",
      "type": "function"
    },
    {
      "inputs": [
        {
          "internalType": "address",
          "name": "_user",
          "type": "address"
        }
      ],
      "name": "getAccountCollateralValue",
      "outputs": [
        {
          "internalType": "uint256",
          "name": "_totalCollateralValueInUsd",
          "type": "uint256"
        }
      ],
      "stateMutability": "view",
      "type": "function"
    },
    {
      "inputs": [],
      "name": "getAllCollateralToken",
      "outputs": [
        {
          "internalType": "address[]",
          "name": "",
          "type": "address[]"
        }
      ],
      "stateMutability": "view",
      "type": "function"
    },
    {
      "inputs": [
        {
          "internalType": "uint256",
          "name": "offset",
          "type": "uint256"
        },
        {
          "internalType": "uint256",
          "name": "limit",
          "type": "uint256"
        }
      ],
      "name": "getAllRequests",
      "outputs": [
        {
          "components": [
            {
              "internalType": "uint96",
              "name": "listingId",
              "type": "uint96"
            },
            {
              "internalType": "uint96",
              "name": "requestId",
              "type": "uint96"
            },
            {
              "internalType": "address",
              "name": "author",
              "type": "address"
            },
            {
              "internalType": "uint256",
              "name": "amount",
              "type": "uint256"
            },
            {
              "internalType": "uint16",
              "name": "interest",
              "type": "uint16"
            },
            {
              "internalType": "uint256",
              "name": "totalRepayment",
              "type": "uint256"
            },
            {
              "internalType": "uint256",
              "name": "returnDate",
              "type": "uint256"
            },
            {
              "internalType": "address",
              "name": "lender",
              "type": "address"
            },
            {
              "internalType": "address",
              "name": "loanRequestAddr",
              "type": "address"
            },
            {
              "internalType": "address[]",
              "name": "collateralTokens",
              "type": "address[]"
            },
            {
              "internalType": "enum Status",
              "name": "status",
              "type": "uint8"
            }
          ],
          "internalType": "struct Request[]",
          "name": "",
          "type": "tuple[]"
        }
      ],
      "stateMutability": "view",
      "type": "function"
    },
    {
      "inputs": [
        {
          "internalType": "address",
          "name": "_from",
          "type": "address"
        },
        {
          "internalType": "address",
          "name": "_to",
          "type": "address"
        },
        {
          "internalType": "uint256",
          "name": "_amount",
          "type": "uint256"
        }
      ],
      "name": "getConvertValue",
      "outputs": [
        {
          "internalType": "uint256",
          "name": "value",
          "type": "uint256"
        }
      ],
      "stateMutability": "view",
      "type": "function"
    },
    {
      "inputs": [
        {
          "internalType": "address",
          "name": "_refferal",
          "type": "address"
        },
        {
          "internalType": "uint256",
          "name": "_index",
          "type": "uint256"
        }
      ],
      "name": "getDownliners",
      "outputs": [
        {
          "internalType": "address",
          "name": "",
          "type": "address"
        }
      ],
      "stateMutability": "view",
      "type": "function"
    },
    {
      "inputs": [
        {
          "internalType": "address",
          "name": "_upliner",
          "type": "address"
        }
      ],
      "name": "getDownlinersCount",
      "outputs": [
        {
          "internalType": "uint256",
          "name": "",
          "type": "uint256"
        }
      ],
      "stateMutability": "view",
      "type": "function"
    },
    {
      "inputs": [
        {
          "internalType": "address",
          "name": "_user",
          "type": "address"
        }
      ],
      "name": "getHealthFactor",
      "outputs": [
        {
          "internalType": "uint256",
          "name": "",
          "type": "uint256"
        }
      ],
      "stateMutability": "view",
      "type": "function"
    },
    {
      "inputs": [],
      "name": "getLiquidityBPS",
      "outputs": [
        {
          "internalType": "uint256",
          "name": "",
          "type": "uint256"
        }
      ],
      "stateMutability": "view",
      "type": "function"
    },
    {
      "inputs": [],
      "name": "getListingId",
      "outputs": [
        {
          "internalType": "uint256",
          "name": "",
          "type": "uint256"
        }
      ],
      "stateMutability": "view",
      "type": "function"
    },
    {
      "inputs": [
        {
          "internalType": "address",
          "name": "_user",
          "type": "address"
        }
      ],
      "name": "getLoanCollectedInUsd",
      "outputs": [
        {
          "internalType": "uint256",
          "name": "_value",
          "type": "uint256"
        }
      ],
      "stateMutability": "view",
      "type": "function"
    },
    {
      "inputs": [
        {
          "internalType": "uint96",
          "name": "_listingId",
          "type": "uint96"
        }
      ],
      "name": "getLoanListing",
      "outputs": [
        {
          "components": [
            {
              "internalType": "uint96",
              "name": "listingId",
              "type": "uint96"
            },
            {
              "internalType": "address",
              "name": "author",
              "type": "address"
            },
            {
              "internalType": "address",
              "name": "tokenAddress",
              "type": "address"
            },
            {
              "internalType": "uint256",
              "name": "amount",
              "type": "uint256"
            },
            {
              "internalType": "uint256",
              "name": "min_amount",
              "type": "uint256"
            },
            {
              "internalType": "uint256",
              "name": "max_amount",
              "type": "uint256"
            },
            {
              "internalType": "uint256",
              "name": "returnDate",
              "type": "uint256"
            },
            {
              "internalType": "uint16",
              "name": "interest",
              "type": "uint16"
            },
            {
              "internalType": "enum ListingStatus",
              "name": "listingStatus",
              "type": "uint8"
            },
            {
              "internalType": "bool",
              "name": "isFeatured",
              "type": "bool"
            }
          ],
          "internalType": "struct LoanListing",
          "name": "",
          "type": "tuple"
        }
      ],
      "stateMutability": "view",
      "type": "function"
    },
    {
      "inputs": [],
      "name": "getLoanableAssets",
      "outputs": [
        {
          "internalType": "address[]",
          "name": "_assets",
          "type": "address[]"
        }
      ],
      "stateMutability": "view",
      "type": "function"
    },
    {
      "inputs": [],
      "name": "getPythPriceOracle",
      "outputs": [
        {
          "internalType": "address",
          "name": "",
          "type": "address"
        }
      ],
      "stateMutability": "view",
      "type": "function"
    },
    {
      "inputs": [
        {
          "internalType": "address",
          "name": "_user",
          "type": "address"
        }
      ],
      "name": "getReferralPoints",
      "outputs": [
        {
          "internalType": "uint256",
          "name": "",
          "type": "uint256"
        }
      ],
      "stateMutability": "view",
      "type": "function"
    },
    {
      "inputs": [
        {
          "internalType": "uint96",
          "name": "_requestId",
          "type": "uint96"
        }
      ],
      "name": "getRequest",
      "outputs": [
        {
          "components": [
            {
              "internalType": "uint96",
              "name": "listingId",
              "type": "uint96"
            },
            {
              "internalType": "uint96",
              "name": "requestId",
              "type": "uint96"
            },
            {
              "internalType": "address",
              "name": "author",
              "type": "address"
            },
            {
              "internalType": "uint256",
              "name": "amount",
              "type": "uint256"
            },
            {
              "internalType": "uint16",
              "name": "interest",
              "type": "uint16"
            },
            {
              "internalType": "uint256",
              "name": "totalRepayment",
              "type": "uint256"
            },
            {
              "internalType": "uint256",
              "name": "returnDate",
              "type": "uint256"
            },
            {
              "internalType": "address",
              "name": "lender",
              "type": "address"
            },
            {
              "internalType": "address",
              "name": "loanRequestAddr",
              "type": "address"
            },
            {
              "internalType": "address[]",
              "name": "collateralTokens",
              "type": "address[]"
            },
            {
              "internalType": "enum Status",
              "name": "status",
              "type": "uint8"
            }
          ],
          "internalType": "struct Request",
          "name": "",
          "type": "tuple"
        }
      ],
      "stateMutability": "view",
      "type": "function"
    },
    {
      "inputs": [],
      "name": "getRequestId",
      "outputs": [
        {
          "internalType": "uint256",
          "name": "",
          "type": "uint256"
        }
      ],
      "stateMutability": "view",
      "type": "function"
    },
    {
      "inputs": [
        {
          "internalType": "uint96",
          "name": "_requestId",
          "type": "uint96"
        },
        {
          "internalType": "address",
          "name": "_token",
          "type": "address"
        }
      ],
      "name": "getRequestToColateral",
      "outputs": [
        {
          "internalType": "uint256",
          "name": "",
          "type": "uint256"
        }
      ],
      "stateMutability": "view",
      "type": "function"
    },
    {
      "inputs": [
        {
          "internalType": "address",
          "name": "_lender",
          "type": "address"
        }
      ],
      "name": "getServicedRequestByLender",
      "outputs": [
        {
          "components": [
            {
              "internalType": "uint96",
              "name": "listingId",
              "type": "uint96"
            },
            {
              "internalType": "uint96",
              "name": "requestId",
              "type": "uint96"
            },
            {
              "internalType": "address",
              "name": "author",
              "type": "address"
            },
            {
              "internalType": "uint256",
              "name": "amount",
              "type": "uint256"
            },
            {
              "internalType": "uint16",
              "name": "interest",
              "type": "uint16"
            },
            {
              "internalType": "uint256",
              "name": "totalRepayment",
              "type": "uint256"
            },
            {
              "internalType": "uint256",
              "name": "returnDate",
              "type": "uint256"
            },
            {
              "internalType": "address",
              "name": "lender",
              "type": "address"
            },
            {
              "internalType": "address",
              "name": "loanRequestAddr",
              "type": "address"
            },
            {
              "internalType": "address[]",
              "name": "collateralTokens",
              "type": "address[]"
            },
            {
              "internalType": "enum Status",
              "name": "status",
              "type": "uint8"
            }
          ],
          "internalType": "struct Request[]",
          "name": "_requests",
          "type": "tuple[]"
        }
      ],
      "stateMutability": "view",
      "type": "function"
    },
    {
      "inputs": [],
      "name": "getServicedRequests",
      "outputs": [
        {
          "components": [
            {
              "internalType": "uint96",
              "name": "listingId",
              "type": "uint96"
            },
            {
              "internalType": "uint96",
              "name": "requestId",
              "type": "uint96"
            },
            {
              "internalType": "address",
              "name": "author",
              "type": "address"
            },
            {
              "internalType": "uint256",
              "name": "amount",
              "type": "uint256"
            },
            {
              "internalType": "uint16",
              "name": "interest",
              "type": "uint16"
            },
            {
              "internalType": "uint256",
              "name": "totalRepayment",
              "type": "uint256"
            },
            {
              "internalType": "uint256",
              "name": "returnDate",
              "type": "uint256"
            },
            {
              "internalType": "address",
              "name": "lender",
              "type": "address"
            },
            {
              "internalType": "address",
              "name": "loanRequestAddr",
              "type": "address"
            },
            {
              "internalType": "address[]",
              "name": "collateralTokens",
              "type": "address[]"
            },
            {
              "internalType": "enum Status",
              "name": "status",
              "type": "uint8"
            }
          ],
          "internalType": "struct Request[]",
          "name": "",
          "type": "tuple[]"
        }
      ],
      "stateMutability": "view",
      "type": "function"
    },
    {
      "inputs": [
        {
          "internalType": "address",
          "name": "token",
          "type": "address"
        },
        {
          "internalType": "uint256",
          "name": "usdAmount",
          "type": "uint256"
        },
        {
          "internalType": "uint8",
          "name": "tokenDecimals",
          "type": "uint8"
        }
      ],
      "name": "getTokenAmountFromUsd",
      "outputs": [
        {
          "internalType": "uint256",
          "name": "",
          "type": "uint256"
        }
      ],
      "stateMutability": "view",
      "type": "function"
    },
    {
      "inputs": [
        {
          "internalType": "address",
          "name": "_downliner",
          "type": "address"
        }
      ],
      "name": "getUpliner",
      "outputs": [
        {
          "internalType": "address",
          "name": "",
          "type": "address"
        }
      ],
      "stateMutability": "view",
      "type": "function"
    },
    {
      "inputs": [
        {
          "internalType": "address",
          "name": "token",
          "type": "address"
        },
        {
          "internalType": "uint256",
          "name": "amount",
          "type": "uint256"
        },
        {
          "internalType": "uint8",
          "name": "tokenDecimals",
          "type": "uint8"
        }
      ],
      "name": "getUsdValue",
      "outputs": [
        {
          "internalType": "uint256",
          "name": "",
          "type": "uint256"
        }
      ],
      "stateMutability": "view",
      "type": "function"
    },
    {
      "inputs": [
        {
          "internalType": "address",
          "name": "_user",
          "type": "address"
        }
      ],
      "name": "getUserActiveRequests",
      "outputs": [
        {
          "components": [
            {
              "internalType": "uint96",
              "name": "listingId",
              "type": "uint96"
            },
            {
              "internalType": "uint96",
              "name": "requestId",
              "type": "uint96"
            },
            {
              "internalType": "address",
              "name": "author",
              "type": "address"
            },
            {
              "internalType": "uint256",
              "name": "amount",
              "type": "uint256"
            },
            {
              "internalType": "uint16",
              "name": "interest",
              "type": "uint16"
            },
            {
              "internalType": "uint256",
              "name": "totalRepayment",
              "type": "uint256"
            },
            {
              "internalType": "uint256",
              "name": "returnDate",
              "type": "uint256"
            },
            {
              "internalType": "address",
              "name": "lender",
              "type": "address"
            },
            {
              "internalType": "address",
              "name": "loanRequestAddr",
              "type": "address"
            },
            {
              "internalType": "address[]",
              "name": "collateralTokens",
              "type": "address[]"
            },
            {
              "internalType": "enum Status",
              "name": "status",
              "type": "uint8"
            }
          ],
          "internalType": "struct Request[]",
          "name": "_requests",
          "type": "tuple[]"
        }
      ],
      "stateMutability": "view",
      "type": "function"
    },
    {
      "inputs": [
        {
          "internalType": "address",
          "name": "_user",
          "type": "address"
        }
      ],
      "name": "getUserCollateralTokens",
      "outputs": [
        {
          "internalType": "address[]",
          "name": "_collaterals",
          "type": "address[]"
        }
      ],
      "stateMutability": "view",
      "type": "function"
    },
    {
      "inputs": [
        {
          "internalType": "uint96",
          "name": "_listingId",
          "type": "uint96"
        }
      ],
      "name": "getUserLoanListing",
      "outputs": [
        {
          "components": [
            {
              "internalType": "uint96",
              "name": "listingId",
              "type": "uint96"
            },
            {
              "internalType": "address",
              "name": "author",
              "type": "address"
            },
            {
              "internalType": "address",
              "name": "tokenAddress",
              "type": "address"
            },
            {
              "internalType": "uint256",
              "name": "amount",
              "type": "uint256"
            },
            {
              "internalType": "uint256",
              "name": "min_amount",
              "type": "uint256"
            },
            {
              "internalType": "uint256",
              "name": "max_amount",
              "type": "uint256"
            },
            {
              "internalType": "uint256",
              "name": "returnDate",
              "type": "uint256"
            },
            {
              "internalType": "uint16",
              "name": "interest",
              "type": "uint16"
            },
            {
              "internalType": "enum ListingStatus",
              "name": "listingStatus",
              "type": "uint8"
            },
            {
              "internalType": "bool",
              "name": "isFeatured",
              "type": "bool"
            }
          ],
          "internalType": "struct LoanListing",
          "name": "",
          "type": "tuple"
        }
      ],
      "stateMutability": "view",
      "type": "function"
    },
    {
      "inputs": [
        {
          "internalType": "address",
          "name": "_user",
          "type": "address"
        },
        {
          "internalType": "uint96",
          "name": "_requestId",
          "type": "uint96"
        }
      ],
      "name": "getUserRequest",
      "outputs": [
        {
          "components": [
            {
              "internalType": "uint96",
              "name": "listingId",
              "type": "uint96"
            },
            {
              "internalType": "uint96",
              "name": "requestId",
              "type": "uint96"
            },
            {
              "internalType": "address",
              "name": "author",
              "type": "address"
            },
            {
              "internalType": "uint256",
              "name": "amount",
              "type": "uint256"
            },
            {
              "internalType": "uint16",
              "name": "interest",
              "type": "uint16"
            },
            {
              "internalType": "uint256",
              "name": "totalRepayment",
              "type": "uint256"
            },
            {
              "internalType": "uint256",
              "name": "returnDate",
              "type": "uint256"
            },
            {
              "internalType": "address",
              "name": "lender",
              "type": "address"
            },
            {
              "internalType": "address",
              "name": "loanRequestAddr",
              "type": "address"
            },
            {
              "internalType": "address[]",
              "name": "collateralTokens",
              "type": "address[]"
            },
            {
              "internalType": "enum Status",
              "name": "status",
              "type": "uint8"
            }
          ],
          "internalType": "struct Request",
          "name": "",
          "type": "tuple"
        }
      ],
      "stateMutability": "view",
      "type": "function"
    },
    {
      "inputs": [
        {
          "internalType": "address",
          "name": "_user",
          "type": "address"
        }
      ],
      "name": "get_gitCoinPoint",
      "outputs": [
        {
          "internalType": "uint256",
          "name": "_score",
          "type": "uint256"
        }
      ],
      "stateMutability": "view",
      "type": "function"
    },
    {
      "inputs": [
        {
          "internalType": "address",
          "name": "_sender",
          "type": "address"
        },
        {
          "internalType": "address",
          "name": "_tokenAddr",
          "type": "address"
        }
      ],
      "name": "gets_addressToAvailableBalance",
      "outputs": [
        {
          "internalType": "uint256",
          "name": "",
          "type": "uint256"
        }
      ],
      "stateMutability": "view",
      "type": "function"
    },
    {
      "inputs": [
        {
          "internalType": "address",
          "name": "_sender",
          "type": "address"
        },
        {
          "internalType": "address",
          "name": "_tokenAddr",
          "type": "address"
        }
      ],
      "name": "gets_addressToCollateralDeposited",
      "outputs": [
        {
          "internalType": "uint256",
          "name": "",
          "type": "uint256"
        }
      ],
      "stateMutability": "view",
      "type": "function"
    },
    {
      "inputs": [
        {
          "internalType": "uint96",
          "name": "requestId",
          "type": "uint96"
        }
      ],
      "name": "liquidateUserRequest",
      "outputs": [],
      "stateMutability": "nonpayable",
      "type": "function"
    },
    {
      "inputs": [],
      "name": "pyth",
      "outputs": [
        {
          "internalType": "contract IPyth",
          "name": "",
          "type": "address"
        }
      ],
      "stateMutability": "view",
      "type": "function"
    },
    {
      "inputs": [],
      "name": "pythPriceOracle",
      "outputs": [
        {
          "internalType": "contract IPythPriceOracle",
          "name": "",
          "type": "address"
        }
      ],
      "stateMutability": "view",
      "type": "function"
    },
    {
      "inputs": [
        {
          "internalType": "address",
          "name": "_upliner",
          "type": "address"
        },
        {
          "internalType": "address",
          "name": "_downliner",
          "type": "address"
        }
      ],
      "name": "registerUpliner",
      "outputs": [],
      "stateMutability": "nonpayable",
      "type": "function"
    },
    {
      "inputs": [
        {
          "internalType": "address[]",
          "name": "_tokens",
          "type": "address[]"
        }
      ],
      "name": "removeCollateralTokens",
      "outputs": [],
      "stateMutability": "nonpayable",
      "type": "function"
    },
    {
      "inputs": [
        {
          "internalType": "address",
          "name": "user",
          "type": "address"
        },
        {
          "internalType": "uint96",
          "name": "requestId",
          "type": "uint96"
        }
      ],
      "name": "removeUserActiveRequest",
      "outputs": [],
      "stateMutability": "nonpayable",
      "type": "function"
    },
    {
      "inputs": [
        {
          "internalType": "uint96",
          "name": "_requestId",
          "type": "uint96"
        },
        {
          "internalType": "uint256",
          "name": "_amount",
          "type": "uint256"
        }
      ],
      "name": "repayLoan",
      "outputs": [],
      "stateMutability": "payable",
      "type": "function"
    },
    {
      "inputs": [
        {
          "internalType": "uint96",
          "name": "_listingId",
          "type": "uint96"
        },
        {
          "internalType": "uint256",
          "name": "_amount",
          "type": "uint256"
        }
      ],
      "name": "requestLoanFromListing",
      "outputs": [],
      "stateMutability": "nonpayable",
      "type": "function"
    },
    {
      "inputs": [
        {
          "internalType": "uint96",
          "name": "_requestId",
          "type": "uint96"
        },
        {
          "internalType": "address",
          "name": "_tokenAddress",
          "type": "address"
        }
      ],
      "name": "serviceRequest",
      "outputs": [],
      "stateMutability": "payable",
      "type": "function"
    },
    {
      "inputs": [
        {
          "internalType": "address",
          "name": "_awarder",
          "type": "address"
        },
        {
          "internalType": "bool",
          "name": "_approved",
          "type": "bool"
        }
      ],
      "name": "setApprovedPointAwarder",
      "outputs": [],
      "stateMutability": "nonpayable",
      "type": "function"
    },
    {
      "inputs": [
        {
          "internalType": "uint256",
          "name": "_bps",
          "type": "uint256"
        }
      ],
      "name": "setBPS",
      "outputs": [],
      "stateMutability": "nonpayable",
      "type": "function"
    },
    {
      "inputs": [
        {
          "internalType": "address",
          "name": "_botAddress",
          "type": "address"
        }
      ],
      "name": "setBotAddress",
      "outputs": [],
      "stateMutability": "nonpayable",
      "type": "function"
    },
    {
      "inputs": [
        {
          "internalType": "address",
          "name": "_feeVault",
          "type": "address"
        }
      ],
      "name": "setFeeVault",
      "outputs": [],
      "stateMutability": "nonpayable",
      "type": "function"
    },
    {
      "inputs": [
        {
          "internalType": "uint256",
          "name": "_bps",
          "type": "uint256"
        }
      ],
      "name": "setLiquidityBps",
      "outputs": [],
      "stateMutability": "nonpayable",
      "type": "function"
    },
    {
      "inputs": [
        {
          "internalType": "uint96",
          "name": "_listingId",
          "type": "uint96"
        },
        {
          "internalType": "bool",
          "name": "_featured",
          "type": "bool"
        }
      ],
      "name": "setListingFeatured",
      "outputs": [],
      "stateMutability": "nonpayable",
      "type": "function"
    },
    {
      "inputs": [
        {
          "internalType": "address",
          "name": "_oracle",
          "type": "address"
        }
      ],
      "name": "setPythOracle",
      "outputs": [],
      "stateMutability": "nonpayable",
      "type": "function"
    },
    {
      "inputs": [
        {
          "internalType": "address",
          "name": "_swapRouter",
          "type": "address"
        }
      ],
      "name": "setSwapRouter",
      "outputs": [],
      "stateMutability": "nonpayable",
      "type": "function"
    },
    {
      "inputs": [
        {
          "internalType": "address",
          "name": "_user",
          "type": "address"
        },
        {
          "internalType": "uint256",
          "name": "_score",
          "type": "uint256"
        }
      ],
      "name": "updateGPScore",
      "outputs": [],
      "stateMutability": "nonpayable",
      "type": "function"
    },
    {
      "inputs": [
        {
          "internalType": "address",
          "name": "_tokenCollateralAddress",
          "type": "address"
        },
        {
          "internalType": "uint128",
          "name": "_amount",
          "type": "uint128"
        }
      ],
      "name": "withdrawCollateral",
      "outputs": [],
      "stateMutability": "nonpayable",
      "type": "function"
    }
  ],
  "bytecode": "0x6080806040523461001c576001600055615c989081620000228239f35b600080fdfe6080604052600436101561005d575b346100585760405162461bcd60e51b815260206004820152601760248201527f50726f746f636f6c46616365743a2066616c6c6261636b0000000000000000006044820152606490fd5b600080fd5b60e0600035811c908163066f3c6514614193578163077001b9146141755781631143e606146140fc5781631e2c1a4a146136e35781631f99b09d146136bf5781632d4f40c61461367c578163412736571461363957816342e292c1146135cb5781634aee821b146135565781635068a88a146131f4578163519247ac146131ba578163527ed126146131695781635362d09114613148578163599219dd146131245781635a74b7af146130dc5781635d3d093b1461304d5781635e66ee0f146130055781635eb5cf1614612e9a578163622bd11814612e5757816364ca03f814612dda5781636902a1a614612d2f578163719a2d3914612cf55781637a1b61f914612ca45781637ada54031461274f5781637d1a44501461272c57816386f5483f146126a857816387afb80a1461250a57816388bd65851461241d5781638c01a928146123c25781639e5f65b51461233d578163a1920c9e14612302578163a5772d93146121a2578163a591f97f1461215f578163a5d5db0c14611f35578163a8e35fcd14611ec6578163accea8a514611ead578163afbbd8fb14611db7578163b202dc2014611d8f578163b5f1649d14611d66578163ba22c23114611d38578163bfb8c26214611d15578163c147a89214611771578163cdab39a214611753578163d3fa94f814611732578163d9e5a3ee146116b5578163da3f295614611671578163e4fdb6f114611205578163e843e3ad1461103357508063e8bec08f14610f96578063e944fe1c14610e66578063eb510caf14610e3f578063eb70346414610cb7578063f2cc0ba514610c7a578063f5dee31614610b03578063f6738de314610aea578063f98d06f014610ac1578063f9f22ec214610901578063fbf7151b1461037b578063fd9ca008146103245763fe6bcd7c0361000e573461005857602036600319011261005857602061031c61031761422a565b615735565b604051908152f35b346100585760403660031901126100585761033d614280565b6001600160601b0361034d614240565b9116600052600760205260406000209060018060a01b03166000526020526020604060002054604051908152f35b60403660031901126100585761038f614280565b610397614240565b6001600160a01b0381166001149081806108f9575b6108e7576103b861474a565b6001600160601b03831660005260066020526040600020906103e16103dc85614a2d565b614867565b50600983019060ff82541660038110156108d1576108bf5760078401546001600160a01b038481169116036108ad5760018401546001600160a01b0316331461089b576005840154421015610889576009600191600686016001600160601b0360a01b9033828254161790556006820190339082541617905560ff19938385825416179055019182541617905560028201548360001461077d5780341061076c575b61049661048f83615831565b82846153e6565b801561075a5760018401546001600160a01b0316662386f26fc100006104bc83836157b4565b106107485760005260056020526104dc6002604060002001918254614712565b905560005b60088401548110156105db5760018401546001600160a01b031660008181526004602052604090209091906105198260088801614a7d565b60018060a01b0391549060031b1c16600052602052604060002054916001600160601b038816600052600760205260406000206105598360088901614a7d565b60018060a01b0391549060031b1c16600052602052604060002054928381106105c9576105c49361058991614a95565b90600052600460205260406000206105a48360088901614a7d565b60018060a01b0391549060031b1c16600052602052604060002055614833565b6104e1565b6040516331384c2760e11b8152600490fd5b5091909392156000146106fd57336000526005602052600160406000200161060381546146a5565b905561060e33614d69565b60018101546040516323b872dd60e01b81523360048201526001600160a01b039091166024820152604481018390526020818060648101038160006001600160a01b038a165af180156106f15761066d916000916106c2575b50614ae1565b60010154604080519283526001600160a01b03948516602084015293169233926001600160601b0316917fde36c12456072210ae5f8878df9c1a1e9578f8e8860273e7f0c527aac71536689190a46001600055005b6106e4915060203d6020116106ea575b6106dc818361452c565b810190614732565b86610667565b503d6106d2565b6040513d6000823e3d90fd5b336000526005602052600160406000200161071881546146bb565b905561072333614e0b565b61074360008080808660018060a01b036001880154165af1610667614aa2565b61066d565b6040516301401b1b60e61b8152600490fd5b604051632894e1e760e11b8152600490fd5b60405162399d6760e21b8152600490fd5b6040516370a0823160e01b81523360048201526020816024816001600160a01b0387165afa80156106f1578291600091610854575b501061084257604051636eb1769f60e11b81523360048201523060248201526020816044816001600160a01b0387165afa80156106f157829160009161080d575b501015610483575b60405163664487c960e11b8152600490fd5b9150506020813d60201161083a575b816108296020938361452c565b8101031261005857819051876107f3565b3d915061081c565b604051632c67d2bb60e21b8152600490fd5b9150506020813d602011610881575b816108706020938361452c565b8101031261005857819051876107b2565b3d9150610863565b604051636843393960e01b8152600490fd5b6040516329b028ab60e01b8152600490fd5b604051638d6a7ae360e01b8152600490fd5b604051630308adab60e11b8152600490fd5b634e487b7160e01b600052602160045260246000fd5b6040516351c6e81760e01b8152600490fd5b5034156103ac565b3461005857602080600319360112610058576004356001600160401b03811161005857610932903690600401614564565b9061093b615c1d565b60005b825160ff9081831690811015610a8d576001600160a01b0390816109628288614842565b511660005260019182865260006040812055826000905b610991575b505050505061098c90614b2d565b61093e565b600e908154808783161015610a8657908591858b86806109bc6109b387614a46565b95905494614842565b511691600393841b1c16146109df575b50506109d9919250614b2d565b90610979565b600019935090838101908111610a7057856109fc610a2b92614a46565b905490841b1c16610a0c84614a46565b90919082549060031b9160018060a01b03809116831b921b1916179055565b8354938415610a5a57856109d99489960192610a4684614a46565b81939154921b1b191690555582918b6109cc565b634e487b7160e01b600052603160045260246000fd5b634e487b7160e01b600052601160045260246000fd5b505061097e565b837f0925d805c5c6b06c1ed914b3b0fbc81bd432609f86b0b87d11c28ce5589eaa5560ff600e5416916040519283523392a2005b3461005857600036600319011261005857601d546040516001600160a01b039091168152602090f35b3461005857602061031c610afd366144c0565b916153e6565b3461005857602080600319360112610058576001600160601b03610b25614280565b610b2d61474a565b16806000526009825260406000206006810180549160ff8360101c1660028110156108d157610c6857805460601c3303610c56576002810180549384156108e757600090915562ff00001916620100001782556001908101546001600160a01b031691908203610bf05760ff9150610baf600080808087335af1610667614aa2565b5460101c169260028410156108d1577f5b2f0d52eecb5020d68ad4877d2c9e52a474b11a0f48defa9c856b16fc03fee5906040519283523392a46001600055005b60405163a9059cbb60e01b815233600482015260248101849052918590839060449082906000905af19182156106f15760ff92610c3491600091610c395750614ae1565b610baf565b610c509150873d89116106ea576106dc818361452c565b87610667565b604051635c61f7f960e01b8152600490fd5b60405163017d436f60e31b8152600490fd5b34610058576020366003190112610058576001600160a01b03610c9b61422a565b1660005260056020526020600160406000200154604051908152f35b34610058576040366003190112610058576001600160401b0360043581811161005857610ce8903690600401614564565b602435918211610058573660238301121561005857816004013590610d0c8261454d565b91610d1a604051938461452c565b80835260209360248585019260051b82010191368311610058576024869201905b838210610e305750505050610d4e615c1d565b8051825103610e1e5760005b81519060ff811691821015610dea576001600160a01b039182610d7d8286614842565b5116600052600192838752604060002054610dd857610dc782610dd395610da7610dce958a614842565b519084610db4848b614842565b51166000528a5260406000205586614842565b5116614b3e565b614b2d565b610d5a565b60405163f169217b60e01b8152600490fd5b847f0925d805c5c6b06c1ed914b3b0fbc81bd432609f86b0b87d11c28ce5589eaa5560ff600e5416916040519283523392a2005b60405163082e439b60e31b8152600490fd5b81358152908201908201610d3b565b346100585760003660031901126100585760206001600160601b0360145416604051908152f35b3461005857604036600319011261005857610e7f614280565b610e876144b1565b610e8f615c1d565b6001600160601b03809216806000526009602052604060002092835490811615610f525760068401805463ff00000019811694151560181b63ff0000001694909417905560018401546002850154600386015460048701546005909701546040805193845260208401929092529082019690965260608082019690965261ffff90941660808501526001600160a01b031660a08401819052931c917f2e41c76891f7201ba7030d8c7f0b5b93203bd050d61d71cfcbccc0a61eea4cb59060c090a4005b606460405162461bcd60e51b815260206004820152602060248201527f50726f746f636f6c3a204c697374696e6720646f6573206e6f742065786973746044820152fd5b3461005857604036600319011261005857610faf61422a565b6024359033600052601c60205260ff6040600020541615611021576001600160a01b031660008181526005602052604090206001018054610ff1908490614712565b90556040519182527fc799454b21ffcc8fbca8f76c095d758a1bbeb8bdc593741015bb9b46a595948860203393a3005b6040516322b9d68360e11b8152600490fd5b346100585760209081600319360112610058579061104f61422a565b91601190815461105e8161454d565b9361106c604051958661452c565b8185526000848152907f31ecc21a745e3968a04e9570e4425bc18fa8019c68028196b546d1669c200c688187015b8484106111e257506000976001600160a01b03908116959094509250879150505b855181101561111a578383836110d1848a614842565b51015116146110e9575b6110e490614833565b6110bb565b956001600160401b0380911690811461110557600101956110db565b84634e487b7160e01b60005260045260246000fd5b50918590856001600160401b0391611133838516615571565b9460005b83518110156111d05782828961114d8488614842565b5101511614611165575b61116090614833565b611137565b94846111718786614842565b5191166000198101918683116111bb5761119a9087841690611193828c614842565b5289614842565b50156111a65794611157565b88634e487b7160e01b60005260045260246000fd5b8a634e487b7160e01b60005260045260246000fd5b604051806111de898261437f565b0390f35b600a836001926111f4859b999b614f77565b81520192019301929096949661109a565b34610058576080366003190112610058576004356001600160801b03811681036100585761ffff602435166024350361005857606435906001600160a01b0382168203610058576001600160801b038116156108e75761126361474a565b6001600160a01b03821660009081526002602052604090205460ff161561165f57336000526003602052604060002060018060a01b03831660005260205260406000205461164d57620151804201804211610a7057604435111561163b576112dd6112cd83615831565b6001600160801b038316846153e6565b90811561075a5767016345785d8a00008210611629576112fc33615500565b9081156116175760508202918204605003610a70573360005260056020526064820461133084600260406000200154614712565b10156107485761133f33615ae1565b91601354936001600160601b0361135781871661478d565b1680956001600160601b03191617601355846000526006602052611380604060002095866147a5565b600185016001600160601b0360a01b9033828254161790556001600160801b03841660028701556003860161ffff6024351661ffff1982541617905560443560058701556113dc6024356001600160801b0386166044356158b1565b60048701556007860180549091166001600160a01b03881617905583516001600160401b038111611601576008860161141582826147d8565b6020860190600052602060002060005b8381106115e457505050506009850160ff198154169055336000526005602052600160406000200161145781546146a5565b905561146233614d69565b60648102818104606403610a70578068056bc75e2d63100000830204670de0b6b3a76400001490151715610a705768056bc75e2d6310000060646114a89304910261476d565b9360005b835181101561157c576001600160a01b036114c78286614842565b5116906114d382615831565b913360005260036020526040600020816000526020526064611504896114ff86604060002054866153e6565b61471f565b04600a8181810204811482151715610a70576115779461154461153e670de0b6b3a76400009461154a9461153788615288565b910261476d565b91614856565b9061471f565b04906001600160601b03601354166000526007602052604060002090600052602052604060002055614833565b6114ac565b5061158684614a0a565b6001600160601b0360135416906001600160801b036040519316835261ffff60243516602084015260018060a01b0316917f8c71956147beb232ec5c3cb3ea6b7fa6de552278b9dd7a92030ce005ff7f5dd960403392a46001600055005b82516001600160a01b031681830155602090920191600101611425565b634e487b7160e01b600052604160045260246000fd5b604051636a01851560e11b8152600490fd5b60405163229bf42d60e01b8152600490fd5b604051635ac7b73160e01b8152600490fd5b604051635e60ed0d60e01b8152600490fd5b6040516356d7e0a760e11b8152600490fd5b346100585760403660031901126100585761168a61422a565b602435906001600160401b038211610058576116ad6116b39236906004016145ca565b90614b61565b005b34610058576020366003190112610058576001600160601b036116d6614280565b6116de614ead565b501660005260066020526116f56040600020614f77565b60408101516001600160a01b031615611720576111de906040519182916020835260208301906142aa565b60405163cd1ee5eb60e01b8152600490fd5b346100585760203660031901126100585761174b615c1d565b600435601655005b34610058576000366003190112610058576020601654604051908152f35b604036600319011261005857611785614280565b61178d61474a565b6024358015611cd0576001600160601b038216600052600660205260406000206117b96103dc84614a2d565b509160ff60098301541660038110156108d157600103611cbe5760018201546001600160a01b031633036117205760078201546001600160a01b03169060018203611b0357505060105434906001600160a01b03168015611af1576015548015611adf576000808061271061182f82958861471f565b0480955af161183c614aa2565b5015611a9a5761184c9082614a95565b905b6004830154808210611a7457505060048201549260006004840155600060048201556002600960ff19928284838801541617828701550191825416179055915b60078201546001600160a01b0316906118a961048f83615831565b936118b333615a66565b92600685019060018060a01b03825416600052600360205260406000209060005260205260406000206118e7838254614712565b905560018060a01b039054166000526004602052604060002060018060a01b036007860154166000526020526119236040600020918254614712565b9055336000526005602052600160406000200161194081546146a5565b905561194b33614d69565b600883019160005b83548110156119f1576119ec906001600160601b038816600052600760205260406000206119818287614a7d565b60018060a01b0391549060031b1c1660005260205260406000205460018060a01b03600188015416600052600460205260406000206119c08388614a7d565b60018060a01b0391549060031b1c166000526020526119e56040600020918254614712565b9055614833565b611953565b8683838880821115611a5a57611a0691614a95565b3360005260056020526002604060002001555b6001600160601b036040519216825260208201527fe4da8da4d1fb918a46281382df3b2a3b88ac58a0f388dd4766074deaf8442e4d60403392a26001600055005b505033600052600560205260006002604082200155611a19565b93611a828260049396614a95565b8285015501611a92848254614a95565b90559161188e565b60405162461bcd60e51b815260206004820152601c60248201527f50726f746f636f6c20666565207472616e73666572206661696c6564000000006044820152606490fd5b60405163fcaeccb560e01b8152600490fd5b6040516302dea74f60e61b8152600490fd5b612710611b126015548361471f565b04611b1d8183614a95565b926040516370a0823160e01b8152336004820152602081602481855afa80156106f1578491600091611c89575b501061084257604051636eb1769f60e11b8152336004820152306024820152602081604481855afa80156106f1578491600091611c54575b50106107fb576040516323b872dd60e01b815233600482015230602482015260448101849052916020836064816000865af19182156106f157611c0393602093611c37575b5060105460405163a9059cbb60e01b81526001600160a01b03909116600482015260248101929092529092839190829060009082906044820190565b03925af180156106f157611c18575b5061184e565b611c309060203d6020116106ea576106dc818361452c565b5085611c12565b611c4d90843d86116106ea576106dc818361452c565b5089611bc7565b9150506020813d602011611c81575b81611c706020938361452c565b810103126100585783905189611b82565b3d9150611c63565b9150506020813d602011611cb6575b81611ca56020938361452c565b810103126100585783905189611b4a565b3d9150611c98565b604051631b582c3360e01b8152600490fd5b60405162461bcd60e51b815260206004820152601c60248201527f50726f746f636f6c5f5f4d75737442654d6f72655468616e5a65726f000000006044820152606490fd5b3461005857602036600319011261005857602061031c611d3361422a565b615a66565b34610058576040366003190112610058576111de611d5a6024356004356155c1565b6040519182918261437f565b3461005857600036600319011261005857601e546040516001600160a01b039091168152602090f35b34610058576000366003190112610058576111de611dab614f01565b6040519182918261446d565b34610058576000366003190112610058576011546000805b828110611e685750611de090615571565b60009160005b818110611dfb57604051806111de858261437f565b60ff6009611e0883614867565b5001541660038110156108d157600114611e2b575b611e2690614833565b611de6565b92611e60611e2691611e45611e3f87614867565b50614f77565b611e4f8287614842565b52611e5a8186614842565b50614833565b939050611e1d565b60ff6009611e7583614867565b5001541660038110156108d157600114611e98575b611e9390614833565b611dcf565b90611ea5611e9391614833565b919050611e8a565b3461005857602061031c611ec0366144c0565b9161516e565b3461005857606036600319011261005857611edf61422a565b611ee7614240565b611f06611ef383615831565b611efc83615831565b93604435906153e6565b91600a830292808404600a1490151715610a705761154461153e602094611f2f61031c95615288565b9061476d565b604036600319011261005857611f4961422a565b60243580156108e7576001916001600160a01b039081169182841491908280612157575b6108e7578360005260209185835260406000205415612145578391611f9061474a565b9361213d575b336000526003835260406000208560005283526040600020611fb9858254614712565b9055336000526004835260406000208560005283526040600020611fde858254614712565b905533600052600583528560406000200180549068056bc75e2d631000008201809211610a70575533600052600a83526040600020541680151580612136575b6120c8575b501561205a575b7ff1c0dd7e9b98bbff859029005ef89b127af049cd18df1a8d79f0b7e019911e56906040519283523392a3600055005b6040516323b872dd60e01b81523360048201523060248201526044810183905281816064816000885af19081156106f1576000916120ab575b5061202a575b604051633ef92ae360e01b8152600490fd5b6120c29150823d84116106ea576106dc818361452c565b85612093565b8060005260058352856040600020016120e181546146d1565b905580600052600d835260406000206120fa81546146d1565b905560405190678ac7230489e8000082527fefffb1092d95e075b24abe30e43c9e1ce4c28e8ff6ec68c791a1bf36ce9e0400843393a385612023565b508561201e565b349350611f96565b60405163335dc1d160e01b8152600490fd5b503415611f6d565b346100585760203660031901126100585761217861422a565b612180615c1d565b601080546001600160a01b0319166001600160a01b0392909216919091179055005b34610058576040366003190112610058576121bb61422a565b6121c361426a565b906121cc615c1d565b6001600160a01b03166000908152601b60209081526040822090926001600160601b03908116925b8254808210156116b357848361220a84876148a2565b505460601c1614612224575061221f90614833565b6121f4565b9293506000199283810192508211610a705761224e61224661225493866148a2565b5091856148a2565b9061492b565b81548015610a5a57019161226883836148a2565b9190916122ec5760008255600190600082840155600060028401556000600384015560006004840155600060058401556000600684015560006007840155600883019081549160008155826122c9575b505050506009600091015555600080f35b600052600020908101905b8181106122e157806122b8565b6000815582016122d4565b634e487b7160e01b600052600060045260246000fd5b346100585760203660031901126100585760206001600160a01b038061232661422a565b16600052600a825260406000205416604051908152f35b3461005857602036600319011261005857612356614280565b6001600160601b03811660005260066020526123796103dc604060002092614a2d565b506009820180549260ff841660038110156108d1576108bf57600101546001600160a01b03163303611720576002916009918360ff198096161790550191825416179055600080f35b34610058576020366003190112610058576001600160601b036123e3614280565b6123eb615654565b501660005260096020526040600020805460601c3303610c56576124116111de916156a0565b604051918291826143e1565b346100585760403660031901126100585761243661422a565b60243590612442615c1d565b60018060a01b03168060005260026020526040600020600160ff19825416179055600160205281604060002055600f54600160401b811015611601576001810180600f558110156124f457600f6000527f8d1108e10bcb7c27dddfc02ed9d693a074039d026cf4ea4240b40f7d581ac80201816001600160601b0360a01b8254161790556040519182527f9f19fcb1a937dd3e369cba40ca1965cc82e45072e4692441109145bf5919a51c60203393a3005b634e487b7160e01b600052603260045260246000fd5b346100585760403660031901126100585761252361422a565b602435906001600160801b0382168092036100585760018060a01b03169081600052602060018152604060002054156121455781156108e75761256461474a565b336000526004815260406000208360005281528160406000205410612696573360005260038152604060002083600052815260406000206125a6838254614a95565b90553360005260048152604060002083600052815260406000206125cb838254614a95565b90556001830361261b577f45892a46e6cef329bb642da6d69846d324db43d19008edc141ed82382eda1bee9061260b600080808087335af1610667614aa2565b6040519283523392a36001600055005b60405163a9059cbb60e01b8152336004820152602481018390529080826044816000885af19182156106f1577f45892a46e6cef329bb642da6d69846d324db43d19008edc141ed82382eda1bee9261267a9160009161267f5750614ae1565b61260b565b6106e49150833d85116106ea576106dc818361452c565b604051634a1dbc7160e11b8152600490fd5b346100585760003660031901126100585760405180600f5491828152602080910192600f6000527f8d1108e10bcb7c27dddfc02ed9d693a074039d026cf4ea4240b40f7d581ac802916000905b82821061270c576111de85611dab8189038261452c565b83546001600160a01b0316865294850194600193840193909101906126f5565b3461005857602036600319011261005857602061031c61274a61422a565b615500565b3461005857604036600319011261005857612768614280565b602435156108e75761277861474a565b6001600160601b0381166000526009602052604060002090600682015460ff8160101c1660028110156108d157612c9257825460601c3314612c805760038301549283602435108015612c71575b61075a57600281015491826024351161075a57336000526003602052604060002060018060a01b03600184015416908160005260205260406000205461164d578061281361281d92615831565b90602435906153e6565b94670de0b6b3a764000061283187336157b4565b106107485761283f33615500565b80605081020460501481151715610a705786670de0b6b3a7640000810204670de0b6b3a76400001487151715610a705761288c60646050612896930204670de0b6b3a7640000890261476d565b9460243590614a95565b9081600285015581600485018054821115612c69575b501115612c5d575b15612c47575b506128c433615ae1565b93601354936001600160601b036128dc81871661478d565b1680956001600160601b03191617601355846000526006602052612905604060002095866147a5565b6001600160601b0360018601918160a01b923384825416179055166001600160601b0319865416178555825460601c600686019082825416179055602435600286015561ffff600684015416600386019061ffff19825416179055612981600584015480600588015561ffff60068601541690602435906158b1565b600486015560018060a01b03600184015416600786019182541617905584516001600160401b03811161160157600885016129bc82826147d8565b6020870190600052602060002060005b838110612c2a575050505060098401805460ff1916600117905560005b8551811015612aba57612ab5906001600160a01b03612a088289614842565b5116612a68612a1682615831565b336000526003602052604060002083600052602052611f2f612a58670de0b6b3a7640000612a4e8b6114ff866040600020548a6153e6565b0461154484614856565b91612a6281614856565b856153e6565b906001600160601b03601354166000526007602052604060002081600052602052816040600020553360005260046020526040600020906000526020526119e56040600020918254614a95565b6129e9565b50612ac484614a0a565b336000526005602052612ae06002604060002001918254614712565b90556001818101546001600160a01b031603612b90573360005260056020526001604060002001612b1181546146a5565b9055612b1c33614d69565b612b326000808080602435335af1610667614aa2565b6001600160601b036013541661ffff600683015416916001808060a01b03910154169160405190602435825260208201527f8c71956147beb232ec5c3cb3ea6b7fa6de552278b9dd7a92030ce005ff7f5dd960403392a46001600055005b3360005260056020526001604060002001612bab81546146bb565b9055612bb633614e0b565b600181015460405163a9059cbb60e01b8152336004820152602480359082015290602090829060449082906000906001600160a01b03165af180156106f157612c0691600091612c0b5750614ae1565b612b32565b612c24915060203d6020116106ea576106dc818361452c565b83610667565b82516001600160a01b0316818301556020909201916001016129cc565b62ff0000191662010000176006820155846128ba565b600060038401556128b4565b5581886128ac565b506004810154602435116127c6565b604051638a051e0f60e01b8152600490fd5b604051637da5f52960e01b8152600490fd5b3461005857604036600319011261005857612cbd61422a565b612cc5614240565b9060018060a01b038091166000526004602052604060002091166000526020526020604060002054604051908152f35b34610058576020366003190112610058576001600160a01b03612d1661422a565b16600052600c6020526020604060002054604051908152f35b3461005857604036600319011261005857612d4861422a565b6024908135916001600160401b0391828411610058573660238501121561005857836004013592831161005857600592368382861b870101116100585792612d8e615c1d565b3685900361018219019060005b858110612da457005b8481831b88010135908382121561005857612dd0612dca612dd5938836918c01016145ca565b86614b61565b614833565b612d9b565b3461005857604036600319011261005857612df361422a565b7fd23e2e6402543811312ec59498ea6fa753e4acea94fe313e1d4329ffcb830e656020612e1e6144b1565b92612e27615c1d565b60018060a01b03169283600052601c825260406000209015159060ff1981541660ff8316179055604051908152a2005b3461005857602036600319011261005857612e7061422a565b612e78615c1d565b601980546001600160a01b0319166001600160a01b0392909216919091179055005b3461005857604036600319011261005857612eb361422a565b612ebb614240565b612ec3615c1d565b6001600160a01b03918083169182158015612ffb575b612fe957831691828114612fd75782600052600a926020928484528560406000205416612fc55785905b168015612f3757818114612f2557600052838352848060406000205416612f03565b604051633d0f1b6960e11b8152600490fd5b5091838360005281526040600020906001600160601b0360a01b91838382541617905582600052600c815260406000205491600b825260406000208360005282528460406000209182541617905560018201809211610a7057600c9083600052526040600020557f190ec71b033f5e5f786a8144211e6c47b8adfbe4ed697f0dc2a1752d673a1252600080a3005b60405163184fdb3d60e01b8152600490fd5b6040516337619ce960e01b8152600490fd5b6040516377d7571d60e01b8152600490fd5b5083811615612ed9565b346100585760403660031901126100585760206001600160a01b038061302961422a565b16600052600b82526040600020602435600052825260406000205416604051908152f35b346100585760403660031901126100585761306661422a565b61306e615c1d565b6001600160a01b038116600081815260016020526040902054909190610dd8576130a8916000526001602052602435604060002055614b3e565b60ff600e54166040519081527f0925d805c5c6b06c1ed914b3b0fbc81bd432609f86b0b87d11c28ce5589eaa5560203392a2005b34610058576000366003190112610058577f2ad3e90873cbe86f6a024e2d91b7abbabc6ce35c355c15912cb7d7df99da2373546040516001600160a01b039091168152602090f35b34610058576020366003190112610058576111de611dab61314361422a565b615ae1565b3461005857602036600319011261005857613161615c1d565b600435601555005b346100585760403660031901126100585761318261422a565b61318a614240565b9060018060a01b038091166000526003602052604060002091166000526020526020604060002054604051908152f35b34610058576020366003190112610058576001600160a01b036131db61422a565b16600052600d6020526020604060002054604051908152f35b60c03660031901126100585760843560043560643561ffff83166044356024358286036100585760a4356001600160a01b038116968782036100585786156108e7576001881494858061354e575b6108e75784156108e75761325461474a565b87896000526020966002885260ff604060002054161561165f57620151804201804211610a705789111561163b578015918261346a575b61329f9061329887615831565b90876153e6565b801561075a5767016345785d8a0000116116295761343c575b6133b2575b907f2e41c76891f7201ba7030d8c7f0b5b93203bd050d61d71cfcbccc0a61eea4cb5956133a89392601454906001600160601b039260098461330081861661478d565b1691826001600160601b03198096161760145582600052526040600020923360601b161782558a6002830155866003830155876004830155600682019160018354918c6005820155018d6001600160601b0360a01b82541617905563ffffffff19161790556014541696604051958695339a8794909695929360a09461ffff9360c08801998852602088015260408701526060860152166080840152600180831b0316910152565b0390a46001600055005b9190336000526005865260016040600020016133ce81546146bb565b90556133d933614e0b565b6040516323b872dd60e01b815233600482015230602482015260448101899052868160648160008e5af19081156106f15760009161341f575b50156120995790916132bd565b6134369150873d89116106ea576106dc818361452c565b8a613412565b97503360005260058652600160406000200161345881546146a5565b905561346333614d69565b34976132b8565b6024898d604051928380926370a0823160e01b82523360048301525afa80156106f157829160009161351d575b501061084257604051636eb1769f60e11b815233600482015230602482015289818e81806044810103915afa80156106f15782916000916134ec575b50101561328b5760405163664487c960e11b8152600490fd5b8092508b8092503d8311613516575b613505818361452c565b81010312610058578190518e6134d3565b503d6134fb565b8092508b8092503d8311613547575b613536818361452c565b81010312610058578190518e613497565b503d61352c565b503415613242565b34610058576020366003190112610058576001600160601b03613577614280565b61357f615654565b5016600052600960205261359660406000206156a0565b60208101516001600160a01b0316156135b9576111de90604051918291826143e1565b604051632e969ffb60e11b8152600490fd5b34610058576040366003190112610058576135e461422a565b7f235d1164d643b3019deccd28d16d27c20533f20ccb3b399df2bba5dd112424b5602060243592613613615c1d565b6001600160a01b03166000818152600583526040908190206001018590555193845292a2005b346100585760203660031901126100585761365261422a565b61365a615c1d565b601880546001600160a01b0319166001600160a01b0392909216919091179055005b346100585760203660031901126100585761369561422a565b61369d615c1d565b601780546001600160a01b0319166001600160a01b0392909216919091179055005b34610058576020366003190112610058576111de611d5a6136de61422a565b6158d2565b34610058576020366003190112610058576136fc614280565b6017546001600160a01b031633036140ea576001600160601b038116156108e75761372561474a565b61372d614ead565b506001600160601b038116600052600660205261374d6040600020614f77565b610140810191825160038110156108d157600103611cbe576101008201519382015160408301516001600160a01b039586169591821694911661378f86615831565b9461379f8660a0870151896153e6565b9283156140a5575160038110156108d157600103611cbe576040850151670de0b6b3a7640000906137d8906001600160a01b0316615735565b101580614097575b156137f757604051635aa1c8c560e01b8152600490fd5b61012085015151601054600094906001600160a01b031615611af15760165415611adf57809860005b8381108061408e575b15613af8576101208901516001600160a01b0390613848908390614842565b51166001600160601b0389166000526007602052604060002081600052602052604060002054908115613a9c578c9161388082615831565b61388b8183856153e6565b9380851161398757506040808e01516001600160a01b03166000908152600360209081528282208683529052205490828210613970575b50818015159182613965575b50506138e6575b5050506138e190614833565b613820565b826138e1949a9e61395c94936001600160601b038f8f909561395696604060018060a01b039101511660005260036020526040600020846000526020526139336040600020918254614a95565b905516600052600760205260406000209060005260205260006040812055614a95565b9c614712565b96908c806138d5565b1015905081386138ce565b91509250613980839184846153e6565b928f6138c2565b935091905061399782848361516e565b6040808e01516001600160a01b0316600090815260036020908152828220858352905220549092838210613a85575b50828015159182613a7a575b50506139f5575b5050508a156139ec575b6138e190614833565b60009a506139e3565b613a71939d99613a6b9284926001600160601b038f8f90604060018060a01b039101511660005260036020526040600020836000526020526040600020613a3d858254614a95565b9055166000526007602052604060002090600052602052613a646040600020918254614a95565b9055614712565b97614a95565b998b80806139d9565b1015905082386139d2565b92509250613a95839284836153e6565b928f6139c6565b60405162461bcd60e51b815260206004820152602e60248201527f616d6f756e744f66436f6c6c61746572616c546f6b656e206d7573742062652060448201526d6d6f7265207468616e207a65726f60901b6064820152608490fd5b5086918891878b811561403257613b1090828461516e565b9560005b818110613f805750839050808210613f5d575050612710613b3e60a0850151965b6016549061471f565b048515613f09578015613eb157808610613e7457613b5c8187614a95565b908115613e185760018303613da9576010546000918291829182916001600160a01b03165af1613b8a614aa2565b5015612099576000915b600181148314613d0f575081808092895af1613bae614aa2565b5015612099577f92bb3d97227111dfc8265e62cc58cf305047812c6910cd94473d62bb7acb386b926020926001600160601b03925b60a08201518710613cce57838316600052600685526000600460408220015560006004613c126103dc86614a2d565b5001555b6040820151613c2d906001600160a01b0316615a66565b9080821115613ca857613c3f91614a95565b6040918201516001600160a01b031660009081526005865291909120600201555b81811660005260068352600960406000200160ff199060028282541617905560026009613c8f6103dc85614a2d565b5001918254161790556040519485521692a46001600055005b50506040908101516001600160a01b031660009081526005855290812060020155613c60565b838316600052600685526004604060002001613ceb888254614a95565b90556004613cfb6103dc85614a2d565b5001613d08888254614a95565b9055613c16565b60405163a9059cbb60e01b81526001600160a01b03891660048201526024810192909252909160209183916044918391905af19081156106f157600091613d8a575b5015612099577f92bb3d97227111dfc8265e62cc58cf305047812c6910cd94473d62bb7acb386b926020926001600160601b0392613be3565b613da3915060203d6020116106ea576106dc818361452c565b87613d51565b60105460405163a9059cbb60e01b81526001600160a01b03909116600482015260248101919091526020816044816000875af19081156106f157600091613df9575b501561209957600091613b94565b613e12915060203d6020116106ea576106dc818361452c565b89613deb565b60405162461bcd60e51b815260206004820152602e60248201527f72657061796d656e74416d6f756e744166746572466565206d7573742062652060448201526d6d6f7265207468616e207a65726f60901b6064820152608490fd5b60405162461bcd60e51b815260206004820152601560248201527411995948195e18d959591cc81c995c185e5b595b9d605a1b6044820152606490fd5b60405162461bcd60e51b815260206004820152602a60248201527f6c697175696469747950656e616c7479466565206d757374206265206d6f7265604482015269207468616e207a65726f60b01b6064820152608490fd5b60405162461bcd60e51b815260206004820152602660248201527f72657061796d656e74416d6f756e74206d757374206265206d6f7265207468616044820152656e207a65726f60d01b6064820152608490fd5b613f7a613b3e91613f756127109460a089015161471f565b61476d565b96613b35565b613fcf9060018060a01b03613f9a826101208a0151614842565b51166001600160601b03891660005260078060205260406000208260005260205260406000205480613fd4575b505050614833565b613b14565b60018060a01b0360408b01511660005260046020526040600020836000526020526140056040600020918254614712565b90556001600160601b038a16600052602052604060002090600052602052600060408120558b8080613fc7565b60405162461bcd60e51b815260206004820152602e60248201527f746f74616c436f6c6c61746572616c55736456616c7565206d7573742062652060448201526d6d6f7265207468616e207a65726f60901b6064820152608490fd5b508a1515613829565b5060c08501514211156137e0565b60405162461bcd60e51b815260206004820152601760248201527f50726f746f636f6c5f5f496e76616c6964416d6f756e740000000000000000006044820152606490fd5b6040516374b67af960e01b8152600490fd5b346100585760403660031901126100585761411561422a565b6001600160601b0361412561426a565b61412d614ead565b501660005260066020526141446040600020614f77565b604081015190916001600160a01b03918216911603611720576111de906040519182916020835260208301906142aa565b34610058576000366003190112610058576020601154604051908152f35b3461005857602080600319360112610058576141ad61422a565b600e546000918291906001600160a01b03908116905b8284106141d4578585604051908152f35b9091929361421c61422291614216846141ec89614a46565b90549060031b1c168660005260048a526040600020816000528a52604060002054610afd82615831565b90614712565b94614833565b9291906141c3565b600435906001600160a01b038216820361005857565b602435906001600160a01b038216820361005857565b35906001600160a01b038216820361005857565b602435906001600160601b038216820361005857565b600435906001600160601b038216820361005857565b35906001600160601b038216820361005857565b90610160918282016001600160601b039081835116845260209182840151168285015260018060a01b03918260408501511660408601526060840151606086015261ffff608085015116608086015260a084015160a086015260c084015160c08601528260e08501511660e08601526101008381860151169086015261012095868501519686015285518092528061018086019601926000905b838210614366575050505050610140809101519160038310156108d157015290565b8451811688529682019693820193600190910190614344565b602080820190808352835180925260408301928160408460051b8301019501936000915b8483106143b35750505050505090565b90919293949584806143d1600193603f198682030187528a516142aa565b98019301930191949392906143a3565b9190916101408101926001600160601b03815116825260018060a01b038060208301511660208401526040820151166040830152606081015160608301526080810151608083015260a081015160a083015260c081015160c083015261ffff60e08201511660e0830152610100808201519060028210156108d157830152610120809101511515910152565b6020908160408183019282815285518094520193019160005b828110614494575050505090565b83516001600160a01b031685529381019392810192600101614486565b60243590811515820361005857565b6060906003190112610058576004356001600160a01b038116810361005857906024359060443560ff811681036100585790565b61016081019081106001600160401b0382111761160157604052565b61014081019081106001600160401b0382111761160157604052565b90601f801991011681019081106001600160401b0382111761160157604052565b6001600160401b0381116116015760051b60200190565b81601f820112156100585780359161457b8361454d565b92614589604051948561452c565b808452602092838086019260051b820101928311610058578301905b8282106145b3575050505090565b8380916145bf84614256565b8152019101906145a5565b9190916101608184031261005857604051906145e5826144f4565b81936145f082614296565b83526145fe60208301614296565b602084015261460f60408301614256565b604084015260608201356060840152608082013561ffff8116810361005857608084015260a082013560a084015260c082013560c084015261465360e08301614256565b60e0840152610100614666818401614256565b908401526101209081830135906001600160401b0382116100585761468c918401614564565b9083015261014080910135916003831015610058570152565b90682086ac3510526000008201809211610a7057565b90681b1ae4d6e2ef5000008201809211610a7057565b90678ac7230489e800008201809211610a7057565b90680340aad21b3b7000008201809211610a7057565b906802b5e3af16b18800008201809211610a7057565b91908201809211610a7057565b81810292918115918404141715610a7057565b90816020910312610058575180151581036100585790565b60026000541461475b576002600055565b604051633ee5aeb560e01b8152600490fd5b8115614777570490565b634e487b7160e01b600052601260045260246000fd5b9060016001600160601b0380931601918211610a7057565b80546bffffffffffffffffffffffff60601b191660609290921b6bffffffffffffffffffffffff60601b16919091179055565b600160401b8211611601578054918082558281106147f557505050565b60009182526020822092830192015b82811061481057505050565b818155600101614804565b9060038110156108d15760ff80198354169116179055565b6000198114610a705760010190565b80518210156124f45760209160051b010190565b60ff16604d8111610a7057600a0a90565b6011548110156124f457600a906011600052027f31ecc21a745e3968a04e9570e4425bc18fa8019c68028196b546d1669c200c680190600090565b80548210156124f457600052600a602060002091020190600090565b818114614927578154916001600160401b038311611601576148e083836147d8565b60005260206000209060005260206000208154916000925b848410614906575050505050565b600191820180546001600160a01b03909216848601559390910192906148f8565b5050565b906122ec5781810361493b575050565b600960ff81614a089461496e6001600160601b03808354166001600160601b0319885416178755825460601c16866147a5565b6001850160018060a01b039081600184015416906001600160601b0360a01b9182825416179055600283015460028801556003870161ffff60038501541661ffff1982541617905560048301546004880155600583015460058801556006870182600685015416828254161790556007870191600784015416908254161790556149fe60088201600887016148be565b015416910161481b565b565b60115490600160401b8210156116015761224e826001614a089401601155614867565b6001600160601b039081166000190191908211610a7057565b600e548110156124f457600e6000527fbb7b4a454dc3493923482f07822329ed19e8244eff582cc204f8554c3620c3fd0190600090565b80548210156124f45760005260206000200190600090565b91908203918211610a7057565b3d15614adc573d906001600160401b0382116116015760405191614ad0601f8201601f19166020018461452c565b82523d6000602084013e565b606090565b15614ae857565b60405162461bcd60e51b815260206004820152601860248201527f50726f746f636f6c5f5f5472616e736665724661696c656400000000000000006044820152606490fd5b60ff1660ff8114610a705760010190565b600e5490600160401b82101561160157610a0c826001614a089401600e55614a46565b614b69615c1d565b6001600160a01b039081166000818152601b6020908152604082208054929593919290865b828110614d2c575050508452601b815260408420908154600160401b811015614d1857614bc29060019384820181556148a2565b949094614d0457614bf26001600160601b03808651166001600160601b03198854161787558386015116866147a5565b82850181604086015116906001600160601b0360a01b9182825416179055606085015160028701556003860161ffff60808701511661ffff1982541617905560a0850151600487015560c08501516005870155600686018260e0870151168282541617905560078601908261010087015116908254161790556008850190610120850151928351936001600160401b038511614cf0578190614c9486866147d8565b0192885280882091885b858110614cdd57505050505050506101400151916003831015614cc95750906009614a08920161481b565b634e487b7160e01b81526021600452602490fd5b8451821684820155938201938601614c9e565b634e487b7160e01b89526041600452602489fd5b634e487b7160e01b86526004869052602486fd5b634e487b7160e01b86526041600452602486fd5b614d3681836148a2565b506001600160601b0380915460601c1690868801511614614d5f57614d5a90614833565b614b8e565b5050505050505050565b6001600160a01b039081166000818152600a60205260408120549192919091169081151580614e03575b614d9c57505050565b8082604092526005602052600182822001614db781546146e6565b9055828152600d60205220614dcc81546146e6565b90557fefffb1092d95e075b24abe30e43c9e1ce4c28e8ff6ec68c791a1bf36ce9e04006020604051680340aad21b3b7000008152a3565b506001614d93565b6001600160a01b039081166000818152600a60205260408120549192919091169081151580614ea5575b614e3e57505050565b8082604092526005602052600182822001614e5981546146fc565b9055828152600d60205220614e6e81546146fc565b90557fefffb1092d95e075b24abe30e43c9e1ce4c28e8ff6ec68c791a1bf36ce9e040060206040516802b5e3af16b18800008152a3565b506001614e35565b60405190614eba826144f4565b816101406000918281528260208201528260408201528260608201528260808201528260a08201528260c08201528260e08201528261010082015260606101208201520152565b60405190600e548083528260209182820190600e6000527fbb7b4a454dc3493923482f07822329ed19e8244eff582cc204f8554c3620c3fd936000905b828210614f5457505050614a089250038361452c565b85546001600160a01b031684526001958601958895509381019390910190614f3e565b90604051614f84816144f4565b809280546001600160601b03808216845260209160601c168184015260018060a01b039060019082828501541660408601526002840154606086015261ffff6003850154166080860152600484015460a0860152600584015460c08601528260068501541660e0860152826007850154166101008601526008840191604051809483855492838152019460005283600020936000915b83831061505357505050505050918161503960099360ff95038261452c565b6101208501520154169060038210156108d1576101400152565b85548116875295810195948401949184019161501a565b1561507157565b60405162461bcd60e51b815260206004820152600e60248201526d13dc9858db19481b9bdd081cd95d60921b6044820152606490fd5b9081608091031261005857604051906001600160401b0360808301818111848210176116015760405281518060070b8103610058578352602082015190811681036100585760208301526040810151908160030b82036100585760609160408401520151606082015290565b1561511a57565b60405162461bcd60e51b815260206004820152600d60248201526c496e76616c696420707269636560981b6044820152606490fd5b604d8111610a7057600a0a90565b600160ff1b8114610a705760000390565b6001600160a01b0390811660009081526001602052604081205460195490921694939290916080906151a187151561506a565b6024604051809881936331d98b3f60e01b835260048301525afa801561527d5761521d9495839161524f575b506151dd83825160070b13615113565b6001600160401b03604082015160030b915116928082126000146152205750615217613f75936115446152126115449461515d565b61514f565b93614856565b90565b8113615235575b50611544613f759293614856565b615248613f7593611f2f6115449361514f565b9250615227565b615270915060803d8111615276575b615268818361452c565b8101906150a7565b386151cd565b503d61525e565b6040513d84823e3d90fd5b6001600160a01b03908116600090815260016020526040812054601954909216916152b483151561506a565b80156153ac576080906024604051809581936331d98b3f60e01b835260048301525afa91821561539f57819261537f575b506152f581835160070b13615113565b604082015191516001600160401b03169160030b8181121561535c5791611544615212615322939461515d565b905b678ac7230489e8000091808302928304036153485750670de0b6b3a7640000900490565b634e487b7160e01b81526011600452602490fd5b81811361536a575b50615324565b91611f2f615378929361514f565b9038615364565b61539891925060803d811161527657615268818361452c565b90386152e5565b50604051903d90823e3d90fd5b60405162461bcd60e51b8152602060048201526012602482015271141c9a58d94819995959081b9bdd081cd95d60721b6044820152606490fd5b919060018060a01b03806000941684526001602052604084205490601954169061541182151561506a565b80156153ac576080906024604051809481936331d98b3f60e01b835260048301525afa9081156154f55784916154d7575b5061545284825160070b13615113565b604081015190516001600160401b03169060030b848112156154b1579061154461521261547e9361515d565b915b670de0b6b3a7640000938483029280840486149015171561534857506154ad9291611f2f6114ff92614856565b0490565b8481949294136154c2575b50615480565b92611f2f6154d0929461514f565b91386154bc565b6154ef915060803d811161527657615268818361452c565b38615442565b6040513d86823e3d90fd5b9060009160008091600e54915b82841061551a5750505050565b909192946155636155699161421661553189614a46565b60018060a01b03809254600392831b1c16918816875260209081526040908188209083895252862054610afd82615831565b95614833565b92919061550d565b9061557b8261454d565b615588604051918261452c565b8281528092615599601f199161454d565b019060005b8281106155aa57505050565b6020906155b5614ead565b8282850101520161559e565b90601154908183101561562e5781816155eb936155df869485614712565b111561561e5750614a95565b6155f481615571565b9160005b8281106156055750505090565b80611e45611e3f6103dc6156199486614712565b6155f8565b615629915082614712565b614a95565b505050604051602081018181106001600160401b03821117611601576040526000815290565b6040519061566182614510565b816101206000918281528260208201528260408201528260608201528260808201528260a08201528260c08201528260e0820152826101008201520152565b906040516156ad81614510565b6006819380546001600160601b038116845260601c602084015260018060a01b0360018201541660408401526002810154606084015260038101546080840152600481015460a0840152600581015460c0840152015461ffff811660e083015260ff8160101c1660028110156108d1576101209160ff9161010085015260181c161515910152565b61574761574182615a66565b91615500565b605081029080820460501490151715610a705760649004908015806157ac575b61578e57670de0b6b3a764000091828102928184041490151715610a705761521d9161476d565b50670de0b6b3a764000090818102918183041490151715610a705790565b506001615767565b6157c061574182615a66565b605081029080820460501490151715610a70576064900490801580615829575b61580b57670de0b6b3a764000091828102928184041490151715610a705761521d92611f2f91614712565b50670de0b6b3a764000080820292508115918304141715610a705790565b5082156157e0565b6001600160a01b0316600181036158485750601290565b60206004916040519283809263313ce56760e01b82525afa9081156106f157600091615872575090565b6020813d82116158a9575b8161588a6020938361452c565b810103126158a557519060ff821682036158a2575090565b80fd5b5080fd5b3d915061587d565b421161163b576127106158cb61ffff61521d94168361471f565b0490614712565b9060009160018060a01b031682526020601b815260408084209182546158f78161454d565b936159048451958661452c565b81855286528186208690838087015b848410615a475750505050508492855b815181101561599b576001600160601b038361593f8385614842565b5101511687526006835260ff6009858920015416600381101561598757600114615972575b61596d90614833565b615923565b9361597f61596d91614833565b949050615964565b634e487b7160e01b88526021600452602488fd5b509190926159a890615571565b928592865b8151811015615a3d576001600160601b03836159c98385614842565b510151168852600683526159de848920614f77565b6101408101516003811015615a2957600114615a04575b506159ff90614833565b6159ad565b85615a2291615a176159ff94988a614842565b52611e5a8189614842565b94906159f5565b634e487b7160e01b8a52602160045260248afd5b5093955050505050565b600191600a91615a5685614f77565b8152019201920191908490615913565b615a6f906158d2565b600090815b8151831015615adb57615ad590615acf906142166101006001600160a01b03615aab8183615aa28b8b614842565b51015116615831565b91615ab68989614842565b5101511660a0615ac68989614842565b510151906153e6565b92614833565b91615a74565b91505090565b90615aea614f01565b91600090815b8451811015615b54576001600160a01b038281166000908152600460209081526040918290209192615b22858a614842565b51166000525260002054615b3f575b615b3a90614833565b615af0565b91615b4c615b3a91614b2d565b929050615b31565b509060ff9182821694615b668661454d565b95604090615b768251988961452c565b808852615b85601f199161454d565b0160209036828a013760005b8351811015615c14578660018060a01b03808716600052600384528460002081615bbb8589614842565b511660005284528460002054615bdc575b5050615bd790614833565b615b91565b615be98387999499614842565b51169116600019810191888311610a7057615c068984168c614842565b5215610a7057948638615bcc565b50505050505050565b7fc8fcad8db84d3cc18b4c41d551ea0ee66dd599cde068d998e57d5e09332c1320546001600160a01b03163303615c5057565b604051630305808160e41b8152600490fdfea264697066735822122081eac4048fba5bbb525d204015459008f1bfceea7676bbf5453278a874f7b13664736f6c63430008140033",
  "linkReferences": {},
  "deployedLinkReferences": {}
}