{
  "_format": "hh-sol-artifact-1",
  "contractName": "KaleidoMasterChef",
  "sourceName": "contracts/dex/core/KaleidoMasterChef.sol",
  "abi": [
    {
      "inputs": [
        {
          "internalType": "contract IERC20",
          "name": "_kld",
          "type": "address"
        },
        {
          "internalType": "uint256",
          "name": "_kldPerBlock",
          "type": "uint256"
        },
        {
          "internalType": "uint256",
          "name": "_startBlock",
          "type": "uint256"
        }
      ],
      "stateMutability": "nonpayable",
      "type": "constructor"
    },
    {
      "inputs": [
        {
          "internalType": "address",
          "name": "owner",
          "type": "address"
        }
      ],
      "name": "OwnableInvalidOwner",
      "type": "error"
    },
    {
      "inputs": [
        {
          "internalType": "address",
          "name": "account",
          "type": "address"
        }
      ],
      "name": "OwnableUnauthorizedAccount",
      "type": "error"
    },
    {
      "inputs": [
        {
          "internalType": "address",
          "name": "token",
          "type": "address"
        }
      ],
      "name": "SafeERC20FailedOperation",
      "type": "error"
    },
    {
      "anonymous": false,
      "inputs": [
        {
          "indexed": true,
          "internalType": "address",
          "name": "user",
          "type": "address"
        },
        {
          "indexed": true,
          "internalType": "uint256",
          "name": "pid",
          "type": "uint256"
        },
        {
          "indexed": false,
          "internalType": "uint256",
          "name": "amount",
          "type": "uint256"
        }
      ],
      "name": "Deposit",
      "type": "event"
    },
    {
      "anonymous": false,
      "inputs": [
        {
          "indexed": true,
          "internalType": "address",
          "name": "user",
          "type": "address"
        },
        {
          "indexed": true,
          "internalType": "uint256",
          "name": "pid",
          "type": "uint256"
        },
        {
          "indexed": false,
          "internalType": "uint256",
          "name": "amount",
          "type": "uint256"
        }
      ],
      "name": "EmergencyWithdraw",
      "type": "event"
    },
    {
      "anonymous": false,
      "inputs": [
        {
          "indexed": true,
          "internalType": "address",
          "name": "previousOwner",
          "type": "address"
        },
        {
          "indexed": true,
          "internalType": "address",
          "name": "newOwner",
          "type": "address"
        }
      ],
      "name": "OwnershipTransferred",
      "type": "event"
    },
    {
      "anonymous": false,
      "inputs": [
        {
          "indexed": true,
          "internalType": "address",
          "name": "user",
          "type": "address"
        },
        {
          "indexed": true,
          "internalType": "uint256",
          "name": "pid",
          "type": "uint256"
        },
        {
          "indexed": false,
          "internalType": "uint256",
          "name": "amount",
          "type": "uint256"
        }
      ],
      "name": "Withdraw",
      "type": "event"
    },
    {
      "inputs": [
        {
          "internalType": "uint256",
          "name": "_allocPoint",
          "type": "uint256"
        },
        {
          "internalType": "contract IERC20",
          "name": "_lpToken",
          "type": "address"
        },
        {
          "internalType": "bool",
          "name": "_withUpdate",
          "type": "bool"
        }
      ],
      "name": "add",
      "outputs": [],
      "stateMutability": "nonpayable",
      "type": "function"
    },
    {
      "inputs": [
        {
          "internalType": "uint256",
          "name": "_pid",
          "type": "uint256"
        },
        {
          "internalType": "uint256",
          "name": "_amount",
          "type": "uint256"
        }
      ],
      "name": "deposit",
      "outputs": [],
      "stateMutability": "nonpayable",
      "type": "function"
    },
    {
      "inputs": [
        {
          "internalType": "uint256",
          "name": "_pid",
          "type": "uint256"
        }
      ],
      "name": "emergencyWithdraw",
      "outputs": [],
      "stateMutability": "nonpayable",
      "type": "function"
    },
    {
      "inputs": [
        {
          "internalType": "uint256",
          "name": "_from",
          "type": "uint256"
        },
        {
          "internalType": "uint256",
          "name": "_to",
          "type": "uint256"
        }
      ],
      "name": "getMultiplier",
      "outputs": [
        {
          "internalType": "uint256",
          "name": "",
          "type": "uint256"
        }
      ],
      "stateMutability": "pure",
      "type": "function"
    },
    {
      "inputs": [],
      "name": "kld",
      "outputs": [
        {
          "internalType": "contract IERC20",
          "name": "",
          "type": "address"
        }
      ],
      "stateMutability": "view",
      "type": "function"
    },
    {
      "inputs": [],
      "name": "kldPerBlock",
      "outputs": [
        {
          "internalType": "uint256",
          "name": "",
          "type": "uint256"
        }
      ],
      "stateMutability": "view",
      "type": "function"
    },
    {
      "inputs": [],
      "name": "massUpdatePools",
      "outputs": [],
      "stateMutability": "nonpayable",
      "type": "function"
    },
    {
      "inputs": [],
      "name": "owner",
      "outputs": [
        {
          "internalType": "address",
          "name": "",
          "type": "address"
        }
      ],
      "stateMutability": "view",
      "type": "function"
    },
    {
      "inputs": [
        {
          "internalType": "uint256",
          "name": "_pid",
          "type": "uint256"
        },
        {
          "internalType": "address",
          "name": "_user",
          "type": "address"
        }
      ],
      "name": "pendingKld",
      "outputs": [
        {
          "internalType": "uint256",
          "name": "",
          "type": "uint256"
        }
      ],
      "stateMutability": "view",
      "type": "function"
    },
    {
      "inputs": [
        {
          "internalType": "uint256",
          "name": "",
          "type": "uint256"
        }
      ],
      "name": "poolInfo",
      "outputs": [
        {
          "internalType": "contract IERC20",
          "name": "lpToken",
          "type": "address"
        },
        {
          "internalType": "uint256",
          "name": "allocPoint",
          "type": "uint256"
        },
        {
          "internalType": "uint256",
          "name": "lastRewardBlock",
          "type": "uint256"
        },
        {
          "internalType": "uint256",
          "name": "accKldPerShare",
          "type": "uint256"
        }
      ],
      "stateMutability": "view",
      "type": "function"
    },
    {
      "inputs": [],
      "name": "poolLength",
      "outputs": [
        {
          "internalType": "uint256",
          "name": "",
          "type": "uint256"
        }
      ],
      "stateMutability": "view",
      "type": "function"
    },
    {
      "inputs": [],
      "name": "renounceOwnership",
      "outputs": [],
      "stateMutability": "nonpayable",
      "type": "function"
    },
    {
      "inputs": [
        {
          "internalType": "uint256",
          "name": "_pid",
          "type": "uint256"
        },
        {
          "internalType": "uint256",
          "name": "_allocPoint",
          "type": "uint256"
        },
        {
          "internalType": "bool",
          "name": "_withUpdate",
          "type": "bool"
        }
      ],
      "name": "set",
      "outputs": [],
      "stateMutability": "nonpayable",
      "type": "function"
    },
    {
      "inputs": [],
      "name": "startBlock",
      "outputs": [
        {
          "internalType": "uint256",
          "name": "",
          "type": "uint256"
        }
      ],
      "stateMutability": "view",
      "type": "function"
    },
    {
      "inputs": [],
      "name": "totalAllocPoint",
      "outputs": [
        {
          "internalType": "uint256",
          "name": "",
          "type": "uint256"
        }
      ],
      "stateMutability": "view",
      "type": "function"
    },
    {
      "inputs": [
        {
          "internalType": "address",
          "name": "newOwner",
          "type": "address"
        }
      ],
      "name": "transferOwnership",
      "outputs": [],
      "stateMutability": "nonpayable",
      "type": "function"
    },
    {
      "inputs": [
        {
          "internalType": "uint256",
          "name": "_pid",
          "type": "uint256"
        }
      ],
      "name": "updatePool",
      "outputs": [],
      "stateMutability": "nonpayable",
      "type": "function"
    },
    {
      "inputs": [
        {
          "internalType": "uint256",
          "name": "",
          "type": "uint256"
        },
        {
          "internalType": "address",
          "name": "",
          "type": "address"
        }
      ],
      "name": "userInfo",
      "outputs": [
        {
          "internalType": "uint256",
          "name": "amount",
          "type": "uint256"
        },
        {
          "internalType": "uint256",
          "name": "rewardDebt",
          "type": "uint256"
        }
      ],
      "stateMutability": "view",
      "type": "function"
    },
    {
      "inputs": [
        {
          "internalType": "uint256",
          "name": "_pid",
          "type": "uint256"
        },
        {
          "internalType": "uint256",
          "name": "_amount",
          "type": "uint256"
        }
      ],
      "name": "withdraw",
      "outputs": [],
      "stateMutability": "nonpayable",
      "type": "function"
    }
  ],
  "bytecode": "0x6080346100dd57601f610ee038819003918201601f19168301916001600160401b038311848410176100e2578084926060946040528339810103126100dd5780516001600160a01b0391828216918290036100dd57604060208201519101519133156100c45760005460018060a01b0319903382821617600055604051953391167f8be0079c531659141344cd1fd0a4f28419497f9722a3daafe3b4186f6b6457e0600080a360006005556001541617600155600255600655610de790816100f98239f35b604051631e4fbdf760e01b815260006004820152602490fd5b600080fd5b634e487b7160e01b600052604160045260246000fdfe608060408181526004908136101561001657600080fd5b600092833560e01c908163081e3eda146109c7575080631526fe271461096a57806317caf6f11461094b5780631eaaa045146108155780632e264e58146107f6578063441a3e70146106c757806348cd4cb1146106a857806351eb05a61461068b578381635312ea8e1461060457508063630b5ba1146105e857806364482f7914610579578063715018a61461051c5780638da5cb5b146104f45780638dbb1e3a146104d957806393f1a40b1461048f578063e2bbb15814610334578063e8546e29146101b4578063f16f6246146101875763f2fde38b146100f757600080fd5b34610183576020366003190112610183576001600160a01b0382358181169391929084900361017f57610128610a73565b831561016957505082546001600160a01b0319811683178455167f8be0079c531659141344cd1fd0a4f28419497f9722a3daafe3b4186f6b6457e08380a380f35b51631e4fbdf760e01b8152908101849052602490fd5b8480fd5b8280fd5b8382346101b057816003193601126101b05760015490516001600160a01b039091168152602090f35b5080fd5b50903461018357816003193601126101835780359060246101d3610a5d565b916101dd846109e3565b5093865260209581875285812060018060a01b038095168252875285812094876003820154958254168851958680926370a0823160e01b825230888301525afa93841561032a5782946102fb575b506002810154804311806102f2575b610269575b888861026289600164e8d4a510006102588c8454610b07565b0491015490610afa565b9051908152f35b61029a91600161028861027f6102919443610afa565b60025490610b07565b91015490610b07565b60055490610b1a565b9164e8d4a51000928381029381850414901517156102df5750506102586102d761026295946102d160019564e8d4a5100095610b1a565b90610a9f565b93943861023f565b634e487b7160e01b825260119052602490fd5b5084151561023a565b9093508781813d8311610323575b6103138183610ac2565b810103126101b05751923861022b565b503d610309565b87513d84823e3d90fd5b50346101835761034336610a47565b91909261034f846109e3565b50848652816020528286203387526020528286209161036d86610b7b565b825480610455575b50846103c7575b5064e8d4a510006103966001926003855491015490610b07565b04910155519081527f90890809c654f11d6e72a28fa60149770a0d11ec6c92319d6ceb2bb0a4ea1a1560203392a380f35b815484516323b872dd60e01b602082015233602482015230604482015260648082018890528152916001600160a01b039091169060a083019083821067ffffffffffffffff83111761044257509261042d64e8d4a5100093610396936001968952610c6e565b610438878654610a9f565b855592505061037c565b634e487b7160e01b8a5260419052602489fd5b64e8d4a5100061046d61047992600386015490610b07565b04600185015490610afa565b8015610375576104899033610d1c565b38610375565b5090346101835781600319360112610183579181926104ac610a5d565b90803583526020528282209060018060a01b03168252602052206001815491015482519182526020820152f35b8382346101b0576020906102626104ef36610a47565b610afa565b8382346101b057816003193601126101b057905490516001600160a01b039091168152602090f35b8334610576578060031936011261057657610535610a73565b80546001600160a01b03198116825581906001600160a01b03167f8be0079c531659141344cd1fd0a4f28419497f9722a3daafe3b4186f6b6457e08280a380f35b80fd5b5050346101b05760603660031901126101b0573560016105d56024359261059e610a33565b6105a6610a73565b6105db575b6105cd846105c8600554866105bf866109e3565b50015490610afa565b610a9f565b6005556109e3565b50015580f35b6105e3610b3a565b6105ab565b8334610576578060031936011261057657610601610b3a565b80f35b9290503461068757602036600319011261068757600191813590610627826109e3565b509282865260205280852033865260205261065281862093858060a01b039054168454903390610cca565b825490519081527fbb757047c2b5f3974fe26b7c10f732e7bce710b0952a71082702781e62ae059560203392a3828155015580f35b5050fd5b5050346101b05760203660031901126101b0576106019035610b7b565b8382346101b057816003193601126101b0576020906006549051908152f35b5034610183576106d636610a47565b9190926106e2846109e3565b50908486528060205282862033875260205282862090848254106107be575061075561072a9161071187610b7b565b805490600385019164e8d4a51000948591845490610b07565b049461073c6001830196875490610afa565b806107ae575b508780610785575b505054905490610b07565b049055519081527ff279e6a1f5e320cca91135676d9cb6e44ca8a08c0b88342bcdb1144f6511b56860203392a380f35b6107a791610794828554610afa565b84555433906001600160a01b0316610cca565b388761074a565b6107b89033610d1c565b38610742565b606490602085519162461bcd60e51b835282015260126024820152711dda5d1a191c985dce881b9bdd0819dbdbd960721b6044820152fd5b8382346101b057816003193601126101b0576020906002549051908152f35b508290346101b05760603660031901126101b0576001600160a01b03602435818116929085359084900361017f5761084b610a33565b610853610a73565b61093e575b600654804311600014610938575043915b61087582600554610a9f565b6005558051946080860186811067ffffffffffffffff8211176109255782528552602085019182528401918252606084019285845260035468010000000000000000811015610912578060016108ce92016003556109e3565b959095610900575185546001600160a01b03191691161784555160018401555160028301555160039190910155905080f35b634e487b7160e01b8752868852602487fd5b634e487b7160e01b875260418852602487fd5b634e487b7160e01b885260418952602488fd5b91610869565b610946610b3a565b610858565b8382346101b057816003193601126101b0576020906005549051908152f35b50903461018357602036600319011261018357359160035483101561057657506109956080926109e3565b509060018060a01b03825416916001810154916003600283015492015492815194855260208501528301526060820152f35b8490346101b057816003193601126101b0576020906003548152f35b600354811015610a1d57600360005260021b7fc2575a0e9e593c00f959f8c92f12db2869c3395a3b0502d05e2516446f71f85b0190600090565b634e487b7160e01b600052603260045260246000fd5b604435908115158203610a4257565b600080fd5b6040906003190112610a42576004359060243590565b602435906001600160a01b0382168203610a4257565b6000546001600160a01b03163303610a8757565b60405163118cdaa760e01b8152336004820152602490fd5b91908201809211610aac57565b634e487b7160e01b600052601160045260246000fd5b90601f8019910116810190811067ffffffffffffffff821117610ae457604052565b634e487b7160e01b600052604160045260246000fd5b91908203918211610aac57565b81810292918115918404141715610aac57565b8115610b24570490565b634e487b7160e01b600052601260045260246000fd5b6003546000805b828110610b4d57505050565b610b5681610b7b565b6000198114610b6757600101610b41565b634e487b7160e01b82526011600452602482fd5b610b84906109e3565b5060028101908154431115610c6a5780546040516370a0823160e01b815230600482015290602090829060249082906001600160a01b03165afa908115610c5e57600091610c2d575b508015610c26576003610bf5610291610bea61027f875443610afa565b600186015490610b07565b92019182549064e8d4a5100090818102918183041490151715610aac57610c1f926102d191610b1a565b9055439055565b5050439055565b906020823d8211610c56575b81610c4660209383610ac2565b8101031261057657505138610bcd565b3d9150610c39565b6040513d6000823e3d90fd5b5050565b906000602091828151910182855af115610c5e576000513d610cc157506001600160a01b0381163b155b610c9f5750565b604051635274afe760e01b81526001600160a01b039091166004820152602490fd5b60011415610c98565b60405163a9059cbb60e01b60208201526001600160a01b039092166024830152604480830193909352918152608081019167ffffffffffffffff831182841017610ae457610d1a92604052610c6e565b565b6001546040516370a0823160e01b81523060048201526001600160a01b039182169390929190602084602481885afa938415610c5e57600094610d7e575b5083811115610d725750610d1a935060015416610cca565b925050610d1a92610cca565b90936020823d8211610da9575b81610d9860209383610ac2565b810103126105765750519238610d5a565b3d9150610d8b56fea26469706673582212204f61abe344bf49e0a62427ef3914a6ffbb4212985aba816bd2e747df396a014e64736f6c63430008140033",
  "linkReferences": {},
  "deployedLinkReferences": {}
}