{
  "_format": "hh-sol-artifact-1",
  "contractName": "PoolTicksCounterTest",
  "sourceName": "contracts/dex-v3/periphery/test/PoolTicksCounterTest.sol",
  "abi": [
    {
      "inputs": [
        {
          "internalType": "contract IKaleidoSwapV3Pool",
          "name": "pool",
          "type": "address"
        },
        {
          "internalType": "int24",
          "name": "tickBefore",
          "type": "int24"
        },
        {
          "internalType": "int24",
          "name": "tickAfter",
          "type": "int24"
        }
      ],
      "name": "countInitializedTicksCrossed",
      "outputs": [
        {
          "internalType": "uint32",
          "name": "initializedTicksCrossed",
          "type": "uint32"
        }
      ],
      "stateMutability": "view",
      "type": "function"
    }
  ],
  "bytecode": "0x608080604052346100165761067b908161001c8239f35b600080fdfe608080604052600436101561001357600080fd5b60003560e01c634c5b941c1461002857600080fd5b3461033f57606036600319011261033f576004356001600160a01b038116810361033f5760243560020b6024350361033f5760443560020b6044350361033f576334324e9f60e21b82526000916020816004816001600160a01b0386165afa801561034c576100a291600091610574575b506024356105e4565b6040516334324e9f60e21b815260029190910b91906020816004816001600160a01b0386165afa801561034c576100e96101009160ff9360009161057457506024356105e4565b60020b0716916040516334324e9f60e21b815260208160048160018060a01b0387165afa801561034c5761012891600091610555575b506044356105e4565b6040516334324e9f60e21b815260029190910b906020816004816001600160a01b0388165afa801561034c5761016e6101009160ff9360009161055557506044356105e4565b60020b071660405163299ce14b60e11b81528260081d60010b600482015260208160248160018060a01b0389165afa90811561034c57600091610523575b506001821b16151592836104bd575b836104a8575b60405163299ce14b60e11b8152600882901d60010b60048201526020816024816001600160a01b038a165afa90811561034c57600091610476575b506001871b1615159081610400575b816103eb575b8360081d60010b8160081d60010b1280156103cb575b156103b15760081d60010b959260081d60010b9192969095965b60ff60001991161b5b8260010b8860010b13610376578260010b8860010b14610358575b60405163299ce14b60e11b8152600189900b60048201526020816024816001600160a01b038b165afa90811561034c57600091610315575b5016806000915b6102ef575061ffff1663ffffffff918216019081116102d95795617fff8160010b146102d957600190810b019560001961024a565b634e487b7160e01b600052601160045260246000fd5b9061ffff8091169081146102d957600101906000198101908082116102d95716806102a4565b90506020813d602011610344575b8161033060209383610593565b8101031261033f57513861029d565b600080fd5b3d9150610323565b6040513d6000823e3d90fd5b60ff8085168103116102d95760001960ff8581168103161c16610265565b60208288876103a1575b610393575b63ffffffff60405191168152f35b61039c9061062f565b610385565b906103ab9061062f565b90610380565b600893841d600190810b989297949190911d900b91610241565b508360081d60010b8160081d60010b148015610227575082871115610227565b905060443560020b60243560020b1290610211565b6040516334324e9f60e21b81529091506020816004816001600160a01b038a165afa801561034c5761043d91600091610447575b5060243561061d565b60020b159061020b565b610469915060203d60201161046f575b6104618183610593565b8101906105cb565b38610434565b503d610457565b90506020813d6020116104a0575b8161049160209383610593565b8101031261033f5751386101fc565b3d9150610484565b925060443560020b60243560020b13926101c1565b6040516334324e9f60e21b81529093506020816004816001600160a01b0389165afa801561034c576104fa91600091610504575b5060443561061d565b60020b15926101bb565b61051d915060203d60201161046f576104618183610593565b386104f1565b90506020813d60201161054d575b8161053e60209383610593565b8101031261033f5751386101ac565b3d9150610531565b61056e915060203d60201161046f576104618183610593565b3861011f565b61058d915060203d60201161046f576104618183610593565b38610099565b90601f8019910116810190811067ffffffffffffffff8211176105b557604052565b634e487b7160e01b600052604160045260246000fd5b9081602091031261033f57518060020b810361033f5790565b60020b9060020b90811561060757627fffff1981146000198314166102d9570590565b634e487b7160e01b600052601260045260246000fd5b9060020b9081156106075760020b0790565b63ffffffff90811660001901919082116102d95756fea2646970667358221220ca30c20f4157398653dc9bf513f6a56da87608d9550ba01a99d59be45618ed6d64736f6c63430008140033",
  "linkReferences": {},
  "deployedLinkReferences": {}
}