{
  "_format": "hh-sol-artifact-1",
  "contractName": "PairFlash",
  "sourceName": "contracts/dex-v3/periphery/examples/PairFlash.sol",
  "abi": [
    {
      "inputs": [
        {
          "internalType": "contract ISwapRouter",
          "name": "_swapRouter",
          "type": "address"
        },
        {
          "internalType": "address",
          "name": "_factory",
          "type": "address"
        },
        {
          "internalType": "address",
          "name": "_WETH9",
          "type": "address"
        }
      ],
      "stateMutability": "nonpayable",
      "type": "constructor"
    },
    {
      "inputs": [],
      "name": "WETH9",
      "outputs": [
        {
          "internalType": "address",
          "name": "",
          "type": "address"
        }
      ],
      "stateMutability": "view",
      "type": "function"
    },
    {
      "inputs": [],
      "name": "factory",
      "outputs": [
        {
          "internalType": "address",
          "name": "",
          "type": "address"
        }
      ],
      "stateMutability": "view",
      "type": "function"
    },
    {
      "inputs": [
        {
          "components": [
            {
              "internalType": "address",
              "name": "token0",
              "type": "address"
            },
            {
              "internalType": "address",
              "name": "token1",
              "type": "address"
            },
            {
              "internalType": "uint24",
              "name": "fee1",
              "type": "uint24"
            },
            {
              "internalType": "uint256",
              "name": "amount0",
              "type": "uint256"
            },
            {
              "internalType": "uint256",
              "name": "amount1",
              "type": "uint256"
            },
            {
              "internalType": "uint24",
              "name": "fee2",
              "type": "uint24"
            },
            {
              "internalType": "uint24",
              "name": "fee3",
              "type": "uint24"
            }
          ],
          "internalType": "struct PairFlash.FlashParams",
          "name": "params",
          "type": "tuple"
        }
      ],
      "name": "initFlash",
      "outputs": [],
      "stateMutability": "nonpayable",
      "type": "function"
    },
    {
      "inputs": [
        {
          "internalType": "uint256",
          "name": "fee0",
          "type": "uint256"
        },
        {
          "internalType": "uint256",
          "name": "fee1",
          "type": "uint256"
        },
        {
          "internalType": "bytes",
          "name": "data",
          "type": "bytes"
        }
      ],
      "name": "kaleidoswapV3FlashCallback",
      "outputs": [],
      "stateMutability": "nonpayable",
      "type": "function"
    },
    {
      "inputs": [],
      "name": "refundETH",
      "outputs": [],
      "stateMutability": "payable",
      "type": "function"
    },
    {
      "inputs": [],
      "name": "swapRouter",
      "outputs": [
        {
          "internalType": "contract ISwapRouter",
          "name": "",
          "type": "address"
        }
      ],
      "stateMutability": "view",
      "type": "function"
    },
    {
      "inputs": [
        {
          "internalType": "address",
          "name": "token",
          "type": "address"
        },
        {
          "internalType": "uint256",
          "name": "amountMinimum",
          "type": "uint256"
        },
        {
          "internalType": "address",
          "name": "recipient",
          "type": "address"
        }
      ],
      "name": "sweepToken",
      "outputs": [],
      "stateMutability": "payable",
      "type": "function"
    },
    {
      "inputs": [
        {
          "internalType": "uint256",
          "name": "amountMinimum",
          "type": "uint256"
        },
        {
          "internalType": "address",
          "name": "recipient",
          "type": "address"
        }
      ],
      "name": "unwrapWETH9",
      "outputs": [],
      "stateMutability": "payable",
      "type": "function"
    },
    {
      "stateMutability": "payable",
      "type": "receive"
    }
  ],
  "bytecode": "0x60e06040523480156200001157600080fd5b50604051620016213803806200162183398101604081905262000034916200005c565b6001600160601b0319606092831b811660805290821b811660a05291901b1660c052620000c8565b60008060006060848603121562000071578283fd5b83516200007e81620000af565b60208501519093506200009181620000af565b6040850151909250620000a481620000af565b809150509250925092565b6001600160a01b0381168114620000c557600080fd5b50565b60805160601c60a05160601c60c05160601c6114e8620001396000398061052b5280610558528061066752806106ef52806107ee525080608f528061031c528061040752806104945280610c6e5280610cb45280610d2852508061021252806104cb528061081252506114e86000f3fe60806040526004361061007f5760003560e01c80639e5f77161161004e5780639e5f77161461015a578063c31c9c071461017a578063c45a01551461018f578063df2ab5bb146101a4576100ef565b806312210e8a146100f45780632384463b146100fc57806349404b7c1461011c5780634aa4a4fc1461012f576100ef565b366100ef57336001600160a01b037f000000000000000000000000000000000000000000000000000000000000000016146100ed576040805162461bcd60e51b81526020600482015260096024820152684e6f7420574554483960b81b604482015290519081900360640190fd5b005b600080fd5b6100ed6101b7565b34801561010857600080fd5b506100ed6101173660046111e3565b6101c9565b6100ed61012a366004611296565b610318565b34801561013b57600080fd5b50610144610492565b6040516101519190611345565b60405180910390f35b34801561016657600080fd5b506100ed6101753660046112c1565b6104b6565b34801561018657600080fd5b506101446107ec565b34801561019b57600080fd5b50610144610810565b6100ed6101b23660046110ca565b610834565b47156101c7576101c73347610912565b565b6000604051806060016040528083600001516001600160a01b0316815260200183602001516001600160a01b03168152602001836040015162ffffff16815250905060006102377f000000000000000000000000000000000000000000000000000000000000000083610a01565b9050806001600160a01b031663490e6cbc30856060015186608001516040518060c001604052808960600151815260200189608001518152602001336001600160a01b031681526020018881526020018960a0015162ffffff1681526020018960c0015162ffffff168152506040516020016102b39190611433565b6040516020818303038152906040526040518563ffffffff1660e01b81526004016102e19493929190611359565b600060405180830381600087803b1580156102fb57600080fd5b505af115801561030f573d6000803e3d6000fd5b50505050505050565b60007f00000000000000000000000000000000000000000000000000000000000000006001600160a01b03166370a08231306040518263ffffffff1660e01b815260040180826001600160a01b0316815260200191505060206040518083038186803b15801561038757600080fd5b505afa15801561039b573d6000803e3d6000fd5b505050506040513d60208110156103b157600080fd5b50519050828110156103ff576040805162461bcd60e51b8152602060048201526012602482015271496e73756666696369656e7420574554483960701b604482015290519081900360640190fd5b801561048d577f00000000000000000000000000000000000000000000000000000000000000006001600160a01b0316632e1a7d4d826040518263ffffffff1660e01b815260040180828152602001915050600060405180830381600087803b15801561046b57600080fd5b505af115801561047f573d6000803e3d6000fd5b5050505061048d8282610912565b505050565b7f000000000000000000000000000000000000000000000000000000000000000081565b60006104c482840184611105565b90506104f47f00000000000000000000000000000000000000000000000000000000000000008260600151610ae5565b506060810151805160209091015182516000906105119089610b0e565b90506000610523856020015189610b0e565b9050610554837f00000000000000000000000000000000000000000000000000000000000000008760200151610b1e565b60007f00000000000000000000000000000000000000000000000000000000000000006001600160a01b031663414bf389604051806101000160405280876001600160a01b03168152602001886001600160a01b03168152602001896080015162ffffff168152602001306001600160a01b031681526020014281526020018960200151815260200186815260200160006001600160a01b03168152506040518263ffffffff1660e01b815260040161060d91906113ca565b602060405180830381600087803b15801561062757600080fd5b505af115801561063b573d6000803e3d6000fd5b505050506040513d601f19601f8201168201806040525081019061065f919061127e565b9050610690857f00000000000000000000000000000000000000000000000000000000000000008860000151610b1e565b60408051610100810182526001600160a01b038781168252868116602083015260a08981015162ffffff168385015230606084015242608084015289519083015260c08201859052600060e08301819052925163414bf38960e01b81527f00000000000000000000000000000000000000000000000000000000000000009091169163414bf3899161072591906004016113ca565b602060405180830381600087803b15801561073f57600080fd5b505af1158015610753573d6000803e3d6000fd5b505050506040513d601f19601f82011682018060405250810190610777919061127e565b9050831561078b5761078b86303387610c6c565b821561079d5761079d85303386610c6c565b838211156107be57600084830390506107bc87308a6040015184610c6c565b505b828111156107df57600083820390506107dd86308a6040015184610c6c565b505b5050505050505050505050565b7f000000000000000000000000000000000000000000000000000000000000000081565b7f000000000000000000000000000000000000000000000000000000000000000081565b6000836001600160a01b03166370a08231306040518263ffffffff1660e01b815260040180826001600160a01b0316815260200191505060206040518083038186803b15801561088357600080fd5b505afa158015610897573d6000803e3d6000fd5b505050506040513d60208110156108ad57600080fd5b50519050828110156108fb576040805162461bcd60e51b815260206004820152601260248201527124b739bab33334b1b4b2b73a103a37b5b2b760711b604482015290519081900360640190fd5b801561090c5761090c848383610dfc565b50505050565b604080516000808252602082019092526001600160a01b0384169083906040518082805190602001908083835b6020831061095e5780518252601f19909201916020918201910161093f565b6001836020036101000a03801982511681845116808217855250505050505090500191505060006040518083038185875af1925050503d80600081146109c0576040519150601f19603f3d011682016040523d82523d6000602084013e6109c5565b606091505b505090508061048d576040805162461bcd60e51b815260206004820152600360248201526253544560e81b604482015290519081900360640190fd5b600081602001516001600160a01b031682600001516001600160a01b031610610a2957600080fd5b50805160208083015160409384015184516001600160a01b0394851681850152939091168385015262ffffff166060808401919091528351808403820181526080840185528051908301206001600160f81b031960a085015294901b6bffffffffffffffffffffffff191660a183015260b58201939093527fe34f199b19b2b4f47f68442619d555527d244f78a3297ea89325f843f87b8b5460d5808301919091528251808303909101815260f5909101909152805191012090565b6000610af18383610a01565b9050336001600160a01b03821614610b0857600080fd5b92915050565b80820182811015610b0857600080fd5b604080516001600160a01b038481166024830152604480830185905283518084039091018152606490920183526020820180516001600160e01b031663095ea7b360e01b1781529251825160009485949389169392918291908083835b60208310610b9a5780518252601f199092019160209182019101610b7b565b6001836020036101000a0380198251168184511680821785525050505050509050019150506000604051808303816000865af19150503d8060008114610bfc576040519150601f19603f3d011682016040523d82523d6000602084013e610c01565b606091505b5091509150818015610c2f575080511580610c2f5750808060200190516020811015610c2c57600080fd5b50515b610c65576040805162461bcd60e51b8152602060048201526002602482015261534160f01b604482015290519081900360640190fd5b5050505050565b7f00000000000000000000000000000000000000000000000000000000000000006001600160a01b0316846001600160a01b0316148015610cad5750804710155b15610dcf577f00000000000000000000000000000000000000000000000000000000000000006001600160a01b031663d0e30db0826040518263ffffffff1660e01b81526004016000604051808303818588803b158015610d0d57600080fd5b505af1158015610d21573d6000803e3d6000fd5b50505050507f00000000000000000000000000000000000000000000000000000000000000006001600160a01b031663a9059cbb83836040518363ffffffff1660e01b815260040180836001600160a01b0316815260200182815260200192505050602060405180830381600087803b158015610d9d57600080fd5b505af1158015610db1573d6000803e3d6000fd5b505050506040513d6020811015610dc757600080fd5b5061090c9050565b6001600160a01b038316301415610df057610deb848383610dfc565b61090c565b61090c84848484610f43565b604080516001600160a01b038481166024830152604480830185905283518084039091018152606490920183526020820180516001600160e01b031663a9059cbb60e01b1781529251825160009485949389169392918291908083835b60208310610e785780518252601f199092019160209182019101610e59565b6001836020036101000a0380198251168184511680821785525050505050509050019150506000604051808303816000865af19150503d8060008114610eda576040519150601f19603f3d011682016040523d82523d6000602084013e610edf565b606091505b5091509150818015610f0d575080511580610f0d5750808060200190516020811015610f0a57600080fd5b50515b610c65576040805162461bcd60e51b815260206004820152600260248201526114d560f21b604482015290519081900360640190fd5b604080516001600160a01b0385811660248301528481166044830152606480830185905283518084039091018152608490920183526020820180516001600160e01b03166323b872dd60e01b178152925182516000948594938a169392918291908083835b60208310610fc75780518252601f199092019160209182019101610fa8565b6001836020036101000a0380198251168184511680821785525050505050509050019150506000604051808303816000865af19150503d8060008114611029576040519150601f19603f3d011682016040523d82523d6000602084013e61102e565b606091505b509150915081801561105c57508051158061105c575080806020019051602081101561105957600080fd5b50515b611093576040805162461bcd60e51b815260206004820152600360248201526229aa2360e91b604482015290519081900360640190fd5b505050505050565b80356001600160a01b03811681146110b257600080fd5b919050565b803562ffffff811681146110b257600080fd5b6000806000606084860312156110de578283fd5b6110e78461109b565b9250602084013591506110fc6040850161109b565b90509250925092565b6000818303610100811215611118578182fd5b6040805160c0810167ffffffffffffffff828210818311171561113757fe5b818452863583526020870135602084015261115384880161109b565b838501526060605f1986011215611168578586fd5b83519450606085019150848210818311171561118057fe5b50825261118f6060860161109b565b835261119d6080860161109b565b60208401526111ae60a086016110b7565b828401528260608201526111c460c086016110b7565b60808201526111d560e086016110b7565b60a082015295945050505050565b600060e082840312156111f4578081fd5b60405160e0810181811067ffffffffffffffff8211171561121157fe5b60405261121d8361109b565b815261122b6020840161109b565b602082015261123c604084016110b7565b6040820152606083013560608201526080830135608082015261126160a084016110b7565b60a082015261127260c084016110b7565b60c08201529392505050565b60006020828403121561128f578081fd5b5051919050565b600080604083850312156112a8578182fd5b823591506112b86020840161109b565b90509250929050565b600080600080606085870312156112d6578081fd5b8435935060208501359250604085013567ffffffffffffffff808211156112fb578283fd5b818701915087601f83011261130e578283fd5b81358181111561131c578384fd5b88602082850101111561132d578384fd5b95989497505060200194505050565b62ffffff169052565b6001600160a01b0391909116815260200190565b600060018060a01b038616825260208581840152846040840152608060608401528351806080850152825b818110156113a05785810183015185820160a001528201611384565b818111156113b1578360a083870101525b50601f01601f19169290920160a0019695505050505050565b81516001600160a01b03908116825260208084015182169083015260408084015162ffffff16908301526060808401518216908301526080808401519083015260a0838101519083015260c0808401519083015260e09283015116918101919091526101000190565b81518152602080830151818301526040808401516001600160a01b03908116828501526060808601518051831691860191909152928301511660808085019190915291015162ffffff1660a083015282015161010082019061149860c084018261133c565b5060a08301516114ab60e084018261133c565b509291505056fea2646970667358221220cbf0e48528a158f351698ddfba889761697036333d873ff6fd027c67079cec7764736f6c63430007060033",
  "linkReferences": {},
  "deployedLinkReferences": {}
}