{
  "_format": "hh-sol-artifact-1",
  "contractName": "Diamond",
  "sourceName": "contracts/Diamond.sol",
  "abi": [
    {
      "inputs": [
        {
          "internalType": "address",
          "name": "_contractOwner",
          "type": "address"
        },
        {
          "internalType": "address",
          "name": "_diamondCutFacet",
          "type": "address"
        }
      ],
      "stateMutability": "payable",
      "type": "constructor"
    },
    {
      "inputs": [],
      "name": "EmptyCalldata",
      "type": "error"
    },
    {
      "inputs": [
        {
          "internalType": "bytes4",
          "name": "selector",
          "type": "bytes4"
        }
      ],
      "name": "ImmutableFunction",
      "type": "error"
    },
    {
      "inputs": [],
      "name": "InValidFacetCutAction",
      "type": "error"
    },
    {
      "inputs": [],
      "name": "InitCallFailed",
      "type": "error"
    },
    {
      "inputs": [],
      "name": "MustBeZeroAddress",
      "type": "error"
    },
    {
      "inputs": [],
      "name": "NoCode",
      "type": "error"
    },
    {
      "inputs": [],
      "name": "NoSelectorsInFacet",
      "type": "error"
    },
    {
      "inputs": [],
      "name": "NoZeroAddress",
      "type": "error"
    },
    {
      "inputs": [],
      "name": "NonEmptyCalldata",
      "type": "error"
    },
    {
      "inputs": [
        {
          "internalType": "bytes4",
          "name": "selector",
          "type": "bytes4"
        }
      ],
      "name": "NonExistentSelector",
      "type": "error"
    },
    {
      "inputs": [],
      "name": "NotDiamondOwner",
      "type": "error"
    },
    {
      "inputs": [],
      "name": "Protocol__tokensAndPriceFeedsArrayMustBeSameLength",
      "type": "error"
    },
    {
      "inputs": [
        {
          "internalType": "bytes4",
          "name": "selector",
          "type": "bytes4"
        }
      ],
      "name": "SameSelectorReplacement",
      "type": "error"
    },
    {
      "inputs": [
        {
          "internalType": "bytes4",
          "name": "selector",
          "type": "bytes4"
        }
      ],
      "name": "SelectorExists",
      "type": "error"
    },
    {
      "anonymous": false,
      "inputs": [
        {
          "components": [
            {
              "internalType": "address",
              "name": "facetAddress",
              "type": "address"
            },
            {
              "internalType": "enum IDiamondCut.FacetCutAction",
              "name": "action",
              "type": "uint8"
            },
            {
              "internalType": "bytes4[]",
              "name": "functionSelectors",
              "type": "bytes4[]"
            }
          ],
          "indexed": false,
          "internalType": "struct IDiamondCut.FacetCut[]",
          "name": "_diamondCut",
          "type": "tuple[]"
        },
        {
          "indexed": false,
          "internalType": "address",
          "name": "_init",
          "type": "address"
        },
        {
          "indexed": false,
          "internalType": "bytes",
          "name": "_calldata",
          "type": "bytes"
        }
      ],
      "name": "DiamondCut",
      "type": "event"
    },
    {
      "anonymous": false,
      "inputs": [
        {
          "indexed": true,
          "internalType": "address",
          "name": "previousOwner",
          "type": "address"
        },
        {
          "indexed": true,
          "internalType": "address",
          "name": "newOwner",
          "type": "address"
        }
      ],
      "name": "OwnershipTransferred",
      "type": "event"
    },
    {
      "stateMutability": "payable",
      "type": "fallback"
    },
    {
      "inputs": [],
      "name": "example",
      "outputs": [
        {
          "internalType": "string",
          "name": "",
          "type": "string"
        }
      ],
      "stateMutability": "pure",
      "type": "function"
    },
    {
      "inputs": [
        {
          "internalType": "address[]",
          "name": "_tokens",
          "type": "address[]"
        },
        {
          "internalType": "bytes32[]",
          "name": "_priceFeeds",
          "type": "bytes32[]"
        }
      ],
      "name": "initialize",
      "outputs": [],
      "stateMutability": "nonpayable",
      "type": "function"
    },
    {
      "stateMutability": "payable",
      "type": "receive"
    }
  ],
  "bytecode": "0x60806001600160401b03601f6200118038819003918201601f1916840191838311858410176200064c5780859260409485528339810103126200068d576200005560206200004d84620006d2565b9301620006d2565b7fc8fcad8db84d3cc18b4c41d551ea0ee66dd599cde068d998e57d5e09332c132080546001600160a01b039485166001600160a01b03198216811790925591939091167f8be0079c531659141344cd1fd0a4f28419497f9722a3daafe3b4186f6b6457e0600080a3620000c7620006b2565b916001835260005b60208110620006625750620000e3620006b2565b60018152602036818301376307e4c70760e21b6200010182620006e7565b526200010c62000692565b6001600160a01b0390921682526000602083015260408201526200013083620006e7565b526200013c82620006e7565b506040519060208201908111828210176200064c57604052600081526000905b8251821015620004e25760206200017483856200070b565b5101516003811015620004cc5780620002da57506001600160a01b036200019c83856200070b565b515116926040620001ae84836200070b565b51015190815115620002c8578415620002b6576001600160a01b03851660009081526000805160206200116083398151915260205260409020546001600160601b0316908115620002a5575b6000915b83518310156200028c576001600160e01b03196200021d84866200070b565b511660008181526000805160206200112083398151915260205260409020546001600160a01b031662000274578162000260896200026d9462000266946200084f565b62000746565b9262000720565b91620001fe565b6024906040519063501e70c760e01b82526004820152fd5b5094505050906200029e905b62000720565b906200015c565b620002b08662000788565b620001fa565b60405163ddbadd5f60e01b8152600490fd5b60405163092d2fe560e41b8152600490fd5b60018103620003fc57506001600160a01b03620002f883856200070b565b5151169260406200030a84836200070b565b51015190815115620002c8578415620002b6576001600160a01b03851660009081526000805160206200116083398151915260205260409020546001600160601b0316908115620003eb575b6000915b83518310156200028c576001600160e01b03196200037984866200070b565b511660008181526000805160206200112083398151915260205260409020546001600160a01b0316888114620003d2579162000260898284620003c56200026696620003cb9862000940565b6200084f565b916200035a565b604051631c04188b60e31b815260048101839052602490fd5b620003f68662000788565b62000356565b600203620004bb576001600160a01b036200041883856200070b565b5151169260406200042a84836200070b565b51015193845115620002c857620004a95760005b84518110156200049a576200049490620002986001600160e01b03196200046683896200070b565b511660008181526000805160206200112083398151915260205260409020546001600160a01b031662000940565b6200043e565b509250906200029e9062000720565b604051631be65fe560e21b8152600490fd5b60405162c5e5d760e31b8152600490fd5b634e487b7160e01b600052602160045260246000fd5b8260405190606082016060835281518091526080830190602060808260051b8601019301916000905b828210620005b05750505050600060208301528181036040830152825180825260005b8181106200059a57508282826000602080957f8faa70878671ccd212d20771b795c50af8fd3ff6cf27f4bde57e5d4de0aeb6739897010152601f801991011601030190a151620005885760405161054c908162000bd48239f35b60405163c21b1ab760e01b8152600490fd5b806020809287010151828286010152016200052e565b858503607f19018152835180516001600160a01b0316865260208101519495939492939192906003821015620004cc576040916020840152015190606060408201526020608060608301928451809452019201906000905b80821062000628575050506020806001929601920192019092916200050b565b82516001600160e01b03191684526020938401939092019160019091019062000608565b634e487b7160e01b600052604160045260246000fd5b6020906200066f62000692565b600081526000838201526060604082015282828701015201620000cf565b600080fd5b60405190606082016001600160401b038111838210176200064c57604052565b60408051919082016001600160401b038111838210176200064c57604052565b51906001600160a01b03821682036200068d57565b805115620006f55760200190565b634e487b7160e01b600052603260045260246000fd5b8051821015620006f55760209160051b010190565b6000198114620007305760010190565b634e487b7160e01b600052601160045260246000fd5b6001600160601b03908116908114620007305760010190565b600080516020620011408339815191528054821015620006f55760005260206000200190600090565b803b1562000819576000805160206200114083398151915280546001600160a01b038316600090815260008051602062001160833981519152602052604090206001018190559190680100000000000000008310156200064c5782620007f891600162000817950190556200075f565b90919082549060031b9160018060a01b03809116831b921b1916179055565b565b604051633c11a9c560e21b8152600490fd5b9190918054831015620006f557600052601c60206000208360031c019260021b1690565b6001600160e01b0319811660008181526000805160206200112083398151915260208190526040822080546001600160a01b031660a09690961b6001600160a01b031916959095179094559194939092906001600160a01b03168083526000805160206200116083398151915260205260408320805491949190680100000000000000008210156200092c5796620008f6826040979899600162000913950181556200082b565b90919063ffffffff83549160031b9260e01c831b921b1916179055565b82526020522080546001600160a01b0319169091179055565b634e487b7160e01b85526041600452602485fd5b9091906001600160a01b03908116801562000bb25730811462000b905763ffffffff60e01b80941660009281845260008051602062001120833981519152926020918483526040948587205460a01c90838852600080516020620011608339815191529586865287892054926000199b8c850194851162000b7c57908991888c898c8980870362000b07575b50509052505050878752508789208054801562000af3578c0190620009f282826200082b565b63ffffffff82549160031b1b19169055558852845286868120551562000a1d575b5050505050509050565b60008051602062001140833981519152805489810190811162000adf57838852858552826001888a2001549180830362000aa7575b505050805498891562000a93576001979899019162000a71836200075f565b909182549160031b1b1916905555855252822001558038808080808062000a13565b634e487b7160e01b88526031600452602488fd5b62000ab2906200075f565b90549060031b1c1662000aca81620007f8846200075f565b88528585526001878920015538828162000a52565b634e487b7160e01b88526011600452602488fd5b634e487b7160e01b8b52603160045260248bfd5b62000b6e9784620008f69362000b2b8a948762000b429952828a528484206200082b565b90549060031b1c60e01b978896835252206200082b565b168b52838852898b2080546001600160a01b031660a09290921b6001600160a01b031916919091179055565b873880888c898c89620009cc565b634e487b7160e01b8b52601160045260248bfd5b60405163069731c560e41b81526001600160e01b031985166004820152602490fd5b604051622902d360e91b81526001600160e01b031985166004820152602490fdfe6040608081526004361015610017575b503661046d57005b6000803560e01c91826354353f2f1461004157505063bab5adc31461003c573861000f565b6101bb565b346100de57816003193601126100de576100596100f8565b602b81526020907f5448495320495320414e204558414d504c45204f4620414e20494d4d55544142828201526a262290232aa721aa24a7a760a91b8382015282519382859384528251928382860152825b8481106100c857505050828201840152601f01601f19168101030190f35b81810183015188820188015287955082016100aa565b5080fd5b634e487b7160e01b600052604160045260246000fd5b604051906060820182811067ffffffffffffffff82111761011857604052565b6100e2565b6040519190601f01601f1916820167ffffffffffffffff81118382101761011857604052565b67ffffffffffffffff81116101185760051b60200190565b9080601f830112156101b65781359061017b61017683610143565b61011d565b9182938184526020808095019260051b8201019283116101b6578301905b8282106101a7575050505090565b81358152908301908301610199565b600080fd5b346101b65760403660031901126101b65767ffffffffffffffff6004358181116101b657366023820112156101b6578060040135906101fc61017683610143565b908192808352602460208094019160051b830101913683116101b657602401905b82821061024857602435858782116101b65761024061024692369060040161015b565b90610326565b005b81356001600160a01b03811681036101b657815290830190830161021d565b60ff1660ff81146102785760010190565b634e487b7160e01b600052601160045260246000fd5b634e487b7160e01b600052603260045260246000fd5b80518210156102b85760209160051b010190565b61028e565b600d5468010000000000000000811015610118576001810180600d558110156102b857600d6000527fd7b6990105719101dabeb77144f2a3385c8033acd3af97e9423a695e81ad1eb50180546001600160a01b0319166001600160a01b03909216919091179055565b7fc8fcad8db84d3cc18b4c41d551ea0ee66dd599cde068d998e57d5e09332c1320546001600160a01b0316330361045b5780518251036104495760005b81519060ff81169182101561041157610407610402610392846103c66103b961039f61039261040c998b6102a4565b516001600160a01b031690565b6001600160a01b0316600090815260016020526040902090565b805460ff19166001179055565b6103d081896102a4565b516103fb6103e1610392848b6102a4565b6001600160a01b0316600090815260208190526040902090565b55866102a4565b6102bd565b610267565b610363565b505050506104477396ff7d9dbf52fdcae79157d3b249282c7fabd4096bffffffffffffffffffffffff60a01b6017541617601755565b565b60405163082e439b60e31b8152600490fd5b604051630305808160e41b8152600490fd5b600080356001600160e01b03191681527fc8fcad8db84d3cc18b4c41d551ea0ee66dd599cde068d998e57d5e09332c131c60205260408120546001600160a01b031680156104d257818091368280378136915af43d82803e156104ce573d90f35b3d90fd5b606460405162461bcd60e51b815260206004820152602060248201527f4469616d6f6e643a2046756e6374696f6e20646f6573206e6f742065786973746044820152fdfea2646970667358221220b29423d4371b3270f762f192eda3ca2f4ee0147cd4669bdb1b552869916cfc5564736f6c63430008140033c8fcad8db84d3cc18b4c41d551ea0ee66dd599cde068d998e57d5e09332c131cc8fcad8db84d3cc18b4c41d551ea0ee66dd599cde068d998e57d5e09332c131ec8fcad8db84d3cc18b4c41d551ea0ee66dd599cde068d998e57d5e09332c131d",
  "linkReferences": {},
  "deployedLinkReferences": {}
}