{
  "_format": "hh-sol-artifact-1",
  "contractName": "MockTimeSwapRouter",
  "sourceName": "contracts/dex-v3/periphery/test/MockTimeSwapRouter.sol",
  "abi": [
    {
      "inputs": [
        {
          "internalType": "address",
          "name": "_factory",
          "type": "address"
        },
        {
          "internalType": "address",
          "name": "_WETH9",
          "type": "address"
        }
      ],
      "stateMutability": "nonpayable",
      "type": "constructor"
    },
    {
      "inputs": [],
      "name": "WETH9",
      "outputs": [
        {
          "internalType": "address",
          "name": "",
          "type": "address"
        }
      ],
      "stateMutability": "view",
      "type": "function"
    },
    {
      "inputs": [
        {
          "components": [
            {
              "internalType": "bytes",
              "name": "path",
              "type": "bytes"
            },
            {
              "internalType": "address",
              "name": "recipient",
              "type": "address"
            },
            {
              "internalType": "uint256",
              "name": "deadline",
              "type": "uint256"
            },
            {
              "internalType": "uint256",
              "name": "amountIn",
              "type": "uint256"
            },
            {
              "internalType": "uint256",
              "name": "amountOutMinimum",
              "type": "uint256"
            }
          ],
          "internalType": "struct ISwapRouter.ExactInputParams",
          "name": "params",
          "type": "tuple"
        }
      ],
      "name": "exactInput",
      "outputs": [
        {
          "internalType": "uint256",
          "name": "amountOut",
          "type": "uint256"
        }
      ],
      "stateMutability": "payable",
      "type": "function"
    },
    {
      "inputs": [
        {
          "components": [
            {
              "internalType": "address",
              "name": "tokenIn",
              "type": "address"
            },
            {
              "internalType": "address",
              "name": "tokenOut",
              "type": "address"
            },
            {
              "internalType": "uint24",
              "name": "fee",
              "type": "uint24"
            },
            {
              "internalType": "address",
              "name": "recipient",
              "type": "address"
            },
            {
              "internalType": "uint256",
              "name": "deadline",
              "type": "uint256"
            },
            {
              "internalType": "uint256",
              "name": "amountIn",
              "type": "uint256"
            },
            {
              "internalType": "uint256",
              "name": "amountOutMinimum",
              "type": "uint256"
            },
            {
              "internalType": "uint160",
              "name": "sqrtPriceLimitX96",
              "type": "uint160"
            }
          ],
          "internalType": "struct ISwapRouter.ExactInputSingleParams",
          "name": "params",
          "type": "tuple"
        }
      ],
      "name": "exactInputSingle",
      "outputs": [
        {
          "internalType": "uint256",
          "name": "amountOut",
          "type": "uint256"
        }
      ],
      "stateMutability": "payable",
      "type": "function"
    },
    {
      "inputs": [
        {
          "components": [
            {
              "internalType": "bytes",
              "name": "path",
              "type": "bytes"
            },
            {
              "internalType": "address",
              "name": "recipient",
              "type": "address"
            },
            {
              "internalType": "uint256",
              "name": "deadline",
              "type": "uint256"
            },
            {
              "internalType": "uint256",
              "name": "amountOut",
              "type": "uint256"
            },
            {
              "internalType": "uint256",
              "name": "amountInMaximum",
              "type": "uint256"
            }
          ],
          "internalType": "struct ISwapRouter.ExactOutputParams",
          "name": "params",
          "type": "tuple"
        }
      ],
      "name": "exactOutput",
      "outputs": [
        {
          "internalType": "uint256",
          "name": "amountIn",
          "type": "uint256"
        }
      ],
      "stateMutability": "payable",
      "type": "function"
    },
    {
      "inputs": [
        {
          "components": [
            {
              "internalType": "address",
              "name": "tokenIn",
              "type": "address"
            },
            {
              "internalType": "address",
              "name": "tokenOut",
              "type": "address"
            },
            {
              "internalType": "uint24",
              "name": "fee",
              "type": "uint24"
            },
            {
              "internalType": "address",
              "name": "recipient",
              "type": "address"
            },
            {
              "internalType": "uint256",
              "name": "deadline",
              "type": "uint256"
            },
            {
              "internalType": "uint256",
              "name": "amountOut",
              "type": "uint256"
            },
            {
              "internalType": "uint256",
              "name": "amountInMaximum",
              "type": "uint256"
            },
            {
              "internalType": "uint160",
              "name": "sqrtPriceLimitX96",
              "type": "uint160"
            }
          ],
          "internalType": "struct ISwapRouter.ExactOutputSingleParams",
          "name": "params",
          "type": "tuple"
        }
      ],
      "name": "exactOutputSingle",
      "outputs": [
        {
          "internalType": "uint256",
          "name": "amountIn",
          "type": "uint256"
        }
      ],
      "stateMutability": "payable",
      "type": "function"
    },
    {
      "inputs": [],
      "name": "factory",
      "outputs": [
        {
          "internalType": "address",
          "name": "",
          "type": "address"
        }
      ],
      "stateMutability": "view",
      "type": "function"
    },
    {
      "inputs": [
        {
          "internalType": "int256",
          "name": "amount0Delta",
          "type": "int256"
        },
        {
          "internalType": "int256",
          "name": "amount1Delta",
          "type": "int256"
        },
        {
          "internalType": "bytes",
          "name": "_data",
          "type": "bytes"
        }
      ],
      "name": "kaleidoswapV3SwapCallback",
      "outputs": [],
      "stateMutability": "nonpayable",
      "type": "function"
    },
    {
      "inputs": [
        {
          "internalType": "bytes[]",
          "name": "data",
          "type": "bytes[]"
        }
      ],
      "name": "multicall",
      "outputs": [
        {
          "internalType": "bytes[]",
          "name": "results",
          "type": "bytes[]"
        }
      ],
      "stateMutability": "payable",
      "type": "function"
    },
    {
      "inputs": [],
      "name": "refundETH",
      "outputs": [],
      "stateMutability": "payable",
      "type": "function"
    },
    {
      "inputs": [
        {
          "internalType": "address",
          "name": "token",
          "type": "address"
        },
        {
          "internalType": "uint256",
          "name": "value",
          "type": "uint256"
        },
        {
          "internalType": "uint256",
          "name": "deadline",
          "type": "uint256"
        },
        {
          "internalType": "uint8",
          "name": "v",
          "type": "uint8"
        },
        {
          "internalType": "bytes32",
          "name": "r",
          "type": "bytes32"
        },
        {
          "internalType": "bytes32",
          "name": "s",
          "type": "bytes32"
        }
      ],
      "name": "selfPermit",
      "outputs": [],
      "stateMutability": "payable",
      "type": "function"
    },
    {
      "inputs": [
        {
          "internalType": "address",
          "name": "token",
          "type": "address"
        },
        {
          "internalType": "uint256",
          "name": "nonce",
          "type": "uint256"
        },
        {
          "internalType": "uint256",
          "name": "expiry",
          "type": "uint256"
        },
        {
          "internalType": "uint8",
          "name": "v",
          "type": "uint8"
        },
        {
          "internalType": "bytes32",
          "name": "r",
          "type": "bytes32"
        },
        {
          "internalType": "bytes32",
          "name": "s",
          "type": "bytes32"
        }
      ],
      "name": "selfPermitAllowed",
      "outputs": [],
      "stateMutability": "payable",
      "type": "function"
    },
    {
      "inputs": [
        {
          "internalType": "address",
          "name": "token",
          "type": "address"
        },
        {
          "internalType": "uint256",
          "name": "nonce",
          "type": "uint256"
        },
        {
          "internalType": "uint256",
          "name": "expiry",
          "type": "uint256"
        },
        {
          "internalType": "uint8",
          "name": "v",
          "type": "uint8"
        },
        {
          "internalType": "bytes32",
          "name": "r",
          "type": "bytes32"
        },
        {
          "internalType": "bytes32",
          "name": "s",
          "type": "bytes32"
        }
      ],
      "name": "selfPermitAllowedIfNecessary",
      "outputs": [],
      "stateMutability": "payable",
      "type": "function"
    },
    {
      "inputs": [
        {
          "internalType": "address",
          "name": "token",
          "type": "address"
        },
        {
          "internalType": "uint256",
          "name": "value",
          "type": "uint256"
        },
        {
          "internalType": "uint256",
          "name": "deadline",
          "type": "uint256"
        },
        {
          "internalType": "uint8",
          "name": "v",
          "type": "uint8"
        },
        {
          "internalType": "bytes32",
          "name": "r",
          "type": "bytes32"
        },
        {
          "internalType": "bytes32",
          "name": "s",
          "type": "bytes32"
        }
      ],
      "name": "selfPermitIfNecessary",
      "outputs": [],
      "stateMutability": "payable",
      "type": "function"
    },
    {
      "inputs": [
        {
          "internalType": "uint256",
          "name": "_time",
          "type": "uint256"
        }
      ],
      "name": "setTime",
      "outputs": [],
      "stateMutability": "nonpayable",
      "type": "function"
    },
    {
      "inputs": [
        {
          "internalType": "address",
          "name": "token",
          "type": "address"
        },
        {
          "internalType": "uint256",
          "name": "amountMinimum",
          "type": "uint256"
        },
        {
          "internalType": "address",
          "name": "recipient",
          "type": "address"
        }
      ],
      "name": "sweepToken",
      "outputs": [],
      "stateMutability": "payable",
      "type": "function"
    },
    {
      "inputs": [
        {
          "internalType": "address",
          "name": "token",
          "type": "address"
        },
        {
          "internalType": "uint256",
          "name": "amountMinimum",
          "type": "uint256"
        },
        {
          "internalType": "address",
          "name": "recipient",
          "type": "address"
        },
        {
          "internalType": "uint256",
          "name": "feeBips",
          "type": "uint256"
        },
        {
          "internalType": "address",
          "name": "feeRecipient",
          "type": "address"
        }
      ],
      "name": "sweepTokenWithFee",
      "outputs": [],
      "stateMutability": "payable",
      "type": "function"
    },
    {
      "inputs": [
        {
          "internalType": "uint256",
          "name": "amountMinimum",
          "type": "uint256"
        },
        {
          "internalType": "address",
          "name": "recipient",
          "type": "address"
        }
      ],
      "name": "unwrapWETH9",
      "outputs": [],
      "stateMutability": "payable",
      "type": "function"
    },
    {
      "inputs": [
        {
          "internalType": "uint256",
          "name": "amountMinimum",
          "type": "uint256"
        },
        {
          "internalType": "address",
          "name": "recipient",
          "type": "address"
        },
        {
          "internalType": "uint256",
          "name": "feeBips",
          "type": "uint256"
        },
        {
          "internalType": "address",
          "name": "feeRecipient",
          "type": "address"
        }
      ],
      "name": "unwrapWETH9WithFee",
      "outputs": [],
      "stateMutability": "payable",
      "type": "function"
    },
    {
      "stateMutability": "payable",
      "type": "receive"
    }
  ],
  "bytecode": "0x60c06040523480156200001157600080fd5b50604051620027ce380380620027ce833981016040819052620000349162000070565b6001600160601b0319606092831b8116608052911b1660a052620000a7565b80516001600160a01b03811681146200006b57600080fd5b919050565b6000806040838503121562000083578182fd5b6200008e8362000053565b91506200009e6020840162000053565b90509250929050565b60805160601c60a05160601c6126cb620001036000398061011d52806104f752806105e2528061066f52806107bb52806108a6528061141e528061146452806114d85250806106d65280610cdf52806118d152506126cb6000f3fe60806040526004361061010d5760003560e01c8063ac9650d811610095578063db3e219811610064578063db3e2198146102bc578063df2ab5bb146102cf578063e0e189a0146102e2578063f28c0498146102f5578063f3995c67146103085761017d565b8063ac9650d814610261578063c04b8d5914610281578063c2e3140a14610294578063c45a0155146102a75761017d565b806349404b7c116100dc57806349404b7c146101e65780634aa4a4fc146101f95780634ceb63f41461021b5780639b2c0a371461023b578063a4a78f0c1461024e5761017d565b806312210e8a146101825780633beb26c41461018a578063414bf389146101aa5780634659a494146101d35761017d565b3661017d57336001600160a01b037f0000000000000000000000000000000000000000000000000000000000000000161461017b576040805162461bcd60e51b81526020600482015260096024820152684e6f7420574554483960b81b604482015290519081900360640190fd5b005b600080fd5b61017b61031b565b34801561019657600080fd5b5061017b6101a536600461234c565b61032d565b6101bd6101b8366004612245565b610332565b6040516101ca91906125b6565b60405180910390f35b61017b6101e1366004611fc3565b610459565b61017b6101f4366004612364565b6104f3565b34801561020557600080fd5b5061020e61066d565b6040516101ca9190612453565b34801561022757600080fd5b5061017b6102363660046120b5565b610691565b61017b610249366004612393565b61079d565b61017b61025c366004611fc3565b610969565b61027461026f366004612023565b6109fa565b6040516101ca91906124ad565b6101bd61028f36600461219a565b610b3a565b61017b6102a2366004611fc3565b610c4e565b3480156102b357600080fd5b5061020e610cdd565b6101bd6102ca366004612245565b610d01565b61017b6102dd366004611f24565b610e1c565b61017b6102f0366004611f65565b610efa565b6101bd610303366004612261565b611021565b61017b610316366004611fc3565b611113565b471561032b5761032b3347611185565b565b600055565b6000816080013580610342611274565b111561038b576040805162461bcd60e51b8152602060048201526013602482015272151c985b9cd858dd1a5bdb881d1bdbc81bdb19606a1b604482015290519081900360640190fd5b61042460a08401356103a36080860160608701611f01565b6103b4610100870160e08801611f01565b60408051808201909152806103cc60208a018a611f01565b6103dc60608b0160408c01612329565b6103ec60408c0160208d01611f01565b6040516020016103fe93929190612408565b6040516020818303038152906040528152602001336001600160a01b031681525061127a565b91508260c001358210156104535760405162461bcd60e51b815260040161044a9061254c565b60405180910390fd5b50919050565b604080516323f2ebc360e21b815233600482015230602482015260448101879052606481018690526001608482015260ff851660a482015260c4810184905260e4810183905290516001600160a01b03881691638fcbaf0c9161010480830192600092919082900301818387803b1580156104d357600080fd5b505af11580156104e7573d6000803e3d6000fd5b50505050505050505050565b60007f00000000000000000000000000000000000000000000000000000000000000006001600160a01b03166370a08231306040518263ffffffff1660e01b815260040180826001600160a01b0316815260200191505060206040518083038186803b15801561056257600080fd5b505afa158015610576573d6000803e3d6000fd5b505050506040513d602081101561058c57600080fd5b50519050828110156105da576040805162461bcd60e51b8152602060048201526012602482015271496e73756666696369656e7420574554483960701b604482015290519081900360640190fd5b8015610668577f00000000000000000000000000000000000000000000000000000000000000006001600160a01b0316632e1a7d4d826040518263ffffffff1660e01b815260040180828152602001915050600060405180830381600087803b15801561064657600080fd5b505af115801561065a573d6000803e3d6000fd5b505050506106688282611185565b505050565b7f000000000000000000000000000000000000000000000000000000000000000081565b60008413806106a05750600083135b6106a957600080fd5b60006106b782840184612299565b905060008060006106cb84600001516113cc565b9250925092506106fd7f00000000000000000000000000000000000000000000000000000000000000008484846113fd565b5060008060008a1361072457846001600160a01b0316846001600160a01b0316108961073b565b836001600160a01b0316856001600160a01b0316108a5b91509150811561075a57610755858760200151338461141c565b6104e7565b8551610765906115ac565b1561078a578551610775906115b8565b865261078481336000896115d5565b506104e7565b8394506104e7858760200151338461141c565b6000821180156107ae575060648211155b6107b757600080fd5b60007f00000000000000000000000000000000000000000000000000000000000000006001600160a01b03166370a08231306040518263ffffffff1660e01b815260040180826001600160a01b0316815260200191505060206040518083038186803b15801561082657600080fd5b505afa15801561083a573d6000803e3d6000fd5b505050506040513d602081101561085057600080fd5b505190508481101561089e576040805162461bcd60e51b8152602060048201526012602482015271496e73756666696369656e7420574554483960701b604482015290519081900360640190fd5b8015610962577f00000000000000000000000000000000000000000000000000000000000000006001600160a01b0316632e1a7d4d826040518263ffffffff1660e01b815260040180828152602001915050600060405180830381600087803b15801561090a57600080fd5b505af115801561091e573d6000803e3d6000fd5b50505050600061271061093a858461175090919063ffffffff16565b8161094157fe5b0490508015610954576109548382611185565b61096085828403611185565b505b5050505050565b60408051636eb1769f60e11b81523360048201523060248201529051600019916001600160a01b0389169163dd62ed3e91604480820192602092909190829003018186803b1580156109ba57600080fd5b505afa1580156109ce573d6000803e3d6000fd5b505050506040513d60208110156109e457600080fd5b5051101561096057610960868686868686610459565b60608167ffffffffffffffff81118015610a1357600080fd5b50604051908082528060200260200182016040528015610a4757816020015b6060815260200190600190039081610a325790505b50905060005b82811015610b335760008030868685818110610a6557fe5b9050602002810190610a7791906125bf565b604051610a85929190612443565b600060405180830381855af49150503d8060008114610ac0576040519150601f19603f3d011682016040523d82523d6000602084013e610ac5565b606091505b509150915081610b1157604481511015610ade57600080fd5b60048101905080806020019051810190610af89190612130565b60405162461bcd60e51b815260040161044a919061250d565b80848481518110610b1e57fe5b60209081029190910101525050600101610a4d565b5092915050565b6000816040015180610b4a611274565b1115610b93576040805162461bcd60e51b8152602060048201526013602482015272151c985b9cd858dd1a5bdb881d1bdbc81bdb19606a1b604482015290519081900360640190fd5b335b6000610ba485600001516115ac565b9050610bf0856060015182610bbd578660200151610bbf565b305b60006040518060400160405280610bd98b60000151611774565b8152602001876001600160a01b031681525061127a565b60608601528015610c10578451309250610c09906115b8565b8552610c1d565b8460600151935050610c23565b50610b95565b8360800151831015610c475760405162461bcd60e51b815260040161044a9061254c565b5050919050565b60408051636eb1769f60e11b8152336004820152306024820152905186916001600160a01b0389169163dd62ed3e91604480820192602092909190829003018186803b158015610c9d57600080fd5b505afa158015610cb1573d6000803e3d6000fd5b505050506040513d6020811015610cc757600080fd5b5051101561096057610960868686868686611113565b7f000000000000000000000000000000000000000000000000000000000000000081565b6000816080013580610d11611274565b1115610d5a576040805162461bcd60e51b8152602060048201526013602482015272151c985b9cd858dd1a5bdb881d1bdbc81bdb19606a1b604482015290519081900360640190fd5b610df660a0840135610d726080860160608701611f01565b610d83610100870160e08801611f01565b6040518060400160405280886020016020810190610da19190611f01565b610db160608b0160408c01612329565b610dbe60208c018c611f01565b604051602001610dd093929190612408565b6040516020818303038152906040528152602001336001600160a01b03168152506115d5565b91508260c001358211156104535760405162461bcd60e51b815260040161044a90612520565b6000836001600160a01b03166370a08231306040518263ffffffff1660e01b815260040180826001600160a01b0316815260200191505060206040518083038186803b158015610e6b57600080fd5b505afa158015610e7f573d6000803e3d6000fd5b505050506040513d6020811015610e9557600080fd5b5051905082811015610ee3576040805162461bcd60e51b815260206004820152601260248201527124b739bab33334b1b4b2b73a103a37b5b2b760711b604482015290519081900360640190fd5b8015610ef457610ef4848383611783565b50505050565b600082118015610f0b575060648211155b610f1457600080fd5b6000856001600160a01b03166370a08231306040518263ffffffff1660e01b815260040180826001600160a01b0316815260200191505060206040518083038186803b158015610f6357600080fd5b505afa158015610f77573d6000803e3d6000fd5b505050506040513d6020811015610f8d57600080fd5b5051905084811015610fdb576040805162461bcd60e51b815260206004820152601260248201527124b739bab33334b1b4b2b73a103a37b5b2b760711b604482015290519081900360640190fd5b8015610960576000612710610ff08386611750565b81610ff757fe5b049050801561100b5761100b878483611783565b6110188786838503611783565b50505050505050565b6000816040013580611031611274565b111561107a576040805162461bcd60e51b8152602060048201526013602482015272151c985b9cd858dd1a5bdb881d1bdbc81bdb19606a1b604482015290519081900360640190fd5b6110ed60608401356110926040860160208701611f01565b60408051808201909152600090806110aa89806125bf565b8080601f016020809104026020016040519081016040528093929190818152602001838380828437600092019190915250505090825250336020909101526115d5565b915082608001358211156104535760405162461bcd60e51b815260040161044a90612520565b6040805163d505accf60e01b8152336004820152306024820152604481018790526064810186905260ff8516608482015260a4810184905260c4810183905290516001600160a01b0388169163d505accf9160e480830192600092919082900301818387803b1580156104d357600080fd5b604080516000808252602082019092526001600160a01b0384169083906040518082805190602001908083835b602083106111d15780518252601f1990920191602091820191016111b2565b6001836020036101000a03801982511681845116808217855250505050505090500191505060006040518083038185875af1925050503d8060008114611233576040519150601f19603f3d011682016040523d82523d6000602084013e611238565b606091505b5050905080610668576040805162461bcd60e51b815260206004820152600360248201526253544560e81b604482015290519081900360640190fd5b60005490565b60006001600160a01b03841661128e573093505b60008060006112a085600001516113cc565b919450925090506001600160a01b03808316908416106000806112c48686866118ca565b6001600160a01b031663128acb088b856112dd8f611908565b6001600160a01b038e16156112f2578d611318565b876113115773fffd8963efd1fc6a506488495d951d5263988d25611318565b6401000276a45b8d6040516020016113299190612579565b6040516020818303038152906040526040518663ffffffff1660e01b8152600401611358959493929190612467565b6040805180830381600087803b15801561137157600080fd5b505af1158015611385573d6000803e3d6000fd5b505050506040513d601f19601f820116820180604052508101906113a99190612092565b91509150826113b857816113ba565b805b6000039b9a5050505050505050505050565b600080806113da848261191e565b92506113e78460146119ce565b90506113f484601761191e565b91509193909250565b60006114138561140e868686611a75565b611acb565b95945050505050565b7f00000000000000000000000000000000000000000000000000000000000000006001600160a01b0316846001600160a01b031614801561145d5750804710155b1561157f577f00000000000000000000000000000000000000000000000000000000000000006001600160a01b031663d0e30db0826040518263ffffffff1660e01b81526004016000604051808303818588803b1580156114bd57600080fd5b505af11580156114d1573d6000803e3d6000fd5b50505050507f00000000000000000000000000000000000000000000000000000000000000006001600160a01b031663a9059cbb83836040518363ffffffff1660e01b815260040180836001600160a01b0316815260200182815260200192505050602060405180830381600087803b15801561154d57600080fd5b505af1158015611561573d6000803e3d6000fd5b505050506040513d602081101561157757600080fd5b50610ef49050565b6001600160a01b0383163014156115a05761159b848383611783565b610ef4565b610ef484848484611aee565b8051604211155b919050565b80516060906115cf90839060179060161901611c3e565b92915050565b60006001600160a01b0384166115e9573093505b60008060006115fb85600001516113cc565b919450925090506001600160a01b038084169083161060008061161f8587866118ca565b6001600160a01b031663128acb088b856116388f611908565b6000036001600160a01b038e1615611650578d611676565b8761166f5773fffd8963efd1fc6a506488495d951d5263988d25611676565b6401000276a45b8d6040516020016116879190612579565b6040516020818303038152906040526040518663ffffffff1660e01b81526004016116b6959493929190612467565b6040805180830381600087803b1580156116cf57600080fd5b505af11580156116e3573d6000803e3d6000fd5b505050506040513d601f19601f820116820180604052508101906117079190612092565b9150915060008361171c578183600003611722565b82826000035b90985090506001600160a01b038a16611741578b811461174157600080fd5b50505050505050949350505050565b600082158061176b5750508181028183828161176857fe5b04145b6115cf57600080fd5b60606115cf826000602b611c3e565b604080516001600160a01b038481166024830152604480830185905283518084039091018152606490920183526020820180516001600160e01b031663a9059cbb60e01b1781529251825160009485949389169392918291908083835b602083106117ff5780518252601f1990920191602091820191016117e0565b6001836020036101000a0380198251168184511680821785525050505050509050019150506000604051808303816000865af19150503d8060008114611861576040519150601f19603f3d011682016040523d82523d6000602084013e611866565b606091505b5091509150818015611894575080511580611894575080806020019051602081101561189157600080fd5b50515b610962576040805162461bcd60e51b815260206004820152600260248201526114d560f21b604482015290519081900360640190fd5b60006119007f00000000000000000000000000000000000000000000000000000000000000006118fb868686611a75565b611d8f565b949350505050565b6000600160ff1b821061191a57600080fd5b5090565b60008182601401101561196d576040805162461bcd60e51b8152602060048201526012602482015271746f416464726573735f6f766572666c6f7760701b604482015290519081900360640190fd5b81601401835110156119be576040805162461bcd60e51b8152602060048201526015602482015274746f416464726573735f6f75744f66426f756e647360581b604482015290519081900360640190fd5b500160200151600160601b900490565b600081826003011015611a1c576040805162461bcd60e51b8152602060048201526011602482015270746f55696e7432345f6f766572666c6f7760781b604482015290519081900360640190fd5b8160030183511015611a6c576040805162461bcd60e51b8152602060048201526014602482015273746f55696e7432345f6f75744f66426f756e647360601b604482015290519081900360640190fd5b50016003015190565b611a7d611e73565b826001600160a01b0316846001600160a01b03161115611a9b579192915b50604080516060810182526001600160a01b03948516815292909316602083015262ffffff169181019190915290565b6000611ad78383611d8f565b9050336001600160a01b038216146115cf57600080fd5b604080516001600160a01b0385811660248301528481166044830152606480830185905283518084039091018152608490920183526020820180516001600160e01b03166323b872dd60e01b178152925182516000948594938a169392918291908083835b60208310611b725780518252601f199092019160209182019101611b53565b6001836020036101000a0380198251168184511680821785525050505050509050019150506000604051808303816000865af19150503d8060008114611bd4576040519150601f19603f3d011682016040523d82523d6000602084013e611bd9565b606091505b5091509150818015611c07575080511580611c075750808060200190516020811015611c0457600080fd5b50515b610960576040805162461bcd60e51b815260206004820152600360248201526229aa2360e91b604482015290519081900360640190fd5b60608182601f011015611c89576040805162461bcd60e51b815260206004820152600e60248201526d736c6963655f6f766572666c6f7760901b604482015290519081900360640190fd5b828284011015611cd1576040805162461bcd60e51b815260206004820152600e60248201526d736c6963655f6f766572666c6f7760901b604482015290519081900360640190fd5b81830184511015611d1d576040805162461bcd60e51b8152602060048201526011602482015270736c6963655f6f75744f66426f756e647360781b604482015290519081900360640190fd5b606082158015611d3c5760405191506000825260208201604052611d86565b6040519150601f8416801560200281840101858101878315602002848b0101015b81831015611d75578051835260209283019201611d5d565b5050858452601f01601f1916604052505b50949350505050565b600081602001516001600160a01b031682600001516001600160a01b031610611db757600080fd5b50805160208083015160409384015184516001600160a01b0394851681850152939091168385015262ffffff166060808401919091528351808403820181526080840185528051908301206001600160f81b031960a085015294901b6bffffffffffffffffffffffff191660a183015260b58201939093527fe34f199b19b2b4f47f68442619d555527d244f78a3297ea89325f843f87b8b5460d5808301919091528251808303909101815260f5909101909152805191012090565b604080516060810182526000808252602082018190529181019190915290565b80356115b38161267d565b600082601f830112611eae578081fd5b8135611ec1611ebc8261262f565b61260b565b818152846020838601011115611ed5578283fd5b816020850160208301379081016020019190915292915050565b60006101008284031215610453578081fd5b600060208284031215611f12578081fd5b8135611f1d8161267d565b9392505050565b600080600060608486031215611f38578182fd5b8335611f438161267d565b9250602084013591506040840135611f5a8161267d565b809150509250925092565b600080600080600060a08688031215611f7c578081fd5b8535611f878161267d565b9450602086013593506040860135611f9e8161267d565b9250606086013591506080860135611fb58161267d565b809150509295509295909350565b60008060008060008060c08789031215611fdb578081fd5b8635611fe68161267d565b95506020870135945060408701359350606087013560ff81168114612009578182fd5b9598949750929560808101359460a0909101359350915050565b60008060208385031215612035578182fd5b823567ffffffffffffffff8082111561204c578384fd5b818501915085601f83011261205f578384fd5b81358181111561206d578485fd5b8660208083028501011115612080578485fd5b60209290920196919550909350505050565b600080604083850312156120a4578182fd5b505080516020909101519092909150565b600080600080606085870312156120ca578182fd5b8435935060208501359250604085013567ffffffffffffffff808211156120ef578384fd5b818701915087601f830112612102578384fd5b813581811115612110578485fd5b886020828501011115612121578485fd5b95989497505060200194505050565b600060208284031215612141578081fd5b815167ffffffffffffffff811115612157578182fd5b8201601f81018413612167578182fd5b8051612175611ebc8261262f565b818152856020838501011115612189578384fd5b611413826020830160208601612651565b6000602082840312156121ab578081fd5b813567ffffffffffffffff808211156121c2578283fd5b9083019060a082860312156121d5578283fd5b60405160a0810181811083821117156121ea57fe5b6040528235828111156121fb578485fd5b61220787828601611e9e565b82525061221660208401611e93565b602082015260408301356040820152606083013560608201526080830135608082015280935050505092915050565b60006101008284031215612257578081fd5b611f1d8383611eef565b600060208284031215612272578081fd5b813567ffffffffffffffff811115612288578182fd5b820160a08185031215611f1d578182fd5b6000602082840312156122aa578081fd5b813567ffffffffffffffff808211156122c1578283fd5b90830190604082860312156122d4578283fd5b6040516040810181811083821117156122e957fe5b6040528235828111156122fa578485fd5b61230687828601611e9e565b825250602083013592506123198361267d565b6020810192909252509392505050565b60006020828403121561233a578081fd5b813562ffffff81168114611f1d578182fd5b60006020828403121561235d578081fd5b5035919050565b60008060408385031215612376578182fd5b8235915060208301356123888161267d565b809150509250929050565b600080600080608085870312156123a8578182fd5b8435935060208501356123ba8161267d565b92506040850135915060608501356123d18161267d565b939692955090935050565b600081518084526123f4816020860160208601612651565b601f01601f19169290920160200192915050565b606093841b6bffffffffffffffffffffffff19908116825260e89390931b6001600160e81b0319166014820152921b166017820152602b0190565b6000828483379101908152919050565b6001600160a01b0391909116815260200190565b6001600160a01b0386811682528515156020830152604082018590528316606082015260a0608082018190526000906124a2908301846123dc565b979650505050505050565b6000602080830181845280855180835260408601915060408482028701019250838701855b8281101561250057603f198886030184526124ee8583516123dc565b945092850192908501906001016124d2565b5092979650505050505050565b600060208252611f1d60208301846123dc565b602080825260129082015271151bdbc81b5d58da081c995c5d595cdd195960721b604082015260600190565b602080825260139082015272151bdbc81b1a5d1d1b19481c9958d95a5d9959606a1b604082015260600190565b60006020825282516040602084015261259560608401826123dc565b602094909401516001600160a01b0316604093909301929092525090919050565b90815260200190565b6000808335601e198436030181126125d5578283fd5b83018035915067ffffffffffffffff8211156125ef578283fd5b60200191503681900382131561260457600080fd5b9250929050565b60405181810167ffffffffffffffff8111828210171561262757fe5b604052919050565b600067ffffffffffffffff82111561264357fe5b50601f01601f191660200190565b60005b8381101561266c578181015183820152602001612654565b83811115610ef45750506000910152565b6001600160a01b038116811461269257600080fd5b5056fea26469706673582212200d3a2d05eb76b9d1b2fe55d3bdfaf24157f63a60c95bb3ff75ef6bb4fe29171564736f6c63430007060033",
  "linkReferences": {},
  "deployedLinkReferences": {}
}