{
  "_format": "hh-sol-artifact-1",
  "contractName": "NonfungiblePositionManager",
  "sourceName": "contracts/dex-v3/periphery/NonfungiblePositionManager.sol",
  "abi": [
    {
      "inputs": [
        {
          "internalType": "address",
          "name": "_factory",
          "type": "address"
        },
        {
          "internalType": "address",
          "name": "_WETH9",
          "type": "address"
        },
        {
          "internalType": "address",
          "name": "_tokenDescriptor_",
          "type": "address"
        }
      ],
      "stateMutability": "nonpayable",
      "type": "constructor"
    },
    {
      "anonymous": false,
      "inputs": [
        {
          "indexed": true,
          "internalType": "address",
          "name": "owner",
          "type": "address"
        },
        {
          "indexed": true,
          "internalType": "address",
          "name": "approved",
          "type": "address"
        },
        {
          "indexed": true,
          "internalType": "uint256",
          "name": "tokenId",
          "type": "uint256"
        }
      ],
      "name": "Approval",
      "type": "event"
    },
    {
      "anonymous": false,
      "inputs": [
        {
          "indexed": true,
          "internalType": "address",
          "name": "owner",
          "type": "address"
        },
        {
          "indexed": true,
          "internalType": "address",
          "name": "operator",
          "type": "address"
        },
        {
          "indexed": false,
          "internalType": "bool",
          "name": "approved",
          "type": "bool"
        }
      ],
      "name": "ApprovalForAll",
      "type": "event"
    },
    {
      "anonymous": false,
      "inputs": [
        {
          "indexed": true,
          "internalType": "uint256",
          "name": "tokenId",
          "type": "uint256"
        },
        {
          "indexed": false,
          "internalType": "address",
          "name": "recipient",
          "type": "address"
        },
        {
          "indexed": false,
          "internalType": "uint256",
          "name": "amount0",
          "type": "uint256"
        },
        {
          "indexed": false,
          "internalType": "uint256",
          "name": "amount1",
          "type": "uint256"
        }
      ],
      "name": "Collect",
      "type": "event"
    },
    {
      "anonymous": false,
      "inputs": [
        {
          "indexed": true,
          "internalType": "uint256",
          "name": "tokenId",
          "type": "uint256"
        },
        {
          "indexed": false,
          "internalType": "uint128",
          "name": "liquidity",
          "type": "uint128"
        },
        {
          "indexed": false,
          "internalType": "uint256",
          "name": "amount0",
          "type": "uint256"
        },
        {
          "indexed": false,
          "internalType": "uint256",
          "name": "amount1",
          "type": "uint256"
        }
      ],
      "name": "DecreaseLiquidity",
      "type": "event"
    },
    {
      "anonymous": false,
      "inputs": [
        {
          "indexed": true,
          "internalType": "uint256",
          "name": "tokenId",
          "type": "uint256"
        },
        {
          "indexed": false,
          "internalType": "uint128",
          "name": "liquidity",
          "type": "uint128"
        },
        {
          "indexed": false,
          "internalType": "uint256",
          "name": "amount0",
          "type": "uint256"
        },
        {
          "indexed": false,
          "internalType": "uint256",
          "name": "amount1",
          "type": "uint256"
        }
      ],
      "name": "IncreaseLiquidity",
      "type": "event"
    },
    {
      "anonymous": false,
      "inputs": [
        {
          "indexed": true,
          "internalType": "address",
          "name": "from",
          "type": "address"
        },
        {
          "indexed": true,
          "internalType": "address",
          "name": "to",
          "type": "address"
        },
        {
          "indexed": true,
          "internalType": "uint256",
          "name": "tokenId",
          "type": "uint256"
        }
      ],
      "name": "Transfer",
      "type": "event"
    },
    {
      "inputs": [],
      "name": "DOMAIN_SEPARATOR",
      "outputs": [
        {
          "internalType": "bytes32",
          "name": "",
          "type": "bytes32"
        }
      ],
      "stateMutability": "view",
      "type": "function"
    },
    {
      "inputs": [],
      "name": "PERMIT_TYPEHASH",
      "outputs": [
        {
          "internalType": "bytes32",
          "name": "",
          "type": "bytes32"
        }
      ],
      "stateMutability": "view",
      "type": "function"
    },
    {
      "inputs": [],
      "name": "WETH9",
      "outputs": [
        {
          "internalType": "address",
          "name": "",
          "type": "address"
        }
      ],
      "stateMutability": "view",
      "type": "function"
    },
    {
      "inputs": [
        {
          "internalType": "address",
          "name": "to",
          "type": "address"
        },
        {
          "internalType": "uint256",
          "name": "tokenId",
          "type": "uint256"
        }
      ],
      "name": "approve",
      "outputs": [],
      "stateMutability": "nonpayable",
      "type": "function"
    },
    {
      "inputs": [
        {
          "internalType": "address",
          "name": "owner",
          "type": "address"
        }
      ],
      "name": "balanceOf",
      "outputs": [
        {
          "internalType": "uint256",
          "name": "",
          "type": "uint256"
        }
      ],
      "stateMutability": "view",
      "type": "function"
    },
    {
      "inputs": [],
      "name": "baseURI",
      "outputs": [
        {
          "internalType": "string",
          "name": "",
          "type": "string"
        }
      ],
      "stateMutability": "pure",
      "type": "function"
    },
    {
      "inputs": [
        {
          "internalType": "uint256",
          "name": "tokenId",
          "type": "uint256"
        }
      ],
      "name": "burn",
      "outputs": [],
      "stateMutability": "payable",
      "type": "function"
    },
    {
      "inputs": [
        {
          "components": [
            {
              "internalType": "uint256",
              "name": "tokenId",
              "type": "uint256"
            },
            {
              "internalType": "address",
              "name": "recipient",
              "type": "address"
            },
            {
              "internalType": "uint128",
              "name": "amount0Max",
              "type": "uint128"
            },
            {
              "internalType": "uint128",
              "name": "amount1Max",
              "type": "uint128"
            }
          ],
          "internalType": "struct INonfungiblePositionManager.CollectParams",
          "name": "params",
          "type": "tuple"
        }
      ],
      "name": "collect",
      "outputs": [
        {
          "internalType": "uint256",
          "name": "amount0",
          "type": "uint256"
        },
        {
          "internalType": "uint256",
          "name": "amount1",
          "type": "uint256"
        }
      ],
      "stateMutability": "payable",
      "type": "function"
    },
    {
      "inputs": [
        {
          "internalType": "address",
          "name": "token0",
          "type": "address"
        },
        {
          "internalType": "address",
          "name": "token1",
          "type": "address"
        },
        {
          "internalType": "uint24",
          "name": "fee",
          "type": "uint24"
        },
        {
          "internalType": "uint160",
          "name": "sqrtPriceX96",
          "type": "uint160"
        }
      ],
      "name": "createAndInitializePoolIfNecessary",
      "outputs": [
        {
          "internalType": "address",
          "name": "pool",
          "type": "address"
        }
      ],
      "stateMutability": "payable",
      "type": "function"
    },
    {
      "inputs": [
        {
          "components": [
            {
              "internalType": "uint256",
              "name": "tokenId",
              "type": "uint256"
            },
            {
              "internalType": "uint128",
              "name": "liquidity",
              "type": "uint128"
            },
            {
              "internalType": "uint256",
              "name": "amount0Min",
              "type": "uint256"
            },
            {
              "internalType": "uint256",
              "name": "amount1Min",
              "type": "uint256"
            },
            {
              "internalType": "uint256",
              "name": "deadline",
              "type": "uint256"
            }
          ],
          "internalType": "struct INonfungiblePositionManager.DecreaseLiquidityParams",
          "name": "params",
          "type": "tuple"
        }
      ],
      "name": "decreaseLiquidity",
      "outputs": [
        {
          "internalType": "uint256",
          "name": "amount0",
          "type": "uint256"
        },
        {
          "internalType": "uint256",
          "name": "amount1",
          "type": "uint256"
        }
      ],
      "stateMutability": "payable",
      "type": "function"
    },
    {
      "inputs": [],
      "name": "factory",
      "outputs": [
        {
          "internalType": "address",
          "name": "",
          "type": "address"
        }
      ],
      "stateMutability": "view",
      "type": "function"
    },
    {
      "inputs": [
        {
          "internalType": "uint256",
          "name": "tokenId",
          "type": "uint256"
        }
      ],
      "name": "getApproved",
      "outputs": [
        {
          "internalType": "address",
          "name": "",
          "type": "address"
        }
      ],
      "stateMutability": "view",
      "type": "function"
    },
    {
      "inputs": [
        {
          "components": [
            {
              "internalType": "uint256",
              "name": "tokenId",
              "type": "uint256"
            },
            {
              "internalType": "uint256",
              "name": "amount0Desired",
              "type": "uint256"
            },
            {
              "internalType": "uint256",
              "name": "amount1Desired",
              "type": "uint256"
            },
            {
              "internalType": "uint256",
              "name": "amount0Min",
              "type": "uint256"
            },
            {
              "internalType": "uint256",
              "name": "amount1Min",
              "type": "uint256"
            },
            {
              "internalType": "uint256",
              "name": "deadline",
              "type": "uint256"
            }
          ],
          "internalType": "struct INonfungiblePositionManager.IncreaseLiquidityParams",
          "name": "params",
          "type": "tuple"
        }
      ],
      "name": "increaseLiquidity",
      "outputs": [
        {
          "internalType": "uint128",
          "name": "liquidity",
          "type": "uint128"
        },
        {
          "internalType": "uint256",
          "name": "amount0",
          "type": "uint256"
        },
        {
          "internalType": "uint256",
          "name": "amount1",
          "type": "uint256"
        }
      ],
      "stateMutability": "payable",
      "type": "function"
    },
    {
      "inputs": [
        {
          "internalType": "address",
          "name": "owner",
          "type": "address"
        },
        {
          "internalType": "address",
          "name": "operator",
          "type": "address"
        }
      ],
      "name": "isApprovedForAll",
      "outputs": [
        {
          "internalType": "bool",
          "name": "",
          "type": "bool"
        }
      ],
      "stateMutability": "view",
      "type": "function"
    },
    {
      "inputs": [
        {
          "internalType": "uint256",
          "name": "amount0Owed",
          "type": "uint256"
        },
        {
          "internalType": "uint256",
          "name": "amount1Owed",
          "type": "uint256"
        },
        {
          "internalType": "bytes",
          "name": "data",
          "type": "bytes"
        }
      ],
      "name": "kaleidoswapV3MintCallback",
      "outputs": [],
      "stateMutability": "nonpayable",
      "type": "function"
    },
    {
      "inputs": [
        {
          "components": [
            {
              "internalType": "address",
              "name": "token0",
              "type": "address"
            },
            {
              "internalType": "address",
              "name": "token1",
              "type": "address"
            },
            {
              "internalType": "uint24",
              "name": "fee",
              "type": "uint24"
            },
            {
              "internalType": "int24",
              "name": "tickLower",
              "type": "int24"
            },
            {
              "internalType": "int24",
              "name": "tickUpper",
              "type": "int24"
            },
            {
              "internalType": "uint256",
              "name": "amount0Desired",
              "type": "uint256"
            },
            {
              "internalType": "uint256",
              "name": "amount1Desired",
              "type": "uint256"
            },
            {
              "internalType": "uint256",
              "name": "amount0Min",
              "type": "uint256"
            },
            {
              "internalType": "uint256",
              "name": "amount1Min",
              "type": "uint256"
            },
            {
              "internalType": "address",
              "name": "recipient",
              "type": "address"
            },
            {
              "internalType": "uint256",
              "name": "deadline",
              "type": "uint256"
            }
          ],
          "internalType": "struct INonfungiblePositionManager.MintParams",
          "name": "params",
          "type": "tuple"
        }
      ],
      "name": "mint",
      "outputs": [
        {
          "internalType": "uint256",
          "name": "tokenId",
          "type": "uint256"
        },
        {
          "internalType": "uint128",
          "name": "liquidity",
          "type": "uint128"
        },
        {
          "internalType": "uint256",
          "name": "amount0",
          "type": "uint256"
        },
        {
          "internalType": "uint256",
          "name": "amount1",
          "type": "uint256"
        }
      ],
      "stateMutability": "payable",
      "type": "function"
    },
    {
      "inputs": [
        {
          "internalType": "bytes[]",
          "name": "data",
          "type": "bytes[]"
        }
      ],
      "name": "multicall",
      "outputs": [
        {
          "internalType": "bytes[]",
          "name": "results",
          "type": "bytes[]"
        }
      ],
      "stateMutability": "payable",
      "type": "function"
    },
    {
      "inputs": [],
      "name": "name",
      "outputs": [
        {
          "internalType": "string",
          "name": "",
          "type": "string"
        }
      ],
      "stateMutability": "view",
      "type": "function"
    },
    {
      "inputs": [
        {
          "internalType": "uint256",
          "name": "tokenId",
          "type": "uint256"
        }
      ],
      "name": "ownerOf",
      "outputs": [
        {
          "internalType": "address",
          "name": "",
          "type": "address"
        }
      ],
      "stateMutability": "view",
      "type": "function"
    },
    {
      "inputs": [
        {
          "internalType": "address",
          "name": "spender",
          "type": "address"
        },
        {
          "internalType": "uint256",
          "name": "tokenId",
          "type": "uint256"
        },
        {
          "internalType": "uint256",
          "name": "deadline",
          "type": "uint256"
        },
        {
          "internalType": "uint8",
          "name": "v",
          "type": "uint8"
        },
        {
          "internalType": "bytes32",
          "name": "r",
          "type": "bytes32"
        },
        {
          "internalType": "bytes32",
          "name": "s",
          "type": "bytes32"
        }
      ],
      "name": "permit",
      "outputs": [],
      "stateMutability": "payable",
      "type": "function"
    },
    {
      "inputs": [
        {
          "internalType": "uint256",
          "name": "tokenId",
          "type": "uint256"
        }
      ],
      "name": "positions",
      "outputs": [
        {
          "internalType": "uint96",
          "name": "nonce",
          "type": "uint96"
        },
        {
          "internalType": "address",
          "name": "operator",
          "type": "address"
        },
        {
          "internalType": "address",
          "name": "token0",
          "type": "address"
        },
        {
          "internalType": "address",
          "name": "token1",
          "type": "address"
        },
        {
          "internalType": "uint24",
          "name": "fee",
          "type": "uint24"
        },
        {
          "internalType": "int24",
          "name": "tickLower",
          "type": "int24"
        },
        {
          "internalType": "int24",
          "name": "tickUpper",
          "type": "int24"
        },
        {
          "internalType": "uint128",
          "name": "liquidity",
          "type": "uint128"
        },
        {
          "internalType": "uint256",
          "name": "feeGrowthInside0LastX128",
          "type": "uint256"
        },
        {
          "internalType": "uint256",
          "name": "feeGrowthInside1LastX128",
          "type": "uint256"
        },
        {
          "internalType": "uint128",
          "name": "tokensOwed0",
          "type": "uint128"
        },
        {
          "internalType": "uint128",
          "name": "tokensOwed1",
          "type": "uint128"
        }
      ],
      "stateMutability": "view",
      "type": "function"
    },
    {
      "inputs": [],
      "name": "refundETH",
      "outputs": [],
      "stateMutability": "payable",
      "type": "function"
    },
    {
      "inputs": [
        {
          "internalType": "address",
          "name": "from",
          "type": "address"
        },
        {
          "internalType": "address",
          "name": "to",
          "type": "address"
        },
        {
          "internalType": "uint256",
          "name": "tokenId",
          "type": "uint256"
        }
      ],
      "name": "safeTransferFrom",
      "outputs": [],
      "stateMutability": "nonpayable",
      "type": "function"
    },
    {
      "inputs": [
        {
          "internalType": "address",
          "name": "from",
          "type": "address"
        },
        {
          "internalType": "address",
          "name": "to",
          "type": "address"
        },
        {
          "internalType": "uint256",
          "name": "tokenId",
          "type": "uint256"
        },
        {
          "internalType": "bytes",
          "name": "_data",
          "type": "bytes"
        }
      ],
      "name": "safeTransferFrom",
      "outputs": [],
      "stateMutability": "nonpayable",
      "type": "function"
    },
    {
      "inputs": [
        {
          "internalType": "address",
          "name": "token",
          "type": "address"
        },
        {
          "internalType": "uint256",
          "name": "value",
          "type": "uint256"
        },
        {
          "internalType": "uint256",
          "name": "deadline",
          "type": "uint256"
        },
        {
          "internalType": "uint8",
          "name": "v",
          "type": "uint8"
        },
        {
          "internalType": "bytes32",
          "name": "r",
          "type": "bytes32"
        },
        {
          "internalType": "bytes32",
          "name": "s",
          "type": "bytes32"
        }
      ],
      "name": "selfPermit",
      "outputs": [],
      "stateMutability": "payable",
      "type": "function"
    },
    {
      "inputs": [
        {
          "internalType": "address",
          "name": "token",
          "type": "address"
        },
        {
          "internalType": "uint256",
          "name": "nonce",
          "type": "uint256"
        },
        {
          "internalType": "uint256",
          "name": "expiry",
          "type": "uint256"
        },
        {
          "internalType": "uint8",
          "name": "v",
          "type": "uint8"
        },
        {
          "internalType": "bytes32",
          "name": "r",
          "type": "bytes32"
        },
        {
          "internalType": "bytes32",
          "name": "s",
          "type": "bytes32"
        }
      ],
      "name": "selfPermitAllowed",
      "outputs": [],
      "stateMutability": "payable",
      "type": "function"
    },
    {
      "inputs": [
        {
          "internalType": "address",
          "name": "token",
          "type": "address"
        },
        {
          "internalType": "uint256",
          "name": "nonce",
          "type": "uint256"
        },
        {
          "internalType": "uint256",
          "name": "expiry",
          "type": "uint256"
        },
        {
          "internalType": "uint8",
          "name": "v",
          "type": "uint8"
        },
        {
          "internalType": "bytes32",
          "name": "r",
          "type": "bytes32"
        },
        {
          "internalType": "bytes32",
          "name": "s",
          "type": "bytes32"
        }
      ],
      "name": "selfPermitAllowedIfNecessary",
      "outputs": [],
      "stateMutability": "payable",
      "type": "function"
    },
    {
      "inputs": [
        {
          "internalType": "address",
          "name": "token",
          "type": "address"
        },
        {
          "internalType": "uint256",
          "name": "value",
          "type": "uint256"
        },
        {
          "internalType": "uint256",
          "name": "deadline",
          "type": "uint256"
        },
        {
          "internalType": "uint8",
          "name": "v",
          "type": "uint8"
        },
        {
          "internalType": "bytes32",
          "name": "r",
          "type": "bytes32"
        },
        {
          "internalType": "bytes32",
          "name": "s",
          "type": "bytes32"
        }
      ],
      "name": "selfPermitIfNecessary",
      "outputs": [],
      "stateMutability": "payable",
      "type": "function"
    },
    {
      "inputs": [
        {
          "internalType": "address",
          "name": "operator",
          "type": "address"
        },
        {
          "internalType": "bool",
          "name": "approved",
          "type": "bool"
        }
      ],
      "name": "setApprovalForAll",
      "outputs": [],
      "stateMutability": "nonpayable",
      "type": "function"
    },
    {
      "inputs": [
        {
          "internalType": "bytes4",
          "name": "interfaceId",
          "type": "bytes4"
        }
      ],
      "name": "supportsInterface",
      "outputs": [
        {
          "internalType": "bool",
          "name": "",
          "type": "bool"
        }
      ],
      "stateMutability": "view",
      "type": "function"
    },
    {
      "inputs": [
        {
          "internalType": "address",
          "name": "token",
          "type": "address"
        },
        {
          "internalType": "uint256",
          "name": "amountMinimum",
          "type": "uint256"
        },
        {
          "internalType": "address",
          "name": "recipient",
          "type": "address"
        }
      ],
      "name": "sweepToken",
      "outputs": [],
      "stateMutability": "payable",
      "type": "function"
    },
    {
      "inputs": [],
      "name": "symbol",
      "outputs": [
        {
          "internalType": "string",
          "name": "",
          "type": "string"
        }
      ],
      "stateMutability": "view",
      "type": "function"
    },
    {
      "inputs": [
        {
          "internalType": "uint256",
          "name": "index",
          "type": "uint256"
        }
      ],
      "name": "tokenByIndex",
      "outputs": [
        {
          "internalType": "uint256",
          "name": "",
          "type": "uint256"
        }
      ],
      "stateMutability": "view",
      "type": "function"
    },
    {
      "inputs": [
        {
          "internalType": "address",
          "name": "owner",
          "type": "address"
        },
        {
          "internalType": "uint256",
          "name": "index",
          "type": "uint256"
        }
      ],
      "name": "tokenOfOwnerByIndex",
      "outputs": [
        {
          "internalType": "uint256",
          "name": "",
          "type": "uint256"
        }
      ],
      "stateMutability": "view",
      "type": "function"
    },
    {
      "inputs": [
        {
          "internalType": "uint256",
          "name": "tokenId",
          "type": "uint256"
        }
      ],
      "name": "tokenURI",
      "outputs": [
        {
          "internalType": "string",
          "name": "",
          "type": "string"
        }
      ],
      "stateMutability": "view",
      "type": "function"
    },
    {
      "inputs": [],
      "name": "totalSupply",
      "outputs": [
        {
          "internalType": "uint256",
          "name": "",
          "type": "uint256"
        }
      ],
      "stateMutability": "view",
      "type": "function"
    },
    {
      "inputs": [
        {
          "internalType": "address",
          "name": "from",
          "type": "address"
        },
        {
          "internalType": "address",
          "name": "to",
          "type": "address"
        },
        {
          "internalType": "uint256",
          "name": "tokenId",
          "type": "uint256"
        }
      ],
      "name": "transferFrom",
      "outputs": [],
      "stateMutability": "nonpayable",
      "type": "function"
    },
    {
      "inputs": [
        {
          "internalType": "uint256",
          "name": "amountMinimum",
          "type": "uint256"
        },
        {
          "internalType": "address",
          "name": "recipient",
          "type": "address"
        }
      ],
      "name": "unwrapWETH9",
      "outputs": [],
      "stateMutability": "payable",
      "type": "function"
    },
    {
      "stateMutability": "payable",
      "type": "receive"
    }
  ],
  "bytecode": "0x610120604052600d80546001600160b01b0319166001176001600160b01b0316600160b01b1790553480156200003457600080fd5b5060405162005d6738038062005d678339810160408190526200005791620002db565b82826040518060400160405280601f81526020017f4b616c6569646f5377617020563320506f736974696f6e73204e46542d5631008152506040518060400160405280600a815260200169554e492d56332d504f5360b01b815250604051806040016040528060018152602001603160f81b8152508282620000e66301ffc9a760e01b6200018d60201b60201c565b8151620000fb90600690602085019062000212565b5080516200011190600790602084019062000212565b50620001246380ac58cd60e01b6200018d565b62000136635b5e139f60e01b6200018d565b6200014863780e9d6360e01b6200018d565b50508251602093840120608052805192019190912060a052506001600160601b0319606092831b811660c05290821b811660e05291901b166101005250620003249050565b6001600160e01b03198082161415620001ed576040805162461bcd60e51b815260206004820152601c60248201527f4552433136353a20696e76616c696420696e7465726661636520696400000000604482015290519081900360640190fd5b6001600160e01b0319166000908152602081905260409020805460ff19166001179055565b828054600181600116156101000203166002900490600052602060002090601f0160209004810192826200024a576000855562000295565b82601f106200026557805160ff191683800117855562000295565b8280016001018555821562000295579182015b828111156200029557825182559160200191906001019062000278565b50620002a3929150620002a7565b5090565b5b80821115620002a35760008155600101620002a8565b80516001600160a01b0381168114620002d657600080fd5b919050565b600080600060608486031215620002f0578283fd5b620002fb84620002be565b92506200030b60208501620002be565b91506200031b60408501620002be565b90509250925092565b60805160a05160c05160601c60e05160601c6101005160601c6159be620003a96000398061285d5250806102395280611687528061177252806117fa528061335d52806133a35280613417525080610a055280610d255280610dec528061101d52806128105280612b79528061353852508061148752508061146652506159be6000f3fe6080604052600436106102295760003560e01c80634f6ccce711610123578063a4a78f0c116100ab578063c87b56dd1161006f578063c87b56dd1461064e578063df2ab5bb1461066e578063e985e9c514610681578063f3995c67146106a1578063fc6f7865146106b457610299565b8063a4a78f0c146105d3578063ac9650d8146105e6578063b88d4fde14610606578063c2e3140a14610626578063c45a01551461063957610299565b80637ac2ff7b116100f25780637ac2ff7b14610530578063883164561461054357806395d89b411461056657806399fbab881461057b578063a22cb465146105b357610299565b80634f6ccce7146104bb5780636352211e146104db5780636c0360eb146104fb57806370a082311461051057610299565b8063219f5d17116101b157806342842e0e1161017557806342842e0e1461044d57806342966c681461046d5780634659a4941461048057806349404b7c146104935780634aa4a4fc146104a657610299565b8063219f5d17146103c157806323b872dd146103e35780632f745c591461040357806330adf81f146104235780633644e5151461043857610299565b80630c49ccbe116101f85780630c49ccbe1461034357806312210e8a1461036457806313ead5621461036c57806318160ddd1461037f5780631a2bdf59146103a157610299565b806301ffc9a71461029e57806306fdde03146102d4578063081812fc146102f6578063095ea7b31461032357610299565b3661029957336001600160a01b037f00000000000000000000000000000000000000000000000000000000000000001614610297576040805162461bcd60e51b81526020600482015260096024820152684e6f7420574554483960b81b604482015290519081900360640190fd5b005b600080fd5b3480156102aa57600080fd5b506102be6102b9366004614e9f565b6106c7565b6040516102cb91906153e0565b60405180910390f35b3480156102e057600080fd5b506102e96106ea565b6040516102cb9190615433565b34801561030257600080fd5b50610316610311366004615199565b610780565b6040516102cb91906152c3565b34801561032f57600080fd5b5061029761033e366004614d69565b6107d3565b610356610351366004614f64565b6108a9565b6040516102cb9291906155ba565b610297610cf1565b61031661037a366004614bfc565b610d03565b34801561038b57600080fd5b50610394610ff7565b6040516102cb91906153eb565b3480156103ad57600080fd5b506102976103bc3660046151f8565b611008565b6103d46103cf366004614f75565b611086565b6040516102cb93929190615575565b3480156103ef57600080fd5b506102976103fe366004614c55565b61139b565b34801561040f57600080fd5b5061039461041e366004614d69565b6113f2565b34801561042f57600080fd5b5061039461141d565b34801561044457600080fd5b50610394611441565b34801561045957600080fd5b50610297610468366004614c55565b6114ff565b61029761047b366004615199565b61151a565b61029761048e366004614dd5565b6115e9565b6102976104a13660046151b1565b611683565b3480156104b257600080fd5b506103166117f8565b3480156104c757600080fd5b506103946104d6366004615199565b61181c565b3480156104e757600080fd5b506103166104f6366004615199565b611832565b34801561050757600080fd5b506102e961185a565b34801561051c57600080fd5b5061039461052b366004614ba8565b61185f565b61029761053e366004614dd5565b6118c7565b610556610551366004615031565b611cb9565b6040516102cb9493929190615596565b34801561057257600080fd5b506102e96121d1565b34801561058757600080fd5b5061059b610596366004615199565b612232565b6040516102cb9c9b9a999897969594939291906155c8565b3480156105bf57600080fd5b506102976105ce366004614d3c565b612443565b6102976105e1366004614dd5565b612548565b6105f96105f4366004614e30565b6125e1565b6040516102cb9190615380565b34801561061257600080fd5b50610297610621366004614c95565b612721565b610297610634366004614dd5565b61277f565b34801561064557600080fd5b5061031661280e565b34801561065a57600080fd5b506102e9610669366004615199565b612832565b61029761067c366004614d94565b6128e8565b34801561068d57600080fd5b506102be61069c366004614bc4565b6129c0565b6102976106af366004614dd5565b6129ee565b6103566106c2366004614f4d565b612a60565b6001600160e01b0319811660009081526020819052604090205460ff165b919050565b60068054604080516020601f60026000196101006001881615020190951694909404938401819004810282018101909252828152606093909290918301828280156107765780601f1061074b57610100808354040283529160200191610776565b820191906000526020600020905b81548152906001019060200180831161075957829003601f168201915b5050505050905090565b600061078b82612f34565b6107b05760405162461bcd60e51b81526004016107a79061546c565b60405180910390fd5b506000908152600c6020526040902054600160601b90046001600160a01b031690565b60006107de82611832565b9050806001600160a01b0316836001600160a01b031614156108315760405162461bcd60e51b81526004018080602001828103825260218152602001806159376021913960400191505060405180910390fd5b806001600160a01b0316610843612f41565b6001600160a01b0316148061085f575061085f8161069c612f41565b61089a5760405162461bcd60e51b81526004018080602001828103825260388152602001806158616038913960400191505060405180910390fd5b6108a48383612f45565b505050565b60008082356108b83382612fbb565b6108d45760405162461bcd60e51b81526004016107a790615446565b8360800135806108e2613057565b111561092b576040805162461bcd60e51b8152602060048201526013602482015272151c985b9cd858dd1a5bdb881d1bdbc81bdb19606a1b604482015290519081900360640190fd5b600061093d6040870160208801615043565b6001600160801b03161161095057600080fd5b84356000908152600c602090815260409182902060018101549092600160801b9091046001600160801b03169161098b918901908901615043565b6001600160801b0316816001600160801b031610156109a957600080fd5b6001828101546001600160501b03166000908152600b60209081526040808320815160608101835281546001600160a01b039081168252919095015490811692850192909252600160a01b90910462ffffff1690830152610a2a7f00000000000000000000000000000000000000000000000000000000000000008361305b565b60018501549091506001600160a01b0382169063a34123a790600160501b8104600290810b91600160681b9004900b610a6960408e0160208f01615043565b6040518463ffffffff1660e01b8152600401610a879392919061540d565b6040805180830381600087803b158015610aa057600080fd5b505af1158015610ab4573d6000803e3d6000fd5b505050506040513d601f19601f82011682018060405250810190610ad891906151d5565b909850965060408901358810801590610af5575088606001358710155b610b115760405162461bcd60e51b81526004016107a7906154b8565b6001840154600090610b3a903090600160501b8104600290810b91600160681b9004900b61313a565b9050600080836001600160a01b031663514ea4bf846040518263ffffffff1660e01b8152600401610b6b91906153eb565b60a06040518083038186803b158015610b8357600080fd5b505afa158015610b97573d6000803e3d6000fd5b505050506040513d601f19601f82011682018060405250810190610bbb919061508d565b50509250925050610be087600201548303876001600160801b0316600160801b61318f565b6004880180546001600160801b03198116928e016001600160801b039182160181169290921790556003880154610c2191908303908816600160801b61318f565b6004880180546001600160801b03808216938e01600160801b9283900482160116029190911790556002870182905560038701819055610c6760408d0160208e01615043565b86038760010160106101000a8154816001600160801b0302191690836001600160801b031602179055508b600001357f26f6a048ee9138f2c0ce266f322cb99228e8d619ae2bff30c67f8dcf9d2377b48d6020016020810190610cca9190615043565b8d8d604051610cdb93929190615575565b60405180910390a2505050505050505050915091565b4715610d0157610d01334761323e565b565b6000836001600160a01b0316856001600160a01b031610610d2357600080fd5b7f00000000000000000000000000000000000000000000000000000000000000006001600160a01b0316631698ee828686866040518463ffffffff1660e01b815260040180846001600160a01b03168152602001836001600160a01b031681526020018262ffffff168152602001935050505060206040518083038186803b158015610dae57600080fd5b505afa158015610dc2573d6000803e3d6000fd5b505050506040513d6020811015610dd857600080fd5b505190506001600160a01b038116610f0e577f00000000000000000000000000000000000000000000000000000000000000006001600160a01b031663a16712958686866040518463ffffffff1660e01b815260040180846001600160a01b03168152602001836001600160a01b031681526020018262ffffff1681526020019350505050602060405180830381600087803b158015610e7757600080fd5b505af1158015610e8b573d6000803e3d6000fd5b505050506040513d6020811015610ea157600080fd5b50516040805163f637731d60e01b81526001600160a01b03858116600483015291519293509083169163f637731d9160248082019260009290919082900301818387803b158015610ef157600080fd5b505af1158015610f05573d6000803e3d6000fd5b50505050610fef565b6000816001600160a01b0316633850c7bd6040518163ffffffff1660e01b815260040160e06040518083038186803b158015610f4957600080fd5b505afa158015610f5d573d6000803e3d6000fd5b505050506040513d60e0811015610f7357600080fd5b505190506001600160a01b038116610fed57816001600160a01b031663f637731d846040518263ffffffff1660e01b815260040180826001600160a01b03168152602001915050600060405180830381600087803b158015610fd457600080fd5b505af1158015610fe8573d6000803e3d6000fd5b505050505b505b949350505050565b6000611003600261332d565b905090565b600061101682840184614f86565b90506110467f00000000000000000000000000000000000000000000000000000000000000008260000151613338565b5084156110615780515160208201516110619190338861335b565b831561107f5761107f8160000151602001518260200151338761335b565b5050505050565b60008060008360a0013580611099613057565b11156110e2576040805162461bcd60e51b8152602060048201526013602482015272151c985b9cd858dd1a5bdb881d1bdbc81bdb19606a1b604482015290519081900360640190fd5b84356000908152600c602090815260408083206001808201546001600160501b0381168652600b855283862084516060808201875282546001600160a01b039081168352929094015480831682890190815262ffffff600160a01b9092048216838901908152885161014081018a528451861681529151909416818a0152925116828701523082850152600160501b8304600290810b810b608080850191909152600160681b909404810b900b60a0830152958c013560c0820152938b013560e0850152908a013561010084015289013561012083015292906111c4906134eb565b6001870154939a50919850965091506000906111f7903090600160501b8104600290810b91600160681b9004900b61313a565b9050600080836001600160a01b031663514ea4bf846040518263ffffffff1660e01b815260040161122891906153eb565b60a06040518083038186803b15801561124057600080fd5b505afa158015611254573d6000803e3d6000fd5b505050506040513d601f19601f82011682018060405250810190611278919061508d565b505092509250506112b4866002015483038760010160109054906101000a90046001600160801b03166001600160801b0316600160801b61318f565b6004870180546001600160801b0380821690930183166001600160801b0319909116179055600387015460018801546112fb9291840391600160801b91829004169061318f565b6004870180546001600160801b03600160801b80830482169094018116840291811691909117909155600288018490556003880183905560018801805483810483168e018316909302929091169190911790556040518b35907f3067048beee31b25b2f1681f88dac838c8bba36af25bfb2b7cf7473a5847e35f90611385908d908d908d90615575565b60405180910390a2505050505050509193909250565b6113ac6113a6612f41565b82612fbb565b6113e75760405162461bcd60e51b81526004018080602001828103825260318152602001806159586031913960400191505060405180910390fd5b6108a4838383613726565b6001600160a01b03821660009081526001602052604081206114149083613872565b90505b92915050565b7f49ecf333e5b8c95c40fdafc95c1ad136e8914a8fb55e9dc8bb01eaa83a2df9ad81565b60007f8b73c3c69bb8fe3d512ecc4cf759cc79239f7b179b0ffacaa9a75d522b39400f7f00000000000000000000000000000000000000000000000000000000000000007f00000000000000000000000000000000000000000000000000000000000000006114ae61387e565b3060405160200180868152602001858152602001848152602001838152602001826001600160a01b031681526020019550505050505060405160208183030381529060405280519060200120905090565b6108a483838360405180602001604052806000815250612721565b806115253382612fbb565b6115415760405162461bcd60e51b81526004016107a790615446565b6000828152600c602052604090206001810154600160801b90046001600160801b031615801561157c575060048101546001600160801b0316155b801561159a57506004810154600160801b90046001600160801b0316155b6115b65760405162461bcd60e51b81526004016107a790615510565b6000838152600c60205260408120818155600181018290556002810182905560038101829055600401556108a483613882565b604080516323f2ebc360e21b815233600482015230602482015260448101879052606481018690526001608482015260ff851660a482015260c4810184905260e4810183905290516001600160a01b03881691638fcbaf0c9161010480830192600092919082900301818387803b15801561166357600080fd5b505af1158015611677573d6000803e3d6000fd5b50505050505050505050565b60007f00000000000000000000000000000000000000000000000000000000000000006001600160a01b03166370a08231306040518263ffffffff1660e01b815260040180826001600160a01b0316815260200191505060206040518083038186803b1580156116f257600080fd5b505afa158015611706573d6000803e3d6000fd5b505050506040513d602081101561171c57600080fd5b505190508281101561176a576040805162461bcd60e51b8152602060048201526012602482015271496e73756666696369656e7420574554483960701b604482015290519081900360640190fd5b80156108a4577f00000000000000000000000000000000000000000000000000000000000000006001600160a01b0316632e1a7d4d826040518263ffffffff1660e01b815260040180828152602001915050600060405180830381600087803b1580156117d657600080fd5b505af11580156117ea573d6000803e3d6000fd5b505050506108a4828261323e565b7f000000000000000000000000000000000000000000000000000000000000000081565b60008061182a60028461394f565b509392505050565b6000611417826040518060600160405280602981526020016158c3602991396002919061396d565b606090565b60006001600160a01b0382166118a65760405162461bcd60e51b815260040180806020018281038252602a815260200180615899602a913960400191505060405180910390fd5b6001600160a01b03821660009081526001602052604090206114179061332d565b836118d0613057565b1115611914576040805162461bcd60e51b815260206004820152600e60248201526d14195c9b5a5d08195e1c1a5c995960921b604482015290519081900360640190fd5b600061191e611441565b7f49ecf333e5b8c95c40fdafc95c1ad136e8914a8fb55e9dc8bb01eaa83a2df9ad888861194a8161397a565b604080516020808201969096526001600160a01b03909416848201526060840192909252608083015260a08083018a90528151808403909101815260c08301825280519084012061190160f01b60e084015260e2830194909452610102808301949094528051808303909401845261012290910190528151910120905060006119d287611832565b9050806001600160a01b0316886001600160a01b03161415611a255760405162461bcd60e51b81526004018080602001828103825260278152602001806157c46027913960400191505060405180910390fd5b611a2e816139af565b15611b96576040805160208082018790528183018690526001600160f81b031960f889901b1660608301528251604181840301815260618301808552630b135d3f60e11b90526065830186815260858401948552815160a585015281516001600160a01b03871695631626ba7e958995919260c59091019185019080838360005b83811015611ac7578181015183820152602001611aaf565b50505050905090810190601f168015611af45780820380516001836020036101000a031916815260200191505b50935050505060206040518083038186803b158015611b1257600080fd5b505afa158015611b26573d6000803e3d6000fd5b505050506040513d6020811015611b3c57600080fd5b50516001600160e01b031916630b135d3f60e11b14611b91576040805162461bcd60e51b815260206004820152600c60248201526b155b985d5d1a1bdc9a5e995960a21b604482015290519081900360640190fd5b611ca5565b600060018387878760405160008152602001604052604051808581526020018460ff1681526020018381526020018281526020019450505050506020604051602081039080840390855afa158015611bf2573d6000803e3d6000fd5b5050604051601f1901519150506001600160a01b038116611c4e576040805162461bcd60e51b8152602060048201526011602482015270496e76616c6964207369676e617475726560781b604482015290519081900360640190fd5b816001600160a01b0316816001600160a01b031614611ca3576040805162461bcd60e51b815260206004820152600c60248201526b155b985d5d1a1bdc9a5e995960a21b604482015290519081900360640190fd5b505b611caf8888612f45565b5050505050505050565b60008060008084610140013580611cce613057565b1115611d17576040805162461bcd60e51b8152602060048201526013602482015272151c985b9cd858dd1a5bdb881d1bdbc81bdb19606a1b604482015290519081900360640190fd5b604080516101408101909152600090611de39080611d3860208b018b614ba8565b6001600160a01b03168152602001896020016020810190611d599190614ba8565b6001600160a01b03168152602001611d7760608b0160408c0161517f565b62ffffff168152306020820152604001611d9760808b0160608c01614ec7565b60020b8152602001611daf60a08b0160808c01614ec7565b60020b81526020018960a0013581526020018960c0013581526020018960e0013581526020018961010001358152506134eb565b92975090955093509050611e30611e0261014089016101208a01614ba8565b600d80546001600160b01b0319811660016001600160b01b03928316908101909216179091559750876139b5565b6000611e5b30611e4660808b0160608c01614ec7565b611e5660a08c0160808d01614ec7565b61313a565b9050600080836001600160a01b031663514ea4bf846040518263ffffffff1660e01b8152600401611e8c91906153eb565b60a06040518083038186803b158015611ea457600080fd5b505afa158015611eb8573d6000803e3d6000fd5b505050506040513d601f19601f82011682018060405250810190611edc919061508d565b505092509250506000611f558560405180606001604052808e6000016020810190611f079190614ba8565b6001600160a01b031681526020018e6020016020810190611f289190614ba8565b6001600160a01b031681526020018e6040016020810190611f49919061517f565b62ffffff169052613ae3565b905060405180610140016040528060006001600160601b0316815260200160006001600160a01b03168152602001826001600160501b031681526020018c6060016020810190611fa59190614ec7565b60020b8152602001611fbd60a08e0160808f01614ec7565b60020b81526020018a6001600160801b0316815260200184815260200183815260200160006001600160801b0316815260200160006001600160801b0316815250600c60008c815260200190815260200160002060008201518160000160006101000a8154816001600160601b0302191690836001600160601b03160217905550602082015181600001600c6101000a8154816001600160a01b0302191690836001600160a01b0316021790555060408201518160010160006101000a8154816001600160501b0302191690836001600160501b03160217905550606082015181600101600a6101000a81548162ffffff021916908360020b62ffffff160217905550608082015181600101600d6101000a81548162ffffff021916908360020b62ffffff16021790555060a08201518160010160106101000a8154816001600160801b0302191690836001600160801b0316021790555060c0820151816002015560e082015181600301556101008201518160040160006101000a8154816001600160801b0302191690836001600160801b031602179055506101208201518160040160106101000a8154816001600160801b0302191690836001600160801b03160217905550905050897f3067048beee31b25b2f1681f88dac838c8bba36af25bfb2b7cf7473a5847e35f8a8a8a6040516121bc93929190615575565b60405180910390a25050505050509193509193565b60078054604080516020601f60026000196101006001881615020190951694909404938401819004810282018101909252828152606093909290918301828280156107765780601f1061074b57610100808354040283529160200191610776565b6000818152600c6020908152604080832081516101408101835281546001600160601b03811682526001600160a01b03600160601b909104169381019390935260018101546001600160501b038116928401839052600160501b8104600290810b810b810b6060860152600160681b8204810b810b810b60808601526001600160801b03600160801b92839004811660a08701529083015460c0860152600383015460e0860152600490920154808316610100860152041661012083015282918291829182918291829182918291829182918291906123235760405162461bcd60e51b81526004016107a7906154e6565b6000600b600083604001516001600160501b03166001600160501b031681526020019081526020016000206040518060600160405290816000820160009054906101000a90046001600160a01b03166001600160a01b03166001600160a01b031681526020016001820160009054906101000a90046001600160a01b03166001600160a01b03166001600160a01b031681526020016001820160149054906101000a900462ffffff1662ffffff1662ffffff1681525050905081600001518260200151826000015183602001518460400151866060015187608001518860a001518960c001518a60e001518b61010001518c61012001519d509d509d509d509d509d509d509d509d509d509d509d50505091939597999b5091939597999b565b61244b612f41565b6001600160a01b0316826001600160a01b031614156124b1576040805162461bcd60e51b815260206004820152601960248201527f4552433732313a20617070726f766520746f2063616c6c657200000000000000604482015290519081900360640190fd5b80600560006124be612f41565b6001600160a01b03908116825260208083019390935260409182016000908120918716808252919093529120805460ff191692151592909217909155612502612f41565b6001600160a01b03167f17307eab39ab6107e8899845ad3d59bd9653f200f220920489ca2b5937696c318360405180821515815260200191505060405180910390a35050565b60408051636eb1769f60e11b81523360048201523060248201529051600019916001600160a01b0389169163dd62ed3e91604480820192602092909190829003018186803b15801561259957600080fd5b505afa1580156125ad573d6000803e3d6000fd5b505050506040513d60208110156125c357600080fd5b505110156125d9576125d98686868686866115e9565b505050505050565b60608167ffffffffffffffff811180156125fa57600080fd5b5060405190808252806020026020018201604052801561262e57816020015b60608152602001906001900390816126195790505b50905060005b8281101561271a576000803086868581811061264c57fe5b905060200281019061265e9190615662565b60405161266c9291906152b3565b600060405180830381855af49150503d80600081146126a7576040519150601f19603f3d011682016040523d82523d6000602084013e6126ac565b606091505b5091509150816126f8576044815110156126c557600080fd5b600481019050808060200190518101906126df9190614ee3565b60405162461bcd60e51b81526004016107a79190615433565b8084848151811061270557fe5b60209081029190910101525050600101612634565b5092915050565b61273261272c612f41565b83612fbb565b61276d5760405162461bcd60e51b81526004018080602001828103825260318152602001806159586031913960400191505060405180910390fd5b61277984848484613bc5565b50505050565b60408051636eb1769f60e11b8152336004820152306024820152905186916001600160a01b0389169163dd62ed3e91604480820192602092909190829003018186803b1580156127ce57600080fd5b505afa1580156127e2573d6000803e3d6000fd5b505050506040513d60208110156127f857600080fd5b505110156125d9576125d98686868686866129ee565b7f000000000000000000000000000000000000000000000000000000000000000081565b606061283d82612f34565b61284657600080fd5b60405163e9dc637560e01b81526001600160a01b037f0000000000000000000000000000000000000000000000000000000000000000169063e9dc63759061289490309086906004016153f4565b60006040518083038186803b1580156128ac57600080fd5b505afa1580156128c0573d6000803e3d6000fd5b505050506040513d6000823e601f3d908101601f191682016040526114179190810190614ee3565b6000836001600160a01b03166370a08231306040518263ffffffff1660e01b815260040180826001600160a01b0316815260200191505060206040518083038186803b15801561293757600080fd5b505afa15801561294b573d6000803e3d6000fd5b505050506040513d602081101561296157600080fd5b50519050828110156129af576040805162461bcd60e51b815260206004820152601260248201527124b739bab33334b1b4b2b73a103a37b5b2b760711b604482015290519081900360640190fd5b801561277957612779848383613c17565b6001600160a01b03918216600090815260056020908152604080832093909416825291909152205460ff1690565b6040805163d505accf60e01b8152336004820152306024820152604481018790526064810186905260ff8516608482015260a4810184905260c4810183905290516001600160a01b0388169163d505accf9160e480830192600092919082900301818387803b15801561166357600080fd5b6000808235612a6f3382612fbb565b612a8b5760405162461bcd60e51b81526004016107a790615446565b6000612a9d6060860160408701615043565b6001600160801b03161180612aca57506000612abf6080860160608701615043565b6001600160801b0316115b612ad357600080fd5b600080612ae66040870160208801614ba8565b6001600160a01b031614612b0957612b046040860160208701614ba8565b612b0b565b305b85356000908152600c602090815260408083206001808201546001600160501b03168552600b8452828520835160608101855281546001600160a01b039081168252919092015490811694820194909452600160a01b90930462ffffff169183019190915292935090612b9e7f00000000000000000000000000000000000000000000000000000000000000008361305b565b600484015460018501549192506001600160801b0380821692600160801b9283900482169290041615612d9457600185015460405163a34123a760e01b81526001600160a01b0385169163a34123a791612c1591600160501b8104600290810b92600160681b909204900b9060009060040161540d565b6040805180830381600087803b158015612c2e57600080fd5b505af1158015612c42573d6000803e3d6000fd5b505050506040513d601f19601f82011682018060405250810190612c6691906151d5565b5050600185015460009081906001600160a01b0386169063514ea4bf90612ca4903090600160501b8104600290810b91600160681b9004900b61313a565b6040518263ffffffff1660e01b8152600401612cc091906153eb565b60a06040518083038186803b158015612cd857600080fd5b505afa158015612cec573d6000803e3d6000fd5b505050506040513d601f19601f82011682018060405250810190612d10919061508d565b50509250925050612d4c876002015483038860010160109054906101000a90046001600160801b03166001600160801b0316600160801b61318f565b84019350612d85876003015482038860010160109054906101000a90046001600160801b03166001600160801b0316600160801b61318f565b60028801929092556003870155015b6000806001600160801b038416612db160608e0160408f01615043565b6001600160801b031611612dd457612dcf60608d0160408e01615043565b612dd6565b835b836001600160801b03168d6060016020810190612df39190615043565b6001600160801b031611612e1657612e1160808e0160608f01615043565b612e18565b835b60018901546040516309e3d67b60e31b81529294509092506001600160a01b03871691634f1eb3d891612e6b918c91600160501b8104600290810b92600160681b909204900b9088908890600401615319565b6040805180830381600087803b158015612e8457600080fd5b505af1158015612e98573d6000803e3d6000fd5b505050506040513d601f19601f82011682018060405250810190612ebc919061505f565b6004890180546001600160801b03196001600160801b03918216600160801b948316808a038416959095021716938116808903909116939093179055604051919c509a508c35907f40d0efd1a53d60ecbf40971b9daf7dc90178c3aadc7aab1765632738fa8b8f0190610cdb908b908f908f90615356565b6000611417600283613d5e565b3390565b6000818152600c6020526040902080546001600160601b0316600160601b6001600160a01b038516908102919091179091558190612f8282611832565b6001600160a01b03167f8c5be1e5ebec7d5bd14f71427d1e84f3dd0314c0f7b2291e5b200ac8c7c3b92560405160405180910390a45050565b6000612fc682612f34565b6130015760405162461bcd60e51b815260040180806020018281038252602c815260200180615835602c913960400191505060405180910390fd5b600061300c83611832565b9050806001600160a01b0316846001600160a01b031614806130475750836001600160a01b031661303c84610780565b6001600160a01b0316145b80610fef5750610fef81856129c0565b4290565b600081602001516001600160a01b031682600001516001600160a01b03161061308357600080fd5b50805160208083015160409384015184516001600160a01b0394851681850152939091168385015262ffffff166060808401919091528351808403820181526080840185528051908301206001600160f81b031960a085015294901b6001600160601b03191660a183015260b58201939093527fe34f199b19b2b4f47f68442619d555527d244f78a3297ea89325f843f87b8b5460d5808301919091528251808303909101815260f5909101909152805191012090565b604080516001600160601b0319606086901b16602080830191909152600285810b60e890811b60348501529085900b901b60378301528251601a818403018152603a90920190925280519101205b9392505050565b60008080600019858709868602925082811090839003039050806131c557600084116131ba57600080fd5b508290049050613188565b8084116131d157600080fd5b6000848688096000868103871696879004966002600389028118808a02820302808a02820302808a02820302808a02820302808a02820302808a02909103029181900381900460010186841190950394909402919094039290920491909117919091029150509392505050565b604080516000808252602082019092526001600160a01b0384169083906040518082805190602001908083835b6020831061328a5780518252601f19909201916020918201910161326b565b6001836020036101000a03801982511681845116808217855250505050505090500191505060006040518083038185875af1925050503d80600081146132ec576040519150601f19603f3d011682016040523d82523d6000602084013e6132f1565b606091505b50509050806108a4576040805162461bcd60e51b815260206004820152600360248201526253544560e81b604482015290519081900360640190fd5b600061141782613d6a565b6000613344838361305b565b9050336001600160a01b0382161461141757600080fd5b7f00000000000000000000000000000000000000000000000000000000000000006001600160a01b0316846001600160a01b031614801561339c5750804710155b156134be577f00000000000000000000000000000000000000000000000000000000000000006001600160a01b031663d0e30db0826040518263ffffffff1660e01b81526004016000604051808303818588803b1580156133fc57600080fd5b505af1158015613410573d6000803e3d6000fd5b50505050507f00000000000000000000000000000000000000000000000000000000000000006001600160a01b031663a9059cbb83836040518363ffffffff1660e01b815260040180836001600160a01b0316815260200182815260200192505050602060405180830381600087803b15801561348c57600080fd5b505af11580156134a0573d6000803e3d6000fd5b505050506040513d60208110156134b657600080fd5b506127799050565b6001600160a01b0383163014156134df576134da848383613c17565b612779565b61277984848484613d6e565b6000806000806000604051806060016040528087600001516001600160a01b0316815260200187602001516001600160a01b03168152602001876040015162ffffff16815250905061355d7f00000000000000000000000000000000000000000000000000000000000000008261305b565b91506000826001600160a01b0316633850c7bd6040518163ffffffff1660e01b815260040160e06040518083038186803b15801561359a57600080fd5b505afa1580156135ae573d6000803e3d6000fd5b505050506040513d601f19601f820116820180604052508101906135d291906150ee565b505050505050905060006135e98860800151613ebe565b905060006135fa8960a00151613ebe565b90506136118383838c60c001518d60e001516141f0565b9750505050816001600160a01b0316633c8a7d8d876060015188608001518960a00151896040518060400160405280888152602001336001600160a01b03168152506040516020016136639190615535565b6040516020818303038152906040526040518663ffffffff1660e01b81526004016136929594939291906152d7565b6040805180830381600087803b1580156136ab57600080fd5b505af11580156136bf573d6000803e3d6000fd5b505050506040513d601f19601f820116820180604052508101906136e391906151d5565b6101008801519195509350841080159061370257508561012001518310155b61371e5760405162461bcd60e51b81526004016107a7906154b8565b509193509193565b826001600160a01b031661373982611832565b6001600160a01b03161461377e5760405162461bcd60e51b815260040180806020018281038252602981526020018061590e6029913960400191505060405180910390fd5b6001600160a01b0382166137c35760405162461bcd60e51b81526004018080602001828103825260248152602001806157eb6024913960400191505060405180910390fd5b6137ce8383836108a4565b6137d9600082612f45565b6001600160a01b03831660009081526001602052604090206137fb90826142b4565b506001600160a01b038216600090815260016020526040902061381e90826142c0565b5061382b600282846142cc565b5080826001600160a01b0316846001600160a01b03167fddf252ad1be2c89b69c2b068fc378daa952ba7f163c4a11628f55a4df523b3ef60405160405180910390a4505050565b600061141483836142e2565b4690565b600061388d82611832565b905061389b816000846108a4565b6138a6600083612f45565b60008281526008602052604090205460026000196101006001841615020190911604156138e45760008281526008602052604081206138e491614b18565b6001600160a01b038116600090815260016020526040902061390690836142b4565b50613912600283614346565b5060405182906000906001600160a01b038416907fddf252ad1be2c89b69c2b068fc378daa952ba7f163c4a11628f55a4df523b3ef908390a45050565b600080808061395e8686614352565b909450925050505b9250929050565b6000610fef8484846143cd565b6000908152600c6020526040902080546001600160601b0319811660016001600160601b039283169081019092161790915590565b3b151590565b6001600160a01b038216613a10576040805162461bcd60e51b815260206004820181905260248201527f4552433732313a206d696e7420746f20746865207a65726f2061646472657373604482015290519081900360640190fd5b613a1981612f34565b15613a6b576040805162461bcd60e51b815260206004820152601c60248201527f4552433732313a20746f6b656e20616c7265616479206d696e74656400000000604482015290519081900360640190fd5b613a77600083836108a4565b6001600160a01b0382166000908152600160205260409020613a9990826142c0565b50613aa6600282846142cc565b5060405181906001600160a01b038416906000907fddf252ad1be2c89b69c2b068fc378daa952ba7f163c4a11628f55a4df523b3ef908290a45050565b6001600160a01b0382166000908152600a60205260409020546001600160501b0316806114175750600d805460016001600160501b03600160b01b8084048216838101909216026001600160b01b03909316929092179092556001600160a01b038085166000908152600a60209081526040808320805469ffffffffffffffffffff191686179055848352600b825291829020865181549085166001600160a01b031991821617825591870151950180549287015162ffffff16600160a01b0262ffffff60a01b19969094169290911691909117939093161790915592915050565b613bd0848484613726565b613bdc84848484614497565b6127795760405162461bcd60e51b81526004018080602001828103825260328152602001806157926032913960400191505060405180910390fd5b604080516001600160a01b038481166024830152604480830185905283518084039091018152606490920183526020820180516001600160e01b031663a9059cbb60e01b1781529251825160009485949389169392918291908083835b60208310613c935780518252601f199092019160209182019101613c74565b6001836020036101000a0380198251168184511680821785525050505050509050019150506000604051808303816000865af19150503d8060008114613cf5576040519150601f19603f3d011682016040523d82523d6000602084013e613cfa565b606091505b5091509150818015613d28575080511580613d285750808060200190516020811015613d2557600080fd5b50515b61107f576040805162461bcd60e51b815260206004820152600260248201526114d560f21b604482015290519081900360640190fd5b600061141483836145ff565b5490565b604080516001600160a01b0385811660248301528481166044830152606480830185905283518084039091018152608490920183526020820180516001600160e01b03166323b872dd60e01b178152925182516000948594938a169392918291908083835b60208310613df25780518252601f199092019160209182019101613dd3565b6001836020036101000a0380198251168184511680821785525050505050509050019150506000604051808303816000865af19150503d8060008114613e54576040519150601f19603f3d011682016040523d82523d6000602084013e613e59565b606091505b5091509150818015613e87575080511580613e875750808060200190516020811015613e8457600080fd5b50515b6125d9576040805162461bcd60e51b815260206004820152600360248201526229aa2360e91b604482015290519081900360640190fd5b60008060008360020b12613ed5578260020b613edd565b8260020b6000035b9050620d89e8811115613f1b576040805162461bcd60e51b81526020600482015260016024820152601560fa1b604482015290519081900360640190fd5b600060018216613f2f57600160801b613f41565b6ffffcb933bd6fad37aa2d162d1a5940015b70ffffffffffffffffffffffffffffffffff1690506002821615613f75576ffff97272373d413259a46990580e213a0260801c5b6004821615613f94576ffff2e50f5f656932ef12357cf3c7fdcc0260801c5b6008821615613fb3576fffe5caca7e10e4e61c3624eaa0941cd00260801c5b6010821615613fd2576fffcb9843d60f6159c9db58835c9266440260801c5b6020821615613ff1576fff973b41fa98c081472e6896dfb254c00260801c5b6040821615614010576fff2ea16466c96a3843ec78b326b528610260801c5b608082161561402f576ffe5dee046a99a2a811c461f1969c30530260801c5b61010082161561404f576ffcbe86c7900a88aedcffc83b479aa3a40260801c5b61020082161561406f576ff987a7253ac413176f2b074cf7815e540260801c5b61040082161561408f576ff3392b0822b70005940c7a398e4b70f30260801c5b6108008216156140af576fe7159475a2c29b7443b29c7fa6e889d90260801c5b6110008216156140cf576fd097f3bdfd2022b8845ad8f792aa58250260801c5b6120008216156140ef576fa9f746462d870fdf8a65dc1f90e061e50260801c5b61400082161561410f576f70d869a156d2a1b890bb3df62baf32f70260801c5b61800082161561412f576f31be135f97d08fd981231505542fcfa60260801c5b62010000821615614150576f09aa508b5b7a84e1c677de54f3e99bc90260801c5b62020000821615614170576e5d6af8dedb81196699c329225ee6040260801c5b6204000082161561418f576d2216e584f5fa1ea926041bedfe980260801c5b620800008216156141ac576b048a170391f7dc42444e8fa20260801c5b60008460020b13156141c75780600019816141c357fe5b0490505b6401000000008106156141db5760016141de565b60005b60ff16602082901c0192505050919050565b6000836001600160a01b0316856001600160a01b03161115614210579293925b846001600160a01b0316866001600160a01b03161161423b57614234858585614617565b90506142ab565b836001600160a01b0316866001600160a01b0316101561429d576000614262878686614617565b9050600061427187898661467a565b9050806001600160801b0316826001600160801b0316106142925780614294565b815b925050506142ab565b6142a885858461467a565b90505b95945050505050565b600061141483836146b7565b6000611414838361477d565b6000610fef84846001600160a01b0385166147c7565b815460009082106143245760405162461bcd60e51b81526004018080602001828103825260228152602001806157706022913960400191505060405180910390fd5b82600001828154811061433357fe5b9060005260206000200154905092915050565b6000611414838361485e565b8154600090819083106143965760405162461bcd60e51b81526004018080602001828103825260228152602001806158ec6022913960400191505060405180910390fd5b60008460000184815481106143a757fe5b906000526020600020906002020190508060000154816001015492509250509250929050565b600082815260018401602052604081205482816144685760405162461bcd60e51b81526004018080602001828103825283818151815260200191508051906020019080838360005b8381101561442d578181015183820152602001614415565b50505050905090810190601f16801561445a5780820380516001836020036101000a031916815260200191505b509250505060405180910390fd5b5084600001600182038154811061447b57fe5b9060005260206000209060020201600101549150509392505050565b60006144ab846001600160a01b03166139af565b6144b757506001610fef565b60006145c5630a85bd0160e11b6144cc612f41565b88878760405160240180856001600160a01b03168152602001846001600160a01b0316815260200183815260200180602001828103825283818151815260200191508051906020019080838360005b8381101561453357818101518382015260200161451b565b50505050905090810190601f1680156145605780820380516001836020036101000a031916815260200191505b5095505050505050604051602081830303815290604052906001600160e01b0319166020820180516001600160e01b038381831617835250505050604051806060016040528060328152602001615792603291396001600160a01b0388169190614932565b905060008180602001905160208110156145de57600080fd5b50516001600160e01b031916630a85bd0160e11b1492505050949350505050565b60009081526001919091016020526040902054151590565b6000826001600160a01b0316846001600160a01b03161115614637579192915b600061465a856001600160a01b0316856001600160a01b0316600160601b61318f565b90506142ab61467584838888036001600160a01b031661318f565b614941565b6000826001600160a01b0316846001600160a01b0316111561469a579192915b610fef61467583600160601b8787036001600160a01b031661318f565b6000818152600183016020526040812054801561477357835460001980830191908101906000908790839081106146ea57fe5b906000526020600020015490508087600001848154811061470757fe5b60009182526020808320909101929092558281526001898101909252604090209084019055865487908061473757fe5b60019003818190600052602060002001600090559055866001016000878152602001908152602001600020600090556001945050505050611417565b6000915050611417565b600061478983836145ff565b6147bf57508154600181810184556000848152602080822090930184905584548482528286019093526040902091909155611417565b506000611417565b60008281526001840160205260408120548061482c575050604080518082018252838152602080820184815286546001818101895560008981528481209551600290930290950191825591519082015586548684528188019092529290912055613188565b8285600001600183038154811061483f57fe5b9060005260206000209060020201600101819055506000915050613188565b60008181526001830160205260408120548015614773578354600019808301919081019060009087908390811061489157fe5b90600052602060002090600202019050808760000184815481106148b157fe5b6000918252602080832084546002909302019182556001938401549184019190915583548252898301905260409020908401905586548790806148f057fe5b60008281526020808220600260001990940193840201828155600190810183905592909355888152898201909252604082209190915594506114179350505050565b6060610fef8484600085614957565b806001600160801b03811681146106e557600080fd5b6060824710156149985760405162461bcd60e51b815260040180806020018281038252602681526020018061580f6026913960400191505060405180910390fd5b6149a1856139af565b6149f2576040805162461bcd60e51b815260206004820152601d60248201527f416464726573733a2063616c6c20746f206e6f6e2d636f6e7472616374000000604482015290519081900360640190fd5b600080866001600160a01b031685876040518082805190602001908083835b60208310614a305780518252601f199092019160209182019101614a11565b6001836020036101000a03801982511681845116808217855250505050505090500191505060006040518083038185875af1925050503d8060008114614a92576040519150601f19603f3d011682016040523d82523d6000602084013e614a97565b606091505b5091509150614aa7828286614ab2565b979650505050505050565b60608315614ac1575081613188565b825115614ad15782518084602001fd5b60405162461bcd60e51b815260206004820181815284516024840152845185939192839260440191908501908083836000831561442d578181015183820152602001614415565b50805460018160011615610100020316600290046000825580601f10614b3e5750614b5c565b601f016020900490600052602060002090810190614b5c9190614b5f565b50565b5b80821115614b745760008155600101614b60565b5090565b80356106e581615719565b805161ffff811681146106e557600080fd5b803562ffffff811681146106e557600080fd5b600060208284031215614bb9578081fd5b813561318881615719565b60008060408385031215614bd6578081fd5b8235614be181615719565b91506020830135614bf181615719565b809150509250929050565b60008060008060808587031215614c11578182fd5b8435614c1c81615719565b93506020850135614c2c81615719565b9250614c3a60408601614b95565b91506060850135614c4a81615719565b939692955090935050565b600080600060608486031215614c69578081fd5b8335614c7481615719565b92506020840135614c8481615719565b929592945050506040919091013590565b60008060008060808587031215614caa578182fd5b8435614cb581615719565b93506020850135614cc581615719565b925060408501359150606085013567ffffffffffffffff811115614ce7578182fd5b8501601f81018713614cf7578182fd5b8035614d0a614d05826156cb565b6156a7565b818152886020838501011115614d1e578384fd5b81602084016020830137908101602001929092525092959194509250565b60008060408385031215614d4e578182fd5b8235614d5981615719565b91506020830135614bf18161572e565b60008060408385031215614d7b578182fd5b8235614d8681615719565b946020939093013593505050565b600080600060608486031215614da8578081fd5b8335614db381615719565b9250602084013591506040840135614dca81615719565b809150509250925092565b60008060008060008060c08789031215614ded578384fd5b8635614df881615719565b955060208701359450604087013593506060870135614e1681615760565b9598949750929560808101359460a0909101359350915050565b60008060208385031215614e42578182fd5b823567ffffffffffffffff80821115614e59578384fd5b818501915085601f830112614e6c578384fd5b813581811115614e7a578485fd5b8660208083028501011115614e8d578485fd5b60209290920196919550909350505050565b600060208284031215614eb0578081fd5b81356001600160e01b031981168114613188578182fd5b600060208284031215614ed8578081fd5b81356131888161573c565b600060208284031215614ef4578081fd5b815167ffffffffffffffff811115614f0a578182fd5b8201601f81018413614f1a578182fd5b8051614f28614d05826156cb565b818152856020838501011115614f3c578384fd5b6142ab8260208301602086016156ed565b600060808284031215614f5e578081fd5b50919050565b600060a08284031215614f5e578081fd5b600060c08284031215614f5e578081fd5b60008183036080811215614f98578182fd5b6040516040810167ffffffffffffffff8282108183111715614fb657fe5b816040526060841215614fc7578485fd5b60a0830193508184108185111715614fdb57fe5b508260405284359250614fed83615719565b918252602084013591614fff83615719565b82606083015261501160408601614b95565b6080830152815261502460608501614b78565b6020820152949350505050565b60006101608284031215614f5e578081fd5b600060208284031215615054578081fd5b81356131888161574b565b60008060408385031215615071578182fd5b825161507c8161574b565b6020840151909250614bf18161574b565b600080600080600060a086880312156150a4578283fd5b85516150af8161574b565b80955050602086015193506040860151925060608601516150cf8161574b565b60808701519092506150e08161574b565b809150509295509295909350565b600080600080600080600060e0888a031215615108578485fd5b875161511381615719565b60208901519097506151248161573c565b955061513260408901614b83565b945061514060608901614b83565b935061514e60808901614b83565b925060a088015161515e81615760565b60c089015190925061516f8161572e565b8091505092959891949750929550565b600060208284031215615190578081fd5b61141482614b95565b6000602082840312156151aa578081fd5b5035919050565b600080604083850312156151c3578182fd5b823591506020830135614bf181615719565b600080604083850312156151e7578182fd5b505080516020909101519092909150565b6000806000806060858703121561520d578182fd5b8435935060208501359250604085013567ffffffffffffffff80821115615232578384fd5b818701915087601f830112615245578384fd5b813581811115615253578485fd5b886020828501011115615264578485fd5b95989497505060200194505050565b6000815180845261528b8160208601602086016156ed565b601f01601f19169290920160200192915050565b60020b9052565b6001600160801b03169052565b6000828483379101908152919050565b6001600160a01b0391909116815260200190565b600060018060a01b03871682528560020b60208301528460020b60408301526001600160801b038416606083015260a06080830152614aa760a0830184615273565b6001600160a01b03959095168552600293840b60208601529190920b60408401526001600160801b03918216606084015216608082015260a00190565b6001600160a01b039390931683526001600160801b03918216602084015216604082015260600190565b6000602080830181845280855180835260408601915060408482028701019250838701855b828110156153d357603f198886030184526153c1858351615273565b945092850192908501906001016153a5565b5092979650505050505050565b901515815260200190565b90815260200190565b6001600160a01b03929092168252602082015260400190565b600293840b81529190920b60208201526001600160801b03909116604082015260600190565b6000602082526114146020830184615273565b6020808252600c908201526b139bdd08185c1c1c9bdd995960a21b604082015260600190565b6020808252602c908201527f4552433732313a20617070726f76656420717565727920666f72206e6f6e657860408201526b34b9ba32b73a103a37b5b2b760a11b606082015260800190565b602080825260149082015273507269636520736c69707061676520636865636b60601b604082015260600190565b60208082526010908201526f125b9d985b1a59081d1bdad95b88125160821b604082015260600190565b6020808252600b908201526a139bdd0818db19585c995960aa1b604082015260600190565b815180516001600160a01b03908116835260208083015182168185015260409283015162ffffff1692840192909252920151909116606082015260800190565b6001600160801b039390931683526020830191909152604082015260600190565b9384526001600160801b039290921660208401526040830152606082015260800190565b918252602082015260400190565b6001600160601b038d1681526001600160a01b038c811660208301528b811660408301528a16606082015262ffffff89166080820152600288900b60a0820152610180810161561a60c083018961529f565b61562760e08301886152a6565b85610100830152846101208301526156436101408301856152a6565b6156516101608301846152a6565b9d9c50505050505050505050505050565b6000808335601e19843603018112615678578283fd5b83018035915067ffffffffffffffff821115615692578283fd5b60200191503681900382131561396657600080fd5b60405181810167ffffffffffffffff811182821017156156c357fe5b604052919050565b600067ffffffffffffffff8211156156df57fe5b50601f01601f191660200190565b60005b838110156157085781810151838201526020016156f0565b838111156127795750506000910152565b6001600160a01b0381168114614b5c57600080fd5b8015158114614b5c57600080fd5b8060020b8114614b5c57600080fd5b6001600160801b0381168114614b5c57600080fd5b60ff81168114614b5c57600080fdfe456e756d657261626c655365743a20696e646578206f7574206f6620626f756e64734552433732313a207472616e7366657220746f206e6f6e20455243373231526563656976657220696d706c656d656e7465724552433732315065726d69743a20617070726f76616c20746f2063757272656e74206f776e65724552433732313a207472616e7366657220746f20746865207a65726f2061646472657373416464726573733a20696e73756666696369656e742062616c616e636520666f722063616c6c4552433732313a206f70657261746f7220717565727920666f72206e6f6e6578697374656e7420746f6b656e4552433732313a20617070726f76652063616c6c6572206973206e6f74206f776e6572206e6f7220617070726f76656420666f7220616c6c4552433732313a2062616c616e636520717565727920666f7220746865207a65726f20616464726573734552433732313a206f776e657220717565727920666f72206e6f6e6578697374656e7420746f6b656e456e756d657261626c654d61703a20696e646578206f7574206f6620626f756e64734552433732313a207472616e73666572206f6620746f6b656e2074686174206973206e6f74206f776e4552433732313a20617070726f76616c20746f2063757272656e74206f776e65724552433732313a207472616e736665722063616c6c6572206973206e6f74206f776e6572206e6f7220617070726f766564a26469706673582212201207f95ae76d28126f508c98c10489aa1e4116bc7853787f6ca0ebbc343dbb1764736f6c63430007060033",
  "linkReferences": {},
  "deployedLinkReferences": {}
}